{
  "contractName": "ActionMock",
  "abi": [
    {
      "constant": true,
      "inputs": [],
      "name": "activationTime",
      "outputs": [
        {
          "name": "",
          "type": "uint256"
        }
      ],
      "payable": false,
      "stateMutability": "view",
      "type": "function"
    },
    {
      "anonymous": false,
      "inputs": [
        {
          "indexed": false,
          "name": "_addr",
          "type": "address"
        }
      ],
      "name": "WithoutReturnValue",
      "type": "event"
    },
    {
      "anonymous": false,
      "inputs": [
        {
          "indexed": true,
          "name": "_sender",
          "type": "address"
        },
        {
          "indexed": false,
          "name": "_value",
          "type": "uint256"
        }
      ],
      "name": "ReceiveEther",
      "type": "event"
    },
    {
      "constant": false,
      "inputs": [
        {
          "name": "_a",
          "type": "uint256"
        },
        {
          "name": "_b",
          "type": "address"
        },
        {
          "name": "_c",
          "type": "bytes32"
        }
      ],
      "name": "test",
      "outputs": [
        {
          "name": "",
          "type": "uint256"
        }
      ],
      "payable": true,
      "stateMutability": "payable",
      "type": "function"
    },
    {
      "constant": false,
      "inputs": [
        {
          "name": "_addr",
          "type": "address"
        }
      ],
      "name": "test2",
      "outputs": [
        {
          "name": "",
          "type": "bool"
        }
      ],
      "payable": true,
      "stateMutability": "payable",
      "type": "function"
    },
    {
      "constant": false,
      "inputs": [
        {
          "name": "_addr",
          "type": "address"
        }
      ],
      "name": "withoutReturnValue",
      "outputs": [],
      "payable": false,
      "stateMutability": "nonpayable",
      "type": "function"
    },
    {
      "constant": false,
      "inputs": [
        {
          "name": "_activationTime",
          "type": "uint256"
        }
      ],
      "name": "setActivationTime",
      "outputs": [],
      "payable": false,
      "stateMutability": "nonpayable",
      "type": "function"
    },
    {
      "constant": true,
      "inputs": [],
      "name": "test3",
      "outputs": [],
      "payable": false,
      "stateMutability": "view",
      "type": "function"
    }
  ],
  "bytecode": "0x608060405234801561001057600080fd5b50610380806100206000396000f3fe6080604052600436106100555760003560e01c80630a8e8e011461005a5780630db12fad146100715780637c5486a2146100a4578063b11bead4146100ce578063da4493f614610108578063f3e8dcd01461012f575b600080fd5b34801561006657600080fd5b5061006f610161565b005b34801561007d57600080fd5b5061006f6004803603602081101561009457600080fd5b50356001600160a01b03166101a6565b3480156100b057600080fd5b5061006f600480360360208110156100c757600080fd5b503561022f565b6100f4600480360360208110156100e457600080fd5b50356001600160a01b0316610234565b604080519115158252519081900360200190f35b34801561011457600080fd5b5061011d610288565b60408051918252519081900360200190f35b61011d6004803603606081101561014557600080fd5b508035906001600160a01b03602082013516906040013561028e565b60005442116101a457604051600160e51b62461bcd02815260040180806020018281038252602e815260200180610306602e913960400191505060405180910390fd5b565b336001600160a01b038216146101f057604051600160e51b62461bcd0281526004018080602001828103825260218152602001806103346021913960400191505060405180910390fd5b604080516001600160a01b038316815290517f296b3ab69f08b831e3eba781baef82f44885a5d62be6e22903cc9416d47812779181900360200190a150565b600055565b6000336001600160a01b0383161461028057604051600160e51b62461bcd0281526004018080602001828103825260218152602001806103346021913960400191505060405180910390fd5b506001919050565b60005481565b60008360071461029d57600080fd5b6001600160a01b03831630146102b257600080fd5b600160f21b61048d0282146102c657600080fd5b60408051348152905133917ff32a9f77675fd5917534c7746608fd3e309eac68fbdcbf5925e24ca97a704396919081900360200190a25050506002029056fe6e6f772073686f756c642062652067726561746572207468616e207468652061637469766174696f6e2074696d657468652063616c6c6572206d75737420626520657175616c20746f205f61646472a165627a7a72305820051dde3db5513c78393551d637580c462f9a9858e2c15dcc7482bded317bed820029",
  "source": "pragma solidity ^0.5.4;\n\nimport \"../controller/Avatar.sol\";\n\n\ncontract ActionMock {\n\n    event WithoutReturnValue(address _addr);\n    event ReceiveEther(address indexed _sender, uint256 _value);\n\n    uint public activationTime;\n\n    function test(uint256 _a, address _b, bytes32 _c) public payable returns(uint256) {\n        require(_a == 7);\n        require(_b == address(this));\n        require(_c == 0x1234000000000000000000000000000000000000000000000000000000000000);\n        emit ReceiveEther(msg.sender, msg.value);\n        return _a*2;\n    }\n\n    function test2(address _addr) public payable returns(bool) {\n        require(msg.sender == _addr, \"the caller must be equal to _addr\");\n        return true;\n    }\n\n    function withoutReturnValue(address _addr) public {\n        require(msg.sender == _addr, \"the caller must be equal to _addr\");\n        emit WithoutReturnValue(_addr);\n    }\n\n    function setActivationTime(uint _activationTime) public {\n        activationTime = _activationTime;\n    }\n\n    function test3() public view {\n      // solhint-disable-next-line not-rely-on-time\n        require(now > activationTime, \"now should be greater than the activation time\");\n    }\n\n}\n",
  "sourcePath": "/src/contracts/arc/test/ActionMock.sol",
  "compiler": {
    "name": "solc",
    "version": "0.5.6+commit.b259423e.Emscripten.clang"
  },
  "schemaVersion": "3.0.14",
  "updatedAt": "2019-10-26T14:19:12.883Z",
  "devdoc": {
    "methods": {}
  },
  "userdoc": {
    "methods": {}
  }
}