{
  "contractName": "AgreementMock",
  "abi": [
    {
      "constant": true,
      "inputs": [],
      "name": "getAgreementHash",
      "outputs": [
        {
          "name": "",
          "type": "bytes32"
        }
      ],
      "payable": false,
      "stateMutability": "view",
      "type": "function"
    },
    {
      "constant": false,
      "inputs": [
        {
          "name": "_agreementHash",
          "type": "bytes32"
        }
      ],
      "name": "setAgreementHashTest",
      "outputs": [],
      "payable": false,
      "stateMutability": "nonpayable",
      "type": "function"
    },
    {
      "constant": true,
      "inputs": [
        {
          "name": "_agreementHash",
          "type": "bytes32"
        }
      ],
      "name": "test",
      "outputs": [
        {
          "name": "",
          "type": "bool"
        }
      ],
      "payable": false,
      "stateMutability": "view",
      "type": "function"
    }
  ],
  "bytecode": "0x608060405234801561001057600080fd5b506101c2806100206000396000f3fe608060405234801561001057600080fd5b50600436106100415760003560e01c8063696da9211461004657806398d3642e14610060578063993723211461007f575b600080fd5b61004e6100b0565b60408051918252519081900360200190f35b61007d6004803603602081101561007657600080fd5b50356100b6565b005b61009c6004803603602081101561009557600080fd5b50356100c2565b604080519115158252519081900360200190f35b60005490565b6100bf81610111565b50565b600081600054811461010857604051600160e51b62461bcd02815260040180806020018281038252602881526020018061016f6028913960400191505060405180910390fd5b50600192915050565b600054156101695760408051600160e51b62461bcd02815260206004820152601b60248201527f43616e206e6f74207365742061677265656d656e742074776963650000000000604482015290519081900360640190fd5b60005556fe53656e646572206d7573742073656e64207468652072696768742061677265656d656e7448617368a165627a7a723058204ef1ebb4ab06b044371b104564425d86f806ec5280f98888c81769fccf2f8d1a0029",
  "source": "pragma solidity ^0.5.4;\n\nimport \"../schemes/Agreement.sol\";\n\n\ncontract AgreementMock is Agreement {\n\n    function setAgreementHashTest(bytes32 _agreementHash) public\n    {\n        super.setAgreementHash(_agreementHash);\n    }\n\n    function test(bytes32 _agreementHash) public onlyAgree(_agreementHash) view returns(bool)\n    {\n        return true;\n    }\n}\n",
  "sourcePath": "/src/contracts/arc/test/AgreementMock.sol",
  "compiler": {
    "name": "solc",
    "version": "0.5.6+commit.b259423e.Emscripten.clang"
  },
  "schemaVersion": "3.0.14",
  "updatedAt": "2019-10-27T20:10:40.585Z",
  "devdoc": {
    "methods": {
      "getAgreementHash()": {
        "details": "getAgreementHash",
        "return": "bytes32 agreementHash"
      }
    }
  },
  "userdoc": {
    "methods": {}
  }
}