{
  "contractName": "ARCVotingMachineCallbacksMock",
  "abi": [
    {
      "constant": true,
      "inputs": [
        {
          "name": "",
          "type": "address"
        },
        {
          "name": "",
          "type": "bytes32"
        }
      ],
      "name": "proposalsInfo",
      "outputs": [
        {
          "name": "blockNumber",
          "type": "uint256"
        },
        {
          "name": "avatar",
          "type": "address"
        }
      ],
      "payable": false,
      "stateMutability": "view",
      "type": "function"
    },
    {
      "constant": true,
      "inputs": [
        {
          "name": "_stakingToken",
          "type": "address"
        },
        {
          "name": "_proposalId",
          "type": "bytes32"
        }
      ],
      "name": "balanceOfStakingToken",
      "outputs": [
        {
          "name": "",
          "type": "uint256"
        }
      ],
      "payable": false,
      "stateMutability": "view",
      "type": "function"
    },
    {
      "constant": true,
      "inputs": [
        {
          "name": "_owner",
          "type": "address"
        },
        {
          "name": "_proposalId",
          "type": "bytes32"
        }
      ],
      "name": "reputationOf",
      "outputs": [
        {
          "name": "",
          "type": "uint256"
        }
      ],
      "payable": false,
      "stateMutability": "view",
      "type": "function"
    },
    {
      "constant": true,
      "inputs": [
        {
          "name": "_proposalId",
          "type": "bytes32"
        }
      ],
      "name": "getTotalReputationSupply",
      "outputs": [
        {
          "name": "",
          "type": "uint256"
        }
      ],
      "payable": false,
      "stateMutability": "view",
      "type": "function"
    },
    {
      "constant": false,
      "inputs": [
        {
          "name": "_stakingToken",
          "type": "address"
        },
        {
          "name": "_beneficiary",
          "type": "address"
        },
        {
          "name": "_amount",
          "type": "uint256"
        },
        {
          "name": "_proposalId",
          "type": "bytes32"
        }
      ],
      "name": "stakingTokenTransfer",
      "outputs": [
        {
          "name": "",
          "type": "bool"
        }
      ],
      "payable": false,
      "stateMutability": "nonpayable",
      "type": "function"
    },
    {
      "constant": false,
      "inputs": [
        {
          "name": "_amount",
          "type": "uint256"
        },
        {
          "name": "_beneficiary",
          "type": "address"
        },
        {
          "name": "_proposalId",
          "type": "bytes32"
        }
      ],
      "name": "mintReputation",
      "outputs": [
        {
          "name": "",
          "type": "bool"
        }
      ],
      "payable": false,
      "stateMutability": "nonpayable",
      "type": "function"
    },
    {
      "constant": false,
      "inputs": [
        {
          "name": "_amount",
          "type": "uint256"
        },
        {
          "name": "_beneficiary",
          "type": "address"
        },
        {
          "name": "_proposalId",
          "type": "bytes32"
        }
      ],
      "name": "burnReputation",
      "outputs": [
        {
          "name": "",
          "type": "bool"
        }
      ],
      "payable": false,
      "stateMutability": "nonpayable",
      "type": "function"
    },
    {
      "constant": false,
      "inputs": [
        {
          "name": "_proposalId",
          "type": "bytes32"
        },
        {
          "name": "_avatar",
          "type": "address"
        },
        {
          "name": "_votingMachine",
          "type": "address"
        }
      ],
      "name": "propose",
      "outputs": [],
      "payable": false,
      "stateMutability": "nonpayable",
      "type": "function"
    }
  ],
  "bytecode": "0x608060405234801561001057600080fd5b50610ad5806100206000396000f3fe608060405234801561001057600080fd5b50600436106100885760003560e01c8063b8752ba31161005b578063b8752ba314610161578063bea75f2814610197578063d29b5d2f146101e7578063f81f8bf61461021957610088565b806360bdbb3f1461008d5780636b8eb403146100da5780639588378e14610118578063b551c37314610144575b600080fd5b6100b9600480360360408110156100a357600080fd5b506001600160a01b03813516906020013561024b565b604080519283526001600160a01b0390911660208301528051918290030190f35b610106600480360360408110156100f057600080fd5b506001600160a01b038135169060200135610275565b60408051918252519081900360200190f35b6101066004803603604081101561012e57600080fd5b506001600160a01b038135169060200135610335565b6101066004803603602081101561015a57600080fd5b5035610446565b6101956004803603606081101561017757600080fd5b508035906001600160a01b0360208201358116916040013516610583565b005b6101d3600480360360808110156101ad57600080fd5b506001600160a01b038135811691602081013590911690604081013590606001356105db565b604080519115158252519081900360200190f35b6101d3600480360360608110156101fd57600080fd5b508035906001600160a01b036020820135169060400135610786565b6101d36004803603606081101561022f57600080fd5b508035906001600160a01b036020820135169060400135610928565b6000602081815292815260408082209093529081522080546001909101546001600160a01b031682565b336000908152602081815260408083208484529091528120600101546001600160a01b0316806102a957600091505061032f565b836001600160a01b03166370a08231826040518263ffffffff1660e01b815260040180826001600160a01b03166001600160a01b0316815260200191505060206040518083038186803b1580156102ff57600080fd5b505afa158015610313573d6000803e3d6000fd5b505050506040513d602081101561032957600080fd5b50519150505b92915050565b600061033f610a92565b5033600090815260208181526040808320858452825291829020825180840190935280548352600101546001600160a01b031690820181905261038657600091505061032f565b80602001516001600160a01b03166389ae1c906040518163ffffffff1660e01b815260040160206040518083038186803b1580156103c357600080fd5b505afa1580156103d7573d6000803e3d6000fd5b505050506040513d60208110156103ed57600080fd5b5051815160408051600160e11b63277166bf0281526001600160a01b038881166004830152602482019390935290519190921691634ee2cd7e916044808301926020929190829003018186803b1580156102ff57600080fd5b6000610450610a92565b5033600090815260208181526040808320858452825291829020825180840190935280548352600101546001600160a01b031690820181905261049757600091505061057e565b80602001516001600160a01b03166389ae1c906040518163ffffffff1660e01b815260040160206040518083038186803b1580156104d457600080fd5b505afa1580156104e8573d6000803e3d6000fd5b505050506040513d60208110156104fe57600080fd5b5051815160408051600160e41b630981b24d0281526004810192909252516001600160a01b039092169163981b24d091602480820192602092909190829003018186803b15801561054e57600080fd5b505afa158015610562573d6000803e3d6000fd5b505050506040513d602081101561057857600080fd5b50519150505b919050565b6040805180820182524381526001600160a01b03938416602080830191825293851660009081528085528381209681529590935293209251835551600190920180546001600160a01b03191692909116919091179055565b3360009081526020818152604080832084845290915281206001015482906001600160a01b031661064e5760408051600160e51b62461bcd0281526020600482015260126024820152600160701b716f6e6c7920566f74696e674d616368696e6502604482015290519081900360640190fd5b336000908152602081815260408083208684529091529020600101546001600160a01b03168061068257600092505061077d565b806001600160a01b0316638da5cb5b6040518163ffffffff1660e01b815260040160206040518083038186803b1580156106bb57600080fd5b505afa1580156106cf573d6000803e3d6000fd5b505050506040513d60208110156106e557600080fd5b505160408051600160e01b63b9a04cdd0281526001600160a01b038a8116600483015289811660248301526044820189905284811660648301529151919092169163b9a04cdd9160848083019260209291908290030181600087803b15801561074d57600080fd5b505af1158015610761573d6000803e3d6000fd5b505050506040513d602081101561077757600080fd5b50519250505b50949350505050565b3360009081526020818152604080832084845290915281206001015482906001600160a01b03166107f95760408051600160e51b62461bcd0281526020600482015260126024820152600160701b716f6e6c7920566f74696e674d616368696e6502604482015290519081900360640190fd5b336000908152602081815260408083208684529091529020600101546001600160a01b03168061082d576000925050610920565b806001600160a01b0316638da5cb5b6040518163ffffffff1660e01b815260040160206040518083038186803b15801561086657600080fd5b505afa15801561087a573d6000803e3d6000fd5b505050506040513d602081101561089057600080fd5b505160408051600160e11b63757cca59028152600481018990526001600160a01b03888116602483015284811660448301529151919092169163eaf994b29160648083019260209291908290030181600087803b1580156108f057600080fd5b505af1158015610904573d6000803e3d6000fd5b505050506040513d602081101561091a57600080fd5b50519250505b509392505050565b3360009081526020818152604080832084845290915281206001015482906001600160a01b031661099b5760408051600160e51b62461bcd0281526020600482015260126024820152600160701b716f6e6c7920566f74696e674d616368696e6502604482015290519081900360640190fd5b336000908152602081815260408083208684529091529020600101546001600160a01b0316806109cf576000925050610920565b806001600160a01b0316638da5cb5b6040518163ffffffff1660e01b815260040160206040518083038186803b158015610a0857600080fd5b505afa158015610a1c573d6000803e3d6000fd5b505050506040513d6020811015610a3257600080fd5b505160408051600160e31b630dd29a4f028152600481018990526001600160a01b038881166024830152848116604483015291519190921691636e94d2789160648083019260209291908290030181600087803b1580156108f057600080fd5b60408051808201909152600080825260208201529056fea165627a7a723058204f397f3e58c265981100b14a917b46b330111ae1ee9533837e98813b223b94900029",
  "source": "pragma solidity ^0.5.4;\n\nimport \"../votingMachines/VotingMachineCallbacks.sol\";\n\n\ncontract ARCVotingMachineCallbacksMock is VotingMachineCallbacks {\n\n    function propose(bytes32 _proposalId, Avatar _avatar, address _votingMachine) public {\n        proposalsInfo[_votingMachine][_proposalId] = ProposalInfo({\n            blockNumber:block.number,\n            avatar:_avatar\n        });\n    }\n}\n",
  "sourcePath": "/src/contracts/arc/test/ARCGenesisProtocolCallbacksMock.sol",
  "compiler": {
    "name": "solc",
    "version": "0.5.6+commit.b259423e.Emscripten.clang"
  },
  "schemaVersion": "3.0.14",
  "updatedAt": "2019-09-25T20:55:56.639Z",
  "devdoc": {
    "methods": {}
  },
  "userdoc": {
    "methods": {}
  }
}