{
  "contractName": "BadERC20",
  "abi": [
    {
      "constant": true,
      "inputs": [
        {
          "name": "",
          "type": "address"
        }
      ],
      "name": "balances",
      "outputs": [
        {
          "name": "",
          "type": "uint256"
        }
      ],
      "payable": false,
      "stateMutability": "view",
      "type": "function"
    },
    {
      "constant": true,
      "inputs": [
        {
          "name": "",
          "type": "address"
        },
        {
          "name": "",
          "type": "address"
        }
      ],
      "name": "allowance",
      "outputs": [
        {
          "name": "",
          "type": "uint256"
        }
      ],
      "payable": false,
      "stateMutability": "view",
      "type": "function"
    },
    {
      "constant": false,
      "inputs": [
        {
          "name": "_to",
          "type": "address"
        },
        {
          "name": "_value",
          "type": "uint256"
        }
      ],
      "name": "transfer",
      "outputs": [],
      "payable": false,
      "stateMutability": "nonpayable",
      "type": "function"
    },
    {
      "constant": false,
      "inputs": [
        {
          "name": "",
          "type": "address"
        },
        {
          "name": "_to",
          "type": "address"
        },
        {
          "name": "_value",
          "type": "uint256"
        }
      ],
      "name": "transferFrom",
      "outputs": [],
      "payable": false,
      "stateMutability": "nonpayable",
      "type": "function"
    },
    {
      "constant": false,
      "inputs": [
        {
          "name": "_spender",
          "type": "address"
        },
        {
          "name": "_value",
          "type": "uint256"
        }
      ],
      "name": "approve",
      "outputs": [],
      "payable": false,
      "stateMutability": "nonpayable",
      "type": "function"
    }
  ],
  "bytecode": "0x608060405234801561001057600080fd5b50610216806100206000396000f3fe608060405234801561001057600080fd5b50600436106100575760003560e01c8063095ea7b31461005c57806323b872dd1461008a57806327e235e3146100c0578063a9059cbb146100f8578063dd62ed3e14610124575b600080fd5b6100886004803603604081101561007257600080fd5b506001600160a01b038135169060200135610152565b005b610088600480360360608110156100a057600080fd5b506001600160a01b0381358116916020810135909116906040013561017c565b6100e6600480360360208110156100d657600080fd5b50356001600160a01b031661019f565b60408051918252519081900360200190f35b6100886004803603604081101561010e57600080fd5b506001600160a01b0381351690602001356101b1565b6100e66004803603604081101561013a57600080fd5b506001600160a01b03813581169160200135166101cd565b3360009081526001602090815260408083206001600160a01b039590951683529390529190912055565b6001600160a01b0390911660009081526020819052604090208054909101905550565b60006020819052908152604090205481565b6001600160a01b03909116600090815260208190526040902055565b60016020908152600092835260408084209091529082529020548156fea165627a7a72305820a166a5993954d3e5660be5e5e332193e1fa73c9e64d91d3e0dee2c4915f5d4d50029",
  "source": "pragma solidity ^0.5.4;\n\n//this is a mock to simulate bad ERC20 token implementation as describe at\n//https://github.com/ethereum/solidity/issues/4116\ncontract BadERC20 {\n\n    mapping(address => uint256) public balances;\n    mapping (address => mapping (address => uint256)) public allowance;\n\n    function transfer(address _to, uint256 _value) public {\n        balances[_to] = _value;\n    }\n\n    function transferFrom(address, address _to, uint256 _value) public {\n        balances[_to] += _value;\n    }\n\n    function approve(address _spender, uint256 _value) public {\n        allowance[msg.sender][_spender] = _value;\n    }\n\n}\n",
  "sourcePath": "/src/contracts/arc/test/BadERC20.sol",
  "compiler": {
    "name": "solc",
    "version": "0.5.6+commit.b259423e.Emscripten.clang"
  },
  "schemaVersion": "3.0.14",
  "updatedAt": "2019-11-03T19:26:01.545Z",
  "devdoc": {
    "methods": {}
  },
  "userdoc": {
    "methods": {}
  }
}