{
  "contractName": "Controller",
  "abi": [
    {
      "constant": true,
      "inputs": [
        {
          "name": "",
          "type": "address"
        }
      ],
      "name": "globalConstraintsRegisterPre",
      "outputs": [
        {
          "name": "isRegistered",
          "type": "bool"
        },
        {
          "name": "index",
          "type": "uint256"
        }
      ],
      "payable": false,
      "stateMutability": "view",
      "type": "function"
    },
    {
      "constant": true,
      "inputs": [],
      "name": "newController",
      "outputs": [
        {
          "name": "",
          "type": "address"
        }
      ],
      "payable": false,
      "stateMutability": "view",
      "type": "function"
    },
    {
      "constant": true,
      "inputs": [
        {
          "name": "",
          "type": "uint256"
        }
      ],
      "name": "globalConstraintsPre",
      "outputs": [
        {
          "name": "gcAddress",
          "type": "address"
        },
        {
          "name": "params",
          "type": "bytes32"
        }
      ],
      "payable": false,
      "stateMutability": "view",
      "type": "function"
    },
    {
      "constant": true,
      "inputs": [],
      "name": "avatar",
      "outputs": [
        {
          "name": "",
          "type": "address"
        }
      ],
      "payable": false,
      "stateMutability": "view",
      "type": "function"
    },
    {
      "constant": true,
      "inputs": [
        {
          "name": "",
          "type": "address"
        }
      ],
      "name": "globalConstraintsRegisterPost",
      "outputs": [
        {
          "name": "isRegistered",
          "type": "bool"
        },
        {
          "name": "index",
          "type": "uint256"
        }
      ],
      "payable": false,
      "stateMutability": "view",
      "type": "function"
    },
    {
      "constant": true,
      "inputs": [],
      "name": "nativeReputation",
      "outputs": [
        {
          "name": "",
          "type": "address"
        }
      ],
      "payable": false,
      "stateMutability": "view",
      "type": "function"
    },
    {
      "constant": true,
      "inputs": [
        {
          "name": "",
          "type": "address"
        }
      ],
      "name": "schemes",
      "outputs": [
        {
          "name": "paramsHash",
          "type": "bytes32"
        },
        {
          "name": "permissions",
          "type": "bytes4"
        }
      ],
      "payable": false,
      "stateMutability": "view",
      "type": "function"
    },
    {
      "constant": true,
      "inputs": [],
      "name": "nativeToken",
      "outputs": [
        {
          "name": "",
          "type": "address"
        }
      ],
      "payable": false,
      "stateMutability": "view",
      "type": "function"
    },
    {
      "constant": true,
      "inputs": [
        {
          "name": "",
          "type": "uint256"
        }
      ],
      "name": "globalConstraintsPost",
      "outputs": [
        {
          "name": "gcAddress",
          "type": "address"
        },
        {
          "name": "params",
          "type": "bytes32"
        }
      ],
      "payable": false,
      "stateMutability": "view",
      "type": "function"
    },
    {
      "inputs": [
        {
          "name": "_avatar",
          "type": "address"
        }
      ],
      "payable": false,
      "stateMutability": "nonpayable",
      "type": "constructor"
    },
    {
      "payable": false,
      "stateMutability": "nonpayable",
      "type": "fallback"
    },
    {
      "anonymous": false,
      "inputs": [
        {
          "indexed": true,
          "name": "_sender",
          "type": "address"
        },
        {
          "indexed": true,
          "name": "_to",
          "type": "address"
        },
        {
          "indexed": false,
          "name": "_amount",
          "type": "uint256"
        }
      ],
      "name": "MintReputation",
      "type": "event"
    },
    {
      "anonymous": false,
      "inputs": [
        {
          "indexed": true,
          "name": "_sender",
          "type": "address"
        },
        {
          "indexed": true,
          "name": "_from",
          "type": "address"
        },
        {
          "indexed": false,
          "name": "_amount",
          "type": "uint256"
        }
      ],
      "name": "BurnReputation",
      "type": "event"
    },
    {
      "anonymous": false,
      "inputs": [
        {
          "indexed": true,
          "name": "_sender",
          "type": "address"
        },
        {
          "indexed": true,
          "name": "_beneficiary",
          "type": "address"
        },
        {
          "indexed": false,
          "name": "_amount",
          "type": "uint256"
        }
      ],
      "name": "MintTokens",
      "type": "event"
    },
    {
      "anonymous": false,
      "inputs": [
        {
          "indexed": true,
          "name": "_sender",
          "type": "address"
        },
        {
          "indexed": true,
          "name": "_scheme",
          "type": "address"
        }
      ],
      "name": "RegisterScheme",
      "type": "event"
    },
    {
      "anonymous": false,
      "inputs": [
        {
          "indexed": true,
          "name": "_sender",
          "type": "address"
        },
        {
          "indexed": true,
          "name": "_scheme",
          "type": "address"
        }
      ],
      "name": "UnregisterScheme",
      "type": "event"
    },
    {
      "anonymous": false,
      "inputs": [
        {
          "indexed": true,
          "name": "_oldController",
          "type": "address"
        },
        {
          "indexed": false,
          "name": "_newController",
          "type": "address"
        }
      ],
      "name": "UpgradeController",
      "type": "event"
    },
    {
      "anonymous": false,
      "inputs": [
        {
          "indexed": true,
          "name": "_globalConstraint",
          "type": "address"
        },
        {
          "indexed": false,
          "name": "_params",
          "type": "bytes32"
        },
        {
          "indexed": false,
          "name": "_when",
          "type": "uint8"
        }
      ],
      "name": "AddGlobalConstraint",
      "type": "event"
    },
    {
      "anonymous": false,
      "inputs": [
        {
          "indexed": true,
          "name": "_globalConstraint",
          "type": "address"
        },
        {
          "indexed": false,
          "name": "_index",
          "type": "uint256"
        },
        {
          "indexed": false,
          "name": "_isPre",
          "type": "bool"
        }
      ],
      "name": "RemoveGlobalConstraint",
      "type": "event"
    },
    {
      "constant": false,
      "inputs": [
        {
          "name": "_amount",
          "type": "uint256"
        },
        {
          "name": "_to",
          "type": "address"
        },
        {
          "name": "_avatar",
          "type": "address"
        }
      ],
      "name": "mintReputation",
      "outputs": [
        {
          "name": "",
          "type": "bool"
        }
      ],
      "payable": false,
      "stateMutability": "nonpayable",
      "type": "function"
    },
    {
      "constant": false,
      "inputs": [
        {
          "name": "_amount",
          "type": "uint256"
        },
        {
          "name": "_from",
          "type": "address"
        },
        {
          "name": "_avatar",
          "type": "address"
        }
      ],
      "name": "burnReputation",
      "outputs": [
        {
          "name": "",
          "type": "bool"
        }
      ],
      "payable": false,
      "stateMutability": "nonpayable",
      "type": "function"
    },
    {
      "constant": false,
      "inputs": [
        {
          "name": "_amount",
          "type": "uint256"
        },
        {
          "name": "_beneficiary",
          "type": "address"
        },
        {
          "name": "_avatar",
          "type": "address"
        }
      ],
      "name": "mintTokens",
      "outputs": [
        {
          "name": "",
          "type": "bool"
        }
      ],
      "payable": false,
      "stateMutability": "nonpayable",
      "type": "function"
    },
    {
      "constant": false,
      "inputs": [
        {
          "name": "_scheme",
          "type": "address"
        },
        {
          "name": "_paramsHash",
          "type": "bytes32"
        },
        {
          "name": "_permissions",
          "type": "bytes4"
        },
        {
          "name": "_avatar",
          "type": "address"
        }
      ],
      "name": "registerScheme",
      "outputs": [
        {
          "name": "",
          "type": "bool"
        }
      ],
      "payable": false,
      "stateMutability": "nonpayable",
      "type": "function"
    },
    {
      "constant": false,
      "inputs": [
        {
          "name": "_scheme",
          "type": "address"
        },
        {
          "name": "_avatar",
          "type": "address"
        }
      ],
      "name": "unregisterScheme",
      "outputs": [
        {
          "name": "",
          "type": "bool"
        }
      ],
      "payable": false,
      "stateMutability": "nonpayable",
      "type": "function"
    },
    {
      "constant": false,
      "inputs": [
        {
          "name": "_avatar",
          "type": "address"
        }
      ],
      "name": "unregisterSelf",
      "outputs": [
        {
          "name": "",
          "type": "bool"
        }
      ],
      "payable": false,
      "stateMutability": "nonpayable",
      "type": "function"
    },
    {
      "constant": false,
      "inputs": [
        {
          "name": "_globalConstraint",
          "type": "address"
        },
        {
          "name": "_params",
          "type": "bytes32"
        },
        {
          "name": "_avatar",
          "type": "address"
        }
      ],
      "name": "addGlobalConstraint",
      "outputs": [
        {
          "name": "",
          "type": "bool"
        }
      ],
      "payable": false,
      "stateMutability": "nonpayable",
      "type": "function"
    },
    {
      "constant": false,
      "inputs": [
        {
          "name": "_globalConstraint",
          "type": "address"
        },
        {
          "name": "_avatar",
          "type": "address"
        }
      ],
      "name": "removeGlobalConstraint",
      "outputs": [
        {
          "name": "",
          "type": "bool"
        }
      ],
      "payable": false,
      "stateMutability": "nonpayable",
      "type": "function"
    },
    {
      "constant": false,
      "inputs": [
        {
          "name": "_newController",
          "type": "address"
        },
        {
          "name": "_avatar",
          "type": "address"
        }
      ],
      "name": "upgradeController",
      "outputs": [
        {
          "name": "",
          "type": "bool"
        }
      ],
      "payable": false,
      "stateMutability": "nonpayable",
      "type": "function"
    },
    {
      "constant": false,
      "inputs": [
        {
          "name": "_contract",
          "type": "address"
        },
        {
          "name": "_data",
          "type": "bytes"
        },
        {
          "name": "_avatar",
          "type": "address"
        },
        {
          "name": "_value",
          "type": "uint256"
        }
      ],
      "name": "genericCall",
      "outputs": [
        {
          "name": "",
          "type": "bool"
        },
        {
          "name": "",
          "type": "bytes"
        }
      ],
      "payable": false,
      "stateMutability": "nonpayable",
      "type": "function"
    },
    {
      "constant": false,
      "inputs": [
        {
          "name": "_amountInWei",
          "type": "uint256"
        },
        {
          "name": "_to",
          "type": "address"
        },
        {
          "name": "_avatar",
          "type": "address"
        }
      ],
      "name": "sendEther",
      "outputs": [
        {
          "name": "",
          "type": "bool"
        }
      ],
      "payable": false,
      "stateMutability": "nonpayable",
      "type": "function"
    },
    {
      "constant": false,
      "inputs": [
        {
          "name": "_externalToken",
          "type": "address"
        },
        {
          "name": "_to",
          "type": "address"
        },
        {
          "name": "_value",
          "type": "uint256"
        },
        {
          "name": "_avatar",
          "type": "address"
        }
      ],
      "name": "externalTokenTransfer",
      "outputs": [
        {
          "name": "",
          "type": "bool"
        }
      ],
      "payable": false,
      "stateMutability": "nonpayable",
      "type": "function"
    },
    {
      "constant": false,
      "inputs": [
        {
          "name": "_externalToken",
          "type": "address"
        },
        {
          "name": "_from",
          "type": "address"
        },
        {
          "name": "_to",
          "type": "address"
        },
        {
          "name": "_value",
          "type": "uint256"
        },
        {
          "name": "_avatar",
          "type": "address"
        }
      ],
      "name": "externalTokenTransferFrom",
      "outputs": [
        {
          "name": "",
          "type": "bool"
        }
      ],
      "payable": false,
      "stateMutability": "nonpayable",
      "type": "function"
    },
    {
      "constant": false,
      "inputs": [
        {
          "name": "_externalToken",
          "type": "address"
        },
        {
          "name": "_spender",
          "type": "address"
        },
        {
          "name": "_value",
          "type": "uint256"
        },
        {
          "name": "_avatar",
          "type": "address"
        }
      ],
      "name": "externalTokenApproval",
      "outputs": [
        {
          "name": "",
          "type": "bool"
        }
      ],
      "payable": false,
      "stateMutability": "nonpayable",
      "type": "function"
    },
    {
      "constant": false,
      "inputs": [
        {
          "name": "_metaData",
          "type": "string"
        },
        {
          "name": "_avatar",
          "type": "address"
        }
      ],
      "name": "metaData",
      "outputs": [
        {
          "name": "",
          "type": "bool"
        }
      ],
      "payable": false,
      "stateMutability": "nonpayable",
      "type": "function"
    },
    {
      "constant": true,
      "inputs": [
        {
          "name": "_avatar",
          "type": "address"
        }
      ],
      "name": "getNativeReputation",
      "outputs": [
        {
          "name": "",
          "type": "address"
        }
      ],
      "payable": false,
      "stateMutability": "view",
      "type": "function"
    },
    {
      "constant": true,
      "inputs": [
        {
          "name": "_scheme",
          "type": "address"
        },
        {
          "name": "_avatar",
          "type": "address"
        }
      ],
      "name": "isSchemeRegistered",
      "outputs": [
        {
          "name": "",
          "type": "bool"
        }
      ],
      "payable": false,
      "stateMutability": "view",
      "type": "function"
    },
    {
      "constant": true,
      "inputs": [
        {
          "name": "_scheme",
          "type": "address"
        },
        {
          "name": "_avatar",
          "type": "address"
        }
      ],
      "name": "getSchemeParameters",
      "outputs": [
        {
          "name": "",
          "type": "bytes32"
        }
      ],
      "payable": false,
      "stateMutability": "view",
      "type": "function"
    },
    {
      "constant": true,
      "inputs": [
        {
          "name": "_scheme",
          "type": "address"
        },
        {
          "name": "_avatar",
          "type": "address"
        }
      ],
      "name": "getSchemePermissions",
      "outputs": [
        {
          "name": "",
          "type": "bytes4"
        }
      ],
      "payable": false,
      "stateMutability": "view",
      "type": "function"
    },
    {
      "constant": true,
      "inputs": [
        {
          "name": "_globalConstraint",
          "type": "address"
        },
        {
          "name": "",
          "type": "address"
        }
      ],
      "name": "getGlobalConstraintParameters",
      "outputs": [
        {
          "name": "",
          "type": "bytes32"
        }
      ],
      "payable": false,
      "stateMutability": "view",
      "type": "function"
    },
    {
      "constant": true,
      "inputs": [
        {
          "name": "_avatar",
          "type": "address"
        }
      ],
      "name": "globalConstraintsCount",
      "outputs": [
        {
          "name": "",
          "type": "uint256"
        },
        {
          "name": "",
          "type": "uint256"
        }
      ],
      "payable": false,
      "stateMutability": "view",
      "type": "function"
    },
    {
      "constant": true,
      "inputs": [
        {
          "name": "_globalConstraint",
          "type": "address"
        },
        {
          "name": "_avatar",
          "type": "address"
        }
      ],
      "name": "isGlobalConstraintRegistered",
      "outputs": [
        {
          "name": "",
          "type": "bool"
        }
      ],
      "payable": false,
      "stateMutability": "view",
      "type": "function"
    }
  ],
  "bytecode": "0x60806040523480156200001157600080fd5b5060405160208062003b9b833981018060405260208110156200003357600080fd5b5051600180546001600160a01b0319166001600160a01b038084169190911791829055604080517fe1758bd80000000000000000000000000000000000000000000000000000000081529051929091169163e1758bd891600480820192602092909190829003018186803b158015620000ab57600080fd5b505afa158015620000c0573d6000803e3d6000fd5b505050506040513d6020811015620000d757600080fd5b5051600280546001600160a01b0319166001600160a01b03928316179055600154604080517f89ae1c90000000000000000000000000000000000000000000000000000000008152905191909216916389ae1c90916004808301926020929190829003018186803b1580156200014c57600080fd5b505afa15801562000161573d6000803e3d6000fd5b505050506040513d60208110156200017857600080fd5b5051600380546001600160a01b0319166001600160a01b039092169190911790555060408051808201825260008082527c1f000000000000000000000000000000000000000000000000000000006020808401918252338352829052928120915182559151600191909101805463ffffffff191660e09290921c9190911790556139929081906200020990396000f3fe608060405234801561001057600080fd5b50600436106101e55760003560e01c806389ae1c901161010f578063e08738da116100a2578063e8c98b2211610071578063e8c98b221461083e578063eaf994b21461085b578063f76488be1461088f578063fb4856a2146108bd576101e5565b8063e08738da1461078e578063e1758bd8146107bc578063e4537a74146107c4578063e869d45f146107fa576101e5565b8063b9a04cdd116100de578063b9a04cdd1461057f578063c9b62eb1146105bb578063d1b7089a14610634578063db6149ce14610746576101e5565b806389ae1c90146104d85780638da03997146104e05780639b51e35a146105065780639be2faed14610551576101e5565b806351803cd8116101875780636c525b13116101565780636c525b13146104195780636e94d2781461043f578063814784f614610473578063824f2f1f14610499576101e5565b806351803cd81461036d5780635aef7de6146103a9578063634965da146103b15780636407e432146103e5576101e5565b80633a02263c116101c35780633a02263c146102ad57806342427bf8146102d15780634422d372146102ff5780634f52b5be1461033f576101e5565b8063039de01d146101ea578063177eebb01461022c5780631c4d56081461026d575b600080fd5b6102186004803603604081101561020057600080fd5b506001600160a01b0381358116916020013516610903565b604080519115158252519081900360200190f35b6102526004803603602081101561024257600080fd5b50356001600160a01b0316610c19565b60408051921515835260208301919091528051918290030190f35b61029b6004803603604081101561028357600080fd5b506001600160a01b0381358116916020013516610c38565b60408051918252519081900360200190f35b6102b5610c7a565b604080516001600160a01b039092168252519081900360200190f35b610218600480360360408110156102e757600080fd5b506001600160a01b0381358116916020013516610c89565b61031c6004803603602081101561031557600080fd5b503561115a565b604080516001600160a01b03909316835260208301919091528051918290030190f35b6102186004803603604081101561035557600080fd5b506001600160a01b038135811691602001351661118f565b6102186004803603608081101561038357600080fd5b506001600160a01b0381358116916020810135821691604082013591606001351661158a565b6102b5611871565b610218600480360360608110156103c757600080fd5b508035906001600160a01b0360208201358116916040013516611880565b610218600480360360608110156103fb57600080fd5b508035906001600160a01b0360208201358116916040013516611b4d565b6102186004803603602081101561042f57600080fd5b50356001600160a01b0316611e52565b6102186004803603606081101561045557600080fd5b508035906001600160a01b0360208201358116916040013516611ed9565b6102526004803603602081101561048957600080fd5b50356001600160a01b03166121ee565b6104bf600480360360208110156104af57600080fd5b50356001600160a01b031661220d565b6040805192835260208301919091528051918290030190f35b6102b561223f565b6102b5600480360360208110156104f657600080fd5b50356001600160a01b031661224e565b6105346004803603604081101561051c57600080fd5b506001600160a01b0381358116916020013516612280565b604080516001600160e01b03199092168252519081900360200190f35b6102186004803603604081101561056757600080fd5b506001600160a01b03813581169160200135166122c3565b6102186004803603608081101561059557600080fd5b506001600160a01b038135811691602081013582169160408201359160600135166122f3565b610218600480360360408110156105d157600080fd5b8101906020810181356401000000008111156105ec57600080fd5b8201836020820111156105fe57600080fd5b8035906020019184600183028401116401000000008311171561062057600080fd5b9193509150356001600160a01b03166125d0565b6106c36004803603608081101561064a57600080fd5b6001600160a01b03823516919081019060408101602082013564010000000081111561067557600080fd5b82018360208201111561068757600080fd5b803590602001918460018302840111640100000000831117156106a957600080fd5b91935091506001600160a01b0381351690602001356126c3565b604051808315151515815260200180602001828103825283818151815260200191508051906020019080838360005b8381101561070a5781810151838201526020016106f2565b50505050905090810190601f1680156107375780820380516001836020036101000a031916815260200191505b50935050505060405180910390f35b61076c6004803603602081101561075c57600080fd5b50356001600160a01b0316612a37565b604080519283526001600160e01b031990911660208301528051918290030190f35b61029b600480360360408110156107a457600080fd5b506001600160a01b0381358116916020013516612a53565b6102b5612b1f565b610218600480360360608110156107da57600080fd5b506001600160a01b03813581169160208101359160409091013516612b2e565b6102186004803603608081101561081057600080fd5b506001600160a01b0381358116916020810135916001600160e01b0319604083013516916060013516612efa565b61031c6004803603602081101561085457600080fd5b503561324c565b6102186004803603606081101561087157600080fd5b508035906001600160a01b0360208201358116916040013516613259565b610218600480360360408110156108a557600080fd5b506001600160a01b038135811691602001351661356e565b610218600480360360a08110156108d357600080fd5b506001600160a01b03813581169160208101358216916040820135811691606081013591608090910135166135d0565b3360009081526020819052604081206001015460e01b600160e11b9081161461092b57600080fd5b7f756e7265676973746572536368656d650000000000000000000000000000000060005b600554811015610a3f576005818154811061096657fe5b6000918252602090912060029091020154600580546001600160a01b039092169163c1786ab29133918590811061099957fe5b906000526020600020906002020160010154856040518463ffffffff1660e01b815260040180846001600160a01b03166001600160a01b031681526020018381526020018281526020019350505050602060405180830381600087803b158015610a0257600080fd5b505af1158015610a16573d6000803e3d6000fd5b505050506040513d6020811015610a2c57600080fd5b5051610a3757600080fd5b60010161094f565b60015484906001600160a01b03808316911614610a5b57600080fd5b610a64866138c0565b610a715760009350610b1b565b336000908152602081905260408082206001908101546001600160a01b038a168452919092209091015460e091821b19911b16600160e01b601f021615610ab757600080fd5b6040516001600160a01b0387169033907f10bb2cf04cb8b902a8e736d494f1a51003be6d4b16ef6fb95ce62c38445023bf90600090a36001600160a01b03861660009081526020819052604081209081556001908101805463ffffffff1916905593505b50600090505b600654811015610c115760068181548110610b3857fe5b6000918252602090912060029091020154600680546001600160a01b0390921691638043154d91339185908110610b6b57fe5b906000526020600020906002020160010154856040518463ffffffff1660e01b815260040180846001600160a01b03166001600160a01b031681526020018381526020018281526020019350505050602060405180830381600087803b158015610bd457600080fd5b505af1158015610be8573d6000803e3d6000fd5b505050506040513d6020811015610bfe57600080fd5b5051610c0957600080fd5b600101610b21565b505092915050565b6007602052600090815260409020805460019091015460ff9091169082565b60015460009082906001600160a01b03808316911614610c5757600080fd5b6001600160a01b03841660009081526020819052604090205491505b5092915050565b6004546001600160a01b031681565b3360009081526020819052604081206001015460e01b600160e31b90811614610cb157600080fd5b60015482906001600160a01b03808316911614610ccd57600080fd5b6004546001600160a01b031615610ce357600080fd5b6001600160a01b038416610cf657600080fd5b600480546001600160a01b0319166001600160a01b03868116918217835560015460408051600160e01b63f2fde38b02815294850193909352915191169163f2fde38b91602480830192600092919082900301818387803b158015610d5a57600080fd5b505af1158015610d6e573d6000803e3d6000fd5b50505050836001600160a01b0316600160009054906101000a90046001600160a01b03166001600160a01b0316638da5cb5b6040518163ffffffff1660e01b815260040160206040518083038186803b158015610dca57600080fd5b505afa158015610dde573d6000803e3d6000fd5b505050506040513d6020811015610df457600080fd5b50516001600160a01b031614610e0957600080fd5b60025460408051600160e01b638da5cb5b028152905130926001600160a01b031691638da5cb5b916004808301926020929190829003018186803b158015610e5057600080fd5b505afa158015610e64573d6000803e3d6000fd5b505050506040513d6020811015610e7a57600080fd5b50516001600160a01b03161415610f8b5760025460408051600160e01b63f2fde38b0281526001600160a01b0387811660048301529151919092169163f2fde38b91602480830192600092919082900301818387803b158015610edc57600080fd5b505af1158015610ef0573d6000803e3d6000fd5b50505050836001600160a01b0316600260009054906101000a90046001600160a01b03166001600160a01b0316638da5cb5b6040518163ffffffff1660e01b815260040160206040518083038186803b158015610f4c57600080fd5b505afa158015610f60573d6000803e3d6000fd5b505050506040513d6020811015610f7657600080fd5b50516001600160a01b031614610f8b57600080fd5b60035460408051600160e01b638da5cb5b028152905130926001600160a01b031691638da5cb5b916004808301926020929190829003018186803b158015610fd257600080fd5b505afa158015610fe6573d6000803e3d6000fd5b505050506040513d6020811015610ffc57600080fd5b50516001600160a01b0316141561110d5760035460408051600160e01b63f2fde38b0281526001600160a01b0387811660048301529151919092169163f2fde38b91602480830192600092919082900301818387803b15801561105e57600080fd5b505af1158015611072573d6000803e3d6000fd5b50505050836001600160a01b0316600360009054906101000a90046001600160a01b03166001600160a01b0316638da5cb5b6040518163ffffffff1660e01b815260040160206040518083038186803b1580156110ce57600080fd5b505afa1580156110e2573d6000803e3d6000fd5b505050506040513d60208110156110f857600080fd5b50516001600160a01b03161461110d57600080fd5b600454604080516001600160a01b039290921682525130917fdb7cbacf8df312d794506c0cc9af07f64d29ca075796ea2e950a3832cc9a63dd919081900360200190a25060019392505050565b6005818154811061116757fe5b6000918252602090912060029091020180546001909101546001600160a01b03909116915082565b3360009081526020819052604081206001015460e01b600160e21b908116146111b757600080fd5b60015482906001600160a01b038083169116146111d357600080fd5b6111db6138ec565b6111e36138ec565b6000866001600160a01b031663e2b0caef6040518163ffffffff1660e01b8152600401602060405180830381600087803b15801561122057600080fd5b505af1158015611234573d6000803e3d6000fd5b505050506040513d602081101561124a57600080fd5b5051905060008082600281111561125d57fe5b14806112745750600282600281111561127257fe5b145b156113b8576001600160a01b0388166000908152600760209081526040918290208251808401909352805460ff161580158452600190910154918301919091529094506113b85760016005805490500384602001511015611379576005805460001981019081106112e157fe5b60009182526020918290206040805180820190915260029092020180546001600160a01b03168252600101548183015290850151600580549295508592909190811061132957fe5b6000918252602080832084516002939093020180546001600160a01b0319166001600160a01b03938416178155938101516001948501558781015187519092168352600790526040909120909101555b600580549061138c906000198301613903565b50506001600160a01b0387166000908152600760205260408120805460ff191681556001908101919091555b60018260028111156113c657fe5b14806113dd575060028260028111156113db57fe5b145b15611521576001600160a01b0388166000908152600860209081526040918290208251808401909352805460ff1615801584526001909101549183019190915290945061152157600160068054905003846020015110156114e25760068054600019810190811061144a57fe5b60009182526020918290206040805180820190915260029092020180546001600160a01b03168252600101548183015290850151600680549295508592909190811061149257fe5b6000918252602080832084516002939093020180546001600160a01b0319166001600160a01b03938416178155938101516001948501558781015187519092168352600890526040909120909101555b60068054906114f5906000198301613903565b50506001600160a01b0387166000908152600860205260408120805460ff191681556001908101919091555b801561157f5760208401516001600160a01b038916907fcdf1a50ea6b7de555bd409f8a4a53ea43c6dc6b4caa961889da9e005f21bbaa990600085600281111561156757fe5b60408051938452911460208301528051918290030190a25b979650505050505050565b3360009081526020819052604081206001015460e01b600160e01b908116146115b257600080fd5b7f65787465726e616c546f6b656e496e637265617365417070726f76616c00000060005b6005548110156116c657600581815481106115ed57fe5b6000918252602090912060029091020154600580546001600160a01b039092169163c1786ab29133918590811061162057fe5b906000526020600020906002020160010154856040518463ffffffff1660e01b815260040180846001600160a01b03166001600160a01b031681526020018381526020018281526020019350505050602060405180830381600087803b15801561168957600080fd5b505af115801561169d573d6000803e3d6000fd5b505050506040513d60208110156116b357600080fd5b50516116be57600080fd5b6001016115d6565b60015484906001600160a01b038083169116146116e257600080fd5b60015460408051600160e01b63ab751f710281526001600160a01b038b811660048301528a81166024830152604482018a90529151919092169163ab751f719160648083019260209291908290030181600087803b15801561174357600080fd5b505af1158015611757573d6000803e3d6000fd5b505050506040513d602081101561176d57600080fd5b5051935050600090505b600654811015611867576006818154811061178e57fe5b6000918252602090912060029091020154600680546001600160a01b0390921691638043154d913391859081106117c157fe5b906000526020600020906002020160010154856040518463ffffffff1660e01b815260040180846001600160a01b03166001600160a01b031681526020018381526020018281526020019350505050602060405180830381600087803b15801561182a57600080fd5b505af115801561183e573d6000803e3d6000fd5b505050506040513d602081101561185457600080fd5b505161185f57600080fd5b600101611777565b5050949350505050565b6001546001600160a01b031681565b3360009081526020819052604081206001015460e01b600160e01b908116146118a857600080fd5b600160b91b6839b2b73222ba3432b90260005b6005548110156119ab57600581815481106118d257fe5b6000918252602090912060029091020154600580546001600160a01b039092169163c1786ab29133918590811061190557fe5b906000526020600020906002020160010154856040518463ffffffff1660e01b815260040180846001600160a01b03166001600160a01b031681526020018381526020018281526020019350505050602060405180830381600087803b15801561196e57600080fd5b505af1158015611982573d6000803e3d6000fd5b505050506040513d602081101561199857600080fd5b50516119a357600080fd5b6001016118bb565b60015484906001600160a01b038083169116146119c757600080fd5b60015460408051600160e11b63658b6a51028152600481018a90526001600160a01b0389811660248301529151919092169163cb16d4a29160448083019260209291908290030181600087803b158015611a2057600080fd5b505af1158015611a34573d6000803e3d6000fd5b505050506040513d6020811015611a4a57600080fd5b5051935050600090505b600654811015611b445760068181548110611a6b57fe5b6000918252602090912060029091020154600680546001600160a01b0390921691638043154d91339185908110611a9e57fe5b906000526020600020906002020160010154856040518463ffffffff1660e01b815260040180846001600160a01b03166001600160a01b031681526020018381526020018281526020019350505050602060405180830381600087803b158015611b0757600080fd5b505af1158015611b1b573d6000803e3d6000fd5b505050506040513d6020811015611b3157600080fd5b5051611b3c57600080fd5b600101611a54565b50509392505050565b3360009081526020819052604081206001015460e01b600160e01b90811614611b7557600080fd5b600160b01b696d696e74546f6b656e730260005b600554811015611c795760058181548110611ba057fe5b6000918252602090912060029091020154600580546001600160a01b039092169163c1786ab291339185908110611bd357fe5b906000526020600020906002020160010154856040518463ffffffff1660e01b815260040180846001600160a01b03166001600160a01b031681526020018381526020018281526020019350505050602060405180830381600087803b158015611c3c57600080fd5b505af1158015611c50573d6000803e3d6000fd5b505050506040513d6020811015611c6657600080fd5b5051611c7157600080fd5b600101611b89565b60015484906001600160a01b03808316911614611c9557600080fd5b6040805188815290516001600160a01b0388169133917f21f9c9a1a1f9a311a50f15fec5c1faa9e21fc9edf964f0fdecba5bd490484c5e9181900360200190a360025460408051600160e01b6340c10f190281526001600160a01b038981166004830152602482018b9052915191909216916340c10f199160448083019260209291908290030181600087803b158015611d2e57600080fd5b505af1158015611d42573d6000803e3d6000fd5b505050506040513d6020811015611d5857600080fd5b5051935050600090505b600654811015611b445760068181548110611d7957fe5b6000918252602090912060029091020154600680546001600160a01b0390921691638043154d91339185908110611dac57fe5b906000526020600020906002020160010154856040518463ffffffff1660e01b815260040180846001600160a01b03166001600160a01b031681526020018381526020018281526020019350505050602060405180830381600087803b158015611e1557600080fd5b505af1158015611e29573d6000803e3d6000fd5b505050506040513d6020811015611e3f57600080fd5b5051611e4a57600080fd5b600101611d62565b60015460009082906001600160a01b03808316911614611e7157600080fd5b611e7a336138c0565b611e875760009150611ed3565b33600081815260208190526040808220828155600101805463ffffffff191690555182917f10bb2cf04cb8b902a8e736d494f1a51003be6d4b16ef6fb95ce62c38445023bf91a3600191505b50919050565b3360009081526020819052604081206001015460e01b600160e01b90811614611f0157600080fd5b7f6275726e52657075746174696f6e00000000000000000000000000000000000060005b6005548110156120155760058181548110611f3c57fe5b6000918252602090912060029091020154600580546001600160a01b039092169163c1786ab291339185908110611f6f57fe5b906000526020600020906002020160010154856040518463ffffffff1660e01b815260040180846001600160a01b03166001600160a01b031681526020018381526020018281526020019350505050602060405180830381600087803b158015611fd857600080fd5b505af1158015611fec573d6000803e3d6000fd5b505050506040513d602081101561200257600080fd5b505161200d57600080fd5b600101611f25565b60015484906001600160a01b0380831691161461203157600080fd5b6040805188815290516001600160a01b0388169133917f186d8887e1b22f9d9b16849c36baa748950d09d9c9b67a4a6ea140eaad00c21c9181900360200190a360035460408051600160e21b632770a7eb0281526001600160a01b038981166004830152602482018b905291519190921691639dc29fac9160448083019260209291908290030181600087803b1580156120ca57600080fd5b505af11580156120de573d6000803e3d6000fd5b505050506040513d60208110156120f457600080fd5b5051935050600090505b600654811015611b44576006818154811061211557fe5b6000918252602090912060029091020154600680546001600160a01b0390921691638043154d9133918590811061214857fe5b906000526020600020906002020160010154856040518463ffffffff1660e01b815260040180846001600160a01b03166001600160a01b031681526020018381526020018281526020019350505050602060405180830381600087803b1580156121b157600080fd5b505af11580156121c5573d6000803e3d6000fd5b505050506040513d60208110156121db57600080fd5b50516121e657600080fd5b6001016120fe565b6008602052600090815260409020805460019091015460ff9091169082565b600154600090819083906001600160a01b0380831691161461222e57600080fd5b600554600654909350915050915091565b6003546001600160a01b031681565b60015460009082906001600160a01b0380831691161461226d57600080fd5b50506003546001600160a01b0316919050565b60015460009082906001600160a01b0380831691161461229f57600080fd5b5050506001600160a01b031660009081526020819052604090206001015460e01b90565b60015460009082906001600160a01b038083169116146122e257600080fd5b6122eb846138c0565b949350505050565b3360009081526020819052604081206001015460e01b600160e01b9081161461231b57600080fd5b7f65787465726e616c546f6b656e5472616e73666572000000000000000000000060005b60055481101561242f576005818154811061235657fe5b6000918252602090912060029091020154600580546001600160a01b039092169163c1786ab29133918590811061238957fe5b906000526020600020906002020160010154856040518463ffffffff1660e01b815260040180846001600160a01b03166001600160a01b031681526020018381526020018281526020019350505050602060405180830381600087803b1580156123f257600080fd5b505af1158015612406573d6000803e3d6000fd5b505050506040513d602081101561241c57600080fd5b505161242757600080fd5b60010161233f565b60015484906001600160a01b0380831691161461244b57600080fd5b60015460408051600160e01b63dab0efff0281526001600160a01b038b811660048301528a81166024830152604482018a90529151919092169163dab0efff9160648083019260209291908290030181600087803b1580156124ac57600080fd5b505af11580156124c0573d6000803e3d6000fd5b505050506040513d60208110156124d657600080fd5b5051935050600090505b60065481101561186757600681815481106124f757fe5b6000918252602090912060029091020154600680546001600160a01b0390921691638043154d9133918590811061252a57fe5b906000526020600020906002020160010154856040518463ffffffff1660e01b815260040180846001600160a01b03166001600160a01b031681526020018381526020018281526020019350505050602060405180830381600087803b15801561259357600080fd5b505af11580156125a7573d6000803e3d6000fd5b505050506040513d60208110156125bd57600080fd5b50516125c857600080fd5b6001016124e0565b3360009081526020819052604081206001015460e01b600160e41b908116146125f857600080fd5b60015482906001600160a01b0380831691161461261457600080fd5b600154604051600160e21b632242b11b028152602060048201908152602482018790526001600160a01b039092169163890ac46c91889188918190604401848480828437600081840152601f19601f8201169050808301925050509350505050602060405180830381600087803b15801561268e57600080fd5b505af11580156126a2573d6000803e3d6000fd5b505050506040513d60208110156126b857600080fd5b505195945050505050565b3360009081526020819052604081206001015460609060e01b600160e41b908116146126ee57600080fd5b600160aa1b6a19d95b995c9a58d0d85b1b0260005b6005548110156127f3576005818154811061271a57fe5b6000918252602090912060029091020154600580546001600160a01b039092169163c1786ab29133918590811061274d57fe5b906000526020600020906002020160010154856040518463ffffffff1660e01b815260040180846001600160a01b03166001600160a01b031681526020018381526020018281526020019350505050602060405180830381600087803b1580156127b657600080fd5b505af11580156127ca573d6000803e3d6000fd5b505050506040513d60208110156127e057600080fd5b50516127eb57600080fd5b600101612703565b60015486906001600160a01b0380831691161461280f57600080fd5b600154604051600160e31b63057e2c8b0281526001600160a01b038c811660048301908152604483018a9052606060248401908152606484018d90529190931692632bf16458928e928e928e928d9290608401858580828437600081840152601f19601f82011690508083019250505095505050505050600060405180830381600087803b1580156128a057600080fd5b505af11580156128b4573d6000803e3d6000fd5b505050506040513d6000823e601f3d908101601f1916820160409081528110156128dd57600080fd5b8151602083018051919392830192916401000000008111156128fe57600080fd5b8201602081018481111561291157600080fd5b815164010000000081118282018710171561292b57600080fd5b5094995097505050505050600090505b600654811015612a2b576006818154811061295257fe5b6000918252602090912060029091020154600680546001600160a01b0390921691638043154d9133918590811061298557fe5b906000526020600020906002020160010154856040518463ffffffff1660e01b815260040180846001600160a01b03166001600160a01b031681526020018381526020018281526020019350505050602060405180830381600087803b1580156129ee57600080fd5b505af1158015612a02573d6000803e3d6000fd5b505050506040513d6020811015612a1857600080fd5b5051612a2357600080fd5b60010161293b565b50509550959350505050565b6000602081905290815260409020805460019091015460e01b82565b6000612a5d6138ec565b506001600160a01b0383166000908152600760209081526040918290208251808401909352805460ff16158015845260019091015491830191909152612ac8576005816020015181548110612aae57fe5b906000526020600020906002020160010154915050612b19565b506001600160a01b0383166000908152600860209081526040918290208251808401909352805460ff16158015845260019091015491830191909152610c73576006816020015181548110612aae57fe5b92915050565b6002546001600160a01b031681565b3360009081526020819052604081206001015460e01b600160e21b90811614612b5657600080fd5b60015482906001600160a01b03808316911614612b7257600080fd5b6000856001600160a01b031663e2b0caef6040518163ffffffff1660e01b8152600401602060405180830381600087803b158015612baf57600080fd5b505af1158015612bc3573d6000803e3d6000fd5b505050506040513d6020811015612bd957600080fd5b505190506000816002811115612beb57fe5b1480612c0257506002816002811115612c0057fe5b145b15612d3a576001600160a01b03861660009081526007602052604090205460ff16612cf9576040805180820182526001600160a01b0388811680835260208084018a81526005805460018082018355600083815297517f036b6384b5eca791c62761152d0c79bb0604c104a5fb6f4eb0703f3154bb3db0600290930292830180546001600160a01b031916919098161790965591517f036b6384b5eca791c62761152d0c79bb0604c104a5fb6f4eb0703f3154bb3db190920191909155855180870187528481529054600019018183019081529285526007909152939092209251835460ff19169015151783559051910155612d3a565b6001600160a01b038616600090815260076020526040902060010154600580548792908110612d2457fe5b9060005260206000209060020201600101819055505b6001816002811115612d4857fe5b1480612d5f57506002816002811115612d5d57fe5b145b15612e97576001600160a01b03861660009081526008602052604090205460ff16612e56576040805180820182526001600160a01b0388811680835260208084018a81526006805460018082018355600083815297517ff652222313e28459528d920b65115c16c04f3efc82aaedc97be59f3f377c0d3f600290930292830180546001600160a01b031916919098161790965591517ff652222313e28459528d920b65115c16c04f3efc82aaedc97be59f3f377c0d4090920191909155855180870187528481529054600019018183019081529285526008909152939092209251835460ff19169015151783559051910155612e97565b6001600160a01b038616600090815260086020526040902060010154600680548792908110612e8157fe5b9060005260206000209060020201600101819055505b856001600160a01b03167f78800d7333b8d0174a0845569e3913b7ce4a3c03ca444dd9904172fc14f2fdad868360405180838152602001826002811115612eda57fe5b60ff1681526020019250505060405180910390a250600195945050505050565b3360009081526020819052604081206001015460e01b600160e11b90811614612f2257600080fd5b7f7265676973746572536368656d6500000000000000000000000000000000000060005b6005548110156130365760058181548110612f5d57fe5b6000918252602090912060029091020154600580546001600160a01b039092169163c1786ab291339185908110612f9057fe5b906000526020600020906002020160010154856040518463ffffffff1660e01b815260040180846001600160a01b03166001600160a01b031681526020018381526020018281526020019350505050602060405180830381600087803b158015612ff957600080fd5b505af115801561300d573d6000803e3d6000fd5b505050506040513d602081101561302357600080fd5b505161302e57600080fd5b600101612f46565b60015484906001600160a01b0380831691161461305257600080fd5b61305a6138ec565b506001600160a01b03881660009081526020818152604080832081518083018352815481526001918201546001600160e01b031960e091821b16828601908152338752948690529290942001549151891891901b1916600160e01b601f0216156130c357600080fd5b336000908152602081815260409091206001015490820151600160e01b601f0260e09290921b191616156130f657600080fd5b6001600160a01b0389166000818152602081905260408082208b8155600101805463ffffffff1916600160e01b8c1760e01c1790555133917f546816e99403df442acb68ef69562682a50762c20a3fb6b472f7af9923736cfc91a3600194505050600090505b600654811015611867576006818154811061317357fe5b6000918252602090912060029091020154600680546001600160a01b0390921691638043154d913391859081106131a657fe5b906000526020600020906002020160010154856040518463ffffffff1660e01b815260040180846001600160a01b03166001600160a01b031681526020018381526020018281526020019350505050602060405180830381600087803b15801561320f57600080fd5b505af1158015613223573d6000803e3d6000fd5b505050506040513d602081101561323957600080fd5b505161324457600080fd5b60010161315c565b6006818154811061116757fe5b3360009081526020819052604081206001015460e01b600160e01b9081161461328157600080fd5b7f6d696e7452657075746174696f6e00000000000000000000000000000000000060005b60055481101561339557600581815481106132bc57fe5b6000918252602090912060029091020154600580546001600160a01b039092169163c1786ab2913391859081106132ef57fe5b906000526020600020906002020160010154856040518463ffffffff1660e01b815260040180846001600160a01b03166001600160a01b031681526020018381526020018281526020019350505050602060405180830381600087803b15801561335857600080fd5b505af115801561336c573d6000803e3d6000fd5b505050506040513d602081101561338257600080fd5b505161338d57600080fd5b6001016132a5565b60015484906001600160a01b038083169116146133b157600080fd5b6040805188815290516001600160a01b0388169133917f837f2931e3df0592458212be4e470025f197feb7a8e39deb5b7f1f1d42e6f2629181900360200190a360035460408051600160e01b6340c10f190281526001600160a01b038981166004830152602482018b9052915191909216916340c10f199160448083019260209291908290030181600087803b15801561344a57600080fd5b505af115801561345e573d6000803e3d6000fd5b505050506040513d602081101561347457600080fd5b5051935050600090505b600654811015611b44576006818154811061349557fe5b6000918252602090912060029091020154600680546001600160a01b0390921691638043154d913391859081106134c857fe5b906000526020600020906002020160010154856040518463ffffffff1660e01b815260040180846001600160a01b03166001600160a01b031681526020018381526020018281526020019350505050602060405180830381600087803b15801561353157600080fd5b505af1158015613545573d6000803e3d6000fd5b505050506040513d602081101561355b57600080fd5b505161356657600080fd5b60010161347e565b60015460009082906001600160a01b0380831691161461358d57600080fd5b6001600160a01b03841660009081526007602052604090205460ff16806122eb57505050506001600160a01b031660009081526008602052604090205460ff1690565b3360009081526020819052604081206001015460e01b600160e01b908116146135f857600080fd5b7f65787465726e616c546f6b656e5472616e7366657246726f6d0000000000000060005b60055481101561370c576005818154811061363357fe5b6000918252602090912060029091020154600580546001600160a01b039092169163c1786ab29133918590811061366657fe5b906000526020600020906002020160010154856040518463ffffffff1660e01b815260040180846001600160a01b03166001600160a01b031681526020018381526020018281526020019350505050602060405180830381600087803b1580156136cf57600080fd5b505af11580156136e3573d6000803e3d6000fd5b505050506040513d60208110156136f957600080fd5b505161370457600080fd5b60010161361c565b60015484906001600160a01b0380831691161461372857600080fd5b60015460408051600160e11b635bab6ad10281526001600160a01b038c811660048301528b811660248301528a81166044830152606482018a90529151919092169163b756d5a29160848083019260209291908290030181600087803b15801561379157600080fd5b505af11580156137a5573d6000803e3d6000fd5b505050506040513d60208110156137bb57600080fd5b5051935050600090505b6006548110156138b557600681815481106137dc57fe5b6000918252602090912060029091020154600680546001600160a01b0390921691638043154d9133918590811061380f57fe5b906000526020600020906002020160010154856040518463ffffffff1660e01b815260040180846001600160a01b03166001600160a01b031681526020018381526020018281526020019350505050602060405180830381600087803b15801561387857600080fd5b505af115801561388c573d6000803e3d6000fd5b505050506040513d60208110156138a257600080fd5b50516138ad57600080fd5b6001016137c5565b505095945050505050565b6001600160a01b03811660009081526020819052604090206001015460e01b600160e01b161515919050565b604080518082019091526000808252602082015290565b81548183558181111561392f5760020281600202836000526020600020918201910161392f9190613934565b505050565b61396391905b8082111561395f5780546001600160a01b03191681556000600182015560020161393a565b5090565b9056fea165627a7a723058206620763b19bda1e64d2939d9e2b095d8916723aebb44150e07a24bb6dbacd92c0029",
  "source": "pragma solidity ^0.5.4;\n\nimport \"./Avatar.sol\";\nimport \"../globalConstraints/GlobalConstraintInterface.sol\";\nimport \"./ControllerInterface.sol\";\n\n\n/**\n * @title Controller contract\n * @dev A controller controls the organizations tokens, reputation and avatar.\n * It is subject to a set of schemes and constraints that determine its behavior.\n * Each scheme has it own parameters and operation permissions.\n */\ncontract Controller is ControllerInterface {\n\n    struct Scheme {\n        bytes32 paramsHash;  // a hash \"configuration\" of the scheme\n        bytes4  permissions; // A bitwise flags of permissions,\n                             // All 0: Not registered,\n                             // 1st bit: Flag if the scheme is registered,\n                             // 2nd bit: Scheme can register other schemes\n                             // 3rd bit: Scheme can add/remove global constraints\n                             // 4th bit: Scheme can upgrade the controller\n                             // 5th bit: Scheme can call genericCall on behalf of\n                             //          the organization avatar\n    }\n\n    struct GlobalConstraint {\n        address gcAddress;\n        bytes32 params;\n    }\n\n    struct GlobalConstraintRegister {\n        bool isRegistered; //is registered\n        uint256 index;    //index at globalConstraints\n    }\n\n    mapping(address=>Scheme) public schemes;\n\n    Avatar public avatar;\n    DAOToken public nativeToken;\n    Reputation public nativeReputation;\n  // newController will point to the new controller after the present controller is upgraded\n    address public newController;\n  // globalConstraintsPre that determine pre conditions for all actions on the controller\n\n    GlobalConstraint[] public globalConstraintsPre;\n  // globalConstraintsPost that determine post conditions for all actions on the controller\n    GlobalConstraint[] public globalConstraintsPost;\n  // globalConstraintsRegisterPre indicate if a globalConstraints is registered as a pre global constraint\n    mapping(address=>GlobalConstraintRegister) public globalConstraintsRegisterPre;\n  // globalConstraintsRegisterPost indicate if a globalConstraints is registered as a post global constraint\n    mapping(address=>GlobalConstraintRegister) public globalConstraintsRegisterPost;\n\n    event MintReputation (address indexed _sender, address indexed _to, uint256 _amount);\n    event BurnReputation (address indexed _sender, address indexed _from, uint256 _amount);\n    event MintTokens (address indexed _sender, address indexed _beneficiary, uint256 _amount);\n    event RegisterScheme (address indexed _sender, address indexed _scheme);\n    event UnregisterScheme (address indexed _sender, address indexed _scheme);\n    event UpgradeController(address indexed _oldController, address _newController);\n\n    event AddGlobalConstraint(\n        address indexed _globalConstraint,\n        bytes32 _params,\n        GlobalConstraintInterface.CallPhase _when);\n\n    event RemoveGlobalConstraint(address indexed _globalConstraint, uint256 _index, bool _isPre);\n\n    constructor( Avatar _avatar) public {\n        avatar = _avatar;\n        nativeToken = avatar.nativeToken();\n        nativeReputation = avatar.nativeReputation();\n        schemes[msg.sender] = Scheme({paramsHash: bytes32(0), permissions: bytes4(0x0000001F)});\n    }\n\n  // Do not allow mistaken calls:\n   // solhint-disable-next-line payable-fallback\n    function() external {\n        revert();\n    }\n\n  // Modifiers:\n    modifier onlyRegisteredScheme() {\n        require(schemes[msg.sender].permissions&bytes4(0x00000001) == bytes4(0x00000001));\n        _;\n    }\n\n    modifier onlyRegisteringSchemes() {\n        require(schemes[msg.sender].permissions&bytes4(0x00000002) == bytes4(0x00000002));\n        _;\n    }\n\n    modifier onlyGlobalConstraintsScheme() {\n        require(schemes[msg.sender].permissions&bytes4(0x00000004) == bytes4(0x00000004));\n        _;\n    }\n\n    modifier onlyUpgradingScheme() {\n        require(schemes[msg.sender].permissions&bytes4(0x00000008) == bytes4(0x00000008));\n        _;\n    }\n\n    modifier onlyGenericCallScheme() {\n        require(schemes[msg.sender].permissions&bytes4(0x00000010) == bytes4(0x00000010));\n        _;\n    }\n\n    modifier onlyMetaDataScheme() {\n        require(schemes[msg.sender].permissions&bytes4(0x00000010) == bytes4(0x00000010));\n        _;\n    }\n\n    modifier onlySubjectToConstraint(bytes32 func) {\n        uint256 idx;\n        for (idx = 0; idx < globalConstraintsPre.length; idx++) {\n            require(\n            (GlobalConstraintInterface(globalConstraintsPre[idx].gcAddress))\n            .pre(msg.sender, globalConstraintsPre[idx].params, func));\n        }\n        _;\n        for (idx = 0; idx < globalConstraintsPost.length; idx++) {\n            require(\n            (GlobalConstraintInterface(globalConstraintsPost[idx].gcAddress))\n            .post(msg.sender, globalConstraintsPost[idx].params, func));\n        }\n    }\n\n    modifier isAvatarValid(address _avatar) {\n        require(_avatar == address(avatar));\n        _;\n    }\n\n    /**\n     * @dev Mint `_amount` of reputation that are assigned to `_to` .\n     * @param  _amount amount of reputation to mint\n     * @param _to beneficiary address\n     * @return bool which represents a success\n     */\n    function mintReputation(uint256 _amount, address _to, address _avatar)\n    external\n    onlyRegisteredScheme\n    onlySubjectToConstraint(\"mintReputation\")\n    isAvatarValid(_avatar)\n    returns(bool)\n    {\n        emit MintReputation(msg.sender, _to, _amount);\n        return nativeReputation.mint(_to, _amount);\n    }\n\n    /**\n     * @dev Burns `_amount` of reputation from `_from`\n     * @param _amount amount of reputation to burn\n     * @param _from The address that will lose the reputation\n     * @return bool which represents a success\n     */\n    function burnReputation(uint256 _amount, address _from, address _avatar)\n    external\n    onlyRegisteredScheme\n    onlySubjectToConstraint(\"burnReputation\")\n    isAvatarValid(_avatar)\n    returns(bool)\n    {\n        emit BurnReputation(msg.sender, _from, _amount);\n        return nativeReputation.burn(_from, _amount);\n    }\n\n    /**\n     * @dev mint tokens .\n     * @param  _amount amount of token to mint\n     * @param _beneficiary beneficiary address\n     * @return bool which represents a success\n     */\n    function mintTokens(uint256 _amount, address _beneficiary, address _avatar)\n    external\n    onlyRegisteredScheme\n    onlySubjectToConstraint(\"mintTokens\")\n    isAvatarValid(_avatar)\n    returns(bool)\n    {\n        emit MintTokens(msg.sender, _beneficiary, _amount);\n        return nativeToken.mint(_beneficiary, _amount);\n    }\n\n  /**\n   * @dev register a scheme\n   * @param _scheme the address of the scheme\n   * @param _paramsHash a hashed configuration of the usage of the scheme\n   * @param _permissions the permissions the new scheme will have\n   * @return bool which represents a success\n   */\n    function registerScheme(address _scheme, bytes32 _paramsHash, bytes4 _permissions, address _avatar)\n    external\n    onlyRegisteringSchemes\n    onlySubjectToConstraint(\"registerScheme\")\n    isAvatarValid(_avatar)\n    returns(bool)\n    {\n\n        Scheme memory scheme = schemes[_scheme];\n\n    // Check scheme has at least the permissions it is changing, and at least the current permissions:\n    // Implementation is a bit messy. One must recall logic-circuits ^^\n\n    // produces non-zero if sender does not have all of the perms that are changing between old and new\n        require(bytes4(0x0000001f)&(_permissions^scheme.permissions)&(~schemes[msg.sender].permissions) == bytes4(0));\n\n    // produces non-zero if sender does not have all of the perms in the old scheme\n        require(bytes4(0x0000001f)&(scheme.permissions&(~schemes[msg.sender].permissions)) == bytes4(0));\n\n    // Add or change the scheme:\n        schemes[_scheme].paramsHash = _paramsHash;\n        schemes[_scheme].permissions = _permissions|bytes4(0x00000001);\n        emit RegisterScheme(msg.sender, _scheme);\n        return true;\n    }\n\n    /**\n     * @dev unregister a scheme\n     * @param _scheme the address of the scheme\n     * @return bool which represents a success\n     */\n    function unregisterScheme( address _scheme, address _avatar)\n    external\n    onlyRegisteringSchemes\n    onlySubjectToConstraint(\"unregisterScheme\")\n    isAvatarValid(_avatar)\n    returns(bool)\n    {\n    //check if the scheme is registered\n        if (_isSchemeRegistered(_scheme) == false) {\n            return false;\n        }\n    // Check the unregistering scheme has enough permissions:\n        require(bytes4(0x0000001f)&(schemes[_scheme].permissions&(~schemes[msg.sender].permissions)) == bytes4(0));\n\n    // Unregister:\n        emit UnregisterScheme(msg.sender, _scheme);\n        delete schemes[_scheme];\n        return true;\n    }\n\n    /**\n     * @dev unregister the caller's scheme\n     * @return bool which represents a success\n     */\n    function unregisterSelf(address _avatar) external isAvatarValid(_avatar) returns(bool) {\n        if (_isSchemeRegistered(msg.sender) == false) {\n            return false;\n        }\n        delete schemes[msg.sender];\n        emit UnregisterScheme(msg.sender, msg.sender);\n        return true;\n    }\n\n    /**\n     * @dev add or update Global Constraint\n     * @param _globalConstraint the address of the global constraint to be added.\n     * @param _params the constraint parameters hash.\n     * @return bool which represents a success\n     */\n    function addGlobalConstraint(address _globalConstraint, bytes32 _params, address _avatar)\n    external\n    onlyGlobalConstraintsScheme\n    isAvatarValid(_avatar)\n    returns(bool)\n    {\n        GlobalConstraintInterface.CallPhase when = GlobalConstraintInterface(_globalConstraint).when();\n        if ((when == GlobalConstraintInterface.CallPhase.Pre)||\n            (when == GlobalConstraintInterface.CallPhase.PreAndPost)) {\n            if (!globalConstraintsRegisterPre[_globalConstraint].isRegistered) {\n                globalConstraintsPre.push(GlobalConstraint(_globalConstraint, _params));\n                globalConstraintsRegisterPre[_globalConstraint] =\n                GlobalConstraintRegister(true, globalConstraintsPre.length-1);\n            }else {\n                globalConstraintsPre[globalConstraintsRegisterPre[_globalConstraint].index].params = _params;\n            }\n        }\n        if ((when == GlobalConstraintInterface.CallPhase.Post)||\n            (when == GlobalConstraintInterface.CallPhase.PreAndPost)) {\n            if (!globalConstraintsRegisterPost[_globalConstraint].isRegistered) {\n                globalConstraintsPost.push(GlobalConstraint(_globalConstraint, _params));\n                globalConstraintsRegisterPost[_globalConstraint] =\n                GlobalConstraintRegister(true, globalConstraintsPost.length-1);\n            }else {\n                globalConstraintsPost[globalConstraintsRegisterPost[_globalConstraint].index].params = _params;\n            }\n        }\n        emit AddGlobalConstraint(_globalConstraint, _params, when);\n        return true;\n    }\n\n    /**\n     * @dev remove Global Constraint\n     * @param _globalConstraint the address of the global constraint to be remove.\n     * @return bool which represents a success\n     */\n     // solhint-disable-next-line code-complexity\n    function removeGlobalConstraint (address _globalConstraint, address _avatar)\n    external\n    onlyGlobalConstraintsScheme\n    isAvatarValid(_avatar)\n    returns(bool)\n    {\n        GlobalConstraintRegister memory globalConstraintRegister;\n        GlobalConstraint memory globalConstraint;\n        GlobalConstraintInterface.CallPhase when = GlobalConstraintInterface(_globalConstraint).when();\n        bool retVal = false;\n\n        if ((when == GlobalConstraintInterface.CallPhase.Pre)||\n            (when == GlobalConstraintInterface.CallPhase.PreAndPost)) {\n            globalConstraintRegister = globalConstraintsRegisterPre[_globalConstraint];\n            if (globalConstraintRegister.isRegistered) {\n                if (globalConstraintRegister.index < globalConstraintsPre.length-1) {\n                    globalConstraint = globalConstraintsPre[globalConstraintsPre.length-1];\n                    globalConstraintsPre[globalConstraintRegister.index] = globalConstraint;\n                    globalConstraintsRegisterPre[globalConstraint.gcAddress].index = globalConstraintRegister.index;\n                }\n                globalConstraintsPre.length--;\n                delete globalConstraintsRegisterPre[_globalConstraint];\n                retVal = true;\n            }\n        }\n        if ((when == GlobalConstraintInterface.CallPhase.Post)||\n            (when == GlobalConstraintInterface.CallPhase.PreAndPost)) {\n            globalConstraintRegister = globalConstraintsRegisterPost[_globalConstraint];\n            if (globalConstraintRegister.isRegistered) {\n                if (globalConstraintRegister.index < globalConstraintsPost.length-1) {\n                    globalConstraint = globalConstraintsPost[globalConstraintsPost.length-1];\n                    globalConstraintsPost[globalConstraintRegister.index] = globalConstraint;\n                    globalConstraintsRegisterPost[globalConstraint.gcAddress].index = globalConstraintRegister.index;\n                }\n                globalConstraintsPost.length--;\n                delete globalConstraintsRegisterPost[_globalConstraint];\n                retVal = true;\n            }\n        }\n        if (retVal) {\n            emit RemoveGlobalConstraint(\n            _globalConstraint,\n            globalConstraintRegister.index,\n            when == GlobalConstraintInterface.CallPhase.Pre\n            );\n        }\n        return retVal;\n    }\n\n  /**\n    * @dev upgrade the Controller\n    *      The function will trigger an event 'UpgradeController'.\n    * @param  _newController the address of the new controller.\n    * @return bool which represents a success\n    */\n    function upgradeController(address _newController, Avatar _avatar)\n    external\n    onlyUpgradingScheme\n    isAvatarValid(address(_avatar))\n    returns(bool)\n    {\n        require(newController == address(0));   // so the upgrade could be done once for a contract.\n        require(_newController != address(0));\n        newController = _newController;\n        avatar.transferOwnership(_newController);\n        require(avatar.owner() == _newController);\n        if (nativeToken.owner() == address(this)) {\n            nativeToken.transferOwnership(_newController);\n            require(nativeToken.owner() == _newController);\n        }\n        if (nativeReputation.owner() == address(this)) {\n            nativeReputation.transferOwnership(_newController);\n            require(nativeReputation.owner() == _newController);\n        }\n        emit UpgradeController(address(this), newController);\n        return true;\n    }\n\n    /**\n    * @dev perform a generic call to an arbitrary contract\n    * @param _contract  the contract's address to call\n    * @param _data ABI-encoded contract call to call `_contract` address.\n    * @param _avatar the controller's avatar address\n    * @param _value value (ETH) to transfer with the transaction\n    * @return bool -success\n    *         bytes  - the return value of the called _contract's function.\n    */\n    function genericCall(address _contract, bytes calldata _data, Avatar _avatar, uint256 _value)\n    external\n    onlyGenericCallScheme\n    onlySubjectToConstraint(\"genericCall\")\n    isAvatarValid(address(_avatar))\n    returns (bool, bytes memory)\n    {\n        return avatar.genericCall(_contract, _data, _value);\n    }\n\n  /**\n   * @dev send some ether\n   * @param _amountInWei the amount of ether (in Wei) to send\n   * @param _to address of the beneficiary\n   * @return bool which represents a success\n   */\n    function sendEther(uint256 _amountInWei, address payable _to, Avatar _avatar)\n    external\n    onlyRegisteredScheme\n    onlySubjectToConstraint(\"sendEther\")\n    isAvatarValid(address(_avatar))\n    returns(bool)\n    {\n        return avatar.sendEther(_amountInWei, _to);\n    }\n\n    /**\n    * @dev send some amount of arbitrary ERC20 Tokens\n    * @param _externalToken the address of the Token Contract\n    * @param _to address of the beneficiary\n    * @param _value the amount of ether (in Wei) to send\n    * @return bool which represents a success\n    */\n    function externalTokenTransfer(IERC20 _externalToken, address _to, uint256 _value, Avatar _avatar)\n    external\n    onlyRegisteredScheme\n    onlySubjectToConstraint(\"externalTokenTransfer\")\n    isAvatarValid(address(_avatar))\n    returns(bool)\n    {\n        return avatar.externalTokenTransfer(_externalToken, _to, _value);\n    }\n\n    /**\n    * @dev transfer token \"from\" address \"to\" address\n    *      One must to approve the amount of tokens which can be spend from the\n    *      \"from\" account.This can be done using externalTokenApprove.\n    * @param _externalToken the address of the Token Contract\n    * @param _from address of the account to send from\n    * @param _to address of the beneficiary\n    * @param _value the amount of ether (in Wei) to send\n    * @return bool which represents a success\n    */\n    function externalTokenTransferFrom(\n    IERC20 _externalToken,\n    address _from,\n    address _to,\n    uint256 _value,\n    Avatar _avatar)\n    external\n    onlyRegisteredScheme\n    onlySubjectToConstraint(\"externalTokenTransferFrom\")\n    isAvatarValid(address(_avatar))\n    returns(bool)\n    {\n        return avatar.externalTokenTransferFrom(_externalToken, _from, _to, _value);\n    }\n\n    /**\n    * @dev externalTokenApproval approve the spender address to spend a specified amount of tokens\n    *      on behalf of msg.sender.\n    * @param _externalToken the address of the Token Contract\n    * @param _spender address\n    * @param _value the amount of ether (in Wei) which the approval is referring to.\n    * @return bool which represents a success\n    */\n    function externalTokenApproval(IERC20 _externalToken, address _spender, uint256 _value, Avatar _avatar)\n    external\n    onlyRegisteredScheme\n    onlySubjectToConstraint(\"externalTokenIncreaseApproval\")\n    isAvatarValid(address(_avatar))\n    returns(bool)\n    {\n        return avatar.externalTokenApproval(_externalToken, _spender, _value);\n    }\n\n    /**\n    * @dev metaData emits an event with a string, should contain the hash of some meta data.\n    * @param _metaData a string representing a hash of the meta data\n    * @param _avatar Avatar\n    * @return bool which represents a success\n    */\n    function metaData(string calldata _metaData, Avatar _avatar)\n        external\n        onlyMetaDataScheme\n        isAvatarValid(address(_avatar))\n        returns(bool)\n        {\n        return avatar.metaData(_metaData);\n    }\n\n    /**\n     * @dev getNativeReputation\n     * @param _avatar the organization avatar.\n     * @return organization native reputation\n     */\n    function getNativeReputation(address _avatar) external isAvatarValid(_avatar) view returns(address) {\n        return address(nativeReputation);\n    }\n\n    function isSchemeRegistered(address _scheme, address _avatar) external isAvatarValid(_avatar) view returns(bool) {\n        return _isSchemeRegistered(_scheme);\n    }\n\n    function getSchemeParameters(address _scheme, address _avatar)\n    external\n    isAvatarValid(_avatar)\n    view\n    returns(bytes32)\n    {\n        return schemes[_scheme].paramsHash;\n    }\n\n    function getSchemePermissions(address _scheme, address _avatar)\n    external\n    isAvatarValid(_avatar)\n    view\n    returns(bytes4)\n    {\n        return schemes[_scheme].permissions;\n    }\n\n    function getGlobalConstraintParameters(address _globalConstraint, address) external view returns(bytes32) {\n\n        GlobalConstraintRegister memory register = globalConstraintsRegisterPre[_globalConstraint];\n\n        if (register.isRegistered) {\n            return globalConstraintsPre[register.index].params;\n        }\n\n        register = globalConstraintsRegisterPost[_globalConstraint];\n\n        if (register.isRegistered) {\n            return globalConstraintsPost[register.index].params;\n        }\n    }\n\n   /**\n    * @dev globalConstraintsCount return the global constraint pre and post count\n    * @return uint256 globalConstraintsPre count.\n    * @return uint256 globalConstraintsPost count.\n    */\n    function globalConstraintsCount(address _avatar)\n        external\n        isAvatarValid(_avatar)\n        view\n        returns(uint, uint)\n        {\n        return (globalConstraintsPre.length, globalConstraintsPost.length);\n    }\n\n    function isGlobalConstraintRegistered(address _globalConstraint, address _avatar)\n        external\n        isAvatarValid(_avatar)\n        view\n        returns(bool)\n        {\n        return (globalConstraintsRegisterPre[_globalConstraint].isRegistered ||\n                globalConstraintsRegisterPost[_globalConstraint].isRegistered);\n    }\n\n    function _isSchemeRegistered(address _scheme) private view returns(bool) {\n        return (schemes[_scheme].permissions&bytes4(0x00000001) != bytes4(0));\n    }\n}\n",
  "sourcePath": "@daostack/arc/contracts/controller/Controller.sol",
  "compiler": {
    "name": "solc",
    "version": "0.5.6+commit.b259423e.Emscripten.clang"
  },
  "schemaVersion": "3.0.14",
  "updatedAt": "2019-11-18T23:48:18.999Z",
  "devdoc": {
    "details": "A controller controls the organizations tokens, reputation and avatar. It is subject to a set of schemes and constraints that determine its behavior. Each scheme has it own parameters and operation permissions.",
    "methods": {
      "addGlobalConstraint(address,bytes32,address)": {
        "details": "add or update Global Constraint",
        "params": {
          "_globalConstraint": "the address of the global constraint to be added.",
          "_params": "the constraint parameters hash."
        },
        "return": "bool which represents a success"
      },
      "burnReputation(uint256,address,address)": {
        "details": "Burns `_amount` of reputation from `_from`",
        "params": {
          "_amount": "amount of reputation to burn",
          "_from": "The address that will lose the reputation"
        },
        "return": "bool which represents a success"
      },
      "externalTokenApproval(address,address,uint256,address)": {
        "details": "externalTokenApproval approve the spender address to spend a specified amount of tokens     on behalf of msg.sender.",
        "params": {
          "_externalToken": "the address of the Token Contract",
          "_spender": "address",
          "_value": "the amount of ether (in Wei) which the approval is referring to."
        },
        "return": "bool which represents a success"
      },
      "externalTokenTransfer(address,address,uint256,address)": {
        "details": "send some amount of arbitrary ERC20 Tokens",
        "params": {
          "_externalToken": "the address of the Token Contract",
          "_to": "address of the beneficiary",
          "_value": "the amount of ether (in Wei) to send"
        },
        "return": "bool which represents a success"
      },
      "externalTokenTransferFrom(address,address,address,uint256,address)": {
        "details": "transfer token \"from\" address \"to\" address     One must to approve the amount of tokens which can be spend from the     \"from\" account.This can be done using externalTokenApprove.",
        "params": {
          "_externalToken": "the address of the Token Contract",
          "_from": "address of the account to send from",
          "_to": "address of the beneficiary",
          "_value": "the amount of ether (in Wei) to send"
        },
        "return": "bool which represents a success"
      },
      "genericCall(address,bytes,address,uint256)": {
        "details": "perform a generic call to an arbitrary contract",
        "params": {
          "_avatar": "the controller's avatar address",
          "_contract": "the contract's address to call",
          "_data": "ABI-encoded contract call to call `_contract` address.",
          "_value": "value (ETH) to transfer with the transaction"
        },
        "return": "bool -success        bytes  - the return value of the called _contract's function."
      },
      "getNativeReputation(address)": {
        "details": "getNativeReputation",
        "params": {
          "_avatar": "the organization avatar."
        },
        "return": "organization native reputation"
      },
      "globalConstraintsCount(address)": {
        "details": "globalConstraintsCount return the global constraint pre and post count",
        "return": "uint256 globalConstraintsPre count.uint256 globalConstraintsPost count."
      },
      "metaData(string,address)": {
        "details": "metaData emits an event with a string, should contain the hash of some meta data.",
        "params": {
          "_avatar": "Avatar",
          "_metaData": "a string representing a hash of the meta data"
        },
        "return": "bool which represents a success"
      },
      "mintReputation(uint256,address,address)": {
        "details": "Mint `_amount` of reputation that are assigned to `_to` .",
        "params": {
          "_amount": "amount of reputation to mint",
          "_to": "beneficiary address"
        },
        "return": "bool which represents a success"
      },
      "mintTokens(uint256,address,address)": {
        "details": "mint tokens .",
        "params": {
          "_amount": "amount of token to mint",
          "_beneficiary": "beneficiary address"
        },
        "return": "bool which represents a success"
      },
      "registerScheme(address,bytes32,bytes4,address)": {
        "details": "register a scheme",
        "params": {
          "_paramsHash": "a hashed configuration of the usage of the scheme",
          "_permissions": "the permissions the new scheme will have",
          "_scheme": "the address of the scheme"
        },
        "return": "bool which represents a success"
      },
      "removeGlobalConstraint(address,address)": {
        "details": "remove Global Constraint",
        "params": {
          "_globalConstraint": "the address of the global constraint to be remove."
        },
        "return": "bool which represents a success"
      },
      "sendEther(uint256,address,address)": {
        "details": "send some ether",
        "params": {
          "_amountInWei": "the amount of ether (in Wei) to send",
          "_to": "address of the beneficiary"
        },
        "return": "bool which represents a success"
      },
      "unregisterScheme(address,address)": {
        "details": "unregister a scheme",
        "params": {
          "_scheme": "the address of the scheme"
        },
        "return": "bool which represents a success"
      },
      "unregisterSelf(address)": {
        "details": "unregister the caller's scheme",
        "return": "bool which represents a success"
      },
      "upgradeController(address,address)": {
        "details": "upgrade the Controller     The function will trigger an event 'UpgradeController'.",
        "params": {
          "_newController": "the address of the new controller."
        },
        "return": "bool which represents a success"
      }
    },
    "title": "Controller contract"
  },
  "userdoc": {
    "methods": {}
  }
}