{
  "contractName": "ContributionReward",
  "abi": [
    {
      "constant": true,
      "inputs": [
        {
          "name": "",
          "type": "bytes32"
        }
      ],
      "name": "parameters",
      "outputs": [
        {
          "name": "voteApproveParams",
          "type": "bytes32"
        },
        {
          "name": "intVote",
          "type": "address"
        }
      ],
      "payable": false,
      "stateMutability": "view",
      "type": "function"
    },
    {
      "constant": true,
      "inputs": [
        {
          "name": "",
          "type": "address"
        },
        {
          "name": "",
          "type": "bytes32"
        }
      ],
      "name": "organizationsProposals",
      "outputs": [
        {
          "name": "nativeTokenReward",
          "type": "uint256"
        },
        {
          "name": "reputationChange",
          "type": "int256"
        },
        {
          "name": "ethReward",
          "type": "uint256"
        },
        {
          "name": "externalToken",
          "type": "address"
        },
        {
          "name": "externalTokenReward",
          "type": "uint256"
        },
        {
          "name": "beneficiary",
          "type": "address"
        },
        {
          "name": "periodLength",
          "type": "uint256"
        },
        {
          "name": "numberOfPeriods",
          "type": "uint256"
        },
        {
          "name": "executionTime",
          "type": "uint256"
        }
      ],
      "payable": false,
      "stateMutability": "view",
      "type": "function"
    },
    {
      "constant": true,
      "inputs": [
        {
          "name": "",
          "type": "address"
        },
        {
          "name": "",
          "type": "bytes32"
        }
      ],
      "name": "proposalsInfo",
      "outputs": [
        {
          "name": "blockNumber",
          "type": "uint256"
        },
        {
          "name": "avatar",
          "type": "address"
        }
      ],
      "payable": false,
      "stateMutability": "view",
      "type": "function"
    },
    {
      "constant": true,
      "inputs": [
        {
          "name": "_stakingToken",
          "type": "address"
        },
        {
          "name": "_proposalId",
          "type": "bytes32"
        }
      ],
      "name": "balanceOfStakingToken",
      "outputs": [
        {
          "name": "",
          "type": "uint256"
        }
      ],
      "payable": false,
      "stateMutability": "view",
      "type": "function"
    },
    {
      "constant": true,
      "inputs": [
        {
          "name": "_owner",
          "type": "address"
        },
        {
          "name": "_proposalId",
          "type": "bytes32"
        }
      ],
      "name": "reputationOf",
      "outputs": [
        {
          "name": "",
          "type": "uint256"
        }
      ],
      "payable": false,
      "stateMutability": "view",
      "type": "function"
    },
    {
      "constant": true,
      "inputs": [
        {
          "name": "_proposalId",
          "type": "bytes32"
        }
      ],
      "name": "getTotalReputationSupply",
      "outputs": [
        {
          "name": "",
          "type": "uint256"
        }
      ],
      "payable": false,
      "stateMutability": "view",
      "type": "function"
    },
    {
      "constant": false,
      "inputs": [
        {
          "name": "_stakingToken",
          "type": "address"
        },
        {
          "name": "_beneficiary",
          "type": "address"
        },
        {
          "name": "_amount",
          "type": "uint256"
        },
        {
          "name": "_proposalId",
          "type": "bytes32"
        }
      ],
      "name": "stakingTokenTransfer",
      "outputs": [
        {
          "name": "",
          "type": "bool"
        }
      ],
      "payable": false,
      "stateMutability": "nonpayable",
      "type": "function"
    },
    {
      "constant": false,
      "inputs": [
        {
          "name": "_amount",
          "type": "uint256"
        },
        {
          "name": "_beneficiary",
          "type": "address"
        },
        {
          "name": "_proposalId",
          "type": "bytes32"
        }
      ],
      "name": "mintReputation",
      "outputs": [
        {
          "name": "",
          "type": "bool"
        }
      ],
      "payable": false,
      "stateMutability": "nonpayable",
      "type": "function"
    },
    {
      "constant": false,
      "inputs": [
        {
          "name": "_amount",
          "type": "uint256"
        },
        {
          "name": "_beneficiary",
          "type": "address"
        },
        {
          "name": "_proposalId",
          "type": "bytes32"
        }
      ],
      "name": "burnReputation",
      "outputs": [
        {
          "name": "",
          "type": "bool"
        }
      ],
      "payable": false,
      "stateMutability": "nonpayable",
      "type": "function"
    },
    {
      "anonymous": false,
      "inputs": [
        {
          "indexed": true,
          "name": "_avatar",
          "type": "address"
        },
        {
          "indexed": true,
          "name": "_proposalId",
          "type": "bytes32"
        },
        {
          "indexed": true,
          "name": "_intVoteInterface",
          "type": "address"
        },
        {
          "indexed": false,
          "name": "_descriptionHash",
          "type": "string"
        },
        {
          "indexed": false,
          "name": "_reputationChange",
          "type": "int256"
        },
        {
          "indexed": false,
          "name": "_rewards",
          "type": "uint256[5]"
        },
        {
          "indexed": false,
          "name": "_externalToken",
          "type": "address"
        },
        {
          "indexed": false,
          "name": "_beneficiary",
          "type": "address"
        }
      ],
      "name": "NewContributionProposal",
      "type": "event"
    },
    {
      "anonymous": false,
      "inputs": [
        {
          "indexed": true,
          "name": "_avatar",
          "type": "address"
        },
        {
          "indexed": true,
          "name": "_proposalId",
          "type": "bytes32"
        },
        {
          "indexed": false,
          "name": "_param",
          "type": "int256"
        }
      ],
      "name": "ProposalExecuted",
      "type": "event"
    },
    {
      "anonymous": false,
      "inputs": [
        {
          "indexed": true,
          "name": "_avatar",
          "type": "address"
        },
        {
          "indexed": true,
          "name": "_proposalId",
          "type": "bytes32"
        },
        {
          "indexed": true,
          "name": "_beneficiary",
          "type": "address"
        },
        {
          "indexed": false,
          "name": "_amount",
          "type": "int256"
        }
      ],
      "name": "RedeemReputation",
      "type": "event"
    },
    {
      "anonymous": false,
      "inputs": [
        {
          "indexed": true,
          "name": "_avatar",
          "type": "address"
        },
        {
          "indexed": true,
          "name": "_proposalId",
          "type": "bytes32"
        },
        {
          "indexed": true,
          "name": "_beneficiary",
          "type": "address"
        },
        {
          "indexed": false,
          "name": "_amount",
          "type": "uint256"
        }
      ],
      "name": "RedeemEther",
      "type": "event"
    },
    {
      "anonymous": false,
      "inputs": [
        {
          "indexed": true,
          "name": "_avatar",
          "type": "address"
        },
        {
          "indexed": true,
          "name": "_proposalId",
          "type": "bytes32"
        },
        {
          "indexed": true,
          "name": "_beneficiary",
          "type": "address"
        },
        {
          "indexed": false,
          "name": "_amount",
          "type": "uint256"
        }
      ],
      "name": "RedeemNativeToken",
      "type": "event"
    },
    {
      "anonymous": false,
      "inputs": [
        {
          "indexed": true,
          "name": "_avatar",
          "type": "address"
        },
        {
          "indexed": true,
          "name": "_proposalId",
          "type": "bytes32"
        },
        {
          "indexed": true,
          "name": "_beneficiary",
          "type": "address"
        },
        {
          "indexed": false,
          "name": "_amount",
          "type": "uint256"
        }
      ],
      "name": "RedeemExternalToken",
      "type": "event"
    },
    {
      "constant": false,
      "inputs": [
        {
          "name": "_proposalId",
          "type": "bytes32"
        },
        {
          "name": "_param",
          "type": "int256"
        }
      ],
      "name": "executeProposal",
      "outputs": [
        {
          "name": "",
          "type": "bool"
        }
      ],
      "payable": false,
      "stateMutability": "nonpayable",
      "type": "function"
    },
    {
      "constant": false,
      "inputs": [
        {
          "name": "_voteApproveParams",
          "type": "bytes32"
        },
        {
          "name": "_intVote",
          "type": "address"
        }
      ],
      "name": "setParameters",
      "outputs": [
        {
          "name": "",
          "type": "bytes32"
        }
      ],
      "payable": false,
      "stateMutability": "nonpayable",
      "type": "function"
    },
    {
      "constant": true,
      "inputs": [
        {
          "name": "_voteApproveParams",
          "type": "bytes32"
        },
        {
          "name": "_intVote",
          "type": "address"
        }
      ],
      "name": "getParametersHash",
      "outputs": [
        {
          "name": "",
          "type": "bytes32"
        }
      ],
      "payable": false,
      "stateMutability": "pure",
      "type": "function"
    },
    {
      "constant": false,
      "inputs": [
        {
          "name": "_avatar",
          "type": "address"
        },
        {
          "name": "_descriptionHash",
          "type": "string"
        },
        {
          "name": "_reputationChange",
          "type": "int256"
        },
        {
          "name": "_rewards",
          "type": "uint256[5]"
        },
        {
          "name": "_externalToken",
          "type": "address"
        },
        {
          "name": "_beneficiary",
          "type": "address"
        }
      ],
      "name": "proposeContributionReward",
      "outputs": [
        {
          "name": "",
          "type": "bytes32"
        }
      ],
      "payable": false,
      "stateMutability": "nonpayable",
      "type": "function"
    },
    {
      "constant": false,
      "inputs": [
        {
          "name": "_proposalId",
          "type": "bytes32"
        },
        {
          "name": "_avatar",
          "type": "address"
        }
      ],
      "name": "redeemReputation",
      "outputs": [
        {
          "name": "reputation",
          "type": "int256"
        }
      ],
      "payable": false,
      "stateMutability": "nonpayable",
      "type": "function"
    },
    {
      "constant": false,
      "inputs": [
        {
          "name": "_proposalId",
          "type": "bytes32"
        },
        {
          "name": "_avatar",
          "type": "address"
        }
      ],
      "name": "redeemNativeToken",
      "outputs": [
        {
          "name": "amount",
          "type": "uint256"
        }
      ],
      "payable": false,
      "stateMutability": "nonpayable",
      "type": "function"
    },
    {
      "constant": false,
      "inputs": [
        {
          "name": "_proposalId",
          "type": "bytes32"
        },
        {
          "name": "_avatar",
          "type": "address"
        }
      ],
      "name": "redeemEther",
      "outputs": [
        {
          "name": "amount",
          "type": "uint256"
        }
      ],
      "payable": false,
      "stateMutability": "nonpayable",
      "type": "function"
    },
    {
      "constant": false,
      "inputs": [
        {
          "name": "_proposalId",
          "type": "bytes32"
        },
        {
          "name": "_avatar",
          "type": "address"
        }
      ],
      "name": "redeemExternalToken",
      "outputs": [
        {
          "name": "amount",
          "type": "uint256"
        }
      ],
      "payable": false,
      "stateMutability": "nonpayable",
      "type": "function"
    },
    {
      "constant": false,
      "inputs": [
        {
          "name": "_proposalId",
          "type": "bytes32"
        },
        {
          "name": "_avatar",
          "type": "address"
        },
        {
          "name": "_whatToRedeem",
          "type": "bool[4]"
        }
      ],
      "name": "redeem",
      "outputs": [
        {
          "name": "reputationReward",
          "type": "int256"
        },
        {
          "name": "nativeTokenReward",
          "type": "uint256"
        },
        {
          "name": "etherReward",
          "type": "uint256"
        },
        {
          "name": "externalTokenReward",
          "type": "uint256"
        }
      ],
      "payable": false,
      "stateMutability": "nonpayable",
      "type": "function"
    },
    {
      "constant": true,
      "inputs": [
        {
          "name": "_proposalId",
          "type": "bytes32"
        },
        {
          "name": "_avatar",
          "type": "address"
        },
        {
          "name": "_redeemType",
          "type": "uint256"
        }
      ],
      "name": "getPeriodsToPay",
      "outputs": [
        {
          "name": "",
          "type": "uint256"
        }
      ],
      "payable": false,
      "stateMutability": "view",
      "type": "function"
    },
    {
      "constant": true,
      "inputs": [
        {
          "name": "_proposalId",
          "type": "bytes32"
        },
        {
          "name": "_avatar",
          "type": "address"
        },
        {
          "name": "_redeemType",
          "type": "uint256"
        }
      ],
      "name": "getRedeemedPeriods",
      "outputs": [
        {
          "name": "",
          "type": "uint256"
        }
      ],
      "payable": false,
      "stateMutability": "view",
      "type": "function"
    },
    {
      "constant": true,
      "inputs": [
        {
          "name": "_proposalId",
          "type": "bytes32"
        },
        {
          "name": "_avatar",
          "type": "address"
        }
      ],
      "name": "getProposalEthReward",
      "outputs": [
        {
          "name": "",
          "type": "uint256"
        }
      ],
      "payable": false,
      "stateMutability": "view",
      "type": "function"
    },
    {
      "constant": true,
      "inputs": [
        {
          "name": "_proposalId",
          "type": "bytes32"
        },
        {
          "name": "_avatar",
          "type": "address"
        }
      ],
      "name": "getProposalExternalTokenReward",
      "outputs": [
        {
          "name": "",
          "type": "uint256"
        }
      ],
      "payable": false,
      "stateMutability": "view",
      "type": "function"
    },
    {
      "constant": true,
      "inputs": [
        {
          "name": "_proposalId",
          "type": "bytes32"
        },
        {
          "name": "_avatar",
          "type": "address"
        }
      ],
      "name": "getProposalExternalToken",
      "outputs": [
        {
          "name": "",
          "type": "address"
        }
      ],
      "payable": false,
      "stateMutability": "view",
      "type": "function"
    },
    {
      "constant": true,
      "inputs": [
        {
          "name": "_proposalId",
          "type": "bytes32"
        },
        {
          "name": "_avatar",
          "type": "address"
        }
      ],
      "name": "getProposalExecutionTime",
      "outputs": [
        {
          "name": "",
          "type": "uint256"
        }
      ],
      "payable": false,
      "stateMutability": "view",
      "type": "function"
    }
  ],
  "bytecode": "0x608060405234801561001057600080fd5b50612cb2806100206000396000f3fe608060405234801561001057600080fd5b50600436106101585760003560e01c80639d4c162d116100c3578063d29b5d2f1161007c578063d29b5d2f146105d2578063d58bf09a14610604578063e074ee551461068d578063e63b681e146106bf578063f70bbb9a146106eb578063f81f8bf61461073357610158565b80639d4c162d146104b8578063b551c373146104ef578063b7c251c31461050c578063bb1c93511461053e578063bea75f281461056a578063cd3ce306146105a657610158565b80636046f71d116101155780636046f71d146102dd57806360bdbb3f1461030957806368e14dac146103355780636b8eb40314610361578063896488b91461038d5780639588378e1461048c57610158565b8063025068041461015d57806306e3a9781461019b5780630d5e1e821461021b5780631c3a5713146102595780632453732a146102855780633a256daa146102b1575b600080fd5b61017a6004803603602081101561017357600080fd5b5035610765565b604080519283526001600160a01b0390911660208301528051918290030190f35b6101c7600480360360408110156101b157600080fd5b506001600160a01b038135169060200135610787565b60408051998a5260208a0198909852888801969096526001600160a01b0394851660608901526080880193909352921660a086015260c085019190915260e084015261010083015251908190036101200190f35b6102476004803603604081101561023157600080fd5b50803590602001356001600160a01b03166107e5565b60408051918252519081900360200190f35b6102476004803603604081101561026f57600080fd5b50803590602001356001600160a01b0316610ba0565b6102476004803603604081101561029b57600080fd5b50803590602001356001600160a01b0316610bce565b610247600480360360408110156102c757600080fd5b50803590602001356001600160a01b0316610c07565b610247600480360360408110156102f357600080fd5b50803590602001356001600160a01b0316610c2f565b61017a6004803603604081101561031f57600080fd5b506001600160a01b038135169060200135610c57565b6102476004803603604081101561034b57600080fd5b50803590602001356001600160a01b0316610c81565b6102476004803603604081101561037757600080fd5b506001600160a01b038135169060200135610cc6565b61024760048036036101408110156103a457600080fd5b6001600160a01b0382351691908101906040810160208201356401000000008111156103cf57600080fd5b8201836020820111156103e157600080fd5b8035906020019184600183028401116401000000008311171561040357600080fd5b91908080601f016020809104026020016040519081016040528093929190818152602001838380828437600092019190915250506040805160a081810190925293968535969095909460c0820194509250602001906005908390839080828437600092019190915250919450505080356001600160a01b03908116925060209091013516610d84565b610247600480360360408110156104a257600080fd5b506001600160a01b03813516906020013561117d565b6104db600480360360408110156104ce57600080fd5b508035906020013561128e565b604080519115158252519081900360200190f35b6102476004803603602081101561050557600080fd5b503561141e565b6102476004803603606081101561052257600080fd5b508035906001600160a01b03602082013516906040013561155b565b6102476004803603604081101561055457600080fd5b50803590602001356001600160a01b0316611598565b6104db6004803603608081101561058057600080fd5b506001600160a01b03813581169160208101359091169060408101359060600135611833565b610247600480360360408110156105bc57600080fd5b50803590602001356001600160a01b03166119de565b6104db600480360360608110156105e857600080fd5b508035906001600160a01b036020820135169060400135611c87565b610667600480360360c081101561061a57600080fd5b60408051608081810183528435946001600160a01b0360208201351694810193909260c084019290918401906004908390839080828437600092019190915250919450611e299350505050565b604080519485526020850193909352838301919091526060830152519081900360800190f35b610247600480360360608110156106a357600080fd5b508035906001600160a01b036020820135169060400135611e95565b610247600480360360408110156106d557600080fd5b50803590602001356001600160a01b0316612076565b6107176004803603604081101561070157600080fd5b50803590602001356001600160a01b0316612350565b604080516001600160a01b039092168252519081900360200190f35b6104db6004803603606081101561074957600080fd5b508035906001600160a01b03602082013516906040013561237e565b600260205260009081526040902080546001909101546001600160a01b031682565b60016020818152600093845260408085209091529183529120805491810154600282015460038301546004840154600585015460068601546007870154600890970154959694956001600160a01b0394851695939490921692909189565b60006107ef612a28565b6001600160a01b038381166000908152600160208181526040808420898552825292839020835161014081018552815481529281015491830191909152600281015482840152600381015484166060830152600480820154608080850191909152600583015490951660a0840152600682015460c0840152600782015460e0840152600882015461010084015283519485019384905291939092610120850192600985019182845b81548152602001906001019080831161089757505050919092525050506001600160a01b038416600090815260016020908152604080832088845290915290206008810154919250906108e957600080fd5b60006108f786866000611e95565b600060018401819055602085015182029550909150841315610a1557846001600160a01b0316638da5cb5b6040518163ffffffff1660e01b815260040160206040518083038186803b15801561094c57600080fd5b505afa158015610960573d6000803e3d6000fd5b505050506040513d602081101561097657600080fd5b505160a084015160408051600160e11b63757cca59028152600481018890526001600160a01b03928316602482015288831660448201529051919092169163eaf994b29160648083019260209291908290030181600087803b1580156109db57600080fd5b505af11580156109ef573d6000803e3d6000fd5b505050506040513d6020811015610a0557600080fd5b5051610a1057600080fd5b610b1e565b6000841215610b1e57846001600160a01b0316638da5cb5b6040518163ffffffff1660e01b815260040160206040518083038186803b158015610a5757600080fd5b505afa158015610a6b573d6000803e3d6000fd5b505050506040513d6020811015610a8157600080fd5b505160a084015160408051600160e31b630dd29a4f028152600088810360048301526001600160a01b039384166024830152898416604483015291519290931692636e94d2789260648083019360209383900390910190829087803b158015610ae957600080fd5b505af1158015610afd573d6000803e3d6000fd5b505050506040513d6020811015610b1357600080fd5b5051610b1e57600080fd5b8315610b8d57610b3d816009840160005b01549063ffffffff6124e816565b600983015560a08301516040805186815290516001600160a01b03928316928992908916917feab8bc4bf2fd6ce5634b8e75023e0e48367e68249ce2aa2c0ef7c0efe5648bee9181900360200190a45b5060209091015160019091015592915050565b6001600160a01b03811660009081526001602090815260408083208584529091529020600401545b92915050565b604080516020808201949094526001600160a01b039290921660601b828201528051808303603401815260549092019052805191012090565b6001600160a01b03166000908152600160209081526040808320938352929052206008015490565b6001600160a01b03166000908152600160209081526040808320938352929052206002015490565b6000602081815292815260408082209093529081522080546001909101546001600160a01b031682565b600080610c8e8484610bce565b600081815260026020526040902085815560010180546001600160a01b0386166001600160a01b031990911617905591505092915050565b336000908152602081815260408083208484529091528120600101546001600160a01b031680610cfa576000915050610bc8565b836001600160a01b03166370a08231826040518263ffffffff1660e01b815260040180826001600160a01b03166001600160a01b0316815260200191505060206040518083038186803b158015610d5057600080fd5b505afa158015610d64573d6000803e3d6000fd5b505050506040513d6020811015610d7a57600080fd5b5051949350505050565b6000610d908585612545565b610d98612a92565b60026000610da58a612748565b8152602080820192909252604090810160009081208251808401845281548082526001909201546001600160a01b039081168287018190528551600160e11b634439bdaf028152600260048201526024810194909452336044850152908e166064840152935190955091936388737b5e9260848084019382900301818787803b158015610e3157600080fd5b505af1158015610e45573d6000803e3d6000fd5b505050506040513d6020811015610e5b57600080fd5b50519050836001600160a01b038116610e715750335b610e79612a28565b60408051610140810182528951815260208082018c90528a0151818301526001600160a01b03898116606080840191909152928b01516080830152841660a08201529089015160c082015260e08101896004602002015181526020016000815260200160405180608001604052806000815260200160008152602001600081526020016000815250815250905080600160008d6001600160a01b03166001600160a01b03168152602001908152602001600020600085815260200190815260200160002060008201518160000155602082015181600101556040820151816002015560608201518160030160006101000a8154816001600160a01b0302191690836001600160a01b031602179055506080820151816004015560a08201518160050160006101000a8154816001600160a01b0302191690836001600160a01b0316021790555060c0820151816006015560e08201518160070155610100820151816008015561012082015181600901906004610ff6929190612aa9565b5090505083602001516001600160a01b0316838c6001600160a01b03167fcbdcbf9aaeb1e9eff0f75d74e1c1e044bc87110164baec7d18d825b0450d97df8d8d8d8d89604051808060200186815260200185600560200280838360005b8381101561106b578181015183820152602001611053565b50505050905001846001600160a01b03166001600160a01b03168152602001836001600160a01b03166001600160a01b03168152602001828103825287818151815260200191508051906020019080838360005b838110156110d75781810151838201526020016110bf565b50505050905090810190601f1680156111045780820380516001836020036101000a031916815260200191505b50965050505050505060405180910390a450506040805180820182524381526001600160a01b039a8b166020808301918252948501518c166000908152808652838120858252909552919093209251835551600190920180546001600160a01b0319169290991691909117909755509495945050505050565b6000611187612a92565b5033600090815260208181526040808320858452825291829020825180840190935280548352600101546001600160a01b03169082018190526111ce576000915050610bc8565b80602001516001600160a01b03166389ae1c906040518163ffffffff1660e01b815260040160206040518083038186803b15801561120b57600080fd5b505afa15801561121f573d6000803e3d6000fd5b505050506040513d602081101561123557600080fd5b5051815160408051600160e11b63277166bf0281526001600160a01b038881166004830152602482019390935290519190921691634ee2cd7e916044808301926020929190829003018186803b158015610d5057600080fd5b3360009081526020818152604080832085845290915281206001015483906001600160a01b03166113015760408051600160e51b62461bcd0281526020600482015260126024820152600160701b716f6e6c7920566f74696e674d616368696e6502604482015290519081900360640190fd5b611309612a92565b5033600090815260208181526040808320878452825280832081518083018352815481526001918201546001600160a01b03168185018190528552908352818420888552909252909120600801541561136157600080fd5b6020808201516001600160a01b03908116600090815260018352604080822089835290935291909120600501541661139857600080fd5b83600114156113cd576020808201516001600160a01b0316600090815260018252604080822088835290925220426008909101555b8481602001516001600160a01b03167fd2632e80f5364f02aded1c64e8a04637b7c8bb9c2db2bedf4b6ac47c013acbc0866040518082815260200191505060405180910390a3506001949350505050565b6000611428612a92565b5033600090815260208181526040808320858452825291829020825180840190935280548352600101546001600160a01b031690820181905261146f576000915050611556565b80602001516001600160a01b03166389ae1c906040518163ffffffff1660e01b815260040160206040518083038186803b1580156114ac57600080fd5b505afa1580156114c0573d6000803e3d6000fd5b505050506040513d60208110156114d657600080fd5b5051815160408051600160e41b630981b24d0281526004810192909252516001600160a01b039092169163981b24d091602480820192602092909190829003018186803b15801561152657600080fd5b505afa15801561153a573d6000803e3d6000fd5b505050506040513d602081101561155057600080fd5b50519150505b919050565b6001600160a01b03821660009081526001602090815260408083208684529091528120600901826004811061158c57fe5b015490505b9392505050565b60006115a2612a28565b6001600160a01b038381166000908152600160208181526040808420898552825292839020835161014081018552815481529281015491830191909152600281015482840152600381015484166060830152600480820154608080850191909152600583015490951660a0840152600682015460c0840152600782015460e0840152600882015461010084015283519485019384905291939092610120850192600985019182845b81548152602001906001019080831161164a57505050919092525050506001600160a01b0384166000908152600160209081526040808320888452909152902060088101549192509061169c57600080fd5b60006116aa86866001611e95565b6000835583519091506116c490829063ffffffff61296c16565b9350831561182857846001600160a01b0316638da5cb5b6040518163ffffffff1660e01b815260040160206040518083038186803b15801561170557600080fd5b505afa158015611719573d6000803e3d6000fd5b505050506040513d602081101561172f57600080fd5b505160a084015160408051600160e11b633203f219028152600481018890526001600160a01b039283166024820152888316604482015290519190921691636407e4329160648083019260209291908290030181600087803b15801561179457600080fd5b505af11580156117a8573d6000803e3d6000fd5b505050506040513d60208110156117be57600080fd5b50516117c957600080fd5b6117d881600984016001610b2f565b600a83015560a08301516040805186815290516001600160a01b03928316928992908916917f13f7471cab9806ac4ff5d80ae879babfbf1081e240d05c4450b75f69c626cb2e9181900360200190a45b509051905592915050565b3360009081526020818152604080832084845290915281206001015482906001600160a01b03166118a65760408051600160e51b62461bcd0281526020600482015260126024820152600160701b716f6e6c7920566f74696e674d616368696e6502604482015290519081900360640190fd5b336000908152602081815260408083208684529091529020600101546001600160a01b0316806118da5760009250506119d5565b806001600160a01b0316638da5cb5b6040518163ffffffff1660e01b815260040160206040518083038186803b15801561191357600080fd5b505afa158015611927573d6000803e3d6000fd5b505050506040513d602081101561193d57600080fd5b505160408051600160e01b63b9a04cdd0281526001600160a01b038a8116600483015289811660248301526044820189905284811660648301529151919092169163b9a04cdd9160848083019260209291908290030181600087803b1580156119a557600080fd5b505af11580156119b9573d6000803e3d6000fd5b505050506040513d60208110156119cf57600080fd5b50519250505b50949350505050565b60006119e8612a28565b6001600160a01b038381166000908152600160208181526040808420898552825292839020835161014081018552815481529281015491830191909152600281015482840152600381015484166060830152600480820154608080850191909152600583015490951660a0840152600682015460c0840152600782015460e0840152600882015461010084015283519485019384905291939092610120850192600985019182845b815481526020019060010190808311611a9057505050919092525050506001600160a01b03841660009081526001602090815260408083208884529091529020600881015491925090611ae257600080fd5b6000611af086866002611e95565b600060028401556040840151909150611b1090829063ffffffff61296c16565b93508315611c7457846001600160a01b0316638da5cb5b6040518163ffffffff1660e01b815260040160206040518083038186803b158015611b5157600080fd5b505afa158015611b65573d6000803e3d6000fd5b505050506040513d6020811015611b7b57600080fd5b505160a084015160408051600160e11b6331a4b2ed028152600481018890526001600160a01b03928316602482015288831660448201529051919092169163634965da9160648083019260209291908290030181600087803b158015611be057600080fd5b505af1158015611bf4573d6000803e3d6000fd5b505050506040513d6020811015611c0a57600080fd5b5051611c1557600080fd5b611c2481600984016002610b2f565b600b83015560a08301516040805186815290516001600160a01b03928316928992908916917f7dd55ea53ce2c347b544c257b778e1dd6638f232fa6b94320e740440e72b4b879181900360200190a45b5060409091015160029091015592915050565b3360009081526020818152604080832084845290915281206001015482906001600160a01b0316611cfa5760408051600160e51b62461bcd0281526020600482015260126024820152600160701b716f6e6c7920566f74696e674d616368696e6502604482015290519081900360640190fd5b336000908152602081815260408083208684529091529020600101546001600160a01b031680611d2e576000925050611e21565b806001600160a01b0316638da5cb5b6040518163ffffffff1660e01b815260040160206040518083038186803b158015611d6757600080fd5b505afa158015611d7b573d6000803e3d6000fd5b505050506040513d6020811015611d9157600080fd5b505160408051600160e11b63757cca59028152600481018990526001600160a01b03888116602483015284811660448301529151919092169163eaf994b29160648083019260209291908290030181600087803b158015611df157600080fd5b505af1158015611e05573d6000803e3d6000fd5b505050506040513d6020811015611e1b57600080fd5b50519250505b509392505050565b60008080808481602002015115611e4757611e4487876107e5565b93505b602085015115611e5e57611e5b8787611598565b92505b604085015115611e7557611e7287876119de565b91505b606085015115611e8c57611e898787612076565b90505b93509350935093565b60006003821115611eda57604051600160e51b62461bcd028152600401808060200182810382526026815260200180612c2d6026913960400191505060405180910390fd5b611ee2612a28565b6001600160a01b0384811660009081526001602081815260408084208a8552825292839020835161014081018552815481529281015491830191909152600281015482840152600381015484166060830152600480820154608080850191909152600583015490951660a0840152600682015460c0840152600782015460e0840152600882015461010084015283519485019384905291939092610120850192600985019182845b815481526020019060010190808311611f8a57505050505081525050905080610100015160001415611fc0576000915050611591565b60c081015160009015611ff45760c0820151610100830151611fe990429063ffffffff6129c816565b81611ff057fe5b0490505b60008260c001516000148061200d57508260e001518210155b156120435761203c836101200151866004811061202657fe5b602002015160e08501519063ffffffff6129c816565b905061206c565b612069836101200151866004811061205757fe5b6020020151839063ffffffff6129c816565b90505b9695505050505050565b6000612080612a28565b6001600160a01b038381166000908152600160208181526040808420898552825292839020835161014081018552815481529281015491830191909152600281015482840152600381015484166060830152600480820154608080850191909152600583015490951660a0840152600682015460c0840152600782015460e0840152600882015461010084015283519485019384905291939092610120850192600985019182845b81548152602001906001019080831161212857505050919092525050506001600160a01b0384166000908152600160209081526040808320888452909152902060088101549192509061217a57600080fd5b600061218886866003611e95565b6000600484015560038301549091506001600160a01b0316158015906121b2575060008360800151115b1561233d5760808301516121cd90829063ffffffff61296c16565b9350831561233d57846001600160a01b0316638da5cb5b6040518163ffffffff1660e01b815260040160206040518083038186803b15801561220e57600080fd5b505afa158015612222573d6000803e3d6000fd5b505050506040513d602081101561223857600080fd5b5051606084015160a085015160408051600160e01b63b9a04cdd0281526001600160a01b039384166004820152918316602483015260448201889052888316606483015251919092169163b9a04cdd9160848083019260209291908290030181600087803b1580156122a957600080fd5b505af11580156122bd573d6000803e3d6000fd5b505050506040513d60208110156122d357600080fd5b50516122de57600080fd5b6122ed81600984016003610b2f565b600c83015560a08301516040805186815290516001600160a01b03928316928992908916917f5a66e28cdcd3bc22082d9f07be2b6bed5f50f349e5d89f655d750ecdd19883749181900360200190a45b5060809091015160049091015592915050565b6001600160a01b03908116600090815260016020908152604080832094835293905291909120600301541690565b3360009081526020818152604080832084845290915281206001015482906001600160a01b03166123f15760408051600160e51b62461bcd0281526020600482015260126024820152600160701b716f6e6c7920566f74696e674d616368696e6502604482015290519081900360640190fd5b336000908152602081815260408083208684529091529020600101546001600160a01b031680612425576000925050611e21565b806001600160a01b0316638da5cb5b6040518163ffffffff1660e01b815260040160206040518083038186803b15801561245e57600080fd5b505afa158015612472573d6000803e3d6000fd5b505050506040513d602081101561248857600080fd5b505160408051600160e31b630dd29a4f028152600481018990526001600160a01b038881166024830152848116604483015291519190921691636e94d2789160648083019260209291908290030181600087803b158015611df157600080fd5b6000828201838110156115915760408051600160e51b62461bcd02815260206004820152601b60248201527f536166654d6174683a206164646974696f6e206f766572666c6f770000000000604482015290519081900360640190fd5b606081015115158061255b575060808101516001145b61259957604051600160e51b62461bcd028152600401808060200182810382526034815260200180612b236034913960400191505060405180910390fd5b6080810151156127445760808101516000191480156125bb575081600160ff1b145b156125fa57604051600160e51b62461bcd028152600401808060200182810382526031815260200180612bfc6031913960400191505060405180910390fd5b608081015182908082028161260b57fe5b051461264b57604051600160e51b62461bcd028152600401808060200182810382526030815260200180612b826030913960400191505060405180910390fd5b805160808201518082028161265c57fe5b041461269c57604051600160e51b62461bcd02815260040180806020018281038252602b815260200180612b57602b913960400191505060405180910390fd5b60208101516080820151808202816126b057fe5b04146126f057604051600160e51b62461bcd028152600401808060200182810382526029815260200180612bb26029913960400191505060405180910390fd5b604081015160808201518082028161270457fe5b041461274457604051600160e51b62461bcd028152600401808060200182810382526034815260200180612c536034913960400191505060405180910390fd5b5050565b6000816001600160a01b0316638da5cb5b6040518163ffffffff1660e01b815260040160206040518083038186803b15801561278357600080fd5b505afa158015612797573d6000803e3d6000fd5b505050506040513d60208110156127ad57600080fd5b505160408051600160e01b639be2faed0281523060048201526001600160a01b03858116602483015291519190921691639be2faed916044808301926020929190829003018186803b15801561280257600080fd5b505afa158015612816573d6000803e3d6000fd5b505050506040513d602081101561282c57600080fd5b50516128825760408051600160e51b62461bcd02815260206004820152601860248201527f736368656d65206973206e6f7420726567697374657265640000000000000000604482015290519081900360640190fd5b816001600160a01b0316638da5cb5b6040518163ffffffff1660e01b815260040160206040518083038186803b1580156128bb57600080fd5b505afa1580156128cf573d6000803e3d6000fd5b505050506040513d60208110156128e557600080fd5b505160408051600160e31b630389aac10281523060048201526001600160a01b03858116602483015291519190921691631c4d5608916044808301926020929190829003018186803b15801561293a57600080fd5b505afa15801561294e573d6000803e3d6000fd5b505050506040513d602081101561296457600080fd5b505192915050565b60008261297b57506000610bc8565b8282028284828161298857fe5b041461159157604051600160e51b62461bcd028152600401808060200182810382526021815260200180612bdb6021913960400191505060405180910390fd5b600082821115612a225760408051600160e51b62461bcd02815260206004820152601e60248201527f536166654d6174683a207375627472616374696f6e206f766572666c6f770000604482015290519081900360640190fd5b50900390565b604051806101a0016040528060008152602001600081526020016000815260200160006001600160a01b031681526020016000815260200160006001600160a01b03168152602001600081526020016000815260200160008152602001612a8d612ae7565b905290565b604080518082019091526000808252602082015290565b8260048101928215612ad7579160200282015b82811115612ad7578251825591602001919060010190612abc565b50612ae3929150612b05565b5090565b60405180608001604052806004906020820280388339509192915050565b612b1f91905b80821115612ae35760008155600101612b0b565b9056fe706572696f644c656e67746820657175616c20302072657175697265206e756d6265724f66506572696f647320746f20626520316e756d6265724f66506572696f6473202a20746f6b656e5265776172642077696c6c206f766572666c6f776e756d6265724f66506572696f6473202a2072657075746174696f6e4368616e67652077696c6c206f766572666c6f776e756d6265724f66506572696f6473202a206574685265776172642077696c6c206f766572666c6f77536166654d6174683a206d756c7469706c69636174696f6e206f766572666c6f776e756d6265724f66506572696f6473202a205f72657075746174696f6e4368616e67652077696c6c206f766572666c6f7773686f756c6420626520696e207468652072656465656d6564506572696f64732072616e67656e756d6265724f66506572696f6473202a207465787465726e616c546f6b656e5265776172642077696c6c206f766572666c6f77a165627a7a72305820568b0e1c9bcf831033da3f2facdff4c090de7f890dd7101df3f7c9c6bdac22750029",
  "source": "pragma solidity ^0.5.4;\n\nimport \"@daostack/infra/contracts/votingMachines/IntVoteInterface.sol\";\nimport \"@daostack/infra/contracts/votingMachines/VotingMachineCallbacksInterface.sol\";\nimport \"./UniversalScheme.sol\";\nimport \"../votingMachines/VotingMachineCallbacks.sol\";\n\n\n/**\n * @title A scheme for proposing and rewarding contributions to an organization\n * @dev An agent can ask an organization to recognize a contribution and reward\n * him with token, reputation, ether or any combination.\n */\n\ncontract ContributionReward is UniversalScheme, VotingMachineCallbacks, ProposalExecuteInterface {\n    using SafeMath for uint;\n\n    event NewContributionProposal(\n        address indexed _avatar,\n        bytes32 indexed _proposalId,\n        address indexed _intVoteInterface,\n        string _descriptionHash,\n        int256 _reputationChange,\n        uint[5]  _rewards,\n        IERC20 _externalToken,\n        address _beneficiary\n    );\n\n    event ProposalExecuted(address indexed _avatar, bytes32 indexed _proposalId, int256 _param);\n\n    event RedeemReputation(\n        address indexed _avatar,\n        bytes32 indexed _proposalId,\n        address indexed _beneficiary,\n        int256 _amount);\n\n    event RedeemEther(address indexed _avatar,\n        bytes32 indexed _proposalId,\n        address indexed _beneficiary,\n        uint256 _amount);\n\n    event RedeemNativeToken(address indexed _avatar,\n        bytes32 indexed _proposalId,\n        address indexed _beneficiary,\n        uint256 _amount);\n\n    event RedeemExternalToken(address indexed _avatar,\n        bytes32 indexed _proposalId,\n        address indexed _beneficiary,\n        uint256 _amount);\n\n    // A struct holding the data for a contribution proposal\n    struct ContributionProposal {\n        uint256 nativeTokenReward; // Reward asked in the native token of the organization.\n        int256 reputationChange; // Organization reputation reward requested.\n        uint256 ethReward;\n        IERC20 externalToken;\n        uint256 externalTokenReward;\n        address payable beneficiary;\n        uint256 periodLength;\n        uint256 numberOfPeriods;\n        uint256 executionTime;\n        uint[4] redeemedPeriods;\n    }\n\n    // A mapping from the organization (Avatar) address to the saved data of the organization:\n    mapping(address=>mapping(bytes32=>ContributionProposal)) public organizationsProposals;\n\n    // A mapping from hashes to parameters (use to store a particular configuration on the controller)\n    struct Parameters {\n        bytes32 voteApproveParams;\n        IntVoteInterface intVote;\n    }\n\n    // A mapping from hashes to parameters (use to store a particular configuration on the controller)\n    mapping(bytes32=>Parameters) public parameters;\n\n    /**\n    * @dev execution of proposals, can only be called by the voting machine in which the vote is held.\n    * @param _proposalId the ID of the voting in the voting machine\n    * @param _param a parameter of the voting result, 1 yes and 2 is no.\n    */\n    function executeProposal(bytes32 _proposalId, int256 _param) external onlyVotingMachine(_proposalId) returns(bool) {\n        ProposalInfo memory proposal = proposalsInfo[msg.sender][_proposalId];\n        require(organizationsProposals[address(proposal.avatar)][_proposalId].executionTime == 0);\n        require(organizationsProposals[address(proposal.avatar)][_proposalId].beneficiary != address(0));\n        // Check if vote was successful:\n        if (_param == 1) {\n          // solhint-disable-next-line not-rely-on-time\n            organizationsProposals[address(proposal.avatar)][_proposalId].executionTime = now;\n        }\n        emit ProposalExecuted(address(proposal.avatar), _proposalId, _param);\n        return true;\n    }\n\n    /**\n    * @dev hash the parameters, save them if necessary, and return the hash value\n    */\n    function setParameters(\n        bytes32 _voteApproveParams,\n        IntVoteInterface _intVote\n    ) public returns(bytes32)\n    {\n        bytes32 paramsHash = getParametersHash(\n            _voteApproveParams,\n            _intVote\n        );\n        parameters[paramsHash].voteApproveParams = _voteApproveParams;\n        parameters[paramsHash].intVote = _intVote;\n        return paramsHash;\n    }\n\n    /**\n    * @dev return a hash of the given parameters\n    * @param _voteApproveParams parameters for the voting machine used to approve a contribution\n    * @param _intVote the voting machine used to approve a contribution\n    * @return a hash of the parameters\n    */\n    function getParametersHash(\n        bytes32 _voteApproveParams,\n        IntVoteInterface _intVote\n    ) public pure returns(bytes32)\n    {\n        return (keccak256(abi.encodePacked(_voteApproveParams, _intVote)));\n    }\n\n    /**\n    * @dev Submit a proposal for a reward for a contribution:\n    * @param _avatar Avatar of the organization that the contribution was made for\n    * @param _descriptionHash A hash of the proposal's description\n    * @param _reputationChange - Amount of reputation change requested .Can be negative.\n    * @param _rewards rewards array:\n    *         rewards[0] - Amount of tokens requested per period\n    *         rewards[1] - Amount of ETH requested per period\n    *         rewards[2] - Amount of external tokens requested per period\n    *         rewards[3] - Period length - if set to zero it allows immediate redeeming after execution.\n    *         rewards[4] - Number of periods\n    * @param _externalToken Address of external token, if reward is requested there\n    * @param _beneficiary Who gets the rewards\n    */\n    function proposeContributionReward(\n        Avatar _avatar,\n        string memory _descriptionHash,\n        int256 _reputationChange,\n        uint[5] memory _rewards,\n        IERC20 _externalToken,\n        address payable _beneficiary\n    )\n    public\n    returns(bytes32)\n    {\n        validateProposalParams(_reputationChange, _rewards);\n        Parameters memory controllerParams = parameters[getParametersFromController(_avatar)];\n\n        bytes32 contributionId = controllerParams.intVote.propose(\n        2,\n        controllerParams.voteApproveParams,\n        msg.sender,\n        address(_avatar)\n        );\n\n        address payable beneficiary = _beneficiary;\n        if (beneficiary == address(0)) {\n            beneficiary = msg.sender;\n        }\n\n        ContributionProposal memory proposal = ContributionProposal({\n            nativeTokenReward: _rewards[0],\n            reputationChange: _reputationChange,\n            ethReward: _rewards[1],\n            externalToken: _externalToken,\n            externalTokenReward: _rewards[2],\n            beneficiary: beneficiary,\n            periodLength: _rewards[3],\n            numberOfPeriods: _rewards[4],\n            executionTime: 0,\n            redeemedPeriods:[uint(0), uint(0), uint(0), uint(0)]\n        });\n        organizationsProposals[address(_avatar)][contributionId] = proposal;\n\n        emit NewContributionProposal(\n            address(_avatar),\n            contributionId,\n            address(controllerParams.intVote),\n            _descriptionHash,\n            _reputationChange,\n            _rewards,\n            _externalToken,\n            beneficiary\n        );\n\n        proposalsInfo[address(controllerParams.intVote)][contributionId] = ProposalInfo({\n            blockNumber:block.number,\n            avatar:_avatar\n        });\n        return contributionId;\n    }\n\n    /**\n    * @dev RedeemReputation reward for proposal\n    * @param _proposalId the ID of the voting in the voting machine\n    * @param _avatar address of the controller\n    * @return reputation the redeemed reputation.\n    */\n    function redeemReputation(bytes32 _proposalId, Avatar _avatar) public returns(int256 reputation) {\n\n        ContributionProposal memory _proposal = organizationsProposals[address(_avatar)][_proposalId];\n        ContributionProposal storage proposal = organizationsProposals[address(_avatar)][_proposalId];\n        require(proposal.executionTime != 0);\n        uint256 periodsToPay = getPeriodsToPay(_proposalId, address(_avatar), 0);\n\n        //set proposal reward to zero to prevent reentrancy attack.\n        proposal.reputationChange = 0;\n        reputation = int(periodsToPay) * _proposal.reputationChange;\n        if (reputation > 0) {\n            require(\n            ControllerInterface(\n            _avatar.owner()).mintReputation(uint(reputation), _proposal.beneficiary, address(_avatar)));\n        } else if (reputation < 0) {\n            require(\n            ControllerInterface(\n            _avatar.owner()).burnReputation(uint(reputation*(-1)), _proposal.beneficiary, address(_avatar)));\n        }\n        if (reputation != 0) {\n            proposal.redeemedPeriods[0] = proposal.redeemedPeriods[0].add(periodsToPay);\n            emit RedeemReputation(address(_avatar), _proposalId, _proposal.beneficiary, reputation);\n        }\n        //restore proposal reward.\n        proposal.reputationChange = _proposal.reputationChange;\n    }\n\n    /**\n    * @dev RedeemNativeToken reward for proposal\n    * @param _proposalId the ID of the voting in the voting machine\n    * @param _avatar address of the controller\n    * @return amount the redeemed nativeToken.\n    */\n    function redeemNativeToken(bytes32 _proposalId, Avatar _avatar) public returns(uint256 amount) {\n\n        ContributionProposal memory _proposal = organizationsProposals[address(_avatar)][_proposalId];\n        ContributionProposal storage proposal = organizationsProposals[address(_avatar)][_proposalId];\n        require(proposal.executionTime != 0);\n        uint256 periodsToPay = getPeriodsToPay(_proposalId, address(_avatar), 1);\n        //set proposal rewards to zero to prevent reentrancy attack.\n        proposal.nativeTokenReward = 0;\n\n        amount = periodsToPay.mul(_proposal.nativeTokenReward);\n        if (amount > 0) {\n            require(ControllerInterface(_avatar.owner()).mintTokens(amount, _proposal.beneficiary, address(_avatar)));\n            proposal.redeemedPeriods[1] = proposal.redeemedPeriods[1].add(periodsToPay);\n            emit RedeemNativeToken(address(_avatar), _proposalId, _proposal.beneficiary, amount);\n        }\n\n        //restore proposal reward.\n        proposal.nativeTokenReward = _proposal.nativeTokenReward;\n    }\n\n    /**\n    * @dev RedeemEther reward for proposal\n    * @param _proposalId the ID of the voting in the voting machine\n    * @param _avatar address of the controller\n    * @return amount ether redeemed amount\n    */\n    function redeemEther(bytes32 _proposalId, Avatar _avatar) public returns(uint256 amount) {\n\n        ContributionProposal memory _proposal = organizationsProposals[address(_avatar)][_proposalId];\n        ContributionProposal storage proposal = organizationsProposals[address(_avatar)][_proposalId];\n        require(proposal.executionTime != 0);\n        uint256 periodsToPay = getPeriodsToPay(_proposalId, address(_avatar), 2);\n        //set proposal rewards to zero to prevent reentrancy attack.\n        proposal.ethReward = 0;\n        amount = periodsToPay.mul(_proposal.ethReward);\n\n        if (amount > 0) {\n            require(ControllerInterface(_avatar.owner()).sendEther(amount, _proposal.beneficiary, _avatar));\n            proposal.redeemedPeriods[2] = proposal.redeemedPeriods[2].add(periodsToPay);\n            emit RedeemEther(address(_avatar), _proposalId, _proposal.beneficiary, amount);\n        }\n\n        //restore proposal reward.\n        proposal.ethReward = _proposal.ethReward;\n    }\n\n    /**\n    * @dev RedeemNativeToken reward for proposal\n    * @param _proposalId the ID of the voting in the voting machine\n    * @param _avatar address of the controller\n    * @return amount the external token redeemed amount\n    */\n    function redeemExternalToken(bytes32 _proposalId, Avatar _avatar) public returns(uint256 amount) {\n\n        ContributionProposal memory _proposal = organizationsProposals[address(_avatar)][_proposalId];\n        ContributionProposal storage proposal = organizationsProposals[address(_avatar)][_proposalId];\n        require(proposal.executionTime != 0);\n        uint256 periodsToPay = getPeriodsToPay(_proposalId, address(_avatar), 3);\n        //set proposal rewards to zero to prevent reentrancy attack.\n        proposal.externalTokenReward = 0;\n\n        if (proposal.externalToken != IERC20(0) && _proposal.externalTokenReward > 0) {\n            amount = periodsToPay.mul(_proposal.externalTokenReward);\n            if (amount > 0) {\n                require(\n                ControllerInterface(\n                _avatar.owner())\n                .externalTokenTransfer(_proposal.externalToken, _proposal.beneficiary, amount, _avatar));\n                proposal.redeemedPeriods[3] = proposal.redeemedPeriods[3].add(periodsToPay);\n                emit RedeemExternalToken(address(_avatar), _proposalId, _proposal.beneficiary, amount);\n            }\n        }\n        //restore proposal reward.\n        proposal.externalTokenReward = _proposal.externalTokenReward;\n    }\n\n    /**\n    * @dev redeem rewards for proposal\n    * @param _proposalId the ID of the voting in the voting machine\n    * @param _avatar address of the controller\n    * @param _whatToRedeem whatToRedeem array:\n    *         whatToRedeem[0] - reputation\n    *         whatToRedeem[1] - nativeTokenReward\n    *         whatToRedeem[2] - Ether\n    *         whatToRedeem[3] - ExternalToken\n    * @return  result boolean array for each redeem type.\n    */\n    function redeem(bytes32 _proposalId, Avatar _avatar, bool[4] memory _whatToRedeem)\n    public\n    returns(int256 reputationReward, uint256 nativeTokenReward, uint256 etherReward, uint256 externalTokenReward)\n    {\n\n        if (_whatToRedeem[0]) {\n            reputationReward = redeemReputation(_proposalId, _avatar);\n        }\n\n        if (_whatToRedeem[1]) {\n            nativeTokenReward = redeemNativeToken(_proposalId, _avatar);\n        }\n\n        if (_whatToRedeem[2]) {\n            etherReward = redeemEther(_proposalId, _avatar);\n        }\n\n        if (_whatToRedeem[3]) {\n            externalTokenReward = redeemExternalToken(_proposalId, _avatar);\n        }\n    }\n\n    /**\n    * @dev getPeriodsToPay return the periods left to be paid for reputation,nativeToken,ether or externalToken.\n    * The function ignore the reward amount to be paid (which can be zero).\n    * @param _proposalId the ID of the voting in the voting machine\n    * @param _avatar address of the controller\n    * @param _redeemType - the type of the reward  :\n    *         0 - reputation\n    *         1 - nativeTokenReward\n    *         2 - Ether\n    *         3 - ExternalToken\n    * @return  periods left to be paid.\n    */\n    function getPeriodsToPay(bytes32 _proposalId, address _avatar, uint256 _redeemType) public view returns (uint256) {\n        require(_redeemType <= 3, \"should be in the redeemedPeriods range\");\n        ContributionProposal memory _proposal = organizationsProposals[_avatar][_proposalId];\n        if (_proposal.executionTime == 0)\n            return 0;\n        uint256 periodsFromExecution;\n        if (_proposal.periodLength > 0) {\n          // solhint-disable-next-line not-rely-on-time\n            periodsFromExecution = (now.sub(_proposal.executionTime))/(_proposal.periodLength);\n        }\n        uint256 periodsToPay;\n        if ((_proposal.periodLength == 0) || (periodsFromExecution >= _proposal.numberOfPeriods)) {\n            periodsToPay = _proposal.numberOfPeriods.sub(_proposal.redeemedPeriods[_redeemType]);\n        } else {\n            periodsToPay = periodsFromExecution.sub(_proposal.redeemedPeriods[_redeemType]);\n        }\n        return periodsToPay;\n    }\n\n    /**\n    * @dev getRedeemedPeriods return the already redeemed periods for reputation, nativeToken, ether or externalToken.\n    * @param _proposalId the ID of the voting in the voting machine\n    * @param _avatar address of the controller\n    * @param _redeemType - the type of the reward  :\n    *         0 - reputation\n    *         1 - nativeTokenReward\n    *         2 - Ether\n    *         3 - ExternalToken\n    * @return redeemed period.\n    */\n    function getRedeemedPeriods(bytes32 _proposalId, address _avatar, uint256 _redeemType)\n    public\n    view\n    returns (uint256) {\n        return organizationsProposals[_avatar][_proposalId].redeemedPeriods[_redeemType];\n    }\n\n    function getProposalEthReward(bytes32 _proposalId, address _avatar) public view returns (uint256) {\n        return organizationsProposals[_avatar][_proposalId].ethReward;\n    }\n\n    function getProposalExternalTokenReward(bytes32 _proposalId, address _avatar) public view returns (uint256) {\n        return organizationsProposals[_avatar][_proposalId].externalTokenReward;\n    }\n\n    function getProposalExternalToken(bytes32 _proposalId, address _avatar) public view returns (address) {\n        return address(organizationsProposals[_avatar][_proposalId].externalToken);\n    }\n\n    function getProposalExecutionTime(bytes32 _proposalId, address _avatar) public view returns (uint256) {\n        return organizationsProposals[_avatar][_proposalId].executionTime;\n    }\n\n    /**\n    * @dev validateProposalParams validate proposal's rewards parameters.\n    * The function check for potential overflow upon proposal's redeem.\n    * The function reverts if the params are not valid.\n    * @param _reputationChange - Amount of reputation change requested .Can be negative.\n    * @param _rewards rewards array:\n    *         rewards[0] - Amount of tokens requested per period\n    *         rewards[1] - Amount of ETH requested per period\n    *         rewards[2] - Amount of external tokens requested per period\n    *         rewards[3] - Period length - if set to zero it allows immediate redeeming after execution.\n    *         rewards[4] - Number of periods\n    */\n    function validateProposalParams(int256 _reputationChange, uint[5] memory _rewards) private pure {\n        require(((_rewards[3] > 0) || (_rewards[4] == 1)), \"periodLength equal 0 require numberOfPeriods to be 1\");\n        if (_rewards[4] > 0) {\n            // This is the only case of overflow not detected by the check below\n            require(!(int(_rewards[4]) == -1 && _reputationChange == (-2**255)),\n            \"numberOfPeriods * _reputationChange will overflow\");\n           //check that numberOfPeriods * _reputationChange will not overflow\n            require((int(_rewards[4]) * _reputationChange) / int(_rewards[4]) == _reputationChange,\n            \"numberOfPeriods * reputationChange will overflow\");\n            //check that numberOfPeriods * tokenReward will not overflow\n            require((_rewards[4] * _rewards[0]) / _rewards[4] == _rewards[0],\n            \"numberOfPeriods * tokenReward will overflow\");\n            //check that numberOfPeriods * ethReward will not overflow\n            require((_rewards[4] * _rewards[1]) / _rewards[4] == _rewards[1],\n            \"numberOfPeriods * ethReward will overflow\");\n            //check that numberOfPeriods * texternalTokenReward will not overflow\n            require((_rewards[4] * _rewards[2]) / _rewards[4] == _rewards[2],\n            \"numberOfPeriods * texternalTokenReward will overflow\");\n        }\n    }\n\n}\n",
  "sourcePath": "/src/contracts/arc/universalSchemes/ContributionReward.sol",
  "compiler": {
    "name": "solc",
    "version": "0.5.6+commit.b259423e.Emscripten.clang"
  },
  "schemaVersion": "3.0.14",
  "updatedAt": "2019-11-03T19:26:28.019Z",
  "devdoc": {
    "details": "An agent can ask an organization to recognize a contribution and reward him with token, reputation, ether or any combination.",
    "methods": {
      "executeProposal(bytes32,int256)": {
        "details": "execution of proposals, can only be called by the voting machine in which the vote is held.",
        "params": {
          "_param": "a parameter of the voting result, 1 yes and 2 is no.",
          "_proposalId": "the ID of the voting in the voting machine"
        }
      },
      "getParametersHash(bytes32,address)": {
        "details": "return a hash of the given parameters",
        "params": {
          "_intVote": "the voting machine used to approve a contribution",
          "_voteApproveParams": "parameters for the voting machine used to approve a contribution"
        },
        "return": "a hash of the parameters"
      },
      "getPeriodsToPay(bytes32,address,uint256)": {
        "details": "getPeriodsToPay return the periods left to be paid for reputation,nativeToken,ether or externalToken. The function ignore the reward amount to be paid (which can be zero).",
        "params": {
          "_avatar": "address of the controller",
          "_proposalId": "the ID of the voting in the voting machine",
          "_redeemType": "- the type of the reward  :        0 - reputation        1 - nativeTokenReward        2 - Ether        3 - ExternalToken"
        },
        "return": "periods left to be paid."
      },
      "getRedeemedPeriods(bytes32,address,uint256)": {
        "details": "getRedeemedPeriods return the already redeemed periods for reputation, nativeToken, ether or externalToken.",
        "params": {
          "_avatar": "address of the controller",
          "_proposalId": "the ID of the voting in the voting machine",
          "_redeemType": "- the type of the reward  :        0 - reputation        1 - nativeTokenReward        2 - Ether        3 - ExternalToken"
        },
        "return": "redeemed period."
      },
      "proposeContributionReward(address,string,int256,uint256[5],address,address)": {
        "details": "Submit a proposal for a reward for a contribution:",
        "params": {
          "_avatar": "Avatar of the organization that the contribution was made for",
          "_beneficiary": "Who gets the rewards",
          "_descriptionHash": "A hash of the proposal's description",
          "_externalToken": "Address of external token, if reward is requested there",
          "_reputationChange": "- Amount of reputation change requested .Can be negative.",
          "_rewards": "rewards array:        rewards[0] - Amount of tokens requested per period        rewards[1] - Amount of ETH requested per period        rewards[2] - Amount of external tokens requested per period        rewards[3] - Period length - if set to zero it allows immediate redeeming after execution.        rewards[4] - Number of periods"
        }
      },
      "redeem(bytes32,address,bool[4])": {
        "details": "redeem rewards for proposal",
        "params": {
          "_avatar": "address of the controller",
          "_proposalId": "the ID of the voting in the voting machine",
          "_whatToRedeem": "whatToRedeem array:        whatToRedeem[0] - reputation        whatToRedeem[1] - nativeTokenReward        whatToRedeem[2] - Ether        whatToRedeem[3] - ExternalToken"
        },
        "return": "result boolean array for each redeem type."
      },
      "redeemEther(bytes32,address)": {
        "details": "RedeemEther reward for proposal",
        "params": {
          "_avatar": "address of the controller",
          "_proposalId": "the ID of the voting in the voting machine"
        },
        "return": "amount ether redeemed amount"
      },
      "redeemExternalToken(bytes32,address)": {
        "details": "RedeemNativeToken reward for proposal",
        "params": {
          "_avatar": "address of the controller",
          "_proposalId": "the ID of the voting in the voting machine"
        },
        "return": "amount the external token redeemed amount"
      },
      "redeemNativeToken(bytes32,address)": {
        "details": "RedeemNativeToken reward for proposal",
        "params": {
          "_avatar": "address of the controller",
          "_proposalId": "the ID of the voting in the voting machine"
        },
        "return": "amount the redeemed nativeToken."
      },
      "redeemReputation(bytes32,address)": {
        "details": "RedeemReputation reward for proposal",
        "params": {
          "_avatar": "address of the controller",
          "_proposalId": "the ID of the voting in the voting machine"
        },
        "return": "reputation the redeemed reputation."
      },
      "setParameters(bytes32,address)": {
        "details": "hash the parameters, save them if necessary, and return the hash value"
      }
    },
    "title": "A scheme for proposing and rewarding contributions to an organization"
  },
  "userdoc": {
    "methods": {}
  }
}