{
  "contractName": "ControllerCreator",
  "abi": [
    {
      "constant": false,
      "inputs": [
        {
          "name": "_avatar",
          "type": "address"
        }
      ],
      "name": "create",
      "outputs": [
        {
          "name": "",
          "type": "address"
        }
      ],
      "payable": false,
      "stateMutability": "nonpayable",
      "type": "function"
    }
  ],
  "bytecode": "0x608060405234801561001057600080fd5b50613da7806100206000396000f3fe608060405234801561001057600080fd5b506004361061002b5760003560e01c80639ed9331814610030575b600080fd5b6100566004803603602081101561004657600080fd5b50356001600160a01b0316610072565b604080516001600160a01b039092168252519081900360200190f35b60008082604051610082906101d3565b6001600160a01b03909116815260405190819003602001906000f0801580156100af573d6000803e3d6000fd5b5060408051600160e01b63e869d45f028152336004820152600060248201819052600160e01b601f0260448301526001600160a01b03878116606484015292519394509184169263e869d45f92608480840193602093929083900390910190829087803b15801561011f57600080fd5b505af1158015610133573d6000803e3d6000fd5b505050506040513d602081101561014957600080fd5b505060408051600160e01b63039de01d0281523060048201526001600160a01b03858116602483015291519183169163039de01d916044808201926020929091908290030181600087803b1580156101a057600080fd5b505af11580156101b4573d6000803e3d6000fd5b505050506040513d60208110156101ca57600080fd5b50909392505050565b613b9b806101e18339019056fe60806040523480156200001157600080fd5b5060405160208062003b9b833981018060405260208110156200003357600080fd5b5051600180546001600160a01b0319166001600160a01b038084169190911791829055604080517fe1758bd80000000000000000000000000000000000000000000000000000000081529051929091169163e1758bd891600480820192602092909190829003018186803b158015620000ab57600080fd5b505afa158015620000c0573d6000803e3d6000fd5b505050506040513d6020811015620000d757600080fd5b5051600280546001600160a01b0319166001600160a01b03928316179055600154604080517f89ae1c90000000000000000000000000000000000000000000000000000000008152905191909216916389ae1c90916004808301926020929190829003018186803b1580156200014c57600080fd5b505afa15801562000161573d6000803e3d6000fd5b505050506040513d60208110156200017857600080fd5b5051600380546001600160a01b0319166001600160a01b039092169190911790555060408051808201825260008082527c1f000000000000000000000000000000000000000000000000000000006020808401918252338352829052928120915182559151600191909101805463ffffffff191660e09290921c9190911790556139929081906200020990396000f3fe608060405234801561001057600080fd5b50600436106101e55760003560e01c806389ae1c901161010f578063e08738da116100a2578063e8c98b2211610071578063e8c98b221461083e578063eaf994b21461085b578063f76488be1461088f578063fb4856a2146108bd576101e5565b8063e08738da1461078e578063e1758bd8146107bc578063e4537a74146107c4578063e869d45f146107fa576101e5565b8063b9a04cdd116100de578063b9a04cdd1461057f578063c9b62eb1146105bb578063d1b7089a14610634578063db6149ce14610746576101e5565b806389ae1c90146104d85780638da03997146104e05780639b51e35a146105065780639be2faed14610551576101e5565b806351803cd8116101875780636c525b13116101565780636c525b13146104195780636e94d2781461043f578063814784f614610473578063824f2f1f14610499576101e5565b806351803cd81461036d5780635aef7de6146103a9578063634965da146103b15780636407e432146103e5576101e5565b80633a02263c116101c35780633a02263c146102ad57806342427bf8146102d15780634422d372146102ff5780634f52b5be1461033f576101e5565b8063039de01d146101ea578063177eebb01461022c5780631c4d56081461026d575b600080fd5b6102186004803603604081101561020057600080fd5b506001600160a01b0381358116916020013516610903565b604080519115158252519081900360200190f35b6102526004803603602081101561024257600080fd5b50356001600160a01b0316610c19565b60408051921515835260208301919091528051918290030190f35b61029b6004803603604081101561028357600080fd5b506001600160a01b0381358116916020013516610c38565b60408051918252519081900360200190f35b6102b5610c7a565b604080516001600160a01b039092168252519081900360200190f35b610218600480360360408110156102e757600080fd5b506001600160a01b0381358116916020013516610c89565b61031c6004803603602081101561031557600080fd5b503561115a565b604080516001600160a01b03909316835260208301919091528051918290030190f35b6102186004803603604081101561035557600080fd5b506001600160a01b038135811691602001351661118f565b6102186004803603608081101561038357600080fd5b506001600160a01b0381358116916020810135821691604082013591606001351661158a565b6102b5611871565b610218600480360360608110156103c757600080fd5b508035906001600160a01b0360208201358116916040013516611880565b610218600480360360608110156103fb57600080fd5b508035906001600160a01b0360208201358116916040013516611b4d565b6102186004803603602081101561042f57600080fd5b50356001600160a01b0316611e52565b6102186004803603606081101561045557600080fd5b508035906001600160a01b0360208201358116916040013516611ed9565b6102526004803603602081101561048957600080fd5b50356001600160a01b03166121ee565b6104bf600480360360208110156104af57600080fd5b50356001600160a01b031661220d565b6040805192835260208301919091528051918290030190f35b6102b561223f565b6102b5600480360360208110156104f657600080fd5b50356001600160a01b031661224e565b6105346004803603604081101561051c57600080fd5b506001600160a01b0381358116916020013516612280565b604080516001600160e01b03199092168252519081900360200190f35b6102186004803603604081101561056757600080fd5b506001600160a01b03813581169160200135166122c3565b6102186004803603608081101561059557600080fd5b506001600160a01b038135811691602081013582169160408201359160600135166122f3565b610218600480360360408110156105d157600080fd5b8101906020810181356401000000008111156105ec57600080fd5b8201836020820111156105fe57600080fd5b8035906020019184600183028401116401000000008311171561062057600080fd5b9193509150356001600160a01b03166125d0565b6106c36004803603608081101561064a57600080fd5b6001600160a01b03823516919081019060408101602082013564010000000081111561067557600080fd5b82018360208201111561068757600080fd5b803590602001918460018302840111640100000000831117156106a957600080fd5b91935091506001600160a01b0381351690602001356126c3565b604051808315151515815260200180602001828103825283818151815260200191508051906020019080838360005b8381101561070a5781810151838201526020016106f2565b50505050905090810190601f1680156107375780820380516001836020036101000a031916815260200191505b50935050505060405180910390f35b61076c6004803603602081101561075c57600080fd5b50356001600160a01b0316612a37565b604080519283526001600160e01b031990911660208301528051918290030190f35b61029b600480360360408110156107a457600080fd5b506001600160a01b0381358116916020013516612a53565b6102b5612b1f565b610218600480360360608110156107da57600080fd5b506001600160a01b03813581169160208101359160409091013516612b2e565b6102186004803603608081101561081057600080fd5b506001600160a01b0381358116916020810135916001600160e01b0319604083013516916060013516612efa565b61031c6004803603602081101561085457600080fd5b503561324c565b6102186004803603606081101561087157600080fd5b508035906001600160a01b0360208201358116916040013516613259565b610218600480360360408110156108a557600080fd5b506001600160a01b038135811691602001351661356e565b610218600480360360a08110156108d357600080fd5b506001600160a01b03813581169160208101358216916040820135811691606081013591608090910135166135d0565b3360009081526020819052604081206001015460e01b600160e11b9081161461092b57600080fd5b7f756e7265676973746572536368656d650000000000000000000000000000000060005b600554811015610a3f576005818154811061096657fe5b6000918252602090912060029091020154600580546001600160a01b039092169163c1786ab29133918590811061099957fe5b906000526020600020906002020160010154856040518463ffffffff1660e01b815260040180846001600160a01b03166001600160a01b031681526020018381526020018281526020019350505050602060405180830381600087803b158015610a0257600080fd5b505af1158015610a16573d6000803e3d6000fd5b505050506040513d6020811015610a2c57600080fd5b5051610a3757600080fd5b60010161094f565b60015484906001600160a01b03808316911614610a5b57600080fd5b610a64866138c0565b610a715760009350610b1b565b336000908152602081905260408082206001908101546001600160a01b038a168452919092209091015460e091821b19911b16600160e01b601f021615610ab757600080fd5b6040516001600160a01b0387169033907f10bb2cf04cb8b902a8e736d494f1a51003be6d4b16ef6fb95ce62c38445023bf90600090a36001600160a01b03861660009081526020819052604081209081556001908101805463ffffffff1916905593505b50600090505b600654811015610c115760068181548110610b3857fe5b6000918252602090912060029091020154600680546001600160a01b0390921691638043154d91339185908110610b6b57fe5b906000526020600020906002020160010154856040518463ffffffff1660e01b815260040180846001600160a01b03166001600160a01b031681526020018381526020018281526020019350505050602060405180830381600087803b158015610bd457600080fd5b505af1158015610be8573d6000803e3d6000fd5b505050506040513d6020811015610bfe57600080fd5b5051610c0957600080fd5b600101610b21565b505092915050565b6007602052600090815260409020805460019091015460ff9091169082565b60015460009082906001600160a01b03808316911614610c5757600080fd5b6001600160a01b03841660009081526020819052604090205491505b5092915050565b6004546001600160a01b031681565b3360009081526020819052604081206001015460e01b600160e31b90811614610cb157600080fd5b60015482906001600160a01b03808316911614610ccd57600080fd5b6004546001600160a01b031615610ce357600080fd5b6001600160a01b038416610cf657600080fd5b600480546001600160a01b0319166001600160a01b03868116918217835560015460408051600160e01b63f2fde38b02815294850193909352915191169163f2fde38b91602480830192600092919082900301818387803b158015610d5a57600080fd5b505af1158015610d6e573d6000803e3d6000fd5b50505050836001600160a01b0316600160009054906101000a90046001600160a01b03166001600160a01b0316638da5cb5b6040518163ffffffff1660e01b815260040160206040518083038186803b158015610dca57600080fd5b505afa158015610dde573d6000803e3d6000fd5b505050506040513d6020811015610df457600080fd5b50516001600160a01b031614610e0957600080fd5b60025460408051600160e01b638da5cb5b028152905130926001600160a01b031691638da5cb5b916004808301926020929190829003018186803b158015610e5057600080fd5b505afa158015610e64573d6000803e3d6000fd5b505050506040513d6020811015610e7a57600080fd5b50516001600160a01b03161415610f8b5760025460408051600160e01b63f2fde38b0281526001600160a01b0387811660048301529151919092169163f2fde38b91602480830192600092919082900301818387803b158015610edc57600080fd5b505af1158015610ef0573d6000803e3d6000fd5b50505050836001600160a01b0316600260009054906101000a90046001600160a01b03166001600160a01b0316638da5cb5b6040518163ffffffff1660e01b815260040160206040518083038186803b158015610f4c57600080fd5b505afa158015610f60573d6000803e3d6000fd5b505050506040513d6020811015610f7657600080fd5b50516001600160a01b031614610f8b57600080fd5b60035460408051600160e01b638da5cb5b028152905130926001600160a01b031691638da5cb5b916004808301926020929190829003018186803b158015610fd257600080fd5b505afa158015610fe6573d6000803e3d6000fd5b505050506040513d6020811015610ffc57600080fd5b50516001600160a01b0316141561110d5760035460408051600160e01b63f2fde38b0281526001600160a01b0387811660048301529151919092169163f2fde38b91602480830192600092919082900301818387803b15801561105e57600080fd5b505af1158015611072573d6000803e3d6000fd5b50505050836001600160a01b0316600360009054906101000a90046001600160a01b03166001600160a01b0316638da5cb5b6040518163ffffffff1660e01b815260040160206040518083038186803b1580156110ce57600080fd5b505afa1580156110e2573d6000803e3d6000fd5b505050506040513d60208110156110f857600080fd5b50516001600160a01b03161461110d57600080fd5b600454604080516001600160a01b039290921682525130917fdb7cbacf8df312d794506c0cc9af07f64d29ca075796ea2e950a3832cc9a63dd919081900360200190a25060019392505050565b6005818154811061116757fe5b6000918252602090912060029091020180546001909101546001600160a01b03909116915082565b3360009081526020819052604081206001015460e01b600160e21b908116146111b757600080fd5b60015482906001600160a01b038083169116146111d357600080fd5b6111db6138ec565b6111e36138ec565b6000866001600160a01b031663e2b0caef6040518163ffffffff1660e01b8152600401602060405180830381600087803b15801561122057600080fd5b505af1158015611234573d6000803e3d6000fd5b505050506040513d602081101561124a57600080fd5b5051905060008082600281111561125d57fe5b14806112745750600282600281111561127257fe5b145b156113b8576001600160a01b0388166000908152600760209081526040918290208251808401909352805460ff161580158452600190910154918301919091529094506113b85760016005805490500384602001511015611379576005805460001981019081106112e157fe5b60009182526020918290206040805180820190915260029092020180546001600160a01b03168252600101548183015290850151600580549295508592909190811061132957fe5b6000918252602080832084516002939093020180546001600160a01b0319166001600160a01b03938416178155938101516001948501558781015187519092168352600790526040909120909101555b600580549061138c906000198301613903565b50506001600160a01b0387166000908152600760205260408120805460ff191681556001908101919091555b60018260028111156113c657fe5b14806113dd575060028260028111156113db57fe5b145b15611521576001600160a01b0388166000908152600860209081526040918290208251808401909352805460ff1615801584526001909101549183019190915290945061152157600160068054905003846020015110156114e25760068054600019810190811061144a57fe5b60009182526020918290206040805180820190915260029092020180546001600160a01b03168252600101548183015290850151600680549295508592909190811061149257fe5b6000918252602080832084516002939093020180546001600160a01b0319166001600160a01b03938416178155938101516001948501558781015187519092168352600890526040909120909101555b60068054906114f5906000198301613903565b50506001600160a01b0387166000908152600860205260408120805460ff191681556001908101919091555b801561157f5760208401516001600160a01b038916907fcdf1a50ea6b7de555bd409f8a4a53ea43c6dc6b4caa961889da9e005f21bbaa990600085600281111561156757fe5b60408051938452911460208301528051918290030190a25b979650505050505050565b3360009081526020819052604081206001015460e01b600160e01b908116146115b257600080fd5b7f65787465726e616c546f6b656e496e637265617365417070726f76616c00000060005b6005548110156116c657600581815481106115ed57fe5b6000918252602090912060029091020154600580546001600160a01b039092169163c1786ab29133918590811061162057fe5b906000526020600020906002020160010154856040518463ffffffff1660e01b815260040180846001600160a01b03166001600160a01b031681526020018381526020018281526020019350505050602060405180830381600087803b15801561168957600080fd5b505af115801561169d573d6000803e3d6000fd5b505050506040513d60208110156116b357600080fd5b50516116be57600080fd5b6001016115d6565b60015484906001600160a01b038083169116146116e257600080fd5b60015460408051600160e01b63ab751f710281526001600160a01b038b811660048301528a81166024830152604482018a90529151919092169163ab751f719160648083019260209291908290030181600087803b15801561174357600080fd5b505af1158015611757573d6000803e3d6000fd5b505050506040513d602081101561176d57600080fd5b5051935050600090505b600654811015611867576006818154811061178e57fe5b6000918252602090912060029091020154600680546001600160a01b0390921691638043154d913391859081106117c157fe5b906000526020600020906002020160010154856040518463ffffffff1660e01b815260040180846001600160a01b03166001600160a01b031681526020018381526020018281526020019350505050602060405180830381600087803b15801561182a57600080fd5b505af115801561183e573d6000803e3d6000fd5b505050506040513d602081101561185457600080fd5b505161185f57600080fd5b600101611777565b5050949350505050565b6001546001600160a01b031681565b3360009081526020819052604081206001015460e01b600160e01b908116146118a857600080fd5b600160b91b6839b2b73222ba3432b90260005b6005548110156119ab57600581815481106118d257fe5b6000918252602090912060029091020154600580546001600160a01b039092169163c1786ab29133918590811061190557fe5b906000526020600020906002020160010154856040518463ffffffff1660e01b815260040180846001600160a01b03166001600160a01b031681526020018381526020018281526020019350505050602060405180830381600087803b15801561196e57600080fd5b505af1158015611982573d6000803e3d6000fd5b505050506040513d602081101561199857600080fd5b50516119a357600080fd5b6001016118bb565b60015484906001600160a01b038083169116146119c757600080fd5b60015460408051600160e11b63658b6a51028152600481018a90526001600160a01b0389811660248301529151919092169163cb16d4a29160448083019260209291908290030181600087803b158015611a2057600080fd5b505af1158015611a34573d6000803e3d6000fd5b505050506040513d6020811015611a4a57600080fd5b5051935050600090505b600654811015611b445760068181548110611a6b57fe5b6000918252602090912060029091020154600680546001600160a01b0390921691638043154d91339185908110611a9e57fe5b906000526020600020906002020160010154856040518463ffffffff1660e01b815260040180846001600160a01b03166001600160a01b031681526020018381526020018281526020019350505050602060405180830381600087803b158015611b0757600080fd5b505af1158015611b1b573d6000803e3d6000fd5b505050506040513d6020811015611b3157600080fd5b5051611b3c57600080fd5b600101611a54565b50509392505050565b3360009081526020819052604081206001015460e01b600160e01b90811614611b7557600080fd5b600160b01b696d696e74546f6b656e730260005b600554811015611c795760058181548110611ba057fe5b6000918252602090912060029091020154600580546001600160a01b039092169163c1786ab291339185908110611bd357fe5b906000526020600020906002020160010154856040518463ffffffff1660e01b815260040180846001600160a01b03166001600160a01b031681526020018381526020018281526020019350505050602060405180830381600087803b158015611c3c57600080fd5b505af1158015611c50573d6000803e3d6000fd5b505050506040513d6020811015611c6657600080fd5b5051611c7157600080fd5b600101611b89565b60015484906001600160a01b03808316911614611c9557600080fd5b6040805188815290516001600160a01b0388169133917f21f9c9a1a1f9a311a50f15fec5c1faa9e21fc9edf964f0fdecba5bd490484c5e9181900360200190a360025460408051600160e01b6340c10f190281526001600160a01b038981166004830152602482018b9052915191909216916340c10f199160448083019260209291908290030181600087803b158015611d2e57600080fd5b505af1158015611d42573d6000803e3d6000fd5b505050506040513d6020811015611d5857600080fd5b5051935050600090505b600654811015611b445760068181548110611d7957fe5b6000918252602090912060029091020154600680546001600160a01b0390921691638043154d91339185908110611dac57fe5b906000526020600020906002020160010154856040518463ffffffff1660e01b815260040180846001600160a01b03166001600160a01b031681526020018381526020018281526020019350505050602060405180830381600087803b158015611e1557600080fd5b505af1158015611e29573d6000803e3d6000fd5b505050506040513d6020811015611e3f57600080fd5b5051611e4a57600080fd5b600101611d62565b60015460009082906001600160a01b03808316911614611e7157600080fd5b611e7a336138c0565b611e875760009150611ed3565b33600081815260208190526040808220828155600101805463ffffffff191690555182917f10bb2cf04cb8b902a8e736d494f1a51003be6d4b16ef6fb95ce62c38445023bf91a3600191505b50919050565b3360009081526020819052604081206001015460e01b600160e01b90811614611f0157600080fd5b7f6275726e52657075746174696f6e00000000000000000000000000000000000060005b6005548110156120155760058181548110611f3c57fe5b6000918252602090912060029091020154600580546001600160a01b039092169163c1786ab291339185908110611f6f57fe5b906000526020600020906002020160010154856040518463ffffffff1660e01b815260040180846001600160a01b03166001600160a01b031681526020018381526020018281526020019350505050602060405180830381600087803b158015611fd857600080fd5b505af1158015611fec573d6000803e3d6000fd5b505050506040513d602081101561200257600080fd5b505161200d57600080fd5b600101611f25565b60015484906001600160a01b0380831691161461203157600080fd5b6040805188815290516001600160a01b0388169133917f186d8887e1b22f9d9b16849c36baa748950d09d9c9b67a4a6ea140eaad00c21c9181900360200190a360035460408051600160e21b632770a7eb0281526001600160a01b038981166004830152602482018b905291519190921691639dc29fac9160448083019260209291908290030181600087803b1580156120ca57600080fd5b505af11580156120de573d6000803e3d6000fd5b505050506040513d60208110156120f457600080fd5b5051935050600090505b600654811015611b44576006818154811061211557fe5b6000918252602090912060029091020154600680546001600160a01b0390921691638043154d9133918590811061214857fe5b906000526020600020906002020160010154856040518463ffffffff1660e01b815260040180846001600160a01b03166001600160a01b031681526020018381526020018281526020019350505050602060405180830381600087803b1580156121b157600080fd5b505af11580156121c5573d6000803e3d6000fd5b505050506040513d60208110156121db57600080fd5b50516121e657600080fd5b6001016120fe565b6008602052600090815260409020805460019091015460ff9091169082565b600154600090819083906001600160a01b0380831691161461222e57600080fd5b600554600654909350915050915091565b6003546001600160a01b031681565b60015460009082906001600160a01b0380831691161461226d57600080fd5b50506003546001600160a01b0316919050565b60015460009082906001600160a01b0380831691161461229f57600080fd5b5050506001600160a01b031660009081526020819052604090206001015460e01b90565b60015460009082906001600160a01b038083169116146122e257600080fd5b6122eb846138c0565b949350505050565b3360009081526020819052604081206001015460e01b600160e01b9081161461231b57600080fd5b7f65787465726e616c546f6b656e5472616e73666572000000000000000000000060005b60055481101561242f576005818154811061235657fe5b6000918252602090912060029091020154600580546001600160a01b039092169163c1786ab29133918590811061238957fe5b906000526020600020906002020160010154856040518463ffffffff1660e01b815260040180846001600160a01b03166001600160a01b031681526020018381526020018281526020019350505050602060405180830381600087803b1580156123f257600080fd5b505af1158015612406573d6000803e3d6000fd5b505050506040513d602081101561241c57600080fd5b505161242757600080fd5b60010161233f565b60015484906001600160a01b0380831691161461244b57600080fd5b60015460408051600160e01b63dab0efff0281526001600160a01b038b811660048301528a81166024830152604482018a90529151919092169163dab0efff9160648083019260209291908290030181600087803b1580156124ac57600080fd5b505af11580156124c0573d6000803e3d6000fd5b505050506040513d60208110156124d657600080fd5b5051935050600090505b60065481101561186757600681815481106124f757fe5b6000918252602090912060029091020154600680546001600160a01b0390921691638043154d9133918590811061252a57fe5b906000526020600020906002020160010154856040518463ffffffff1660e01b815260040180846001600160a01b03166001600160a01b031681526020018381526020018281526020019350505050602060405180830381600087803b15801561259357600080fd5b505af11580156125a7573d6000803e3d6000fd5b505050506040513d60208110156125bd57600080fd5b50516125c857600080fd5b6001016124e0565b3360009081526020819052604081206001015460e01b600160e41b908116146125f857600080fd5b60015482906001600160a01b0380831691161461261457600080fd5b600154604051600160e21b632242b11b028152602060048201908152602482018790526001600160a01b039092169163890ac46c91889188918190604401848480828437600081840152601f19601f8201169050808301925050509350505050602060405180830381600087803b15801561268e57600080fd5b505af11580156126a2573d6000803e3d6000fd5b505050506040513d60208110156126b857600080fd5b505195945050505050565b3360009081526020819052604081206001015460609060e01b600160e41b908116146126ee57600080fd5b600160aa1b6a19d95b995c9a58d0d85b1b0260005b6005548110156127f3576005818154811061271a57fe5b6000918252602090912060029091020154600580546001600160a01b039092169163c1786ab29133918590811061274d57fe5b906000526020600020906002020160010154856040518463ffffffff1660e01b815260040180846001600160a01b03166001600160a01b031681526020018381526020018281526020019350505050602060405180830381600087803b1580156127b657600080fd5b505af11580156127ca573d6000803e3d6000fd5b505050506040513d60208110156127e057600080fd5b50516127eb57600080fd5b600101612703565b60015486906001600160a01b0380831691161461280f57600080fd5b600154604051600160e31b63057e2c8b0281526001600160a01b038c811660048301908152604483018a9052606060248401908152606484018d90529190931692632bf16458928e928e928e928d9290608401858580828437600081840152601f19601f82011690508083019250505095505050505050600060405180830381600087803b1580156128a057600080fd5b505af11580156128b4573d6000803e3d6000fd5b505050506040513d6000823e601f3d908101601f1916820160409081528110156128dd57600080fd5b8151602083018051919392830192916401000000008111156128fe57600080fd5b8201602081018481111561291157600080fd5b815164010000000081118282018710171561292b57600080fd5b5094995097505050505050600090505b600654811015612a2b576006818154811061295257fe5b6000918252602090912060029091020154600680546001600160a01b0390921691638043154d9133918590811061298557fe5b906000526020600020906002020160010154856040518463ffffffff1660e01b815260040180846001600160a01b03166001600160a01b031681526020018381526020018281526020019350505050602060405180830381600087803b1580156129ee57600080fd5b505af1158015612a02573d6000803e3d6000fd5b505050506040513d6020811015612a1857600080fd5b5051612a2357600080fd5b60010161293b565b50509550959350505050565b6000602081905290815260409020805460019091015460e01b82565b6000612a5d6138ec565b506001600160a01b0383166000908152600760209081526040918290208251808401909352805460ff16158015845260019091015491830191909152612ac8576005816020015181548110612aae57fe5b906000526020600020906002020160010154915050612b19565b506001600160a01b0383166000908152600860209081526040918290208251808401909352805460ff16158015845260019091015491830191909152610c73576006816020015181548110612aae57fe5b92915050565b6002546001600160a01b031681565b3360009081526020819052604081206001015460e01b600160e21b90811614612b5657600080fd5b60015482906001600160a01b03808316911614612b7257600080fd5b6000856001600160a01b031663e2b0caef6040518163ffffffff1660e01b8152600401602060405180830381600087803b158015612baf57600080fd5b505af1158015612bc3573d6000803e3d6000fd5b505050506040513d6020811015612bd957600080fd5b505190506000816002811115612beb57fe5b1480612c0257506002816002811115612c0057fe5b145b15612d3a576001600160a01b03861660009081526007602052604090205460ff16612cf9576040805180820182526001600160a01b0388811680835260208084018a81526005805460018082018355600083815297517f036b6384b5eca791c62761152d0c79bb0604c104a5fb6f4eb0703f3154bb3db0600290930292830180546001600160a01b031916919098161790965591517f036b6384b5eca791c62761152d0c79bb0604c104a5fb6f4eb0703f3154bb3db190920191909155855180870187528481529054600019018183019081529285526007909152939092209251835460ff19169015151783559051910155612d3a565b6001600160a01b038616600090815260076020526040902060010154600580548792908110612d2457fe5b9060005260206000209060020201600101819055505b6001816002811115612d4857fe5b1480612d5f57506002816002811115612d5d57fe5b145b15612e97576001600160a01b03861660009081526008602052604090205460ff16612e56576040805180820182526001600160a01b0388811680835260208084018a81526006805460018082018355600083815297517ff652222313e28459528d920b65115c16c04f3efc82aaedc97be59f3f377c0d3f600290930292830180546001600160a01b031916919098161790965591517ff652222313e28459528d920b65115c16c04f3efc82aaedc97be59f3f377c0d4090920191909155855180870187528481529054600019018183019081529285526008909152939092209251835460ff19169015151783559051910155612e97565b6001600160a01b038616600090815260086020526040902060010154600680548792908110612e8157fe5b9060005260206000209060020201600101819055505b856001600160a01b03167f78800d7333b8d0174a0845569e3913b7ce4a3c03ca444dd9904172fc14f2fdad868360405180838152602001826002811115612eda57fe5b60ff1681526020019250505060405180910390a250600195945050505050565b3360009081526020819052604081206001015460e01b600160e11b90811614612f2257600080fd5b7f7265676973746572536368656d6500000000000000000000000000000000000060005b6005548110156130365760058181548110612f5d57fe5b6000918252602090912060029091020154600580546001600160a01b039092169163c1786ab291339185908110612f9057fe5b906000526020600020906002020160010154856040518463ffffffff1660e01b815260040180846001600160a01b03166001600160a01b031681526020018381526020018281526020019350505050602060405180830381600087803b158015612ff957600080fd5b505af115801561300d573d6000803e3d6000fd5b505050506040513d602081101561302357600080fd5b505161302e57600080fd5b600101612f46565b60015484906001600160a01b0380831691161461305257600080fd5b61305a6138ec565b506001600160a01b03881660009081526020818152604080832081518083018352815481526001918201546001600160e01b031960e091821b16828601908152338752948690529290942001549151891891901b1916600160e01b601f0216156130c357600080fd5b336000908152602081815260409091206001015490820151600160e01b601f0260e09290921b191616156130f657600080fd5b6001600160a01b0389166000818152602081905260408082208b8155600101805463ffffffff1916600160e01b8c1760e01c1790555133917f546816e99403df442acb68ef69562682a50762c20a3fb6b472f7af9923736cfc91a3600194505050600090505b600654811015611867576006818154811061317357fe5b6000918252602090912060029091020154600680546001600160a01b0390921691638043154d913391859081106131a657fe5b906000526020600020906002020160010154856040518463ffffffff1660e01b815260040180846001600160a01b03166001600160a01b031681526020018381526020018281526020019350505050602060405180830381600087803b15801561320f57600080fd5b505af1158015613223573d6000803e3d6000fd5b505050506040513d602081101561323957600080fd5b505161324457600080fd5b60010161315c565b6006818154811061116757fe5b3360009081526020819052604081206001015460e01b600160e01b9081161461328157600080fd5b7f6d696e7452657075746174696f6e00000000000000000000000000000000000060005b60055481101561339557600581815481106132bc57fe5b6000918252602090912060029091020154600580546001600160a01b039092169163c1786ab2913391859081106132ef57fe5b906000526020600020906002020160010154856040518463ffffffff1660e01b815260040180846001600160a01b03166001600160a01b031681526020018381526020018281526020019350505050602060405180830381600087803b15801561335857600080fd5b505af115801561336c573d6000803e3d6000fd5b505050506040513d602081101561338257600080fd5b505161338d57600080fd5b6001016132a5565b60015484906001600160a01b038083169116146133b157600080fd5b6040805188815290516001600160a01b0388169133917f837f2931e3df0592458212be4e470025f197feb7a8e39deb5b7f1f1d42e6f2629181900360200190a360035460408051600160e01b6340c10f190281526001600160a01b038981166004830152602482018b9052915191909216916340c10f199160448083019260209291908290030181600087803b15801561344a57600080fd5b505af115801561345e573d6000803e3d6000fd5b505050506040513d602081101561347457600080fd5b5051935050600090505b600654811015611b44576006818154811061349557fe5b6000918252602090912060029091020154600680546001600160a01b0390921691638043154d913391859081106134c857fe5b906000526020600020906002020160010154856040518463ffffffff1660e01b815260040180846001600160a01b03166001600160a01b031681526020018381526020018281526020019350505050602060405180830381600087803b15801561353157600080fd5b505af1158015613545573d6000803e3d6000fd5b505050506040513d602081101561355b57600080fd5b505161356657600080fd5b60010161347e565b60015460009082906001600160a01b0380831691161461358d57600080fd5b6001600160a01b03841660009081526007602052604090205460ff16806122eb57505050506001600160a01b031660009081526008602052604090205460ff1690565b3360009081526020819052604081206001015460e01b600160e01b908116146135f857600080fd5b7f65787465726e616c546f6b656e5472616e7366657246726f6d0000000000000060005b60055481101561370c576005818154811061363357fe5b6000918252602090912060029091020154600580546001600160a01b039092169163c1786ab29133918590811061366657fe5b906000526020600020906002020160010154856040518463ffffffff1660e01b815260040180846001600160a01b03166001600160a01b031681526020018381526020018281526020019350505050602060405180830381600087803b1580156136cf57600080fd5b505af11580156136e3573d6000803e3d6000fd5b505050506040513d60208110156136f957600080fd5b505161370457600080fd5b60010161361c565b60015484906001600160a01b0380831691161461372857600080fd5b60015460408051600160e11b635bab6ad10281526001600160a01b038c811660048301528b811660248301528a81166044830152606482018a90529151919092169163b756d5a29160848083019260209291908290030181600087803b15801561379157600080fd5b505af11580156137a5573d6000803e3d6000fd5b505050506040513d60208110156137bb57600080fd5b5051935050600090505b6006548110156138b557600681815481106137dc57fe5b6000918252602090912060029091020154600680546001600160a01b0390921691638043154d9133918590811061380f57fe5b906000526020600020906002020160010154856040518463ffffffff1660e01b815260040180846001600160a01b03166001600160a01b031681526020018381526020018281526020019350505050602060405180830381600087803b15801561387857600080fd5b505af115801561388c573d6000803e3d6000fd5b505050506040513d60208110156138a257600080fd5b50516138ad57600080fd5b6001016137c5565b505095945050505050565b6001600160a01b03811660009081526020819052604090206001015460e01b600160e01b161515919050565b604080518082019091526000808252602082015290565b81548183558181111561392f5760020281600202836000526020600020918201910161392f9190613934565b505050565b61396391905b8082111561395f5780546001600160a01b03191681556000600182015560020161393a565b5090565b9056fea165627a7a723058206620763b19bda1e64d2939d9e2b095d8916723aebb44150e07a24bb6dbacd92c0029a165627a7a72305820bf08a4b117b9e9517a25235d02766f9b770af2c25232443bf4fff07282939bb90029",
  "source": "pragma solidity ^0.5.4;\n\nimport \"./UniversalScheme.sol\";\nimport \"../controller/UController.sol\";\nimport \"../controller/Controller.sol\";\n\n\n/**\n * @title ControllerCreator for creating a single controller.\n */\n\ncontract ControllerCreator {\n\n    function create(Avatar _avatar) public returns(address) {\n        Controller controller = new Controller(_avatar);\n        controller.registerScheme(msg.sender, bytes32(0), bytes4(0x0000001f), address(_avatar));\n        controller.unregisterScheme(address(this), address(_avatar));\n        return address(controller);\n    }\n}\n\n/**\n * @title Genesis Scheme that creates organizations\n */\n\n\ncontract DaoCreator {\n\n    mapping(address=>address) public locks;\n\n    event NewOrg (address _avatar);\n    event InitialSchemesSet (address _avatar);\n\n    ControllerCreator private controllerCreator;\n\n    constructor(ControllerCreator _controllerCreator) public {\n        controllerCreator = _controllerCreator;\n    }\n\n    /**\n      * @dev addFounders add founders to the organization.\n      *      this function can be called only after forgeOrg and before setSchemes\n      * @param _avatar the organization avatar\n      * @param _founders An array with the addresses of the founders of the organization\n      * @param _foundersTokenAmount An array of amount of tokens that the founders\n      *  receive in the new organization\n      * @param _foundersReputationAmount An array of amount of reputation that the\n      *   founders receive in the new organization\n      * @return bool true or false\n      */\n    function addFounders (\n        Avatar _avatar,\n        address[] calldata _founders,\n        uint[] calldata _foundersTokenAmount,\n        uint[] calldata _foundersReputationAmount\n    )\n    external\n    returns(bool)\n    {\n        require(_founders.length == _foundersTokenAmount.length);\n        require(_founders.length == _foundersReputationAmount.length);\n        require(_founders.length > 0);\n        require(locks[address(_avatar)] == msg.sender);\n        // Mint token and reputation for founders:\n        for (uint256 i = 0; i < _founders.length; i++) {\n            require(_founders[i] != address(0));\n            if (_foundersTokenAmount[i] > 0) {\n                ControllerInterface(\n                _avatar.owner()).mintTokens(_foundersTokenAmount[i], _founders[i], address(_avatar));\n            }\n            if (_foundersReputationAmount[i] > 0) {\n                ControllerInterface(\n                _avatar.owner()).mintReputation(_foundersReputationAmount[i], _founders[i], address(_avatar));\n            }\n        }\n        return true;\n    }\n\n  /**\n    * @dev Create a new organization\n    * @param _orgName The name of the new organization\n    * @param _tokenName The name of the token associated with the organization\n    * @param _tokenSymbol The symbol of the token\n    * @param _founders An array with the addresses of the founders of the organization\n    * @param _foundersTokenAmount An array of amount of tokens that the founders\n    *  receive in the new organization\n    * @param _foundersReputationAmount An array of amount of reputation that the\n    *   founders receive in the new organization\n    * @param  _uController universal controller instance\n    *         if _uController address equal to zero the organization will use none universal controller.\n    * @param  _cap token cap - 0 for no cap.\n    * @return The address of the avatar of the controller\n    */\n    function forgeOrg (\n        string calldata _orgName,\n        string calldata _tokenName,\n        string calldata _tokenSymbol,\n        address[] calldata _founders,\n        uint[] calldata _foundersTokenAmount,\n        uint[] calldata _foundersReputationAmount,\n        UController _uController,\n        uint256 _cap\n    )\n    external\n    returns(address)\n    {\n        //The call for the private function is needed to bypass a deep stack issues\n        return _forgeOrg(\n            _orgName,\n            _tokenName,\n            _tokenSymbol,\n            _founders,\n            _foundersTokenAmount,\n            _foundersReputationAmount,\n            _uController,\n            _cap);\n    }\n\n     /**\n      * @dev Set initial schemes for the organization.\n      * @param _avatar organization avatar (returns from forgeOrg)\n      * @param _schemes the schemes to register for the organization\n      * @param _params the schemes's params\n      * @param _permissions the schemes permissions.\n      * @param _metaData dao meta data hash\n      */\n    function setSchemes (\n        Avatar _avatar,\n        address[] calldata _schemes,\n        bytes32[] calldata _params,\n        bytes4[] calldata _permissions,\n        string calldata _metaData\n    )\n        external\n    {\n        // this action can only be executed by the account that holds the lock\n        // for this controller\n        require(locks[address(_avatar)] == msg.sender);\n        // register initial schemes:\n        ControllerInterface controller = ControllerInterface(_avatar.owner());\n        for (uint256 i = 0; i < _schemes.length; i++) {\n            controller.registerScheme(_schemes[i], _params[i], _permissions[i], address(_avatar));\n        }\n        controller.metaData(_metaData, _avatar);\n        // Unregister self:\n        controller.unregisterScheme(address(this), address(_avatar));\n        // Remove lock:\n        delete locks[address(_avatar)];\n        emit InitialSchemesSet(address(_avatar));\n    }\n\n    /**\n     * @dev Create a new organization\n     * @param _orgName The name of the new organization\n     * @param _tokenName The name of the token associated with the organization\n     * @param _tokenSymbol The symbol of the token\n     * @param _founders An array with the addresses of the founders of the organization\n     * @param _foundersTokenAmount An array of amount of tokens that the founders\n     *  receive in the new organization\n     * @param _foundersReputationAmount An array of amount of reputation that the\n     *   founders receive in the new organization\n     * @param  _uController universal controller instance\n     *         if _uController address equal to zero the organization will use none universal controller.\n     * @param  _cap token cap - 0 for no cap.\n     * @return The address of the avatar of the controller\n     */\n    function _forgeOrg (\n        string memory _orgName,\n        string memory _tokenName,\n        string memory _tokenSymbol,\n        address[] memory _founders,\n        uint[] memory _foundersTokenAmount,\n        uint[] memory _foundersReputationAmount,\n        UController _uController,\n        uint256 _cap\n    ) private returns(address)\n    {\n        // Create Token, Reputation and Avatar:\n        require(_founders.length == _foundersTokenAmount.length);\n        require(_founders.length == _foundersReputationAmount.length);\n        require(_founders.length > 0);\n        DAOToken  nativeToken = new DAOToken(_tokenName, _tokenSymbol, _cap);\n        Reputation  nativeReputation = new Reputation();\n        Avatar  avatar = new Avatar(_orgName, nativeToken, nativeReputation);\n        ControllerInterface  controller;\n\n        // Mint token and reputation for founders:\n        for (uint256 i = 0; i < _founders.length; i++) {\n            require(_founders[i] != address(0));\n            if (_foundersTokenAmount[i] > 0) {\n                nativeToken.mint(_founders[i], _foundersTokenAmount[i]);\n            }\n            if (_foundersReputationAmount[i] > 0) {\n                nativeReputation.mint(_founders[i], _foundersReputationAmount[i]);\n            }\n        }\n\n        // Create Controller:\n        if (UController(0) == _uController) {\n            controller = ControllerInterface(controllerCreator.create(avatar));\n            avatar.transferOwnership(address(controller));\n            // Transfer ownership:\n            nativeToken.transferOwnership(address(controller));\n            nativeReputation.transferOwnership(address(controller));\n        } else {\n            controller = _uController;\n            avatar.transferOwnership(address(controller));\n            // Transfer ownership:\n            nativeToken.transferOwnership(address(controller));\n            nativeReputation.transferOwnership(address(controller));\n            _uController.newOrganization(avatar);\n        }\n\n        locks[address(avatar)] = msg.sender;\n\n        emit NewOrg (address(avatar));\n        return (address(avatar));\n    }\n}\n",
  "sourcePath": "@daostack/arc/contracts/universalSchemes/DaoCreator.sol",
  "compiler": {
    "name": "solc",
    "version": "0.5.6+commit.b259423e.Emscripten.clang"
  },
  "schemaVersion": "3.0.14",
  "updatedAt": "2019-11-18T23:48:29.694Z",
  "devdoc": {
    "methods": {},
    "title": "ControllerCreator for creating a single controller."
  },
  "userdoc": {
    "methods": {}
  }
}