{
  "contractName": "DaoCreator",
  "abi": [
    {
      "constant": true,
      "inputs": [
        {
          "name": "",
          "type": "address"
        }
      ],
      "name": "locks",
      "outputs": [
        {
          "name": "",
          "type": "address"
        }
      ],
      "payable": false,
      "stateMutability": "view",
      "type": "function"
    },
    {
      "inputs": [
        {
          "name": "_controllerCreator",
          "type": "address"
        }
      ],
      "payable": false,
      "stateMutability": "nonpayable",
      "type": "constructor"
    },
    {
      "anonymous": false,
      "inputs": [
        {
          "indexed": true,
          "name": "_avatar",
          "type": "address"
        },
        {
          "indexed": true,
          "name": "_cowvenId",
          "type": "string"
        },
        {
          "indexed": true,
          "name": "_grate",
          "type": "string"
        },
        {
          "indexed": false,
          "name": "_cowvenDescription",
          "type": "string"
        },
        {
          "indexed": false,
          "name": "_reputation",
          "type": "address"
        },
        {
          "indexed": false,
          "name": "_token",
          "type": "address"
        }
      ],
      "name": "NewOrg",
      "type": "event"
    },
    {
      "anonymous": false,
      "inputs": [
        {
          "indexed": false,
          "name": "_avatar",
          "type": "address"
        }
      ],
      "name": "InitialSchemesSet",
      "type": "event"
    },
    {
      "constant": false,
      "inputs": [
        {
          "name": "_avatar",
          "type": "address"
        },
        {
          "name": "_founders",
          "type": "address[]"
        },
        {
          "name": "_foundersReputationAmount",
          "type": "uint256[]"
        }
      ],
      "name": "addFounders",
      "outputs": [
        {
          "name": "",
          "type": "bool"
        }
      ],
      "payable": false,
      "stateMutability": "nonpayable",
      "type": "function"
    },
    {
      "constant": false,
      "inputs": [
        {
          "name": "_orgName",
          "type": "string"
        },
        {
          "name": "_tokenName",
          "type": "string"
        },
        {
          "name": "_tokenSymbol",
          "type": "string"
        },
        {
          "name": "_founders",
          "type": "address[]"
        },
        {
          "name": "_foundersReputationAmount",
          "type": "uint256[]"
        },
        {
          "name": "_cowvenGrate",
          "type": "string"
        },
        {
          "name": "_cowvenDescription",
          "type": "string"
        }
      ],
      "name": "forgeOrg",
      "outputs": [
        {
          "name": "",
          "type": "address"
        }
      ],
      "payable": false,
      "stateMutability": "nonpayable",
      "type": "function"
    },
    {
      "constant": false,
      "inputs": [
        {
          "name": "_avatar",
          "type": "address"
        },
        {
          "name": "_schemes",
          "type": "address[]"
        },
        {
          "name": "_params",
          "type": "bytes32[]"
        },
        {
          "name": "_permissions",
          "type": "bytes4[]"
        },
        {
          "name": "_metaData",
          "type": "string"
        }
      ],
      "name": "setSchemes",
      "outputs": [],
      "payable": false,
      "stateMutability": "nonpayable",
      "type": "function"
    }
  ],
  "bytecode": "0x608060405234801561001057600080fd5b506040516020806143648339810180604052602081101561003057600080fd5b5051600180546001600160a01b0319166001600160a01b03909216919091179055614304806100606000396000f3fe60806040523480156200001157600080fd5b5060043610620000525760003560e01c8063064bf38614620000575780635de9a13714620001d6578063ec57f6e8146200021b578063fac54b491462000306575b600080fd5b620001d4600480360360a08110156200006f57600080fd5b6001600160a01b038235169190810190604081016020820135600160201b8111156200009a57600080fd5b820183602082011115620000ad57600080fd5b803590602001918460208302840111600160201b83111715620000cf57600080fd5b919390929091602081019035600160201b811115620000ed57600080fd5b8201836020820111156200010057600080fd5b803590602001918460208302840111600160201b831117156200012257600080fd5b919390929091602081019035600160201b8111156200014057600080fd5b8201836020820111156200015357600080fd5b803590602001918460208302840111600160201b831117156200017557600080fd5b919390929091602081019035600160201b8111156200019357600080fd5b820183602082011115620001a657600080fd5b803590602001918460018302840111600160201b83111715620001c857600080fd5b5090925090506200056c565b005b620001ff60048036036020811015620001ee57600080fd5b50356001600160a01b0316620008bf565b604080516001600160a01b039092168252519081900360200190f35b620002f2600480360360608110156200023357600080fd5b6001600160a01b038235169190810190604081016020820135600160201b8111156200025e57600080fd5b8201836020820111156200027157600080fd5b803590602001918460208302840111600160201b831117156200029357600080fd5b919390929091602081019035600160201b811115620002b157600080fd5b820183602082011115620002c457600080fd5b803590602001918460208302840111600160201b83111715620002e657600080fd5b509092509050620008da565b604080519115158252519081900360200190f35b620001ff600480360360e08110156200031e57600080fd5b810190602081018135600160201b8111156200033957600080fd5b8201836020820111156200034c57600080fd5b803590602001918460018302840111600160201b831117156200036e57600080fd5b919390929091602081019035600160201b8111156200038c57600080fd5b8201836020820111156200039f57600080fd5b803590602001918460018302840111600160201b83111715620003c157600080fd5b919390929091602081019035600160201b811115620003df57600080fd5b820183602082011115620003f257600080fd5b803590602001918460018302840111600160201b831117156200041457600080fd5b919390929091602081019035600160201b8111156200043257600080fd5b8201836020820111156200044557600080fd5b803590602001918460208302840111600160201b831117156200046757600080fd5b919390929091602081019035600160201b8111156200048557600080fd5b8201836020820111156200049857600080fd5b803590602001918460208302840111600160201b83111715620004ba57600080fd5b919390929091602081019035600160201b811115620004d857600080fd5b820183602082011115620004eb57600080fd5b803590602001918460018302840111600160201b831117156200050d57600080fd5b919390929091602081019035600160201b8111156200052b57600080fd5b8201836020820111156200053e57600080fd5b803590602001918460018302840111600160201b831117156200056057600080fd5b50909250905062000ace565b6001600160a01b038981166000908152602081905260409020541633146200059357600080fd5b6000896001600160a01b0316638da5cb5b6040518163ffffffff1660e01b815260040160206040518083038186803b158015620005cf57600080fd5b505afa158015620005e4573d6000803e3d6000fd5b505050506040513d6020811015620005fb57600080fd5b5051905060005b888110156200072557816001600160a01b031663e869d45f8b8b848181106200062757fe5b905060200201356001600160a01b03168a8a858181106200064457fe5b905060200201358989868181106200065857fe5b905060200201356001600160e01b0319168f6040518563ffffffff1660e01b815260040180856001600160a01b03166001600160a01b03168152602001848152602001836001600160e01b0319166001600160e01b0319168152602001826001600160a01b03166001600160a01b03168152602001945050505050602060405180830381600087803b158015620006ee57600080fd5b505af115801562000703573d6000803e3d6000fd5b505050506040513d60208110156200071a57600080fd5b505060010162000602565b5060408051600160e01b63c9b62eb10281526001600160a01b038c81166024830152600482019283526044820185905283169163c9b62eb191869186918f91908190606401858580828437600081840152601f19601f820116905080830192505050945050505050602060405180830381600087803b158015620007a857600080fd5b505af1158015620007bd573d6000803e3d6000fd5b505050506040513d6020811015620007d457600080fd5b505060408051600160e01b63039de01d0281523060048201526001600160a01b038c8116602483015291519183169163039de01d916044808201926020929091908290030181600087803b1580156200082c57600080fd5b505af115801562000841573d6000803e3d6000fd5b505050506040513d60208110156200085857600080fd5b50506001600160a01b038a166000818152602081815260409182902080546001600160a01b0319169055815192835290517f9007c9042f12be953f7dbe3909f56c3f088e9fe294dbebbef4a67afa63462b6a9281900390910190a150505050505050505050565b6000602081905290815260409020546001600160a01b031681565b6000838214620008e957600080fd5b83620008f457600080fd5b6001600160a01b038681166000908152602081905260409020541633146200091b57600080fd5b60005b8481101562000ac15760008686838181106200093657fe5b905060200201356001600160a01b03166001600160a01b031614156200095b57600080fd5b60008484838181106200096a57fe5b90506020020135111562000ab857866001600160a01b0316638da5cb5b6040518163ffffffff1660e01b815260040160206040518083038186803b158015620009b257600080fd5b505afa158015620009c7573d6000803e3d6000fd5b505050506040513d6020811015620009de57600080fd5b50516001600160a01b031663eaf994b2858584818110620009fb57fe5b9050602002013588888581811062000a0f57fe5b905060200201356001600160a01b03168a6040518463ffffffff1660e01b815260040180848152602001836001600160a01b03166001600160a01b03168152602001826001600160a01b03166001600160a01b031681526020019350505050602060405180830381600087803b15801562000a8957600080fd5b505af115801562000a9e573d6000803e3d6000fd5b505050506040513d602081101562000ab557600080fd5b50505b6001016200091e565b5060019695505050505050565b600062000c878f8f8080601f016020809104026020016040519081016040528093929190818152602001838380828437600081840152601f19601f820116905080830192505050505050508e8e8080601f016020809104026020016040519081016040528093929190818152602001838380828437600081840152601f19601f820116905080830192505050505050508d8d8080601f016020809104026020016040519081016040528093929190818152602001838380828437600081840152601f19601f820116905080830192505050505050508c8c80806020026020016040519081016040528093929190818152602001838360200280828437600081840152601f19601f820116905080830192505050505050508b8b8080602002602001604051908101604052809392919081815260200183836020028082843760009201919091525050604080516020601f8f018190048102820181019092528d815292508d91508c908190840183828082843760009201919091525050604080516020601f8e018190048102820181019092528c815292508c91508b908190840183828082843760009201919091525062000c9a92505050565b9f9e505050505050505050505050505050565b6000835185511462000cab57600080fd5b600085511162000cba57600080fd5b6000878769d3c21bcecceda100000060405162000cd79062001365565b60408101829052606080825284519082015283518190602080830191608084019188019080838360005b8381101562000d1b57818101518382015260200162000d01565b50505050905090810190601f16801562000d495780820380516001836020036101000a031916815260200191505b50838103825285518152855160209182019187019080838360005b8381101562000d7e57818101518382015260200162000d64565b50505050905090810190601f16801562000dac5780820380516001836020036101000a031916815260200191505b5095505050505050604051809103906000f08015801562000dd1573d6000803e3d6000fd5b509050600060405162000de49062001373565b604051809103906000f08015801562000e01573d6000803e3d6000fd5b50905060008a838360405162000e179062001381565b6001600160a01b03808416602080840191909152908316604083015260608083528551908301528451829160808301919087019080838360005b8381101562000e6b57818101518382015260200162000e51565b50505050905090810190601f16801562000e995780820380516001836020036101000a031916815260200191505b50945050505050604051809103906000f08015801562000ebd573d6000803e3d6000fd5b5090506000805b895181101562000fe25760006001600160a01b03168a828151811062000ee657fe5b60200260200101516001600160a01b0316141562000f0357600080fd5b600089828151811062000f1257fe5b6020026020010151111562000fd957836001600160a01b03166340c10f198b838151811062000f3d57fe5b60200260200101518b848151811062000f5257fe5b60200260200101516040518363ffffffff1660e01b815260040180836001600160a01b03166001600160a01b0316815260200182815260200192505050602060405180830381600087803b15801562000faa57600080fd5b505af115801562000fbf573d6000803e3d6000fd5b505050506040513d602081101562000fd657600080fd5b50505b60010162000ec4565b5060015460408051600160e31b6313db26630281526001600160a01b03858116600483015291519190921691639ed933189160248083019260209291908290030181600087803b1580156200103657600080fd5b505af11580156200104b573d6000803e3d6000fd5b505050506040513d60208110156200106257600080fd5b505160408051600160e01b63f2fde38b0281526001600160a01b03808416600483015291519293509084169163f2fde38b9160248082019260009290919082900301818387803b158015620010b657600080fd5b505af1158015620010cb573d6000803e3d6000fd5b50505050836001600160a01b031663f2fde38b826040518263ffffffff1660e01b815260040180826001600160a01b03166001600160a01b03168152602001915050600060405180830381600087803b1580156200112857600080fd5b505af11580156200113d573d6000803e3d6000fd5b50505050826001600160a01b031663f2fde38b826040518263ffffffff1660e01b815260040180826001600160a01b03166001600160a01b03168152602001915050600060405180830381600087803b1580156200119a57600080fd5b505af1158015620011af573d6000803e3d6000fd5b5050506001600160a01b0383166000908152602081815260409182902080546001600160a01b03191633179055905189518a935090918291908401908083835b60208310620012105780518252601f199092019160209182019101620011ef565b6001836020036101000a03801982511681845116808217855250505050505090500191505060405180910390208c6040518082805190602001908083835b602083106200126f5780518252601f1990920191602091820191016200124e565b51815160001960209485036101000a01908116901991909116179052604080519490920184900384206001600160a01b038b8116868401528c81169386019390935260608086528e51908601528d5190965091891694507f6998b40f61af95accf14c435f4ac5d85325bdd6b9d41108b09c442c558499d1f938d93508a928c928291608083019187019080838360005b8381101562001319578181015183820152602001620012ff565b50505050905090810190601f168015620013475780820380516001836020036101000a031916815260200191505b5094505050505060405180910390a4509a9950505050505050505050565b6110de806200139083390190565b610a36806200246e83390190565b6114358062002ea48339019056fe60806040523480156200001157600080fd5b50604051620010de380380620010de833981018060405260608110156200003757600080fd5b8101908080516401000000008111156200005057600080fd5b820160208101848111156200006457600080fd5b81516401000000008111828201871017156200007f57600080fd5b505092919060200180516401000000008111156200009c57600080fd5b82016020810184811115620000b057600080fd5b8151640100000000811182820187101715620000cb57600080fd5b5050602090910151600380546001600160a01b0319163317908190556040519294509092506001600160a01b0316906000907f8be0079c531659141344cd1fd0a4f28419497f9722a3daafe3b4186f6b6457e0908290a38251620001379060049060208601906200015a565b5081516200014d9060059060208501906200015a565b5060065550620001ff9050565b828054600181600116156101000203166002900490600052602060002090601f016020900481019282601f106200019d57805160ff1916838001178555620001cd565b82800160010185558215620001cd579182015b82811115620001cd578251825591602001919060010190620001b0565b50620001db929150620001df565b5090565b620001fc91905b80821115620001db5760008155600101620001e6565b90565b610ecf806200020f6000396000f3fe608060405234801561001057600080fd5b50600436106101215760003560e01c806370a08231116100ad57806395d89b411161007157806395d89b4114610356578063a457c2d71461035e578063a9059cbb1461038a578063dd62ed3e146103b6578063f2fde38b146103e457610121565b806370a08231146102d0578063715018a6146102f657806379cc6790146102fe5780638da5cb5b1461032a5780638f32d59b1461034e57610121565b8063313ce567116100f4578063313ce56714610233578063355274ea14610251578063395093511461025957806340c10f191461028557806342966c68146102b157610121565b806306fdde0314610126578063095ea7b3146101a357806318160ddd146101e357806323b872dd146101fd575b600080fd5b61012e61040a565b6040805160208082528351818301528351919283929083019185019080838360005b83811015610168578181015183820152602001610150565b50505050905090810190601f1680156101955780820380516001836020036101000a031916815260200191505b509250505060405180910390f35b6101cf600480360360408110156101b957600080fd5b506001600160a01b038135169060200135610498565b604080519115158252519081900360200190f35b6101eb6104ae565b60408051918252519081900360200190f35b6101cf6004803603606081101561021357600080fd5b506001600160a01b038135811691602081013590911690604001356104b4565b61023b61050b565b6040805160ff9092168252519081900360200190f35b6101eb610510565b6101cf6004803603604081101561026f57600080fd5b506001600160a01b038135169060200135610516565b6101cf6004803603604081101561029b57600080fd5b506001600160a01b038135169060200135610552565b6102ce600480360360208110156102c757600080fd5b50356105e8565b005b6101eb600480360360208110156102e657600080fd5b50356001600160a01b03166105f5565b6102ce610610565b6102ce6004803603604081101561031457600080fd5b506001600160a01b0381351690602001356106b6565b6103326106c4565b604080516001600160a01b039092168252519081900360200190f35b6101cf6106d3565b61012e6106e4565b6101cf6004803603604081101561037457600080fd5b506001600160a01b03813516906020013561073f565b6101cf600480360360408110156103a057600080fd5b506001600160a01b03813516906020013561077b565b6101eb600480360360408110156103cc57600080fd5b506001600160a01b0381358116916020013516610788565b6102ce600480360360208110156103fa57600080fd5b50356001600160a01b03166107b3565b6004805460408051602060026001851615610100026000190190941693909304601f810184900484028201840190925281815292918301828280156104905780601f1061046557610100808354040283529160200191610490565b820191906000526020600020905b81548152906001019060200180831161047357829003601f168201915b505050505081565b60006104a5338484610818565b50600192915050565b60025490565b60006104c184848461090a565b6001600160a01b0384166000908152600160209081526040808320338085529252909120546105019186916104fc908663ffffffff610a5216565b610818565b5060019392505050565b601281565b60065481565b3360008181526001602090815260408083206001600160a01b038716845290915281205490916104a59185906104fc908663ffffffff610ab216565b600061055c6106d3565b6105b05760408051600160e51b62461bcd02815260206004820181905260248201527f4f776e61626c653a2063616c6c6572206973206e6f7420746865206f776e6572604482015290519081900360640190fd5b600654156105de576006546105d3836105c76104ae565b9063ffffffff610ab216565b11156105de57600080fd5b6104a58383610b16565b6105f23382610c09565b50565b6001600160a01b031660009081526020819052604090205490565b6106186106d3565b61066c5760408051600160e51b62461bcd02815260206004820181905260248201527f4f776e61626c653a2063616c6c6572206973206e6f7420746865206f776e6572604482015290519081900360640190fd5b6003546040516000916001600160a01b0316907f8be0079c531659141344cd1fd0a4f28419497f9722a3daafe3b4186f6b6457e0908390a3600380546001600160a01b0319169055565b6106c08282610ce5565b5050565b6003546001600160a01b031690565b6003546001600160a01b0316331490565b6005805460408051602060026001851615610100026000190190941693909304601f810184900484028201840190925281815292918301828280156104905780601f1061046557610100808354040283529160200191610490565b3360008181526001602090815260408083206001600160a01b038716845290915281205490916104a59185906104fc908663ffffffff610a5216565b60006104a533848461090a565b6001600160a01b03918216600090815260016020908152604080832093909416825291909152205490565b6107bb6106d3565b61080f5760408051600160e51b62461bcd02815260206004820181905260248201527f4f776e61626c653a2063616c6c6572206973206e6f7420746865206f776e6572604482015290519081900360640190fd5b6105f281610d2a565b6001600160a01b03831661086057604051600160e51b62461bcd028152600401808060200182810382526024815260200180610e806024913960400191505060405180910390fd5b6001600160a01b0382166108a857604051600160e51b62461bcd028152600401808060200182810382526022815260200180610e186022913960400191505060405180910390fd5b6001600160a01b03808416600081815260016020908152604080832094871680845294825291829020859055815185815291517f8c5be1e5ebec7d5bd14f71427d1e84f3dd0314c0f7b2291e5b200ac8c7c3b9259281900390910190a3505050565b6001600160a01b03831661095257604051600160e51b62461bcd028152600401808060200182810382526025815260200180610e5b6025913960400191505060405180910390fd5b6001600160a01b03821661099a57604051600160e51b62461bcd028152600401808060200182810382526023815260200180610dcf6023913960400191505060405180910390fd5b6001600160a01b0383166000908152602081905260409020546109c3908263ffffffff610a5216565b6001600160a01b0380851660009081526020819052604080822093909355908416815220546109f8908263ffffffff610ab216565b6001600160a01b038084166000818152602081815260409182902094909455805185815290519193928716927fddf252ad1be2c89b69c2b068fc378daa952ba7f163c4a11628f55a4df523b3ef92918290030190a3505050565b600082821115610aac5760408051600160e51b62461bcd02815260206004820152601e60248201527f536166654d6174683a207375627472616374696f6e206f766572666c6f770000604482015290519081900360640190fd5b50900390565b600082820183811015610b0f5760408051600160e51b62461bcd02815260206004820152601b60248201527f536166654d6174683a206164646974696f6e206f766572666c6f770000000000604482015290519081900360640190fd5b9392505050565b6001600160a01b038216610b745760408051600160e51b62461bcd02815260206004820152601f60248201527f45524332303a206d696e7420746f20746865207a65726f206164647265737300604482015290519081900360640190fd5b600254610b87908263ffffffff610ab216565b6002556001600160a01b038216600090815260208190526040902054610bb3908263ffffffff610ab216565b6001600160a01b0383166000818152602081815260408083209490945583518581529351929391927fddf252ad1be2c89b69c2b068fc378daa952ba7f163c4a11628f55a4df523b3ef9281900390910190a35050565b6001600160a01b038216610c5157604051600160e51b62461bcd028152600401808060200182810382526021815260200180610e3a6021913960400191505060405180910390fd5b600254610c64908263ffffffff610a5216565b6002556001600160a01b038216600090815260208190526040902054610c90908263ffffffff610a5216565b6001600160a01b038316600081815260208181526040808320949094558351858152935191937fddf252ad1be2c89b69c2b068fc378daa952ba7f163c4a11628f55a4df523b3ef929081900390910190a35050565b610cef8282610c09565b6001600160a01b0382166000908152600160209081526040808320338085529252909120546106c09184916104fc908563ffffffff610a5216565b6001600160a01b038116610d7257604051600160e51b62461bcd028152600401808060200182810382526026815260200180610df26026913960400191505060405180910390fd5b6003546040516001600160a01b038084169216907f8be0079c531659141344cd1fd0a4f28419497f9722a3daafe3b4186f6b6457e090600090a3600380546001600160a01b0319166001600160a01b039290921691909117905556fe45524332303a207472616e7366657220746f20746865207a65726f20616464726573734f776e61626c653a206e6577206f776e657220697320746865207a65726f206164647265737345524332303a20617070726f766520746f20746865207a65726f206164647265737345524332303a206275726e2066726f6d20746865207a65726f206164647265737345524332303a207472616e736665722066726f6d20746865207a65726f206164647265737345524332303a20617070726f76652066726f6d20746865207a65726f2061646472657373a165627a7a72305820f4919d3e12b55c28078ce61f59a803f7d454d725a5434375c934532f8de365090029608060405260008054600160a01b60ff0219167412000000000000000000000000000000000000000017905534801561003757600080fd5b50600080546001600160a01b03191633178082556040516001600160a01b039190911691907f8be0079c531659141344cd1fd0a4f28419497f9722a3daafe3b4186f6b6457e0908290a36109a6806100906000396000f3fe608060405234801561001057600080fd5b50600436106100a95760003560e01c8063715018a611610071578063715018a6146101785780638da5cb5b146101825780638f32d59b146101a6578063981b24d0146101ae5780639dc29fac146101cb578063f2fde38b146101f7576100a9565b806318160ddd146100ae578063313ce567146100c857806340c10f19146100e65780634ee2cd7e1461012657806370a0823114610152575b600080fd5b6100b661021d565b60408051918252519081900360200190f35b6100d061022e565b6040805160ff9092168252519081900360200190f35b610112600480360360408110156100fc57600080fd5b506001600160a01b03813516906020013561023e565b604080519115158252519081900360200190f35b6100b66004803603604081101561013c57600080fd5b506001600160a01b03813516906020013561033e565b6100b66004803603602081101561016857600080fd5b50356001600160a01b03166103ce565b6101806103e2565b005b61018a610476565b604080516001600160a01b039092168252519081900360200190f35b610112610485565b6100b6600480360360208110156101c457600080fd5b5035610496565b610112600480360360408110156101e157600080fd5b506001600160a01b0381351690602001356104e8565b6101806004803603602081101561020d57600080fd5b50356001600160a01b03166105d6565b600061022843610496565b90505b90565b600054600160a01b900460ff1681565b6000610248610485565b61028a5760408051600160e51b62461bcd028152602060048201819052602482015260008051602061095b833981519152604482015290519081900360640190fd5b600061029461021d565b90508083820110156102a557600080fd5b60006102b0856103ce565b90508084820110156102c157600080fd5b6102ce600285840161062c565b6001600160a01b03851660009081526001602052604090206102f29082860161062c565b6040805185815290516001600160a01b038716917f0f6798a560793a54c3bcfe86a93cde1e73087d944c0ea20544137d4121396885919081900360200190a26001925050505b92915050565b6001600160a01b038216600090815260016020526040812054158061039857506001600160a01b0383166000908152600160205260408120805484929061038157fe5b6000918252602090912001546001600160801b0316115b156103a557506000610338565b6001600160a01b03831660009081526001602052604090206103c7908361071a565b9050610338565b60006103da824361033e565b90505b919050565b6103ea610485565b61042c5760408051600160e51b62461bcd028152602060048201819052602482015260008051602061095b833981519152604482015290519081900360640190fd5b600080546040516001600160a01b03909116907f8be0079c531659141344cd1fd0a4f28419497f9722a3daafe3b4186f6b6457e0908390a3600080546001600160a01b0319169055565b6000546001600160a01b031690565b6000546001600160a01b0316331490565b60025460009015806104c957508160026000815481106104b257fe5b6000918252602090912001546001600160801b0316115b156104d6575060006103dd565b6104e160028361071a565b90506103dd565b60006104f2610485565b6105345760408051600160e51b62461bcd028152602060048201819052602482015260008051602061095b833981519152604482015290519081900360640190fd5b600061053e61021d565b905082600061054c866103ce565b90508181101561055a578091505b610567600283850361062c565b6001600160a01b038616600090815260016020526040902061058b9083830361062c565b6040805183815290516001600160a01b038816917fcc16f5dbb4873280815c1ee09dbd06736cffcc184412cf7a71a0fdb75d397ca5919081900360200190a250600195945050505050565b6105de610485565b6106205760408051600160e51b62461bcd028152602060048201819052602482015260008051602061095b833981519152604482015290519081900360640190fd5b6106298161084a565b50565b80816001600160801b03161461064157600080fd5b815415806106755750815443908390600019810190811061065e57fe5b6000918252602090912001546001600160801b0316105b156106dc578154600090839061068e82600183016108ed565b8154811061069857fe5b600091825260209091200180546001600160801b03848116600160801b024382166fffffffffffffffffffffffffffffffff19909316929092171617905550610716565b8154600090839060001981019081106106f157fe5b600091825260209091200180546001600160801b03808516600160801b029116179055505b5050565b815460009061072b57506000610338565b82548390600019810190811061073d57fe5b6000918252602090912001546001600160801b0316821061078d5782548390600019810190811061076a57fe5b600091825260209091200154600160801b90046001600160801b03169050610338565b8260008154811061079a57fe5b6000918252602090912001546001600160801b03168210156107be57506000610338565b8254600090600019015b818111156108195760006002600183850101049050848682815481106107ea57fe5b6000918252602090912001546001600160801b03161161080c57809250610813565b6001810391505b506107c8565b84828154811061082557fe5b600091825260209091200154600160801b90046001600160801b031695945050505050565b6001600160a01b03811661089257604051600160e51b62461bcd0281526004018080602001828103825260268152602001806109356026913960400191505060405180910390fd5b600080546040516001600160a01b03808516939216917f8be0079c531659141344cd1fd0a4f28419497f9722a3daafe3b4186f6b6457e091a3600080546001600160a01b0319166001600160a01b0392909216919091179055565b81548183558181111561091157600083815260209020610911918101908301610916565b505050565b61022b91905b80821115610930576000815560010161091c565b509056fe4f776e61626c653a206e6577206f776e657220697320746865207a65726f20616464726573734f776e61626c653a2063616c6c6572206973206e6f7420746865206f776e6572a165627a7a7230582006fa3fe4d386a53c8cee8ac527835425f8116f7f039e9c3fc18bc0ac86aafa53002960806040523480156200001157600080fd5b506040516200143538038062001435833981018060405260608110156200003757600080fd5b8101908080516401000000008111156200005057600080fd5b820160208101848111156200006457600080fd5b81516401000000008111828201871017156200007f57600080fd5b50506020820151604092830151600080546001600160a01b03191633178082559451939650919450926001600160a01b0316917f8be0079c531659141344cd1fd0a4f28419497f9722a3daafe3b4186f6b6457e0908290a38251620000ec90600190602086019062000120565b50600280546001600160a01b039384166001600160a01b0319918216179091556003805492909316911617905550620001c5565b828054600181600116156101000203166002900490600052602060002090601f016020900481019282601f106200016357805160ff191683800117855562000193565b8280016001018555821562000193579182015b828111156200019357825182559160200191906001019062000176565b50620001a1929150620001a5565b5090565b620001c291905b80821115620001a15760008155600101620001ac565b90565b61126080620001d56000396000f3fe6080604052600436106100c25760003560e01c80638f32d59b1161007f578063cb16d4a211610059578063cb16d4a214610491578063dab0efff146104ca578063e1758bd81461050d578063f2fde38b14610522576100c2565b80638f32d59b146103f0578063ab751f7114610405578063b756d5a214610448576100c2565b80631386dc2d146100fa5780632bf1645814610184578063715018a6146102cc578063890ac46c146102e357806389ae1c90146103aa5780638da5cb5b146103db575b60408051348152905133917ff32a9f77675fd5917534c7746608fd3e309eac68fbdcbf5925e24ca97a704396919081900360200190a2005b34801561010657600080fd5b5061010f610555565b6040805160208082528351818301528351919283929083019185019080838360005b83811015610149578181015183820152602001610131565b50505050905090810190601f1680156101765780820380516001836020036101000a031916815260200191505b509250505060405180910390f35b34801561019057600080fd5b50610249600480360360608110156101a757600080fd5b6001600160a01b0382351691908101906040810160208201356401000000008111156101d257600080fd5b8201836020820111156101e457600080fd5b8035906020019184600183028401116401000000008311171561020657600080fd5b91908080601f01602080910402602001604051908101604052809392919081815260200183838082843760009201919091525092955050913592506105e2915050565b604051808315151515815260200180602001828103825283818151815260200191508051906020019080838360005b83811015610290578181015183820152602001610278565b50505050905090810190601f1680156102bd5780820380516001836020036101000a031916815260200191505b50935050505060405180910390f35b3480156102d857600080fd5b506102e161079a565b005b3480156102ef57600080fd5b506103966004803603602081101561030657600080fd5b81019060208101813564010000000081111561032157600080fd5b82018360208201111561033357600080fd5b8035906020019184600183028401116401000000008311171561035557600080fd5b91908080601f01602080910402602001604051908101604052809392919081815260200183838082843760009201919091525092955061082e945050505050565b604080519115158252519081900360200190f35b3480156103b657600080fd5b506103bf61091b565b604080516001600160a01b039092168252519081900360200190f35b3480156103e757600080fd5b506103bf61092a565b3480156103fc57600080fd5b50610396610939565b34801561041157600080fd5b506103966004803603606081101561042857600080fd5b506001600160a01b0381358116916020810135909116906040013561094a565b34801561045457600080fd5b506103966004803603608081101561046b57600080fd5b506001600160a01b03813581169160208101358216916040820135169060600135610a00565b34801561049d57600080fd5b50610396600480360360408110156104b457600080fd5b50803590602001356001600160a01b0316610ac1565b3480156104d657600080fd5b50610396600480360360608110156104ed57600080fd5b506001600160a01b03813581169160208101359091169060400135610b8c565b34801561051957600080fd5b506103bf610c47565b34801561052e57600080fd5b506102e16004803603602081101561054557600080fd5b50356001600160a01b0316610c56565b60018054604080516020600284861615610100026000190190941693909304601f810184900484028201840190925281815292918301828280156105da5780601f106105af576101008083540402835291602001916105da565b820191906000526020600020905b8154815290600101906020018083116105bd57829003601f168201915b505050505081565b600060606105ee610939565b6106305760408051600160e51b62461bcd0281526020600482018190526024820152600080516020611215833981519152604482015290519081900360640190fd5b846001600160a01b031683856040518082805190602001908083835b6020831061066b5780518252601f19909201916020918201910161064c565b6001836020036101000a03801982511681845116808217855250505050505090500191505060006040518083038185875af1925050503d80600081146106cd576040519150601f19603f3d011682016040523d82523d6000602084013e6106d2565b606091505b508092508193505050846001600160a01b03167f534b52c783549f909f9e743120524d0b7154058e4a54cdc895c2c0b587a1c7e0858585604051808060200184815260200183151515158152602001828103825285818151815260200191508051906020019080838360005b8381101561075657818101518382015260200161073e565b50505050905090810190601f1680156107835780820380516001836020036101000a031916815260200191505b5094505050505060405180910390a2935093915050565b6107a2610939565b6107e45760408051600160e51b62461bcd0281526020600482018190526024820152600080516020611215833981519152604482015290519081900360640190fd5b600080546040516001600160a01b03909116907f8be0079c531659141344cd1fd0a4f28419497f9722a3daafe3b4186f6b6457e0908390a3600080546001600160a01b0319169055565b6000610838610939565b61087a5760408051600160e51b62461bcd0281526020600482018190526024820152600080516020611215833981519152604482015290519081900360640190fd5b7ff9deba4938ba20070ec5a45ddf59bccba49cf83124215228ec1232182ef0ba2b826040518080602001828103825283818151815260200191508051906020019080838360005b838110156108d95781810151838201526020016108c1565b50505050905090810190601f1680156109065780820380516001836020036101000a031916815260200191505b509250505060405180910390a1506001919050565b6003546001600160a01b031681565b6000546001600160a01b031690565b6000546001600160a01b0316331490565b6000610954610939565b6109965760408051600160e51b62461bcd0281526020600482018190526024820152600080516020611215833981519152604482015290519081900360640190fd5b6109b06001600160a01b038516848463ffffffff610cac16565b604080516001600160a01b038581168252602082018590528251908716927f3a48a4d6253b30fd10e57a347c1f9bcb0604946481fae0b2fdad6e74f2a9cbb3928290030190a25060019392505050565b6000610a0a610939565b610a4c5760408051600160e51b62461bcd0281526020600482018190526024820152600080516020611215833981519152604482015290519081900360640190fd5b610a676001600160a01b03861685858563ffffffff610ecb16565b604080516001600160a01b03868116825285811660208301528183018590529151918716917f179c15de44aa7ab84896301974328eb40b5b40fe01cfe0fee2924ea712c3e8439181900360600190a2506001949350505050565b6000610acb610939565b610b0d5760408051600160e51b62461bcd0281526020600482018190526024820152600080516020611215833981519152604482015290519081900360640190fd5b6040516001600160a01b0383169084156108fc029085906000818181858888f19350505050158015610b43573d6000803e3d6000fd5b506040805184815290516001600160a01b038416917f22fca66666089f39bc900dd6605b489df4aae6260cc8ea8257594cfb8c84926c919081900360200190a250600192915050565b6000610b96610939565b610bd85760408051600160e51b62461bcd0281526020600482018190526024820152600080516020611215833981519152604482015290519081900360640190fd5b610bf26001600160a01b038516848463ffffffff61105616565b826001600160a01b0316846001600160a01b03167f49dc2a60d2599a7b6932d78fb694c30dfc596fe4e0282b5d0fd184b52472c04d846040518082815260200191505060405180910390a35060019392505050565b6002546001600160a01b031681565b610c5e610939565b610ca05760408051600160e51b62461bcd0281526020600482018190526024820152600080516020611215833981519152604482015290519081900360640190fd5b610ca981611120565b50565b610cbe836001600160a01b03166111c3565b610cc757600080fd5b801580610d50575060408051600160e11b636eb1769f0281523060048201526001600160a01b03848116602483015291519185169163dd62ed3e91604480820192602092909190829003018186803b158015610d2257600080fd5b505afa158015610d36573d6000803e3d6000fd5b505050506040513d6020811015610d4c57600080fd5b5051155b610d5957600080fd5b604080518082018252601881527f617070726f766528616464726573732c75696e7432353629000000000000000060209182015281516001600160a01b0385811660248301526044808301869052845180840390910181526064909201845291810180516001600160e01b0316600160e01b63095ea7b3021781529251815160009460609489169392918291908083835b60208310610e095780518252601f199092019160209182019101610dea565b6001836020036101000a0380198251168184511680821785525050505050509050019150506000604051808303816000865af19150503d8060008114610e6b576040519150601f19603f3d011682016040523d82523d6000602084013e610e70565b606091505b509150915081610e7f57600080fd5b80511580610ebb575080516020148015610ebb575080601f81518110610ea157fe5b01602001516001600160f81b031960f891821c90911b1615155b610ec457600080fd5b5050505050565b610edd846001600160a01b03166111c3565b610ee657600080fd5b60006060856001600160a01b03166040518060600160405280602581526020016111ca602591398051602091820120604080516001600160a01b03808b166024830152891660448201526064808201899052825180830390910181526084909101825292830180516001600160e01b03166001600160e01b0319909316929092178252518251909182918083835b60208310610f935780518252601f199092019160209182019101610f74565b6001836020036101000a0380198251168184511680821785525050505050509050019150506000604051808303816000865af19150503d8060008114610ff5576040519150601f19603f3d011682016040523d82523d6000602084013e610ffa565b606091505b50915091508161100957600080fd5b80511580611045575080516020148015611045575080601f8151811061102b57fe5b01602001516001600160f81b031960f891821c90911b1615155b61104e57600080fd5b505050505050565b611068836001600160a01b03166111c3565b61107157600080fd5b604080518082018252601981527f7472616e7366657228616464726573732c75696e74323536290000000000000060209182015281516001600160a01b0385811660248301526044808301869052845180840390910181526064909201845291810180516001600160e01b0316600160e01b63a9059cbb0217815292518151600094606094891693929182919080838360208310610e095780518252601f199092019160209182019101610dea565b6001600160a01b03811661116857604051600160e51b62461bcd0281526004018080602001828103825260268152602001806111ef6026913960400191505060405180910390fd5b600080546040516001600160a01b03808516939216917f8be0079c531659141344cd1fd0a4f28419497f9722a3daafe3b4186f6b6457e091a3600080546001600160a01b0319166001600160a01b0392909216919091179055565b3b15159056fe7472616e7366657246726f6d28616464726573732c616464726573732c75696e74323536294f776e61626c653a206e6577206f776e657220697320746865207a65726f20616464726573734f776e61626c653a2063616c6c6572206973206e6f7420746865206f776e6572a165627a7a7230582014dc0aecdda5d2a0b9035634d6e779c6c3249614424b0acd0410763f0681f14d0029a165627a7a72305820b8d13942b8a1ccf2b85b88e54f6c11bd173637c7a815d885019f5ca23017531f0029",
  "source": "pragma solidity ^0.5.4;\n\nimport \"./UniversalScheme.sol\";\nimport \"../controller/UController.sol\";\nimport \"../controller/Controller.sol\";\n\n\n/**\n * @title ControllerCreator for creating a single controller.\n */\n\ncontract ControllerCreator {\n\n    function create(Avatar _avatar) public returns(address) {\n        Controller controller = new Controller(_avatar);\n        controller.registerScheme(msg.sender, bytes32(0), bytes4(0x0000001f), address(_avatar));\n        controller.unregisterScheme(address(this), address(_avatar));\n        return address(controller);\n    }\n}\n\n/**\n * @title Genesis Scheme that creates organizations\n */\n\n\ncontract DaoCreator {\n\n    mapping(address=>address) public locks;\n\n    event NewOrg (\n        address indexed _avatar,\n        string indexed _cowvenId,\n        string indexed _grate,\n        string _cowvenDescription,\n        address _reputation,\n        address _token\n    );\n    event InitialSchemesSet (address _avatar);\n\n    ControllerCreator private controllerCreator;\n\n    constructor(ControllerCreator _controllerCreator) public {\n        controllerCreator = _controllerCreator;\n    }\n\n    /**\n      * @dev addFounders add founders to the organization.\n      *      this function can be called only after forgeOrg and before setSchemes\n      * @param _avatar the organization avatar\n      * @param _founders An array with the addresses of the founders of the organization\n      *  receive in the new organization\n      * @param _foundersReputationAmount An array of amount of reputation that the\n      *   founders receive in the new organization\n      * @return bool true or false\n      */\n    function addFounders (\n        Avatar _avatar,\n        address[] calldata _founders,\n        uint[] calldata _foundersReputationAmount\n    )\n    external\n    returns(bool)\n    {\n        require(_founders.length == _foundersReputationAmount.length);\n        require(_founders.length > 0);\n        require(locks[address(_avatar)] == msg.sender);\n        // Mint token and reputation for founders:\n        for (uint256 i = 0; i < _founders.length; i++) {\n            require(_founders[i] != address(0));\n            if (_foundersReputationAmount[i] > 0) {\n                ControllerInterface(\n                _avatar.owner()).mintReputation(_foundersReputationAmount[i], _founders[i], address(_avatar));\n            }\n        }\n        return true;\n    }\n\n  /**\n    * @dev Create a new organization\n    * @param _founders An array with the addresses of the founders of the organization\n    *  receive in the new organization\n    * @param _foundersReputationAmount An array of amount of reputation that the\n    *   founders receive in the new organization\n    * @return The address of the avatar of the controller\n    */\n    function forgeOrg (\n        string calldata _orgName,\n        string calldata _tokenName,\n        string calldata _tokenSymbol,\n        address[] calldata _founders,\n        uint[] calldata _foundersReputationAmount,\n        string calldata _cowvenGrate,\n        string calldata _cowvenDescription\n    )\n    external\n    returns(address)\n    {\n        //The call for the private function is needed to bypass a deep stack issues\n        return _forgeOrg(\n            _orgName,\n            _tokenName,\n            _tokenSymbol,\n            _founders,\n            _foundersReputationAmount,\n            _cowvenGrate,\n            _cowvenDescription);\n    }\n\n     /**\n      * @dev Set initial schemes for the organization.\n      * @param _avatar organization avatar (returns from forgeOrg)\n      * @param _schemes the schemes to register for the organization\n      * @param _params the schemes's params\n      * @param _permissions the schemes permissions.\n      * @param _metaData dao meta data hash\n      */\n    function setSchemes (\n        Avatar _avatar,\n        address[] calldata _schemes,\n        bytes32[] calldata _params,\n        bytes4[] calldata _permissions,\n        string calldata _metaData\n    )\n        external\n    {\n        // this action can only be executed by the account that holds the lock\n        // for this controller\n        require(locks[address(_avatar)] == msg.sender);\n        // register initial schemes:\n        ControllerInterface controller = ControllerInterface(_avatar.owner());\n        for (uint256 i = 0; i < _schemes.length; i++) {\n            controller.registerScheme(_schemes[i], _params[i], _permissions[i], address(_avatar));\n        }\n        controller.metaData(_metaData, _avatar);\n        // Unregister self:\n        controller.unregisterScheme(address(this), address(_avatar));\n        // Remove lock:\n        delete locks[address(_avatar)];\n        emit InitialSchemesSet(address(_avatar));\n    }\n\n    /**\n     * @dev Create a new organization\n     * @param _founders An array with the addresses of the founders of the organization\n     * @param _foundersReputationAmount An array of amount of reputation that the\n     *   founders receive in the new organization\n     * @return The address of the avatar of the controller\n     */\n    function _forgeOrg (\n        string memory _orgName,\n        string memory _tokenName,\n        string memory _tokenSymbol,\n        address[] memory _founders,\n        uint[] memory _foundersReputationAmount,\n        string memory _cowvenGrate,\n        string memory _cowvenDescription\n    ) private returns(address)\n    {\n        // Create Token, Reputation and Avatar:\n        require(_founders.length == _foundersReputationAmount.length);\n        require(_founders.length > 0);\n        DAOToken  nativeToken = new DAOToken(_tokenName, _tokenSymbol, 1000000 ether);\n        Reputation  nativeReputation = new Reputation();\n        Avatar  avatar = new Avatar(_orgName, nativeToken, nativeReputation);\n        ControllerInterface  controller;\n\n        // Mint token and reputation for founders:\n        for (uint256 i = 0; i < _founders.length; i++) {\n            require(_founders[i] != address(0));\n            if (_foundersReputationAmount[i] > 0) {\n                nativeReputation.mint(_founders[i], _foundersReputationAmount[i]);\n            }\n        }\n\n        // Create Controller:\n        // if (UController(0) == _uController) {\n            controller = ControllerInterface(controllerCreator.create(avatar));\n            avatar.transferOwnership(address(controller));\n            // Transfer ownership:\n            nativeToken.transferOwnership(address(controller));\n            nativeReputation.transferOwnership(address(controller));\n        // } else {\n        //     controller = _uController;\n        //     avatar.transferOwnership(address(controller));\n        //     // Transfer ownership:\n        //     nativeToken.transferOwnership(address(controller));\n        //     nativeReputation.transferOwnership(address(controller));\n        //     _uController.newOrganization(avatar);\n        // }\n\n        locks[address(avatar)] = msg.sender;\n\n        emit NewOrg (address(avatar), _orgName, _cowvenGrate, _cowvenDescription, address(nativeReputation), address(nativeToken));\n        return (address(avatar));\n    }\n}\n",
  "sourcePath": "/src/contracts/arc/universalSchemes/DaoCreator.sol",
  "compiler": {
    "name": "solc",
    "version": "0.5.6+commit.b259423e.Emscripten.clang"
  },
  "schemaVersion": "3.0.14",
  "updatedAt": "2019-09-30T17:44:24.010Z",
  "devdoc": {
    "methods": {
      "addFounders(address,address[],uint256[])": {
        "details": "addFounders add founders to the organization.     this function can be called only after forgeOrg and before setSchemes",
        "params": {
          "_avatar": "the organization avatar",
          "_founders": "An array with the addresses of the founders of the organization receive in the new organization",
          "_foundersReputationAmount": "An array of amount of reputation that the  founders receive in the new organization"
        },
        "return": "bool true or false"
      },
      "forgeOrg(string,string,string,address[],uint256[],string,string)": {
        "details": "Create a new organization",
        "params": {
          "_founders": "An array with the addresses of the founders of the organization receive in the new organization",
          "_foundersReputationAmount": "An array of amount of reputation that the  founders receive in the new organization"
        },
        "return": "The address of the avatar of the controller"
      },
      "setSchemes(address,address[],bytes32[],bytes4[],string)": {
        "details": "Set initial schemes for the organization.",
        "params": {
          "_avatar": "organization avatar (returns from forgeOrg)",
          "_metaData": "dao meta data hash",
          "_params": "the schemes's params",
          "_permissions": "the schemes permissions.",
          "_schemes": "the schemes to register for the organization"
        }
      }
    },
    "title": "Genesis Scheme that creates organizations"
  },
  "userdoc": {
    "methods": {}
  }
}