{
  "contractName": "ERC827Token",
  "abi": [
    {
      "constant": false,
      "inputs": [
        {
          "name": "spender",
          "type": "address"
        },
        {
          "name": "value",
          "type": "uint256"
        }
      ],
      "name": "approve",
      "outputs": [
        {
          "name": "",
          "type": "bool"
        }
      ],
      "payable": false,
      "stateMutability": "nonpayable",
      "type": "function"
    },
    {
      "constant": true,
      "inputs": [],
      "name": "totalSupply",
      "outputs": [
        {
          "name": "",
          "type": "uint256"
        }
      ],
      "payable": false,
      "stateMutability": "view",
      "type": "function"
    },
    {
      "constant": false,
      "inputs": [
        {
          "name": "sender",
          "type": "address"
        },
        {
          "name": "recipient",
          "type": "address"
        },
        {
          "name": "amount",
          "type": "uint256"
        }
      ],
      "name": "transferFrom",
      "outputs": [
        {
          "name": "",
          "type": "bool"
        }
      ],
      "payable": false,
      "stateMutability": "nonpayable",
      "type": "function"
    },
    {
      "constant": false,
      "inputs": [
        {
          "name": "spender",
          "type": "address"
        },
        {
          "name": "addedValue",
          "type": "uint256"
        }
      ],
      "name": "increaseAllowance",
      "outputs": [
        {
          "name": "",
          "type": "bool"
        }
      ],
      "payable": false,
      "stateMutability": "nonpayable",
      "type": "function"
    },
    {
      "constant": true,
      "inputs": [
        {
          "name": "account",
          "type": "address"
        }
      ],
      "name": "balanceOf",
      "outputs": [
        {
          "name": "",
          "type": "uint256"
        }
      ],
      "payable": false,
      "stateMutability": "view",
      "type": "function"
    },
    {
      "constant": false,
      "inputs": [
        {
          "name": "spender",
          "type": "address"
        },
        {
          "name": "subtractedValue",
          "type": "uint256"
        }
      ],
      "name": "decreaseAllowance",
      "outputs": [
        {
          "name": "",
          "type": "bool"
        }
      ],
      "payable": false,
      "stateMutability": "nonpayable",
      "type": "function"
    },
    {
      "constant": false,
      "inputs": [
        {
          "name": "recipient",
          "type": "address"
        },
        {
          "name": "amount",
          "type": "uint256"
        }
      ],
      "name": "transfer",
      "outputs": [
        {
          "name": "",
          "type": "bool"
        }
      ],
      "payable": false,
      "stateMutability": "nonpayable",
      "type": "function"
    },
    {
      "constant": true,
      "inputs": [
        {
          "name": "owner",
          "type": "address"
        },
        {
          "name": "spender",
          "type": "address"
        }
      ],
      "name": "allowance",
      "outputs": [
        {
          "name": "",
          "type": "uint256"
        }
      ],
      "payable": false,
      "stateMutability": "view",
      "type": "function"
    },
    {
      "anonymous": false,
      "inputs": [
        {
          "indexed": true,
          "name": "from",
          "type": "address"
        },
        {
          "indexed": true,
          "name": "to",
          "type": "address"
        },
        {
          "indexed": false,
          "name": "value",
          "type": "uint256"
        }
      ],
      "name": "Transfer",
      "type": "event"
    },
    {
      "anonymous": false,
      "inputs": [
        {
          "indexed": true,
          "name": "owner",
          "type": "address"
        },
        {
          "indexed": true,
          "name": "spender",
          "type": "address"
        },
        {
          "indexed": false,
          "name": "value",
          "type": "uint256"
        }
      ],
      "name": "Approval",
      "type": "event"
    },
    {
      "constant": false,
      "inputs": [
        {
          "name": "_spender",
          "type": "address"
        },
        {
          "name": "_value",
          "type": "uint256"
        },
        {
          "name": "_data",
          "type": "bytes"
        }
      ],
      "name": "approveAndCall",
      "outputs": [
        {
          "name": "",
          "type": "bool"
        }
      ],
      "payable": true,
      "stateMutability": "payable",
      "type": "function"
    },
    {
      "constant": false,
      "inputs": [
        {
          "name": "_to",
          "type": "address"
        },
        {
          "name": "_value",
          "type": "uint256"
        },
        {
          "name": "_data",
          "type": "bytes"
        }
      ],
      "name": "transferAndCall",
      "outputs": [
        {
          "name": "",
          "type": "bool"
        }
      ],
      "payable": true,
      "stateMutability": "payable",
      "type": "function"
    },
    {
      "constant": false,
      "inputs": [
        {
          "name": "_from",
          "type": "address"
        },
        {
          "name": "_to",
          "type": "address"
        },
        {
          "name": "_value",
          "type": "uint256"
        },
        {
          "name": "_data",
          "type": "bytes"
        }
      ],
      "name": "transferFromAndCall",
      "outputs": [
        {
          "name": "",
          "type": "bool"
        }
      ],
      "payable": true,
      "stateMutability": "payable",
      "type": "function"
    },
    {
      "constant": false,
      "inputs": [
        {
          "name": "_spender",
          "type": "address"
        },
        {
          "name": "_addedValue",
          "type": "uint256"
        },
        {
          "name": "_data",
          "type": "bytes"
        }
      ],
      "name": "increaseApprovalAndCall",
      "outputs": [
        {
          "name": "",
          "type": "bool"
        }
      ],
      "payable": true,
      "stateMutability": "payable",
      "type": "function"
    },
    {
      "constant": false,
      "inputs": [
        {
          "name": "_spender",
          "type": "address"
        },
        {
          "name": "_subtractedValue",
          "type": "uint256"
        },
        {
          "name": "_data",
          "type": "bytes"
        }
      ],
      "name": "decreaseApprovalAndCall",
      "outputs": [
        {
          "name": "",
          "type": "bool"
        }
      ],
      "payable": true,
      "stateMutability": "payable",
      "type": "function"
    }
  ],
  "bytecode": "0x608060405234801561001057600080fd5b50610d5d806100206000396000f3fe6080604052600436106100c25760003560e01c806390db623f1161007f578063c1d34b8911610059578063c1d34b89146103ce578063cae9ca5114610492578063cb3993be1461054b578063dd62ed3e14610604576100c2565b806390db623f146102a3578063a457c2d71461035c578063a9059cbb14610395576100c2565b8063095ea7b3146100c757806318160ddd1461011457806323b872dd1461013b578063395093511461017e5780634000aea0146101b757806370a0823114610270575b600080fd5b3480156100d357600080fd5b50610100600480360360408110156100ea57600080fd5b506001600160a01b03813516906020013561063f565b604080519115158252519081900360200190f35b34801561012057600080fd5b50610129610655565b60408051918252519081900360200190f35b34801561014757600080fd5b506101006004803603606081101561015e57600080fd5b506001600160a01b0381358116916020810135909116906040013561065b565b34801561018a57600080fd5b50610100600480360360408110156101a157600080fd5b506001600160a01b0381351690602001356106b2565b610100600480360360608110156101cd57600080fd5b6001600160a01b0382351691602081013591810190606081016040820135600160201b8111156101fc57600080fd5b82018360208201111561020e57600080fd5b803590602001918460018302840111600160201b8311171561022f57600080fd5b91908080601f0160208091040260200160405190810160405280939291908181526020018383808284376000920191909152509295506106ee945050505050565b34801561027c57600080fd5b506101296004803603602081101561029357600080fd5b50356001600160a01b03166107ce565b610100600480360360608110156102b957600080fd5b6001600160a01b0382351691602081013591810190606081016040820135600160201b8111156102e857600080fd5b8201836020820111156102fa57600080fd5b803590602001918460018302840111600160201b8311171561031b57600080fd5b91908080601f0160208091040260200160405190810160405280939291908181526020018383808284376000920191909152509295506107e9945050505050565b34801561036857600080fd5b506101006004803603604081101561037f57600080fd5b506001600160a01b03813516906020013561080b565b3480156103a157600080fd5b50610100600480360360408110156103b857600080fd5b506001600160a01b038135169060200135610847565b610100600480360360808110156103e457600080fd5b6001600160a01b03823581169260208101359091169160408201359190810190608081016060820135600160201b81111561041e57600080fd5b82018360208201111561043057600080fd5b803590602001918460018302840111600160201b8311171561045157600080fd5b91908080601f016020809104026020016040519081016040528093929190818152602001838380828437600092019190915250929550610854945050505050565b610100600480360360608110156104a857600080fd5b6001600160a01b0382351691602081013591810190606081016040820135600160201b8111156104d757600080fd5b8201836020820111156104e957600080fd5b803590602001918460018302840111600160201b8311171561050a57600080fd5b91908080601f016020809104026020016040519081016040528093929190818152602001838380828437600092019190915250929550610936945050505050565b6101006004803603606081101561056157600080fd5b6001600160a01b0382351691602081013591810190606081016040820135600160201b81111561059057600080fd5b8201836020820111156105a257600080fd5b803590602001918460018302840111600160201b831117156105c357600080fd5b91908080601f016020809104026020016040519081016040528093929190818152602001838380828437600092019190915250929550610958945050505050565b34801561061057600080fd5b506101296004803603604081101561062757600080fd5b506001600160a01b038135811691602001351661097a565b600061064c3384846109a5565b50600192915050565b60025490565b6000610668848484610a97565b6001600160a01b0384166000908152600160209081526040808320338085529252909120546106a89186916106a3908663ffffffff610bdf16565b6109a5565b5060019392505050565b3360008181526001602090815260408083206001600160a01b0387168452909152812054909161064c9185906106a3908663ffffffff610c3f16565b60006001600160a01b03841630141561070657600080fd5b6107108484610847565b506000846001600160a01b031634846040518082805190602001908083835b6020831061074e5780518252601f19909201916020918201910161072f565b6001836020036101000a03801982511681845116808217855250505050505090500191505060006040518083038185875af1925050503d80600081146107b0576040519150601f19603f3d011682016040523d82523d6000602084013e6107b5565b606091505b50509050806107c357600080fd5b506001949350505050565b6001600160a01b031660009081526020819052604090205490565b60006001600160a01b03841630141561080157600080fd5b61071084846106b2565b3360008181526001602090815260408083206001600160a01b0387168452909152812054909161064c9185906106a3908663ffffffff610bdf16565b600061064c338484610a97565b60006001600160a01b03841630141561086c57600080fd5b61087785858561065b565b506000846001600160a01b031634846040518082805190602001908083835b602083106108b55780518252601f199092019160209182019101610896565b6001836020036101000a03801982511681845116808217855250505050505090500191505060006040518083038185875af1925050503d8060008114610917576040519150601f19603f3d011682016040523d82523d6000602084013e61091c565b606091505b505090508061092a57600080fd5b50600195945050505050565b60006001600160a01b03841630141561094e57600080fd5b610710848461063f565b60006001600160a01b03841630141561097057600080fd5b610710848461080b565b6001600160a01b03918216600090815260016020908152604080832093909416825291909152205490565b6001600160a01b0383166109ed57604051600160e51b62461bcd028152600401808060200182810382526024815260200180610d0e6024913960400191505060405180910390fd5b6001600160a01b038216610a3557604051600160e51b62461bcd028152600401808060200182810382526022815260200180610cc76022913960400191505060405180910390fd5b6001600160a01b03808416600081815260016020908152604080832094871680845294825291829020859055815185815291517f8c5be1e5ebec7d5bd14f71427d1e84f3dd0314c0f7b2291e5b200ac8c7c3b9259281900390910190a3505050565b6001600160a01b038316610adf57604051600160e51b62461bcd028152600401808060200182810382526025815260200180610ce96025913960400191505060405180910390fd5b6001600160a01b038216610b2757604051600160e51b62461bcd028152600401808060200182810382526023815260200180610ca46023913960400191505060405180910390fd5b6001600160a01b038316600090815260208190526040902054610b50908263ffffffff610bdf16565b6001600160a01b038085166000908152602081905260408082209390935590841681522054610b85908263ffffffff610c3f16565b6001600160a01b038084166000818152602081815260409182902094909455805185815290519193928716927fddf252ad1be2c89b69c2b068fc378daa952ba7f163c4a11628f55a4df523b3ef92918290030190a3505050565b600082821115610c395760408051600160e51b62461bcd02815260206004820152601e60248201527f536166654d6174683a207375627472616374696f6e206f766572666c6f770000604482015290519081900360640190fd5b50900390565b600082820183811015610c9c5760408051600160e51b62461bcd02815260206004820152601b60248201527f536166654d6174683a206164646974696f6e206f766572666c6f770000000000604482015290519081900360640190fd5b939250505056fe45524332303a207472616e7366657220746f20746865207a65726f206164647265737345524332303a20617070726f766520746f20746865207a65726f206164647265737345524332303a207472616e736665722066726f6d20746865207a65726f206164647265737345524332303a20617070726f76652066726f6d20746865207a65726f2061646472657373a165627a7a72305820deaa3e4d5194a3f575de898bde6d1df262445cccac8e7d1f4d25109efae73c620029",
  "source": "pragma solidity ^0.5.4;\n\nimport \"./ERC827.sol\";\nimport \"openzeppelin-solidity/contracts/token/ERC20/ERC20.sol\";\n\n\n/**\n * @title ERC827, an extension of IERC20 token standard\n *\n * @dev Implementation the ERC827, following the IERC20 standard with extra\n * methods to transfer value and data and execute calls in transfers and\n * approvals. Uses OpenZeppelin IERC20.\n */\ncontract ERC827Token is ERC20, ERC827 {\n\n  /**\n   * @dev Addition to IERC20 token methods. It allows to\n   * approve the transfer of value and execute a call with the sent data.\n   * Beware that changing an allowance with this method brings the risk that\n   * someone may use both the old and the new allowance by unfortunate\n   * transaction ordering. One possible solution to mitigate this race condition\n   * is to first reduce the spender's allowance to 0 and set the desired value\n   * afterwards:\n   * https://github.com/ethereum/EIPs/issues/20#issuecomment-263524729\n   * @param _spender The address that will spend the funds.\n   * @param _value The amount of tokens to be spent.\n   * @param _data ABI-encoded contract call to call `_spender` address.\n   * @return true if the call function was executed successfully\n   */\n    function approveAndCall(\n        address _spender,\n        uint256 _value,\n        bytes memory _data\n    )\n    public\n    payable\n    returns (bool)\n    {\n        require(_spender != address(this));\n\n        super.approve(_spender, _value);\n\n        // solhint-disable-next-line avoid-call-value\n        (bool success,) = _spender.call.value(msg.value)(_data);\n        require(success);\n\n        return true;\n    }\n\n  /**\n   * @dev Addition to IERC20 token methods. Transfer tokens to a specified\n   * address and execute a call with the sent data on the same transaction\n   * @param _to address The address which you want to transfer to\n   * @param _value uint256 the amout of tokens to be transfered\n   * @param _data ABI-encoded contract call to call `_to` address.\n   * @return true if the call function was executed successfully\n   */\n    function transferAndCall(\n        address _to,\n        uint256 _value,\n        bytes memory _data\n    )\n    public\n    payable\n    returns (bool)\n    {\n        require(_to != address(this));\n\n        super.transfer(_to, _value);\n\n        // solhint-disable-next-line avoid-call-value\n        (bool success,) = _to.call.value(msg.value)(_data);\n        require(success);\n        return true;\n    }\n\n  /**\n   * @dev Addition to IERC20 token methods. Transfer tokens from one address to\n   * another and make a contract call on the same transaction\n   * @param _from The address which you want to send tokens from\n   * @param _to The address which you want to transfer to\n   * @param _value The amout of tokens to be transferred\n   * @param _data ABI-encoded contract call to call `_to` address.\n   * @return true if the call function was executed successfully\n   */\n    function transferFromAndCall(\n        address _from,\n        address _to,\n        uint256 _value,\n        bytes memory _data\n    )\n    public payable returns (bool)\n    {\n        require(_to != address(this));\n\n        super.transferFrom(_from, _to, _value);\n\n        // solhint-disable-next-line avoid-call-value\n        (bool success,) = _to.call.value(msg.value)(_data);\n        require(success);\n        return true;\n    }\n\n  /**\n   * @dev Addition to IERC20 methods. Increase the amount of tokens that\n   * an owner allowed to a spender and execute a call with the sent data.\n   * approve should be called when allowed[_spender] == 0. To increment\n   * allowed value is better to use this function to avoid 2 calls (and wait until\n   * the first transaction is mined)\n   * From MonolithDAO Token.sol\n   * @param _spender The address which will spend the funds.\n   * @param _addedValue The amount of tokens to increase the allowance by.\n   * @param _data ABI-encoded contract call to call `_spender` address.\n   */\n    function increaseApprovalAndCall(\n        address _spender,\n        uint256 _addedValue,\n        bytes memory _data\n    )\n    public\n    payable\n    returns (bool)\n    {\n        require(_spender != address(this));\n\n        super.increaseAllowance(_spender, _addedValue);\n\n        // solhint-disable-next-line avoid-call-value\n        (bool success,) = _spender.call.value(msg.value)(_data);\n        require(success);\n\n        return true;\n    }\n\n  /**\n   * @dev Addition to IERC20 methods. Decrease the amount of tokens that\n   * an owner allowed to a spender and execute a call with the sent data.\n   * approve should be called when allowed[_spender] == 0. To decrement\n   * allowed value is better to use this function to avoid 2 calls (and wait until\n   * the first transaction is mined)\n   * From MonolithDAO Token.sol\n   * @param _spender The address which will spend the funds.\n   * @param _subtractedValue The amount of tokens to decrease the allowance by.\n   * @param _data ABI-encoded contract call to call `_spender` address.\n   */\n    function decreaseApprovalAndCall(\n        address _spender,\n        uint256 _subtractedValue,\n        bytes memory _data\n    )\n    public\n    payable\n    returns (bool)\n    {\n        require(_spender != address(this));\n\n        super.decreaseAllowance(_spender, _subtractedValue);\n\n        // solhint-disable-next-line avoid-call-value\n        (bool success,) = _spender.call.value(msg.value)(_data);\n        require(success);\n\n        return true;\n    }\n}\n",
  "sourcePath": "/src/contracts/infra/token/ERC827/ERC827Token.sol",
  "compiler": {
    "name": "solc",
    "version": "0.5.6+commit.b259423e.Emscripten.clang"
  },
  "schemaVersion": "3.0.14",
  "updatedAt": "2019-10-26T14:18:18.782Z",
  "devdoc": {
    "details": "Implementation the ERC827, following the IERC20 standard with extra methods to transfer value and data and execute calls in transfers and approvals. Uses OpenZeppelin IERC20.",
    "methods": {
      "allowance(address,address)": {
        "details": "See `IERC20.allowance`."
      },
      "approve(address,uint256)": {
        "details": "See `IERC20.approve`.     * Requirements:     * - `spender` cannot be the zero address."
      },
      "approveAndCall(address,uint256,bytes)": {
        "details": "Addition to IERC20 token methods. It allows to approve the transfer of value and execute a call with the sent data. Beware that changing an allowance with this method brings the risk that someone may use both the old and the new allowance by unfortunate transaction ordering. One possible solution to mitigate this race condition is to first reduce the spender's allowance to 0 and set the desired value afterwards: https://github.com/ethereum/EIPs/issues/20#issuecomment-263524729",
        "params": {
          "_data": "ABI-encoded contract call to call `_spender` address.",
          "_spender": "The address that will spend the funds.",
          "_value": "The amount of tokens to be spent."
        },
        "return": "true if the call function was executed successfully"
      },
      "balanceOf(address)": {
        "details": "See `IERC20.balanceOf`."
      },
      "decreaseAllowance(address,uint256)": {
        "details": "Atomically decreases the allowance granted to `spender` by the caller.     * This is an alternative to `approve` that can be used as a mitigation for problems described in `IERC20.approve`.     * Emits an `Approval` event indicating the updated allowance.     * Requirements:     * - `spender` cannot be the zero address. - `spender` must have allowance for the caller of at least `subtractedValue`."
      },
      "decreaseApprovalAndCall(address,uint256,bytes)": {
        "details": "Addition to IERC20 methods. Decrease the amount of tokens that an owner allowed to a spender and execute a call with the sent data. approve should be called when allowed[_spender] == 0. To decrement allowed value is better to use this function to avoid 2 calls (and wait until the first transaction is mined) From MonolithDAO Token.sol",
        "params": {
          "_data": "ABI-encoded contract call to call `_spender` address.",
          "_spender": "The address which will spend the funds.",
          "_subtractedValue": "The amount of tokens to decrease the allowance by."
        }
      },
      "increaseAllowance(address,uint256)": {
        "details": "Atomically increases the allowance granted to `spender` by the caller.     * This is an alternative to `approve` that can be used as a mitigation for problems described in `IERC20.approve`.     * Emits an `Approval` event indicating the updated allowance.     * Requirements:     * - `spender` cannot be the zero address."
      },
      "increaseApprovalAndCall(address,uint256,bytes)": {
        "details": "Addition to IERC20 methods. Increase the amount of tokens that an owner allowed to a spender and execute a call with the sent data. approve should be called when allowed[_spender] == 0. To increment allowed value is better to use this function to avoid 2 calls (and wait until the first transaction is mined) From MonolithDAO Token.sol",
        "params": {
          "_addedValue": "The amount of tokens to increase the allowance by.",
          "_data": "ABI-encoded contract call to call `_spender` address.",
          "_spender": "The address which will spend the funds."
        }
      },
      "totalSupply()": {
        "details": "See `IERC20.totalSupply`."
      },
      "transfer(address,uint256)": {
        "details": "See `IERC20.transfer`.     * Requirements:     * - `recipient` cannot be the zero address. - the caller must have a balance of at least `amount`."
      },
      "transferAndCall(address,uint256,bytes)": {
        "details": "Addition to IERC20 token methods. Transfer tokens to a specified address and execute a call with the sent data on the same transaction",
        "params": {
          "_data": "ABI-encoded contract call to call `_to` address.",
          "_to": "address The address which you want to transfer to",
          "_value": "uint256 the amout of tokens to be transfered"
        },
        "return": "true if the call function was executed successfully"
      },
      "transferFrom(address,address,uint256)": {
        "details": "See `IERC20.transferFrom`.     * Emits an `Approval` event indicating the updated allowance. This is not required by the EIP. See the note at the beginning of `ERC20`;     * Requirements: - `sender` and `recipient` cannot be the zero address. - `sender` must have a balance of at least `value`. - the caller must have allowance for `sender`'s tokens of at least `amount`."
      },
      "transferFromAndCall(address,address,uint256,bytes)": {
        "details": "Addition to IERC20 token methods. Transfer tokens from one address to another and make a contract call on the same transaction",
        "params": {
          "_data": "ABI-encoded contract call to call `_to` address.",
          "_from": "The address which you want to send tokens from",
          "_to": "The address which you want to transfer to",
          "_value": "The amout of tokens to be transferred"
        },
        "return": "true if the call function was executed successfully"
      }
    },
    "title": "ERC827, an extension of IERC20 token standard"
  },
  "userdoc": {
    "methods": {}
  }
}