{
  "contractName": "ExternalLocking4Reputation",
  "abi": [
    {
      "constant": true,
      "inputs": [],
      "name": "redeemEnableTime",
      "outputs": [
        {
          "name": "",
          "type": "uint256"
        }
      ],
      "payable": false,
      "stateMutability": "view",
      "type": "function"
    },
    {
      "constant": true,
      "inputs": [],
      "name": "lockingStartTime",
      "outputs": [
        {
          "name": "",
          "type": "uint256"
        }
      ],
      "payable": false,
      "stateMutability": "view",
      "type": "function"
    },
    {
      "constant": true,
      "inputs": [],
      "name": "totalLocked",
      "outputs": [
        {
          "name": "",
          "type": "uint256"
        }
      ],
      "payable": false,
      "stateMutability": "view",
      "type": "function"
    },
    {
      "constant": true,
      "inputs": [],
      "name": "avatar",
      "outputs": [
        {
          "name": "",
          "type": "address"
        }
      ],
      "payable": false,
      "stateMutability": "view",
      "type": "function"
    },
    {
      "constant": true,
      "inputs": [],
      "name": "getAgreementHash",
      "outputs": [
        {
          "name": "",
          "type": "bytes32"
        }
      ],
      "payable": false,
      "stateMutability": "view",
      "type": "function"
    },
    {
      "constant": true,
      "inputs": [
        {
          "name": "",
          "type": "address"
        }
      ],
      "name": "scores",
      "outputs": [
        {
          "name": "",
          "type": "uint256"
        }
      ],
      "payable": false,
      "stateMutability": "view",
      "type": "function"
    },
    {
      "constant": true,
      "inputs": [],
      "name": "externalLockingContract",
      "outputs": [
        {
          "name": "",
          "type": "address"
        }
      ],
      "payable": false,
      "stateMutability": "view",
      "type": "function"
    },
    {
      "constant": true,
      "inputs": [
        {
          "name": "",
          "type": "address"
        },
        {
          "name": "",
          "type": "bytes32"
        }
      ],
      "name": "lockers",
      "outputs": [
        {
          "name": "amount",
          "type": "uint256"
        },
        {
          "name": "releaseTime",
          "type": "uint256"
        }
      ],
      "payable": false,
      "stateMutability": "view",
      "type": "function"
    },
    {
      "constant": false,
      "inputs": [
        {
          "name": "_beneficiary",
          "type": "address"
        }
      ],
      "name": "redeem",
      "outputs": [
        {
          "name": "reputation",
          "type": "uint256"
        }
      ],
      "payable": false,
      "stateMutability": "nonpayable",
      "type": "function"
    },
    {
      "constant": true,
      "inputs": [],
      "name": "lockingEndTime",
      "outputs": [
        {
          "name": "",
          "type": "uint256"
        }
      ],
      "payable": false,
      "stateMutability": "view",
      "type": "function"
    },
    {
      "constant": true,
      "inputs": [],
      "name": "reputationRewardLeft",
      "outputs": [
        {
          "name": "",
          "type": "uint256"
        }
      ],
      "payable": false,
      "stateMutability": "view",
      "type": "function"
    },
    {
      "constant": true,
      "inputs": [],
      "name": "maxLockingPeriod",
      "outputs": [
        {
          "name": "",
          "type": "uint256"
        }
      ],
      "payable": false,
      "stateMutability": "view",
      "type": "function"
    },
    {
      "constant": true,
      "inputs": [],
      "name": "totalScore",
      "outputs": [
        {
          "name": "",
          "type": "uint256"
        }
      ],
      "payable": false,
      "stateMutability": "view",
      "type": "function"
    },
    {
      "constant": true,
      "inputs": [],
      "name": "lockingsCounter",
      "outputs": [
        {
          "name": "",
          "type": "uint256"
        }
      ],
      "payable": false,
      "stateMutability": "view",
      "type": "function"
    },
    {
      "constant": true,
      "inputs": [],
      "name": "totalLockedLeft",
      "outputs": [
        {
          "name": "",
          "type": "uint256"
        }
      ],
      "payable": false,
      "stateMutability": "view",
      "type": "function"
    },
    {
      "constant": true,
      "inputs": [
        {
          "name": "",
          "type": "address"
        }
      ],
      "name": "externalLockers",
      "outputs": [
        {
          "name": "",
          "type": "bool"
        }
      ],
      "payable": false,
      "stateMutability": "view",
      "type": "function"
    },
    {
      "constant": true,
      "inputs": [
        {
          "name": "",
          "type": "address"
        }
      ],
      "name": "registrar",
      "outputs": [
        {
          "name": "",
          "type": "bool"
        }
      ],
      "payable": false,
      "stateMutability": "view",
      "type": "function"
    },
    {
      "constant": true,
      "inputs": [],
      "name": "reputationReward",
      "outputs": [
        {
          "name": "",
          "type": "uint256"
        }
      ],
      "payable": false,
      "stateMutability": "view",
      "type": "function"
    },
    {
      "constant": true,
      "inputs": [],
      "name": "getBalanceFuncSignature",
      "outputs": [
        {
          "name": "",
          "type": "string"
        }
      ],
      "payable": false,
      "stateMutability": "view",
      "type": "function"
    },
    {
      "anonymous": false,
      "inputs": [
        {
          "indexed": true,
          "name": "_beneficiary",
          "type": "address"
        }
      ],
      "name": "Register",
      "type": "event"
    },
    {
      "anonymous": false,
      "inputs": [
        {
          "indexed": true,
          "name": "_beneficiary",
          "type": "address"
        },
        {
          "indexed": false,
          "name": "_amount",
          "type": "uint256"
        }
      ],
      "name": "Redeem",
      "type": "event"
    },
    {
      "anonymous": false,
      "inputs": [
        {
          "indexed": true,
          "name": "_lockingId",
          "type": "bytes32"
        },
        {
          "indexed": true,
          "name": "_beneficiary",
          "type": "address"
        },
        {
          "indexed": false,
          "name": "_amount",
          "type": "uint256"
        }
      ],
      "name": "Release",
      "type": "event"
    },
    {
      "anonymous": false,
      "inputs": [
        {
          "indexed": true,
          "name": "_locker",
          "type": "address"
        },
        {
          "indexed": true,
          "name": "_lockingId",
          "type": "bytes32"
        },
        {
          "indexed": false,
          "name": "_amount",
          "type": "uint256"
        },
        {
          "indexed": false,
          "name": "_period",
          "type": "uint256"
        }
      ],
      "name": "Lock",
      "type": "event"
    },
    {
      "constant": false,
      "inputs": [
        {
          "name": "_avatar",
          "type": "address"
        },
        {
          "name": "_reputationReward",
          "type": "uint256"
        },
        {
          "name": "_claimingStartTime",
          "type": "uint256"
        },
        {
          "name": "_claimingEndTime",
          "type": "uint256"
        },
        {
          "name": "_redeemEnableTime",
          "type": "uint256"
        },
        {
          "name": "_externalLockingContract",
          "type": "address"
        },
        {
          "name": "_getBalanceFuncSignature",
          "type": "string"
        },
        {
          "name": "_agreementHash",
          "type": "bytes32"
        }
      ],
      "name": "initialize",
      "outputs": [],
      "payable": false,
      "stateMutability": "nonpayable",
      "type": "function"
    },
    {
      "constant": false,
      "inputs": [
        {
          "name": "_beneficiary",
          "type": "address"
        },
        {
          "name": "_agreementHash",
          "type": "bytes32"
        }
      ],
      "name": "claim",
      "outputs": [
        {
          "name": "",
          "type": "bytes32"
        }
      ],
      "payable": false,
      "stateMutability": "nonpayable",
      "type": "function"
    },
    {
      "constant": false,
      "inputs": [
        {
          "name": "_agreementHash",
          "type": "bytes32"
        }
      ],
      "name": "register",
      "outputs": [],
      "payable": false,
      "stateMutability": "nonpayable",
      "type": "function"
    }
  ],
  "bytecode": "0x608060405234801561001057600080fd5b5061167d806100206000396000f3fe608060405234801561001057600080fd5b50600436106101425760003560e01c8063bf0df445116100b8578063dd9d2deb1161007c578063dd9d2deb14610292578063e1fa8e84146102cc578063e397cb9e146102eb578063ed1ff6d814610311578063f0167cfa14610319578063f27a55051461039657610142565b8063bf0df44514610246578063c006719f1461024e578063c3201add14610256578063c348a24b1461025e578063c8622c241461026657610142565b806376dd110f1161010a57806376dd110f1461019d5780637f33ccac146101c357806383805742146101cb57806395a2251f14610210578063a8c3301714610236578063afe0e33c1461023e57610142565b80633d1678f41461014757806355bfec881461016157806356891412146101695780635aef7de614610171578063696da92114610195575b600080fd5b61014f610438565b60408051918252519081900360200190f35b61014f61043e565b61014f610444565b61017961044a565b604080516001600160a01b039092168252519081900360200190f35b61014f610459565b61014f600480360360208110156101b357600080fd5b50356001600160a01b0316610460565b610179610472565b6101f7600480360360408110156101e157600080fd5b506001600160a01b038135169060200135610481565b6040805192835260208301919091528051918290030190f35b61014f6004803603602081101561022657600080fd5b50356001600160a01b03166104a5565b61014f61076d565b61014f610773565b61014f610779565b61014f61077f565b61014f610785565b61014f61078b565b61014f6004803603604081101561027c57600080fd5b506001600160a01b038135169060200135610791565b6102b8600480360360208110156102a857600080fd5b50356001600160a01b0316610ab3565b604080519115158252519081900360200190f35b6102e9600480360360208110156102e257600080fd5b5035610ac8565b005b6102b86004803603602081101561030157600080fd5b50356001600160a01b0316610b50565b61014f610b65565b610321610b6b565b6040805160208082528351818301528351919283929083019185019080838360005b8381101561035b578181015183820152602001610343565b50505050905090810190601f1680156103885780820380516001836020036101000a031916815260200191505b509250505060405180910390f35b6102e960048036036101008110156103ad57600080fd5b6001600160a01b03823581169260208101359260408201359260608301359260808101359260a08201359092169181019060e0810160c08201356401000000008111156103f957600080fd5b82018360208201111561040b57600080fd5b8035906020019184600183028401116401000000008311171561042d57600080fd5b919350915035610bf9565b600d5481565b600c5481565b60045481565b6001546001600160a01b031681565b6000545b90565b60036020526000908152604090205481565b600e546001600160a01b031681565b60026020908152600092835260408084209091529082529020805460019091015482565b6000600d5442116105005760408051600160e51b62461bcd02815260206004820152601660248201527f6e6f77203e2072656465656d456e61626c6554696d6500000000000000000000604482015290519081900360640190fd5b6001600160a01b03821660009081526003602052604090205461056d5760408051600160e51b62461bcd02815260206004820152601360248201527f73636f72652073686f756c64206265203e203000000000000000000000000000604482015290519081900360640190fd5b6001600160a01b03821660009081526003602052604081208054908290556008549091906105a290839063ffffffff610c7d16565b90506105b960065482610ce090919063ffffffff16565b6009549093506105cf908463ffffffff610d4d16565b60095560015460408051600160e01b638da5cb5b02815290516001600160a01b0390921691638da5cb5b91600480820192602092909190829003018186803b15801561061a57600080fd5b505afa15801561062e573d6000803e3d6000fd5b505050506040513d602081101561064457600080fd5b505160015460408051600160e11b63757cca59028152600481018790526001600160a01b03888116602483015292831660448201529051919092169163eaf994b29160648083019260209291908290030181600087803b1580156106a757600080fd5b505af11580156106bb573d6000803e3d6000fd5b505050506040513d60208110156106d157600080fd5b50516107275760408051600160e51b62461bcd02815260206004820152601e60248201527f6d696e742072657075746174696f6e2073686f756c6420737563636565640000604482015290519081900360640190fd5b6040805184815290516001600160a01b038616917f222838db2794d11532d940e8dec38ae307ed0b63cd97c233322e221f998767a6919081900360200190a25050919050565b600a5481565b60095481565b600b5481565b60065481565b60075481565b60055481565b6001546000906001600160a01b03166107f45760408051600160e51b62461bcd02815260206004820152601760248201527f73686f756c6420696e697469616c697a65206669727374000000000000000000604482015290519081900360640190fd5b60006001600160a01b03841661080b57503361087e565b6001600160a01b03841660009081526011602052604090205460ff1661087b5760408051600160e51b62461bcd02815260206004820152601e60248201527f62656e65666963696172792073686f756c642062652072656769737465720000604482015290519081900360640190fd5b50825b6001600160a01b03811660009081526010602052604090205460ff16156108d957604051600160e51b62461bcd0281526004018080602001828103825260368152602001806115c06036913960400191505060405180910390fd5b6001600160a01b03808216600081815260106020526040808220805460ff19166001908117909155600e5482516024808201969096528351808203909601865260440192839052600f805494966060969216949193909290918291849160026000199282161561010002929092011604801561098c5780601f1061096a57610100808354040283529182019161098c565b820191906000526020600020905b815481529060010190602001808311610978575b505060408051918290039091206020850180516001600160e01b03166001600160e01b0319909216919091178152905184519093508392508083835b602083106109e75780518252601f1990920191602091820191016109c8565b6001836020036101000a0380198251168184511680821785525050505050509050019150506000604051808303816000865af19150503d8060008114610a49576040519150601f19603f3d011682016040523d82523d6000602084013e610a4e565b606091505b509150915081610a9257604051600160e51b62461bcd0281526004018080602001828103825260288152602001806114916028913960400191505060405180910390fd5b6020810151610aa68160018681808b610dad565b9450505050505b92915050565b60106020526000908152604090205460ff1681565b806000548114610b0c57604051600160e51b62461bcd02815260040180806020018281038252602881526020018061156c6028913960400191505060405180910390fd5b33600081815260116020526040808220805460ff19166001179055517feeda149c76076b34d4b9d8896c2f7efc0d33d1c7b53ea3c5db490d64613f603a9190a25050565b60116020526000908152604090205460ff1681565b60085481565b600f805460408051602060026001851615610100026000190190941693909304601f81018490048402820184019092528181529291830182828015610bf15780601f10610bc657610100808354040283529160200191610bf1565b820191906000526020600020905b815481529060010190602001808311610bd457829003601f168201915b505050505081565b868611610c3a57604051600160e51b62461bcd02815260040180806020018281038252603a815260200180611618603a913960400191505060405180910390fd5b600e80546001600160a01b0319166001600160a01b038616179055610c61600f84846113f8565b50610c7289898989896001876111b1565b505050505050505050565b600082610c8c57506000610aad565b82820282848281610c9957fe5b0414610cd957604051600160e51b62461bcd0281526004018080602001828103825260218152602001806115116021913960400191505060405180910390fd5b9392505050565b6000808211610d395760408051600160e51b62461bcd02815260206004820152601a60248201527f536166654d6174683a206469766973696f6e206279207a65726f000000000000604482015290519081900360640190fd5b6000828481610d4457fe5b04949350505050565b600082821115610da75760408051600160e51b62461bcd02815260206004820152601e60248201527f536166654d6174683a207375627472616374696f6e206f766572666c6f770000604482015290519081900360640190fd5b50900390565b6000816000548114610df357604051600160e51b62461bcd02815260040180806020018281038252602881526020018061156c6028913960400191505060405180910390fd5b60008811610e4b5760408051600160e51b62461bcd02815260206004820152601c60248201527f6c6f636b696e6720616d6f756e742073686f756c64206265203e203000000000604482015290519081900360640190fd5b600b54871115610e8f57604051600160e51b62461bcd02815260040180806020018281038252602c815260200180611594602c913960400191505060405180910390fd5b60008711610ee75760408051600160e51b62461bcd02815260206004820152601c60248201527f6c6f636b696e6720706572696f642073686f756c64206265203e203000000000604482015290519081900360640190fd5b600a54421115610f2b57604051600160e51b62461bcd0281526004018080602001828103825260308152602001806114e16030913960400191505060405180910390fd5b600c54421015610f6f57604051600160e51b62461bcd0281526004018080602001828103825260288152602001806114b96028913960400191505060405180910390fd5b600754604080513060601b602080830191909152603480830185905283518084039091018152605490920190925280519101209250610fb590600163ffffffff61133e16565b6007556001600160a01b038616600090815260026020908152604080832085845290915290208881554288016001820155600454610ff9908a63ffffffff61133e16565b60045560055461100f908a63ffffffff61133e16565b6005556000611044866110388961102c8d8f63ffffffff610c7d16565b9063ffffffff610c7d16565b9063ffffffff610ce016565b90506000811161109e5760408051600160e51b62461bcd02815260206004820152601160248201527f73636f7265206d757374206d65203e2030000000000000000000000000000000604482015290519081900360640190fd5b6001600160a01b0388166000908152600360205260409020546110c7908263ffffffff61133e16565b6001600160a01b038916600090815260036020526040902081905560085490818102816110f057fe5b04146111465760408051600160e51b62461bcd02815260206004820152601160248201527f73636f726520697320746f6f2068696768000000000000000000000000000000604482015290519081900360640190fd5b600654611159908263ffffffff61133e16565b600655604080518b8152602081018b9052815186926001600160a01b038c16927fd173f98f4a2080eab40a0bff4d9a575753270cb2401c74efdec1feb0ba31b426929081900390910190a35050509695505050505050565b6001546001600160a01b0316156112125760408051600160e51b62461bcd02815260206004820152601b60248201527f63616e2062652063616c6c6564206f6e6c79206f6e652074696d650000000000604482015290519081900360640190fd5b6001600160a01b0387166112705760408051600160e51b62461bcd02815260206004820152601560248201527f6176617461722063616e6e6f74206265207a65726f0000000000000000000000604482015290519081900360640190fd5b8484116112b157604051600160e51b62461bcd02815260040180806020018281038252603a815260200180611532603a913960400191505060405180910390fd5b838310156112f357604051600160e51b62461bcd0281526004018080602001828103825260228152602001806115f66022913960400191505060405180910390fd5b60088690556009869055600a849055600b829055600180546001600160a01b0319166001600160a01b038916179055600c859055600d8390556113358161139b565b50505050505050565b600082820183811015610cd95760408051600160e51b62461bcd02815260206004820152601b60248201527f536166654d6174683a206164646974696f6e206f766572666c6f770000000000604482015290519081900360640190fd5b600054156113f35760408051600160e51b62461bcd02815260206004820152601b60248201527f43616e206e6f74207365742061677265656d656e742074776963650000000000604482015290519081900360640190fd5b600055565b828054600181600116156101000203166002900490600052602060002090601f016020900481019282601f106114395782800160ff19823516178555611466565b82800160010185558215611466579182015b8281111561146657823582559160200191906001019061144b565b50611472929150611476565b5090565b61045d91905b80821115611472576000815560010161147c56fe63616c6c20746f2065787465726e616c20636f6e74726163742073686f756c6420737563636565646c6f636b2073686f756c64207374617274206166746572206c6f636b696e67537461727454696d656c6f636b2073686f756c642062652077697468696e2074686520616c6c6f776564206c6f636b696e6720706572696f64536166654d6174683a206d756c7469706c69636174696f6e206f766572666c6f776c6f636b696e6720656e642074696d652073686f756c642062652067726561746572207468616e206c6f636b696e672073746172742074696d6553656e646572206d7573742073656e64207468652072696768742061677265656d656e74486173686c6f636b696e6720706572696f642073686f756c64206265203c3d206d61784c6f636b696e67506572696f64636c61696d696e6720747769636520666f72207468652073616d652062656e6566696369617279206973206e6f7420616c6c6f77656472656465656d456e61626c6554696d65203e3d206c6f636b696e67456e6454696d655f636c61696d696e67456e6454696d652073686f756c642062652067726561746572207468616e205f636c61696d696e67537461727454696d65a165627a7a72305820c6a79f0b89ee39a9fba60477d08486c4af82b4a29123b05dfd6f81f6b0a32cc20029",
  "source": "pragma solidity ^0.5.4;\n\nimport \"./Locking4Reputation.sol\";\n\n/**\n * @title A scheme for external locking Tokens for reputation\n */\n\ncontract ExternalLocking4Reputation is Locking4Reputation {\n\n    event Register(address indexed _beneficiary);\n\n    address public externalLockingContract;\n    string public getBalanceFuncSignature;\n\n    // locker -> bool\n    mapping(address => bool) public externalLockers;\n    //      beneficiary -> bool\n    mapping(address     => bool) public registrar;\n\n    /**\n     * @dev initialize\n     * @param _avatar the avatar to mint reputation from\n     * @param _reputationReward the total reputation this contract will reward\n     *        for the token locking\n     * @param _claimingStartTime claiming starting period time.\n     * @param _claimingEndTime the claiming end time.\n     *        claiming is disable after this time.\n     * @param _redeemEnableTime redeem enable time .\n     *        redeem reputation can be done after this time.\n     * @param _externalLockingContract the contract which lock the token.\n     * @param _getBalanceFuncSignature get balance function signature\n     *        e.g \"lockedTokenBalances(address)\"\n     */\n    function initialize(\n        Avatar _avatar,\n        uint256 _reputationReward,\n        uint256 _claimingStartTime,\n        uint256 _claimingEndTime,\n        uint256 _redeemEnableTime,\n        address _externalLockingContract,\n        string calldata _getBalanceFuncSignature,\n        bytes32 _agreementHash)\n    external\n    {\n        require(_claimingEndTime > _claimingStartTime, \"_claimingEndTime should be greater than _claimingStartTime\");\n        externalLockingContract = _externalLockingContract;\n        getBalanceFuncSignature = _getBalanceFuncSignature;\n        super._initialize(\n        _avatar,\n        _reputationReward,\n        _claimingStartTime,\n        _claimingEndTime,\n        _redeemEnableTime,\n        1,\n        _agreementHash);\n    }\n\n    /**\n     * @dev claim function\n     * @param _beneficiary the beneficiary address to claim for\n     *        if _beneficiary == 0 the claim will be for the msg.sender.\n     * @return claimId\n     */\n    function claim(address _beneficiary, bytes32 _agreementHash) public returns(bytes32) {\n        require(avatar != Avatar(0), \"should initialize first\");\n        address beneficiary;\n        if (_beneficiary == address(0)) {\n            beneficiary = msg.sender;\n        } else {\n            require(registrar[_beneficiary], \"beneficiary should be register\");\n            beneficiary = _beneficiary;\n        }\n        require(externalLockers[beneficiary] == false, \"claiming twice for the same beneficiary is not allowed\");\n        externalLockers[beneficiary] = true;\n        (bool result, bytes memory returnValue) =\n        // solhint-disable-next-line avoid-call-value,avoid-low-level-calls\n        externalLockingContract.call(abi.encodeWithSignature(getBalanceFuncSignature, beneficiary));\n        require(result, \"call to external contract should succeed\");\n        uint256 lockedAmount;\n        // solhint-disable-next-line no-inline-assembly\n        assembly {\n            lockedAmount := mload(add(returnValue, 0x20))\n        }\n        return super._lock(lockedAmount, 1, beneficiary, 1, 1, _agreementHash);\n    }\n\n   /**\n    * @dev register function\n    *      register for external locking claim\n    */\n    function register(bytes32 _agreementHash) public onlyAgree(_agreementHash) {\n        registrar[msg.sender] = true;\n        emit Register(msg.sender);\n    }\n}\n",
  "sourcePath": "/src/contracts/arc/schemes/ExternalLocking4Reputation.sol",
  "compiler": {
    "name": "solc",
    "version": "0.5.6+commit.b259423e.Emscripten.clang"
  },
  "schemaVersion": "3.0.14",
  "updatedAt": "2019-09-30T17:44:11.281Z",
  "devdoc": {
    "methods": {
      "claim(address,bytes32)": {
        "details": "claim function",
        "params": {
          "_beneficiary": "the beneficiary address to claim for       if _beneficiary == 0 the claim will be for the msg.sender."
        },
        "return": "claimId"
      },
      "getAgreementHash()": {
        "details": "getAgreementHash",
        "return": "bytes32 agreementHash"
      },
      "initialize(address,uint256,uint256,uint256,uint256,address,string,bytes32)": {
        "details": "initialize",
        "params": {
          "_avatar": "the avatar to mint reputation from",
          "_claimingEndTime": "the claiming end time.       claiming is disable after this time.",
          "_claimingStartTime": "claiming starting period time.",
          "_externalLockingContract": "the contract which lock the token.",
          "_getBalanceFuncSignature": "get balance function signature       e.g \"lockedTokenBalances(address)\"",
          "_redeemEnableTime": "redeem enable time .       redeem reputation can be done after this time.",
          "_reputationReward": "the total reputation this contract will reward       for the token locking"
        }
      },
      "redeem(address)": {
        "details": "redeem reputation function",
        "params": {
          "_beneficiary": "the beneficiary for the release"
        },
        "return": "uint256 reputation rewarded"
      },
      "register(bytes32)": {
        "details": "register function     register for external locking claim"
      }
    },
    "title": "A scheme for external locking Tokens for reputation"
  },
  "userdoc": {
    "methods": {}
  }
}