{
  "contractName": "ExternalTokenLockerMock",
  "abi": [
    {
      "constant": false,
      "inputs": [],
      "name": "renounceOwnership",
      "outputs": [],
      "payable": false,
      "stateMutability": "nonpayable",
      "type": "function"
    },
    {
      "constant": true,
      "inputs": [
        {
          "name": "",
          "type": "address"
        }
      ],
      "name": "lockedTokenBalances",
      "outputs": [
        {
          "name": "",
          "type": "uint256"
        }
      ],
      "payable": false,
      "stateMutability": "view",
      "type": "function"
    },
    {
      "constant": true,
      "inputs": [],
      "name": "owner",
      "outputs": [
        {
          "name": "",
          "type": "address"
        }
      ],
      "payable": false,
      "stateMutability": "view",
      "type": "function"
    },
    {
      "constant": true,
      "inputs": [],
      "name": "isOwner",
      "outputs": [
        {
          "name": "",
          "type": "bool"
        }
      ],
      "payable": false,
      "stateMutability": "view",
      "type": "function"
    },
    {
      "constant": false,
      "inputs": [
        {
          "name": "newOwner",
          "type": "address"
        }
      ],
      "name": "transferOwnership",
      "outputs": [],
      "payable": false,
      "stateMutability": "nonpayable",
      "type": "function"
    },
    {
      "anonymous": false,
      "inputs": [
        {
          "indexed": true,
          "name": "previousOwner",
          "type": "address"
        },
        {
          "indexed": true,
          "name": "newOwner",
          "type": "address"
        }
      ],
      "name": "OwnershipTransferred",
      "type": "event"
    },
    {
      "constant": false,
      "inputs": [
        {
          "name": "_amount",
          "type": "uint256"
        },
        {
          "name": "_beneficiary",
          "type": "address"
        }
      ],
      "name": "lock",
      "outputs": [],
      "payable": false,
      "stateMutability": "nonpayable",
      "type": "function"
    },
    {
      "constant": true,
      "inputs": [
        {
          "name": "_beneficiary",
          "type": "address"
        }
      ],
      "name": "balanceOf",
      "outputs": [
        {
          "name": "",
          "type": "uint256"
        }
      ],
      "payable": false,
      "stateMutability": "view",
      "type": "function"
    }
  ],
  "bytecode": "0x60806040819052600080546001600160a01b03191633178082556001600160a01b0316917f8be0079c531659141344cd1fd0a4f28419497f9722a3daafe3b4186f6b6457e0908290a3610442806100576000396000f3fe608060405234801561001057600080fd5b506004361061007d5760003560e01c80638b525d0c1161005b5780638b525d0c146100f05780638da5cb5b146101165780638f32d59b1461013a578063f2fde38b146101565761007d565b806366dfbfb41461008257806370a08231146100b0578063715018a6146100e8575b600080fd5b6100ae6004803603604081101561009857600080fd5b50803590602001356001600160a01b031661017c565b005b6100d6600480360360208110156100c657600080fd5b50356001600160a01b03166101f2565b60408051918252519081900360200190f35b6100ae61020d565b6100d66004803603602081101561010657600080fd5b50356001600160a01b03166102b3565b61011e6102c5565b604080516001600160a01b039092168252519081900360200190f35b6101426102d4565b604080519115158252519081900360200190f35b6100ae6004803603602081101561016c57600080fd5b50356001600160a01b03166102e5565b6101846102d4565b6101d85760408051600160e51b62461bcd02815260206004820181905260248201527f4f776e61626c653a2063616c6c6572206973206e6f7420746865206f776e6572604482015290519081900360640190fd5b6001600160a01b0316600090815260016020526040902055565b6001600160a01b031660009081526001602052604090205490565b6102156102d4565b6102695760408051600160e51b62461bcd02815260206004820181905260248201527f4f776e61626c653a2063616c6c6572206973206e6f7420746865206f776e6572604482015290519081900360640190fd5b600080546040516001600160a01b03909116907f8be0079c531659141344cd1fd0a4f28419497f9722a3daafe3b4186f6b6457e0908390a3600080546001600160a01b0319169055565b60016020526000908152604090205481565b6000546001600160a01b031690565b6000546001600160a01b0316331490565b6102ed6102d4565b6103415760408051600160e51b62461bcd02815260206004820181905260248201527f4f776e61626c653a2063616c6c6572206973206e6f7420746865206f776e6572604482015290519081900360640190fd5b61034a8161034d565b50565b6001600160a01b03811661039557604051600160e51b62461bcd0281526004018080602001828103825260268152602001806103f16026913960400191505060405180910390fd5b600080546040516001600160a01b03808516939216917f8be0079c531659141344cd1fd0a4f28419497f9722a3daafe3b4186f6b6457e091a3600080546001600160a01b0319166001600160a01b039290921691909117905556fe4f776e61626c653a206e6577206f776e657220697320746865207a65726f2061646472657373a165627a7a72305820d50fcfa71d59bc66e6a7909e2386cd7047503fb5416d48c51b498859538fd5cb0029",
  "source": "pragma solidity ^0.5.4;\n\nimport \"openzeppelin-solidity/contracts/ownership/Ownable.sol\";\n\ncontract ExternalTokenLockerMock is Ownable {\n\n    // user => amount\n    mapping (address => uint256) public lockedTokenBalances;\n\n    function lock(uint256 _amount, address _beneficiary) public onlyOwner {\n        lockedTokenBalances[_beneficiary] = _amount;\n    }\n\n    function balanceOf(address _beneficiary) public view returns(uint256) {\n        return lockedTokenBalances[_beneficiary];\n    }\n}\n",
  "sourcePath": "/src/contracts/arc/test/ExternalTokenLockerMock.sol",
  "compiler": {
    "name": "solc",
    "version": "0.5.6+commit.b259423e.Emscripten.clang"
  },
  "schemaVersion": "3.0.14",
  "updatedAt": "2019-09-27T19:16:10.845Z",
  "devdoc": {
    "methods": {
      "isOwner()": {
        "details": "Returns true if the caller is the current owner."
      },
      "owner()": {
        "details": "Returns the address of the current owner."
      },
      "renounceOwnership()": {
        "details": "Leaves the contract without owner. It will not be possible to call `onlyOwner` functions anymore. Can only be called by the current owner.     * > Note: Renouncing ownership will leave the contract without an owner, thereby removing any functionality that is only available to the owner."
      },
      "transferOwnership(address)": {
        "details": "Transfers ownership of the contract to a new account (`newOwner`). Can only be called by the current owner."
      }
    }
  },
  "userdoc": {
    "methods": {}
  }
}