{
  "contractName": "Forwarder",
  "abi": [
    {
      "constant": true,
      "inputs": [],
      "name": "avatar",
      "outputs": [
        {
          "name": "",
          "type": "address"
        }
      ],
      "payable": false,
      "stateMutability": "view",
      "type": "function"
    },
    {
      "constant": false,
      "inputs": [],
      "name": "renounceOwnership",
      "outputs": [],
      "payable": false,
      "stateMutability": "nonpayable",
      "type": "function"
    },
    {
      "constant": true,
      "inputs": [],
      "name": "owner",
      "outputs": [
        {
          "name": "",
          "type": "address"
        }
      ],
      "payable": false,
      "stateMutability": "view",
      "type": "function"
    },
    {
      "constant": true,
      "inputs": [],
      "name": "isOwner",
      "outputs": [
        {
          "name": "",
          "type": "bool"
        }
      ],
      "payable": false,
      "stateMutability": "view",
      "type": "function"
    },
    {
      "constant": true,
      "inputs": [],
      "name": "expirationTime",
      "outputs": [
        {
          "name": "",
          "type": "uint256"
        }
      ],
      "payable": false,
      "stateMutability": "view",
      "type": "function"
    },
    {
      "constant": false,
      "inputs": [
        {
          "name": "newOwner",
          "type": "address"
        }
      ],
      "name": "transferOwnership",
      "outputs": [],
      "payable": false,
      "stateMutability": "nonpayable",
      "type": "function"
    },
    {
      "payable": false,
      "stateMutability": "nonpayable",
      "type": "fallback"
    },
    {
      "anonymous": false,
      "inputs": [
        {
          "indexed": true,
          "name": "previousOwner",
          "type": "address"
        },
        {
          "indexed": true,
          "name": "newOwner",
          "type": "address"
        }
      ],
      "name": "OwnershipTransferred",
      "type": "event"
    },
    {
      "constant": false,
      "inputs": [
        {
          "name": "_avatar",
          "type": "address"
        },
        {
          "name": "_expirationTime",
          "type": "uint256"
        }
      ],
      "name": "initialize",
      "outputs": [],
      "payable": false,
      "stateMutability": "nonpayable",
      "type": "function"
    },
    {
      "constant": false,
      "inputs": [],
      "name": "unregisterSelf",
      "outputs": [
        {
          "name": "",
          "type": "bool"
        }
      ],
      "payable": false,
      "stateMutability": "nonpayable",
      "type": "function"
    }
  ],
  "bytecode": "0x60806040819052600080546001600160a01b03191633178082556001600160a01b0316917f8be0079c531659141344cd1fd0a4f28419497f9722a3daafe3b4186f6b6457e0908290a3610798806100576000396000f3fe608060405234801561001057600080fd5b50600436106100885760003560e01c80638f32d59b1161005b5780638f32d59b14610268578063cd6dc68714610270578063da284dcc1461029c578063f2fde38b146102b657610088565b80635aef7de6146102165780636bafaa591461023a578063715018a6146102565780638da5cb5b14610260575b6100906102dc565b6100d25760408051600160e51b62461bcd028152602060048201819052602482015260008051602061074d833981519152604482015290519081900360640190fd5b426002541161012b5760408051600160e51b62461bcd02815260206004820152601460248201527f65787069726174696f6e54696d65203e206e6f77000000000000000000000000604482015290519081900360640190fd5b60015460408051600160e01b638da5cb5b02815290516000926001600160a01b031691638da5cb5b916004808301926020929190829003018186803b15801561017357600080fd5b505afa158015610187573d6000803e3d6000fd5b505050506040513d602081101561019d57600080fd5b50516040516001600160a01b03909116906000903690808383808284376040519201945060009350909150508083038183865af19150503d8060008114610200576040519150601f19603f3d011682016040523d82523d6000602084013e610205565b606091505b505090508061021357600080fd5b50005b61021e6102ed565b604080516001600160a01b039092168252519081900360200190f35b6102426102fc565b604080519115158252519081900360200190f35b61025e610455565b005b61021e6104e9565b6102426102dc565b61025e6004803603604081101561028657600080fd5b506001600160a01b0381351690602001356104f8565b6102a4610627565b60408051918252519081900360200190f35b61025e600480360360208110156102cc57600080fd5b50356001600160a01b031661062d565b6000546001600160a01b0316331490565b6001546001600160a01b031681565b60004260025411156103585760408051600160e51b62461bcd02815260206004820152601560248201527f65787069726174696f6e54696d65203c3d206e6f770000000000000000000000604482015290519081900360640190fd5b600160009054906101000a90046001600160a01b03166001600160a01b0316638da5cb5b6040518163ffffffff1660e01b815260040160206040518083038186803b1580156103a657600080fd5b505afa1580156103ba573d6000803e3d6000fd5b505050506040513d60208110156103d057600080fd5b505160015460408051600160e01b636c525b130281526001600160a01b03928316600482015290519190921691636c525b139160248083019260209291908290030181600087803b15801561042457600080fd5b505af1158015610438573d6000803e3d6000fd5b505050506040513d602081101561044e57600080fd5b5051905090565b61045d6102dc565b61049f5760408051600160e51b62461bcd028152602060048201819052602482015260008051602061074d833981519152604482015290519081900360640190fd5b600080546040516001600160a01b03909116907f8be0079c531659141344cd1fd0a4f28419497f9722a3daafe3b4186f6b6457e0908390a3600080546001600160a01b0319169055565b6000546001600160a01b031690565b6105006102dc565b6105425760408051600160e51b62461bcd028152602060048201819052602482015260008051602061074d833981519152604482015290519081900360640190fd5b6001546001600160a01b0316156105a35760408051600160e51b62461bcd02815260206004820152601b60248201527f63616e2062652063616c6c6564206f6e6c79206f6e652074696d650000000000604482015290519081900360640190fd5b6001600160a01b0382166106015760408051600160e51b62461bcd02815260206004820152601560248201527f6176617461722063616e6e6f74206265207a65726f0000000000000000000000604482015290519081900360640190fd5b600180546001600160a01b0319166001600160a01b039390931692909217909155600255565b60025481565b6106356102dc565b6106775760408051600160e51b62461bcd028152602060048201819052602482015260008051602061074d833981519152604482015290519081900360640190fd5b61068081610683565b50565b6001600160a01b0381166106cb57604051600160e51b62461bcd0281526004018080602001828103825260268152602001806107276026913960400191505060405180910390fd5b600080546040516001600160a01b03808516939216917f8be0079c531659141344cd1fd0a4f28419497f9722a3daafe3b4186f6b6457e091a3600080546001600160a01b0319166001600160a01b039290921691909117905556fe4f776e61626c653a206e6577206f776e657220697320746865207a65726f20616464726573734f776e61626c653a2063616c6c6572206973206e6f7420746865206f776e6572a165627a7a72305820cce62c2b4d43340f1b737ff7893fa0c48211c9024e13c39136aa47365c8d12560029",
  "source": "pragma solidity ^0.5.4;\n\nimport \"../controller/ControllerInterface.sol\";\nimport \"openzeppelin-solidity/contracts/ownership/Ownable.sol\";\n\n/**\n * @title A scheme to forward a call to a dao.\n *        The scheme can unregister itself when its expirationTime reached.\n */\n\n\ncontract Forwarder is Ownable {\n\n    Avatar public avatar;\n    uint256 public expirationTime;\n\n    /**\n     * @dev forwardCall forward a call to the dao controller\n     */\n    // solhint-disable-next-line no-complex-fallback,payable-fallback\n    function () external onlyOwner {\n        // solhint-disable-next-line not-rely-on-time\n        require(expirationTime > now, \"expirationTime > now\");\n        // solhint-disable-next-line avoid-low-level-calls\n        (bool result,) = avatar.owner().call(msg.data);\n        require(result);\n    }\n\n    /**\n     * @dev initialize\n     * @param _avatar the avatar of the dao to forward the call to\n     * @param _expirationTime the expirationTime to forwardCall\n     */\n    function initialize(Avatar _avatar, uint256 _expirationTime) external onlyOwner {\n        require(avatar == Avatar(0), \"can be called only one time\");\n        require(_avatar != Avatar(0), \"avatar cannot be zero\");\n        avatar = _avatar;\n        expirationTime = _expirationTime;\n    }\n\n    /**\n     * @dev unregisterSelf function\n     * @return bool\n     */\n    function unregisterSelf() public returns(bool) {\n       // solhint-disable-next-line not-rely-on-time\n        require(expirationTime <= now, \"expirationTime <= now\");\n        return ControllerInterface(avatar.owner()).unregisterSelf(address(avatar));\n    }\n}\n",
  "sourcePath": "/src/contracts/arc/schemes/Forwarder.sol",
  "compiler": {
    "name": "solc",
    "version": "0.5.6+commit.b259423e.Emscripten.clang"
  },
  "schemaVersion": "3.0.14",
  "updatedAt": "2019-11-07T20:35:01.433Z",
  "devdoc": {
    "methods": {
      "initialize(address,uint256)": {
        "details": "initialize",
        "params": {
          "_avatar": "the avatar of the dao to forward the call to",
          "_expirationTime": "the expirationTime to forwardCall"
        }
      },
      "isOwner()": {
        "details": "Returns true if the caller is the current owner."
      },
      "owner()": {
        "details": "Returns the address of the current owner."
      },
      "renounceOwnership()": {
        "details": "Leaves the contract without owner. It will not be possible to call `onlyOwner` functions anymore. Can only be called by the current owner.     * > Note: Renouncing ownership will leave the contract without an owner, thereby removing any functionality that is only available to the owner."
      },
      "transferOwnership(address)": {
        "details": "Transfers ownership of the contract to a new account (`newOwner`). Can only be called by the current owner."
      },
      "unregisterSelf()": {
        "details": "unregisterSelf function",
        "return": "bool"
      }
    },
    "title": "A scheme to forward a call to a dao.       The scheme can unregister itself when its expirationTime reached."
  },
  "userdoc": {
    "methods": {}
  }
}