{
  "contractName": "GenesisProtocolCallbacksMock",
  "abi": [
    {
      "constant": false,
      "inputs": [],
      "name": "renounceOwnership",
      "outputs": [],
      "payable": false,
      "stateMutability": "nonpayable",
      "type": "function"
    },
    {
      "constant": true,
      "inputs": [],
      "name": "stakingToken",
      "outputs": [
        {
          "name": "",
          "type": "address"
        }
      ],
      "payable": false,
      "stateMutability": "view",
      "type": "function"
    },
    {
      "constant": true,
      "inputs": [],
      "name": "genesisProtocol",
      "outputs": [
        {
          "name": "",
          "type": "address"
        }
      ],
      "payable": false,
      "stateMutability": "view",
      "type": "function"
    },
    {
      "constant": true,
      "inputs": [],
      "name": "owner",
      "outputs": [
        {
          "name": "",
          "type": "address"
        }
      ],
      "payable": false,
      "stateMutability": "view",
      "type": "function"
    },
    {
      "constant": true,
      "inputs": [],
      "name": "isOwner",
      "outputs": [
        {
          "name": "",
          "type": "bool"
        }
      ],
      "payable": false,
      "stateMutability": "view",
      "type": "function"
    },
    {
      "constant": true,
      "inputs": [],
      "name": "reputation",
      "outputs": [
        {
          "name": "",
          "type": "address"
        }
      ],
      "payable": false,
      "stateMutability": "view",
      "type": "function"
    },
    {
      "constant": true,
      "inputs": [
        {
          "name": "",
          "type": "bytes32"
        }
      ],
      "name": "proposalsBlockNumbers",
      "outputs": [
        {
          "name": "",
          "type": "uint256"
        }
      ],
      "payable": false,
      "stateMutability": "view",
      "type": "function"
    },
    {
      "constant": false,
      "inputs": [
        {
          "name": "newOwner",
          "type": "address"
        }
      ],
      "name": "transferOwnership",
      "outputs": [],
      "payable": false,
      "stateMutability": "nonpayable",
      "type": "function"
    },
    {
      "inputs": [
        {
          "name": "_reputation",
          "type": "address"
        },
        {
          "name": "_stakingToken",
          "type": "address"
        },
        {
          "name": "_genesisProtocol",
          "type": "address"
        }
      ],
      "payable": false,
      "stateMutability": "nonpayable",
      "type": "constructor"
    },
    {
      "anonymous": false,
      "inputs": [
        {
          "indexed": true,
          "name": "_proposalId",
          "type": "bytes32"
        },
        {
          "indexed": true,
          "name": "_organization",
          "type": "address"
        },
        {
          "indexed": false,
          "name": "_numOfChoices",
          "type": "uint256"
        },
        {
          "indexed": false,
          "name": "_proposer",
          "type": "address"
        },
        {
          "indexed": false,
          "name": "_paramsHash",
          "type": "bytes32"
        }
      ],
      "name": "NewProposal",
      "type": "event"
    },
    {
      "anonymous": false,
      "inputs": [
        {
          "indexed": true,
          "name": "previousOwner",
          "type": "address"
        },
        {
          "indexed": true,
          "name": "newOwner",
          "type": "address"
        }
      ],
      "name": "OwnershipTransferred",
      "type": "event"
    },
    {
      "anonymous": false,
      "inputs": [
        {
          "indexed": false,
          "name": "_msg",
          "type": "address"
        }
      ],
      "name": "LogAddress",
      "type": "event"
    },
    {
      "anonymous": false,
      "inputs": [
        {
          "indexed": false,
          "name": "_msg",
          "type": "int256"
        }
      ],
      "name": "LogInt",
      "type": "event"
    },
    {
      "anonymous": false,
      "inputs": [
        {
          "indexed": false,
          "name": "_msg",
          "type": "string"
        }
      ],
      "name": "LogString",
      "type": "event"
    },
    {
      "anonymous": false,
      "inputs": [
        {
          "indexed": false,
          "name": "_msg",
          "type": "uint256"
        }
      ],
      "name": "LogUint",
      "type": "event"
    },
    {
      "anonymous": false,
      "inputs": [
        {
          "indexed": false,
          "name": "_msg",
          "type": "bytes"
        }
      ],
      "name": "LogBytes",
      "type": "event"
    },
    {
      "anonymous": false,
      "inputs": [
        {
          "indexed": false,
          "name": "_msg",
          "type": "bytes32"
        }
      ],
      "name": "LogBytes32",
      "type": "event"
    },
    {
      "anonymous": false,
      "inputs": [
        {
          "indexed": false,
          "name": "_msg",
          "type": "bool"
        }
      ],
      "name": "LogBool",
      "type": "event"
    },
    {
      "constant": false,
      "inputs": [
        {
          "name": "_amount",
          "type": "uint256"
        },
        {
          "name": "_beneficiary",
          "type": "address"
        },
        {
          "name": "",
          "type": "bytes32"
        }
      ],
      "name": "mintReputation",
      "outputs": [
        {
          "name": "",
          "type": "bool"
        }
      ],
      "payable": false,
      "stateMutability": "nonpayable",
      "type": "function"
    },
    {
      "constant": false,
      "inputs": [
        {
          "name": "_amount",
          "type": "uint256"
        },
        {
          "name": "_beneficiary",
          "type": "address"
        },
        {
          "name": "",
          "type": "bytes32"
        }
      ],
      "name": "burnReputation",
      "outputs": [
        {
          "name": "",
          "type": "bool"
        }
      ],
      "payable": false,
      "stateMutability": "nonpayable",
      "type": "function"
    },
    {
      "constant": false,
      "inputs": [
        {
          "name": "_stakingToken",
          "type": "address"
        },
        {
          "name": "_beneficiary",
          "type": "address"
        },
        {
          "name": "_amount",
          "type": "uint256"
        },
        {
          "name": "",
          "type": "bytes32"
        }
      ],
      "name": "stakingTokenTransfer",
      "outputs": [
        {
          "name": "",
          "type": "bool"
        }
      ],
      "payable": false,
      "stateMutability": "nonpayable",
      "type": "function"
    },
    {
      "constant": false,
      "inputs": [
        {
          "name": "_params",
          "type": "uint256[11]"
        },
        {
          "name": "_voteOnBehalf",
          "type": "address"
        }
      ],
      "name": "setParameters",
      "outputs": [
        {
          "name": "",
          "type": "bytes32"
        }
      ],
      "payable": false,
      "stateMutability": "nonpayable",
      "type": "function"
    },
    {
      "constant": false,
      "inputs": [
        {
          "name": "_proposalId",
          "type": "bytes32"
        },
        {
          "name": "_decision",
          "type": "int256"
        }
      ],
      "name": "executeProposal",
      "outputs": [
        {
          "name": "",
          "type": "bool"
        }
      ],
      "payable": false,
      "stateMutability": "nonpayable",
      "type": "function"
    },
    {
      "constant": false,
      "inputs": [
        {
          "name": "_numOfChoices",
          "type": "uint256"
        },
        {
          "name": "_paramsHash",
          "type": "bytes32"
        },
        {
          "name": "",
          "type": "address"
        },
        {
          "name": "_proposer",
          "type": "address"
        },
        {
          "name": "_organization",
          "type": "address"
        }
      ],
      "name": "propose",
      "outputs": [
        {
          "name": "",
          "type": "bytes32"
        }
      ],
      "payable": false,
      "stateMutability": "nonpayable",
      "type": "function"
    },
    {
      "constant": false,
      "inputs": [
        {
          "name": "_amount",
          "type": "uint256"
        },
        {
          "name": "_beneficiary",
          "type": "address"
        },
        {
          "name": "",
          "type": "bytes32"
        }
      ],
      "name": "burnReputationTest",
      "outputs": [
        {
          "name": "",
          "type": "bool"
        }
      ],
      "payable": false,
      "stateMutability": "nonpayable",
      "type": "function"
    },
    {
      "constant": false,
      "inputs": [
        {
          "name": "_proposalId",
          "type": "bytes32"
        }
      ],
      "name": "setProposal",
      "outputs": [
        {
          "name": "",
          "type": "bool"
        }
      ],
      "payable": false,
      "stateMutability": "nonpayable",
      "type": "function"
    },
    {
      "constant": true,
      "inputs": [
        {
          "name": "_proposalId",
          "type": "bytes32"
        }
      ],
      "name": "getTotalReputationSupply",
      "outputs": [
        {
          "name": "",
          "type": "uint256"
        }
      ],
      "payable": false,
      "stateMutability": "view",
      "type": "function"
    },
    {
      "constant": true,
      "inputs": [
        {
          "name": "_stakingToken",
          "type": "address"
        },
        {
          "name": "",
          "type": "bytes32"
        }
      ],
      "name": "balanceOfStakingToken",
      "outputs": [
        {
          "name": "",
          "type": "uint256"
        }
      ],
      "payable": false,
      "stateMutability": "view",
      "type": "function"
    },
    {
      "constant": true,
      "inputs": [
        {
          "name": "_owner",
          "type": "address"
        },
        {
          "name": "_proposalId",
          "type": "bytes32"
        }
      ],
      "name": "reputationOf",
      "outputs": [
        {
          "name": "",
          "type": "uint256"
        }
      ],
      "payable": false,
      "stateMutability": "view",
      "type": "function"
    }
  ],
  "bytecode": "0x608060405234801561001057600080fd5b50604051606080610ee18339810180604052606081101561003057600080fd5b5080516020820151604092830151600080546001600160a01b031916331780825594519394929391926001600160a01b031691600080516020610ec1833981519152908290a3600180546001600160a01b038086166001600160a01b0319928316179092556002805485841690831617905560038054848416921691909117908190556100c491166100cc602090811b901c565b505050610210565b6100da61015760201b60201c565b61014557604080517f08c379a000000000000000000000000000000000000000000000000000000000815260206004820181905260248201527f4f776e61626c653a2063616c6c6572206973206e6f7420746865206f776e6572604482015290519081900360640190fd5b6101548161016860201b60201c565b50565b6000546001600160a01b0316331490565b6001600160a01b0381166101c7576040517f08c379a0000000000000000000000000000000000000000000000000000000008152600401808060200182810382526026815260200180610e9b6026913960400191505060405180910390fd5b600080546040516001600160a01b0380851693921691600080516020610ec183398151915291a3600080546001600160a01b0319166001600160a01b0392909216919091179055565b610c7c8061021f6000396000f3fe608060405234801561001057600080fd5b50600436106101215760003560e01c80639588378e116100ad578063c52164c611610071578063c52164c614610325578063d1c756501461032d578063d29b5d2f1461034a578063f2fde38b1461037c578063f81f8bf6146103a257610121565b80639588378e1461024b5780639d4c162d14610277578063abcc9cb91461029a578063b551c373146102cc578063bea75f28146102e957610121565b806372f702f3116100f457806372f702f3146101e35780637581d62f146102075780638894c41b1461020f5780638da5cb5b1461023b5780638f32d59b1461024357610121565b80630905c9f9146101265780636b8eb4031461017c57806370a53748146101a8578063715018a6146101d9575b600080fd5b61016a600480360360a081101561013c57600080fd5b508035906020810135906001600160a01b0360408201358116916060810135821691608090910135166103d4565b60408051918252519081900360200190f35b61016a6004803603604081101561019257600080fd5b506001600160a01b0381351690602001356104d4565b6101c5600480360360208110156101be57600080fd5b5035610554565b604080519115158252519081900360200190f35b6101e1610568565b005b6101eb6105fc565b604080516001600160a01b039092168252519081900360200190f35b6101eb61060b565b61016a600480360361018081101561022657600080fd5b506001600160a01b036101608201351661061a565b6101eb6106b1565b6101c56106c0565b61016a6004803603604081101561026157600080fd5b506001600160a01b0381351690602001356106d1565b6101c56004803603604081101561028d57600080fd5b508035906020013561073a565b6101c5600480360360608110156102b057600080fd5b508035906001600160a01b0360208201351690604001356107ac565b61016a600480360360208110156102e257600080fd5b503561083c565b6101c5600480360360808110156102ff57600080fd5b506001600160a01b038135811691602081013590911690604081013590606001356108c5565b6101eb6109a6565b61016a6004803603602081101561034357600080fd5b50356109b5565b6101c56004803603606081101561036057600080fd5b508035906001600160a01b0360208201351690604001356109c7565b6101e16004803603602081101561039257600080fd5b50356001600160a01b0316610a6c565b6101c5600480360360608110156103b857600080fd5b508035906001600160a01b036020820135169060400135610ac2565b60035460408051600160e11b634439bdaf02815260048101889052602481018790526001600160a01b03858116604483015284811660648301529151600093849316916388737b5e91608480830192602092919082900301818787803b15801561043d57600080fd5b505af1158015610451573d6000803e3d6000fd5b505050506040513d602081101561046757600080fd5b5051604080518981526001600160a01b03871660208201528082018990529051919250309183917f75b4ff136cc5de5957574c797de3334eb1c141271922b825eb071e0487ba2c5c919081900360600190a360008181526004602052604090204390559695505050505050565b60408051600160e01b6370a0823102815230600482015290516000916001600160a01b038516916370a0823191602480820192602092909190829003018186803b15801561052157600080fd5b505afa158015610535573d6000803e3d6000fd5b505050506040513d602081101561054b57600080fd5b50519392505050565b600090815260046020526040812043905590565b6105706106c0565b6105b25760408051600160e51b62461bcd0281526020600482018190526024820152600080516020610c31833981519152604482015290519081900360640190fd5b600080546040516001600160a01b03909116907f8be0079c531659141344cd1fd0a4f28419497f9722a3daafe3b4186f6b6457e0908390a3600080546001600160a01b0319169055565b6002546001600160a01b031681565b6003546001600160a01b031681565b600354604051600160e01b638894c41b0281526000916001600160a01b031690638894c41b9085908590600401808361016080828437600081840152601f19601f820116905080830192505050826001600160a01b03166001600160a01b0316815260200192505050602060405180830381600087803b15801561069d57600080fd5b505af1158015610535573d6000803e3d6000fd5b6000546001600160a01b031690565b6000546001600160a01b0316331490565b6001546000828152600460208181526040808420548151600160e11b63277166bf0281526001600160a01b03898116958201959095526024810191909152905193949290921692634ee2cd7e926044808201939291829003018186803b15801561052157600080fd5b6040805183815290516000917e9fd52f05c0ded31d6fb0ee580b923f85e99cf1a5a1da342f25e73c45829c83919081900360200190a16040805183815290517f1aa4309bfd99af8afa7454590e1bdaa5a9b3b63e5baa109ae9afa3ecd0c67f399181900360200190a150600192915050565b60015460408051600160e21b632770a7eb0281526001600160a01b0385811660048301526024820187905291516000939290921691639dc29fac9160448082019260209290919082900301818787803b15801561080857600080fd5b505af115801561081c573d6000803e3d6000fd5b505050506040513d602081101561083257600080fd5b5051949350505050565b6001546000828152600460208181526040808420548151600160e41b630981b24d028152938401525192936001600160a01b03169263981b24d0926024808201939291829003018186803b15801561089357600080fd5b505afa1580156108a7573d6000803e3d6000fd5b505050506040513d60208110156108bd57600080fd5b505192915050565b60006108cf6106c0565b6109115760408051600160e51b62461bcd0281526020600482018190526024820152600080516020610c31833981519152604482015290519081900360640190fd5b846001600160a01b031663a9059cbb85856040518363ffffffff1660e01b815260040180836001600160a01b03166001600160a01b0316815260200182815260200192505050602060405180830381600087803b15801561097157600080fd5b505af1158015610985573d6000803e3d6000fd5b505050506040513d602081101561099b57600080fd5b505195945050505050565b6001546001600160a01b031681565b60046020526000908152604090205481565b60006109d16106c0565b610a135760408051600160e51b62461bcd0281526020600482018190526024820152600080516020610c31833981519152604482015290519081900360640190fd5b60015460408051600160e01b6340c10f190281526001600160a01b03868116600483015260248201889052915191909216916340c10f199160448083019260209291908290030181600087803b15801561080857600080fd5b610a746106c0565b610ab65760408051600160e51b62461bcd0281526020600482018190526024820152600080516020610c31833981519152604482015290519081900360640190fd5b610abf81610b67565b50565b6000610acc6106c0565b610b0e5760408051600160e51b62461bcd0281526020600482018190526024820152600080516020610c31833981519152604482015290519081900360640190fd5b60015460408051600160e21b632770a7eb0281526001600160a01b0386811660048301526024820188905291519190921691639dc29fac9160448083019260209291908290030181600087803b15801561080857600080fd5b6001600160a01b038116610baf57604051600160e51b62461bcd028152600401808060200182810382526026815260200180610c0b6026913960400191505060405180910390fd5b600080546040516001600160a01b03808516939216917f8be0079c531659141344cd1fd0a4f28419497f9722a3daafe3b4186f6b6457e091a3600080546001600160a01b0319166001600160a01b039290921691909117905556fe4f776e61626c653a206e6577206f776e657220697320746865207a65726f20616464726573734f776e61626c653a2063616c6c6572206973206e6f7420746865206f776e6572a165627a7a72305820d9a22294bb5f8a3122c8c8af080fa1d0c26ed23fc56085705106903e4db98bba00294f776e61626c653a206e6577206f776e657220697320746865207a65726f20616464726573738be0079c531659141344cd1fd0a4f28419497f9722a3daafe3b4186f6b6457e0",
  "source": "pragma solidity ^0.5.4;\n\nimport \"../votingMachines/VotingMachineCallbacksInterface.sol\";\nimport \"../votingMachines/ProposalExecuteInterface.sol\";\nimport \"../votingMachines/GenesisProtocol.sol\";\nimport \"../Reputation.sol\";\nimport \"openzeppelin-solidity/contracts/ownership/Ownable.sol\";\nimport \"./Debug.sol\";\n\n\ncontract GenesisProtocolCallbacksMock is Debug, VotingMachineCallbacksInterface, ProposalExecuteInterface, Ownable {\n\n    Reputation public reputation;\n    IERC20 public stakingToken;\n    GenesisProtocol public genesisProtocol;\n    mapping (bytes32=>uint) public proposalsBlockNumbers;\n\n    event NewProposal(\n        bytes32 indexed _proposalId,\n        address indexed _organization,\n        uint256 _numOfChoices,\n        address _proposer,\n        bytes32 _paramsHash\n    );\n\n    /**\n     * @dev Constructor\n     */\n    constructor(Reputation _reputation, IERC20 _stakingToken, GenesisProtocol _genesisProtocol) public {\n        reputation = _reputation;\n        stakingToken = _stakingToken;\n        genesisProtocol = _genesisProtocol;\n        transferOwnership(address(genesisProtocol));\n    }\n\n    function mintReputation(uint256 _amount, address _beneficiary, bytes32)\n    external\n    onlyOwner\n    returns(bool)\n    {\n        return reputation.mint(_beneficiary, _amount);\n    }\n\n    function burnReputation(uint256 _amount, address _beneficiary, bytes32)\n    external\n    onlyOwner\n    returns(bool)\n    {\n        return reputation.burn(_beneficiary, _amount);\n    }\n\n    function stakingTokenTransfer(IERC20 _stakingToken, address _beneficiary, uint256 _amount, bytes32)\n    external\n    onlyOwner\n    returns(bool)\n    {\n        return _stakingToken.transfer(_beneficiary, _amount);\n    }\n\n    function setParameters(uint[11] calldata _params, address _voteOnBehalf) external returns(bytes32) {\n        return genesisProtocol.setParameters(_params, _voteOnBehalf);\n    }\n\n    function executeProposal(bytes32 _proposalId, int _decision) external returns(bool) {\n        emit LogBytes32(_proposalId);\n        emit LogInt(_decision);\n        return true;\n    }\n\n    function propose(uint256 _numOfChoices, bytes32 _paramsHash, address, address _proposer, address _organization)\n    external\n    returns\n    (bytes32)\n    {\n        bytes32 proposalId = genesisProtocol.propose(_numOfChoices, _paramsHash, _proposer, _organization);\n        emit NewProposal(proposalId, address(this), _numOfChoices, _proposer, _paramsHash);\n        proposalsBlockNumbers[proposalId] = block.number;\n\n        return proposalId;\n    }\n\n    //this function is used only for testing purpose on this mock contract\n    function burnReputationTest(uint256 _amount, address _beneficiary, bytes32)\n    external\n    returns(bool)\n    {\n        return reputation.burn(_beneficiary, _amount);\n    }\n\n    function setProposal(bytes32 _proposalId) external returns(bool) {\n        proposalsBlockNumbers[_proposalId] = block.number;\n    }\n\n    function getTotalReputationSupply(bytes32 _proposalId) external view returns(uint256) {\n        return reputation.totalSupplyAt(proposalsBlockNumbers[_proposalId]);\n    }\n\n    function balanceOfStakingToken(IERC20 _stakingToken, bytes32)\n    external\n    view\n    returns(uint256)\n    {\n        return _stakingToken.balanceOf(address(this));\n    }\n\n    function reputationOf(address _owner, bytes32 _proposalId) external view returns(uint256) {\n        return reputation.balanceOfAt(_owner, proposalsBlockNumbers[_proposalId]);\n    }\n\n}\n",
  "sourcePath": "/src/contracts/infra/test/GenesisProtocolCallbacksMock.sol",
  "compiler": {
    "name": "solc",
    "version": "0.5.6+commit.b259423e.Emscripten.clang"
  },
  "schemaVersion": "3.0.14",
  "updatedAt": "2019-10-26T14:19:12.953Z",
  "devdoc": {
    "methods": {
      "constructor": {
        "details": "Constructor"
      },
      "isOwner()": {
        "details": "Returns true if the caller is the current owner."
      },
      "owner()": {
        "details": "Returns the address of the current owner."
      },
      "renounceOwnership()": {
        "details": "Leaves the contract without owner. It will not be possible to call `onlyOwner` functions anymore. Can only be called by the current owner.     * > Note: Renouncing ownership will leave the contract without an owner, thereby removing any functionality that is only available to the owner."
      },
      "transferOwnership(address)": {
        "details": "Transfers ownership of the contract to a new account (`newOwner`). Can only be called by the current owner."
      }
    }
  },
  "userdoc": {
    "methods": {}
  }
}