{
  "contractName": "GenesisProtocol",
  "abi": [
    {
      "constant": true,
      "inputs": [
        {
          "name": "",
          "type": "bytes32"
        }
      ],
      "name": "parameters",
      "outputs": [
        {
          "name": "queuedVoteRequiredPercentage",
          "type": "uint256"
        },
        {
          "name": "queuedVotePeriodLimit",
          "type": "uint256"
        },
        {
          "name": "boostedVotePeriodLimit",
          "type": "uint256"
        },
        {
          "name": "preBoostedVotePeriodLimit",
          "type": "uint256"
        },
        {
          "name": "thresholdConst",
          "type": "uint256"
        },
        {
          "name": "limitExponentValue",
          "type": "uint256"
        },
        {
          "name": "quietEndingPeriod",
          "type": "uint256"
        },
        {
          "name": "proposingRepReward",
          "type": "uint256"
        },
        {
          "name": "votersReputationLossRatio",
          "type": "uint256"
        },
        {
          "name": "minimumDaoBounty",
          "type": "uint256"
        },
        {
          "name": "daoBountyConst",
          "type": "uint256"
        },
        {
          "name": "activationTime",
          "type": "uint256"
        },
        {
          "name": "voteOnBehalf",
          "type": "address"
        }
      ],
      "payable": false,
      "stateMutability": "view",
      "type": "function"
    },
    {
      "constant": true,
      "inputs": [
        {
          "name": "_params",
          "type": "uint256[11]"
        },
        {
          "name": "_voteOnBehalf",
          "type": "address"
        }
      ],
      "name": "getParametersHash",
      "outputs": [
        {
          "name": "",
          "type": "bytes32"
        }
      ],
      "payable": false,
      "stateMutability": "pure",
      "type": "function"
    },
    {
      "constant": true,
      "inputs": [],
      "name": "NO",
      "outputs": [
        {
          "name": "",
          "type": "uint256"
        }
      ],
      "payable": false,
      "stateMutability": "view",
      "type": "function"
    },
    {
      "constant": true,
      "inputs": [],
      "name": "proposalsCnt",
      "outputs": [
        {
          "name": "",
          "type": "uint256"
        }
      ],
      "payable": false,
      "stateMutability": "view",
      "type": "function"
    },
    {
      "constant": true,
      "inputs": [
        {
          "name": "_paramsHash",
          "type": "bytes32"
        },
        {
          "name": "_organizationId",
          "type": "bytes32"
        }
      ],
      "name": "threshold",
      "outputs": [
        {
          "name": "",
          "type": "uint256"
        }
      ],
      "payable": false,
      "stateMutability": "view",
      "type": "function"
    },
    {
      "constant": true,
      "inputs": [],
      "name": "DELEGATION_HASH_EIP712",
      "outputs": [
        {
          "name": "",
          "type": "bytes32"
        }
      ],
      "payable": false,
      "stateMutability": "view",
      "type": "function"
    },
    {
      "constant": true,
      "inputs": [
        {
          "name": "",
          "type": "bytes32"
        }
      ],
      "name": "proposals",
      "outputs": [
        {
          "name": "organizationId",
          "type": "bytes32"
        },
        {
          "name": "callbacks",
          "type": "address"
        },
        {
          "name": "state",
          "type": "uint8"
        },
        {
          "name": "winningVote",
          "type": "uint256"
        },
        {
          "name": "proposer",
          "type": "address"
        },
        {
          "name": "currentBoostedVotePeriodLimit",
          "type": "uint256"
        },
        {
          "name": "paramsHash",
          "type": "bytes32"
        },
        {
          "name": "daoBountyRemain",
          "type": "uint256"
        },
        {
          "name": "daoBounty",
          "type": "uint256"
        },
        {
          "name": "totalStakes",
          "type": "uint256"
        },
        {
          "name": "confidenceThreshold",
          "type": "uint256"
        },
        {
          "name": "secondsFromTimeOutTillExecuteBoosted",
          "type": "uint256"
        },
        {
          "name": "daoRedeemItsWinnings",
          "type": "bool"
        }
      ],
      "payable": false,
      "stateMutability": "view",
      "type": "function"
    },
    {
      "constant": true,
      "inputs": [
        {
          "name": "_proposalId",
          "type": "bytes32"
        }
      ],
      "name": "calcExecuteCallBounty",
      "outputs": [
        {
          "name": "",
          "type": "uint256"
        }
      ],
      "payable": false,
      "stateMutability": "view",
      "type": "function"
    },
    {
      "constant": false,
      "inputs": [
        {
          "name": "_proposalId",
          "type": "bytes32"
        },
        {
          "name": "_beneficiary",
          "type": "address"
        }
      ],
      "name": "redeemDaoBounty",
      "outputs": [
        {
          "name": "redeemedAmount",
          "type": "uint256"
        },
        {
          "name": "potentialAmount",
          "type": "uint256"
        }
      ],
      "payable": false,
      "stateMutability": "nonpayable",
      "type": "function"
    },
    {
      "constant": true,
      "inputs": [],
      "name": "stakingToken",
      "outputs": [
        {
          "name": "",
          "type": "address"
        }
      ],
      "payable": false,
      "stateMutability": "view",
      "type": "function"
    },
    {
      "constant": true,
      "inputs": [
        {
          "name": "_proposalId",
          "type": "bytes32"
        }
      ],
      "name": "shouldBoost",
      "outputs": [
        {
          "name": "",
          "type": "bool"
        }
      ],
      "payable": false,
      "stateMutability": "view",
      "type": "function"
    },
    {
      "constant": false,
      "inputs": [
        {
          "name": "",
          "type": "uint256"
        },
        {
          "name": "_paramsHash",
          "type": "bytes32"
        },
        {
          "name": "_proposer",
          "type": "address"
        },
        {
          "name": "_organization",
          "type": "address"
        }
      ],
      "name": "propose",
      "outputs": [
        {
          "name": "",
          "type": "bytes32"
        }
      ],
      "payable": false,
      "stateMutability": "nonpayable",
      "type": "function"
    },
    {
      "constant": false,
      "inputs": [
        {
          "name": "_params",
          "type": "uint256[11]"
        },
        {
          "name": "_voteOnBehalf",
          "type": "address"
        }
      ],
      "name": "setParameters",
      "outputs": [
        {
          "name": "",
          "type": "bytes32"
        }
      ],
      "payable": false,
      "stateMutability": "nonpayable",
      "type": "function"
    },
    {
      "constant": true,
      "inputs": [],
      "name": "NUM_OF_CHOICES",
      "outputs": [
        {
          "name": "",
          "type": "uint256"
        }
      ],
      "payable": false,
      "stateMutability": "view",
      "type": "function"
    },
    {
      "constant": true,
      "inputs": [
        {
          "name": "",
          "type": "address"
        }
      ],
      "name": "stakesNonce",
      "outputs": [
        {
          "name": "",
          "type": "uint256"
        }
      ],
      "payable": false,
      "stateMutability": "view",
      "type": "function"
    },
    {
      "constant": true,
      "inputs": [],
      "name": "YES",
      "outputs": [
        {
          "name": "",
          "type": "uint256"
        }
      ],
      "payable": false,
      "stateMutability": "view",
      "type": "function"
    },
    {
      "constant": true,
      "inputs": [
        {
          "name": "",
          "type": "bytes32"
        }
      ],
      "name": "organizations",
      "outputs": [
        {
          "name": "",
          "type": "address"
        }
      ],
      "payable": false,
      "stateMutability": "view",
      "type": "function"
    },
    {
      "constant": true,
      "inputs": [
        {
          "name": "",
          "type": "bytes32"
        }
      ],
      "name": "averagesDownstakesOfBoosted",
      "outputs": [
        {
          "name": "",
          "type": "uint256"
        }
      ],
      "payable": false,
      "stateMutability": "view",
      "type": "function"
    },
    {
      "constant": false,
      "inputs": [
        {
          "name": "_proposalId",
          "type": "bytes32"
        }
      ],
      "name": "executeBoosted",
      "outputs": [
        {
          "name": "expirationCallBounty",
          "type": "uint256"
        }
      ],
      "payable": false,
      "stateMutability": "nonpayable",
      "type": "function"
    },
    {
      "constant": false,
      "inputs": [
        {
          "name": "_proposalId",
          "type": "bytes32"
        },
        {
          "name": "_beneficiary",
          "type": "address"
        }
      ],
      "name": "redeem",
      "outputs": [
        {
          "name": "rewards",
          "type": "uint256[3]"
        }
      ],
      "payable": false,
      "stateMutability": "nonpayable",
      "type": "function"
    },
    {
      "constant": true,
      "inputs": [
        {
          "name": "",
          "type": "bytes32"
        }
      ],
      "name": "orgBoostedProposalsCnt",
      "outputs": [
        {
          "name": "",
          "type": "uint256"
        }
      ],
      "payable": false,
      "stateMutability": "view",
      "type": "function"
    },
    {
      "inputs": [
        {
          "name": "_stakingToken",
          "type": "address"
        }
      ],
      "payable": false,
      "stateMutability": "nonpayable",
      "type": "constructor"
    },
    {
      "anonymous": false,
      "inputs": [
        {
          "indexed": true,
          "name": "_proposalId",
          "type": "bytes32"
        },
        {
          "indexed": true,
          "name": "_organization",
          "type": "address"
        },
        {
          "indexed": true,
          "name": "_staker",
          "type": "address"
        },
        {
          "indexed": false,
          "name": "_vote",
          "type": "uint256"
        },
        {
          "indexed": false,
          "name": "_amount",
          "type": "uint256"
        }
      ],
      "name": "Stake",
      "type": "event"
    },
    {
      "anonymous": false,
      "inputs": [
        {
          "indexed": true,
          "name": "_proposalId",
          "type": "bytes32"
        },
        {
          "indexed": true,
          "name": "_organization",
          "type": "address"
        },
        {
          "indexed": true,
          "name": "_beneficiary",
          "type": "address"
        },
        {
          "indexed": false,
          "name": "_amount",
          "type": "uint256"
        }
      ],
      "name": "Redeem",
      "type": "event"
    },
    {
      "anonymous": false,
      "inputs": [
        {
          "indexed": true,
          "name": "_proposalId",
          "type": "bytes32"
        },
        {
          "indexed": true,
          "name": "_organization",
          "type": "address"
        },
        {
          "indexed": true,
          "name": "_beneficiary",
          "type": "address"
        },
        {
          "indexed": false,
          "name": "_amount",
          "type": "uint256"
        }
      ],
      "name": "RedeemDaoBounty",
      "type": "event"
    },
    {
      "anonymous": false,
      "inputs": [
        {
          "indexed": true,
          "name": "_proposalId",
          "type": "bytes32"
        },
        {
          "indexed": true,
          "name": "_organization",
          "type": "address"
        },
        {
          "indexed": true,
          "name": "_beneficiary",
          "type": "address"
        },
        {
          "indexed": false,
          "name": "_amount",
          "type": "uint256"
        }
      ],
      "name": "RedeemReputation",
      "type": "event"
    },
    {
      "anonymous": false,
      "inputs": [
        {
          "indexed": true,
          "name": "_proposalId",
          "type": "bytes32"
        },
        {
          "indexed": false,
          "name": "_proposalState",
          "type": "uint8"
        }
      ],
      "name": "StateChange",
      "type": "event"
    },
    {
      "anonymous": false,
      "inputs": [
        {
          "indexed": true,
          "name": "_proposalId",
          "type": "bytes32"
        },
        {
          "indexed": false,
          "name": "_executionState",
          "type": "uint8"
        }
      ],
      "name": "GPExecuteProposal",
      "type": "event"
    },
    {
      "anonymous": false,
      "inputs": [
        {
          "indexed": true,
          "name": "_proposalId",
          "type": "bytes32"
        },
        {
          "indexed": true,
          "name": "_beneficiary",
          "type": "address"
        },
        {
          "indexed": false,
          "name": "_amount",
          "type": "uint256"
        }
      ],
      "name": "ExpirationCallBounty",
      "type": "event"
    },
    {
      "anonymous": false,
      "inputs": [
        {
          "indexed": true,
          "name": "_proposalId",
          "type": "bytes32"
        },
        {
          "indexed": false,
          "name": "_confidenceThreshold",
          "type": "uint256"
        }
      ],
      "name": "ConfidenceLevelChange",
      "type": "event"
    },
    {
      "anonymous": false,
      "inputs": [
        {
          "indexed": true,
          "name": "_proposalId",
          "type": "bytes32"
        },
        {
          "indexed": true,
          "name": "_organization",
          "type": "address"
        },
        {
          "indexed": false,
          "name": "_numOfChoices",
          "type": "uint256"
        },
        {
          "indexed": false,
          "name": "_proposer",
          "type": "address"
        },
        {
          "indexed": false,
          "name": "_paramsHash",
          "type": "bytes32"
        }
      ],
      "name": "NewProposal",
      "type": "event"
    },
    {
      "anonymous": false,
      "inputs": [
        {
          "indexed": true,
          "name": "_proposalId",
          "type": "bytes32"
        },
        {
          "indexed": true,
          "name": "_organization",
          "type": "address"
        },
        {
          "indexed": false,
          "name": "_decision",
          "type": "uint256"
        },
        {
          "indexed": false,
          "name": "_totalReputation",
          "type": "uint256"
        }
      ],
      "name": "ExecuteProposal",
      "type": "event"
    },
    {
      "anonymous": false,
      "inputs": [
        {
          "indexed": true,
          "name": "_proposalId",
          "type": "bytes32"
        },
        {
          "indexed": true,
          "name": "_organization",
          "type": "address"
        },
        {
          "indexed": true,
          "name": "_voter",
          "type": "address"
        },
        {
          "indexed": false,
          "name": "_vote",
          "type": "uint256"
        },
        {
          "indexed": false,
          "name": "_reputation",
          "type": "uint256"
        }
      ],
      "name": "VoteProposal",
      "type": "event"
    },
    {
      "anonymous": false,
      "inputs": [
        {
          "indexed": true,
          "name": "_proposalId",
          "type": "bytes32"
        },
        {
          "indexed": true,
          "name": "_organization",
          "type": "address"
        }
      ],
      "name": "CancelProposal",
      "type": "event"
    },
    {
      "anonymous": false,
      "inputs": [
        {
          "indexed": true,
          "name": "_proposalId",
          "type": "bytes32"
        },
        {
          "indexed": true,
          "name": "_organization",
          "type": "address"
        },
        {
          "indexed": true,
          "name": "_voter",
          "type": "address"
        }
      ],
      "name": "CancelVoting",
      "type": "event"
    },
    {
      "constant": false,
      "inputs": [
        {
          "name": "_proposalId",
          "type": "bytes32"
        },
        {
          "name": "_vote",
          "type": "uint256"
        },
        {
          "name": "_amount",
          "type": "uint256"
        }
      ],
      "name": "stake",
      "outputs": [
        {
          "name": "",
          "type": "bool"
        }
      ],
      "payable": false,
      "stateMutability": "nonpayable",
      "type": "function"
    },
    {
      "constant": false,
      "inputs": [
        {
          "name": "_proposalId",
          "type": "bytes32"
        },
        {
          "name": "_vote",
          "type": "uint256"
        },
        {
          "name": "_amount",
          "type": "uint256"
        },
        {
          "name": "_nonce",
          "type": "uint256"
        },
        {
          "name": "_signatureType",
          "type": "uint256"
        },
        {
          "name": "_signature",
          "type": "bytes"
        }
      ],
      "name": "stakeWithSignature",
      "outputs": [
        {
          "name": "",
          "type": "bool"
        }
      ],
      "payable": false,
      "stateMutability": "nonpayable",
      "type": "function"
    },
    {
      "constant": false,
      "inputs": [
        {
          "name": "_proposalId",
          "type": "bytes32"
        },
        {
          "name": "_vote",
          "type": "uint256"
        },
        {
          "name": "_amount",
          "type": "uint256"
        },
        {
          "name": "_voter",
          "type": "address"
        }
      ],
      "name": "vote",
      "outputs": [
        {
          "name": "",
          "type": "bool"
        }
      ],
      "payable": false,
      "stateMutability": "nonpayable",
      "type": "function"
    },
    {
      "constant": false,
      "inputs": [
        {
          "name": "_proposalId",
          "type": "bytes32"
        }
      ],
      "name": "cancelVote",
      "outputs": [],
      "payable": false,
      "stateMutability": "nonpayable",
      "type": "function"
    },
    {
      "constant": false,
      "inputs": [
        {
          "name": "_proposalId",
          "type": "bytes32"
        }
      ],
      "name": "execute",
      "outputs": [
        {
          "name": "",
          "type": "bool"
        }
      ],
      "payable": false,
      "stateMutability": "nonpayable",
      "type": "function"
    },
    {
      "constant": true,
      "inputs": [
        {
          "name": "",
          "type": "bytes32"
        }
      ],
      "name": "getNumberOfChoices",
      "outputs": [
        {
          "name": "",
          "type": "uint256"
        }
      ],
      "payable": false,
      "stateMutability": "view",
      "type": "function"
    },
    {
      "constant": true,
      "inputs": [
        {
          "name": "_proposalId",
          "type": "bytes32"
        }
      ],
      "name": "getProposalTimes",
      "outputs": [
        {
          "name": "times",
          "type": "uint256[3]"
        }
      ],
      "payable": false,
      "stateMutability": "view",
      "type": "function"
    },
    {
      "constant": true,
      "inputs": [
        {
          "name": "_proposalId",
          "type": "bytes32"
        },
        {
          "name": "_voter",
          "type": "address"
        }
      ],
      "name": "voteInfo",
      "outputs": [
        {
          "name": "",
          "type": "uint256"
        },
        {
          "name": "",
          "type": "uint256"
        }
      ],
      "payable": false,
      "stateMutability": "view",
      "type": "function"
    },
    {
      "constant": true,
      "inputs": [
        {
          "name": "_proposalId",
          "type": "bytes32"
        },
        {
          "name": "_choice",
          "type": "uint256"
        }
      ],
      "name": "voteStatus",
      "outputs": [
        {
          "name": "",
          "type": "uint256"
        }
      ],
      "payable": false,
      "stateMutability": "view",
      "type": "function"
    },
    {
      "constant": true,
      "inputs": [
        {
          "name": "_proposalId",
          "type": "bytes32"
        }
      ],
      "name": "isVotable",
      "outputs": [
        {
          "name": "",
          "type": "bool"
        }
      ],
      "payable": false,
      "stateMutability": "view",
      "type": "function"
    },
    {
      "constant": true,
      "inputs": [
        {
          "name": "_proposalId",
          "type": "bytes32"
        }
      ],
      "name": "proposalStatus",
      "outputs": [
        {
          "name": "",
          "type": "uint256"
        },
        {
          "name": "",
          "type": "uint256"
        },
        {
          "name": "",
          "type": "uint256"
        },
        {
          "name": "",
          "type": "uint256"
        }
      ],
      "payable": false,
      "stateMutability": "view",
      "type": "function"
    },
    {
      "constant": true,
      "inputs": [
        {
          "name": "_proposalId",
          "type": "bytes32"
        }
      ],
      "name": "getProposalOrganization",
      "outputs": [
        {
          "name": "",
          "type": "bytes32"
        }
      ],
      "payable": false,
      "stateMutability": "view",
      "type": "function"
    },
    {
      "constant": true,
      "inputs": [
        {
          "name": "_proposalId",
          "type": "bytes32"
        },
        {
          "name": "_staker",
          "type": "address"
        }
      ],
      "name": "getStaker",
      "outputs": [
        {
          "name": "",
          "type": "uint256"
        },
        {
          "name": "",
          "type": "uint256"
        }
      ],
      "payable": false,
      "stateMutability": "view",
      "type": "function"
    },
    {
      "constant": true,
      "inputs": [
        {
          "name": "_proposalId",
          "type": "bytes32"
        },
        {
          "name": "_vote",
          "type": "uint256"
        }
      ],
      "name": "voteStake",
      "outputs": [
        {
          "name": "",
          "type": "uint256"
        }
      ],
      "payable": false,
      "stateMutability": "view",
      "type": "function"
    },
    {
      "constant": true,
      "inputs": [
        {
          "name": "_proposalId",
          "type": "bytes32"
        }
      ],
      "name": "winningVote",
      "outputs": [
        {
          "name": "",
          "type": "uint256"
        }
      ],
      "payable": false,
      "stateMutability": "view",
      "type": "function"
    },
    {
      "constant": true,
      "inputs": [
        {
          "name": "_proposalId",
          "type": "bytes32"
        }
      ],
      "name": "state",
      "outputs": [
        {
          "name": "",
          "type": "uint8"
        }
      ],
      "payable": false,
      "stateMutability": "view",
      "type": "function"
    },
    {
      "constant": true,
      "inputs": [],
      "name": "isAbstainAllow",
      "outputs": [
        {
          "name": "",
          "type": "bool"
        }
      ],
      "payable": false,
      "stateMutability": "pure",
      "type": "function"
    },
    {
      "constant": true,
      "inputs": [],
      "name": "getAllowedRangeOfChoices",
      "outputs": [
        {
          "name": "min",
          "type": "uint256"
        },
        {
          "name": "max",
          "type": "uint256"
        }
      ],
      "payable": false,
      "stateMutability": "pure",
      "type": "function"
    },
    {
      "constant": true,
      "inputs": [
        {
          "name": "_proposalId",
          "type": "bytes32"
        }
      ],
      "name": "score",
      "outputs": [
        {
          "name": "",
          "type": "uint256"
        }
      ],
      "payable": false,
      "stateMutability": "view",
      "type": "function"
    }
  ],
  "bytecode": "0x60806040523480156200001157600080fd5b50604051602080620043e6833981018060405260208110156200003357600080fd5b5051806200006173543ff227f64aa17ea132bf9886cab5db55dcaddf620000b7602090811b6200421217901c565b156200009357600680546001600160a01b03191673543ff227f64aa17ea132bf9886cab5db55dcaddf179055620000af565b600680546001600160a01b0319166001600160a01b0383161790555b5050620000bd565b3b151590565b61431980620000cd6000396000f3fe608060405234801561001057600080fd5b50600436106102485760003560e01c806372f702f31161013b578063b4512913116100b8578063c8f526e81161007c578063c8f526e814610887578063cc3bf9e9146108dc578063e5af18c514610908578063e751f27114610925578063fb6c0cbb1461094257610248565b8063b4512913146107f0578063ba51b14e14610813578063bb5a05ed14610830578063beda80151461084d578063c08351061461086a57610248565b80639525c0cc116100ff5780639525c0cc146107865780639bc5689d14610347578063a003651d146107a5578063a05ea6e4146107c2578063b2449d65146107e857610248565b806372f702f31461069c57806379a1c1f6146106c057806380f5e0a11461070357806388737b5e146107205780638894c41b1461075a57610248565b806332ed5b12116101c95780635142bc1e1161018d5780635142bc1e146105fc57806351d997b21461060457806361d585da1461060c5780636359036b1461064d578063707437681461067957610248565b806332ed5b121461044d578063359afa49146104fb5780633c133818146105335780634047487314610550578063488c65fc1461056d57610248565b80631702ef0c116102105780631702ef0c146103c057806321b4b3dc146103dd5780632d598e58146103e55780632daedd521461040857806330ca0a531461044557610248565b8063025068041461024d57806307b4e1e3146102d85780630d48344214610347578063119ce91b1461034f57806316db517214610394575b600080fd5b61026a6004803603602081101561026357600080fd5b503561095f565b604080519d8e5260208e019c909c528c8c019a909a5260608c019890985260808b019690965260a08a019490945260c089019290925260e08801526101008701526101208601526101408501526101608401526001600160a01b031661018083015251908190036101a00190f35b61033560048036036101808110156102ef57600080fd5b81019080806101600190600b806020026040519081016040528092919082600b602002808284376000920191909152509194505050356001600160a01b031690506109cf565b60408051918252519081900360200190f35b610335610ae0565b61037b6004803603604081101561036557600080fd5b50803590602001356001600160a01b0316610ae5565b6040805192835260208301919091528051918290030190f35b61037b600480360360408110156103aa57600080fd5b50803590602001356001600160a01b0316610b48565b610335600480360360208110156103d657600080fd5b5035610b79565b610335610b8b565b610335600480360360408110156103fb57600080fd5b5080359060200135610b91565b6104316004803603606081101561041e57600080fd5b5080359060208101359060400135610bde565b604080519115158252519081900360200190f35b610335610bf4565b61046a6004803603602081101561046357600080fd5b5035610cb1565b604080518e81526001600160a01b038e1660208201529081018c600681111561048f57fe5b60ff168152602081019b909b52506001600160a01b039098166040808b019190915260608a0197909752608089019590955260a088019390935260c087019190915260e08601526101008501526101208401529015156101408301525190819003610160019350915050f35b6104316004803603608081101561051157600080fd5b50803590602081013590604081013590606001356001600160a01b0316610d1f565b6103356004803603602081101561054957600080fd5b5035610e44565b6103356004803603602081101561056657600080fd5b5035610e59565b610431600480360360c081101561058357600080fd5b8135916020810135916040820135916060810135916080820135919081019060c0810160a08201356401000000008111156105bd57600080fd5b8201836020820111156105cf57600080fd5b803590602001918460018302840111640100000000831117156105f157600080fd5b509092509050610ec9565b61037b611179565b610431611181565b6106296004803603602081101561062257600080fd5b5035611187565b6040518082600681111561063957fe5b60ff16815260200191505060405180910390f35b61037b6004803603604081101561066357600080fd5b50803590602001356001600160a01b03166111a7565b6103356004803603604081101561068f57600080fd5b5080359060200135611428565b6106a4611449565b604080516001600160a01b039092168252519081900360200190f35b6106dd600480360360208110156106d657600080fd5b5035611458565b604080519485526020850193909352838301919091526060830152519081900360800190f35b6104316004803603602081101561071957600080fd5b503561149b565b6103356004803603608081101561073657600080fd5b508035906020810135906001600160a01b03604082013581169160600135166115d8565b610335600480360361018081101561077157600080fd5b506001600160a01b03610160820135166119a0565b6107a36004803603602081101561079c57600080fd5b5035611d9f565b005b610335600480360360208110156107bb57600080fd5b5035611db6565b610335600480360360208110156107d857600080fd5b50356001600160a01b0316611dbc565b610335611dce565b6103356004803603604081101561080657600080fd5b5080359060200135611dd3565b6106a46004803603602081101561082957600080fd5b5035611df4565b6103356004803603602081101561084657600080fd5b5035611e0f565b6103356004803603602081101561086357600080fd5b5035611e21565b6104316004803603602081101561088057600080fd5b5035612076565b6108a46004803603602081101561089d57600080fd5b5035612081565b6040518082606080838360005b838110156108c95781810151838201526020016108b1565b5050505090500191505060405180910390f35b6108a4600480360360408110156108f257600080fd5b50803590602001356001600160a01b03166120d0565b6103356004803603602081101561091e57600080fd5b503561284a565b6104316004803603602081101561093b57600080fd5b5035612855565b6103356004803603602081101561095857600080fd5b503561287a565b600060208190529081526040902080546001820154600283015460038401546004850154600586015460068701546007880154600889015460098a0154600a8b0154600b8c0154600c909c01549a9b999a989997989697959694959394929391929091906001600160a01b03168d565b60008281602002015183600160200201518460026020020151856003602002015186600460200201518760056020020151886006602002015189600760200201518a600860200201518b600960200201518c600a6020020151604051602001808c81526020018b81526020018a81526020018981526020018881526020018781526020018681526020018581526020018481526020018381526020018281526020019b505050505050505050505050604051602081830303815290604052805190602001208260405160200180838152602001826001600160a01b03166001600160a01b031660601b8152601401925050506040516020818303038152906040528051906020012090505b92915050565b600281565b600080610af0614087565b50505060009182526001602081815260408085206001600160a01b039490941685526011909301815292829020825160608101845281548082529282015494810185905260029091015460ff16151592019190915291565b60009182526001602081815260408085206001600160a01b0394909416855260139093019052912080549101549091565b60009081526001602052604090205490565b60055481565b6000818152600260209081526040808320548584529183905282206005810154821115610bc057806005015491505b6004810154610bd5908363ffffffff61288c16565b95945050505050565b6000610bec848484336128d6565b949350505050565b604080517f616464726573732047656e6573697350726f746f636f6c416464726573730000602080830191909152600160721b71189e5d195ccccc88141c9bdc1bdcd85b125902603e830152600160a01b6b75696e7432353620566f74650260508301527f75696e7432353620416d6f756e74546f5374616b650000000000000000000000605c830152600160981b6c75696e74323536204e6f6e63650260718301528251605e818403018152607e909201909252805191012081565b600160208190526000918252604090912080549181015460028201546003830154600484015460058501546006860154600787015460088801546009890154600a8a0154600e909a01546001600160a01b03808b169b60ff600160a01b909c048c169b99909116989091168d565b600084610d2b81612cfb565b610d3457600080fd5b6000868152600160205260409020610d4a6140aa565b5060058082015460009081526020818152604080832081516101a0810183528154815260018201549381019390935260028101549183019190915260038101546060830152600481015460808301529283015460a0820152600683015460c0820152600783015460e082015260088301546101008201526009830154610120820152600a830154610140820152600b830154610160820152600c909201546001600160a01b0316610180830181905215610e28578161018001516001600160a01b0316336001600160a01b031614610e2157600080fd5b5084610e2b565b50335b610e3789828a8a612d6e565b9998505050505050505050565b60009081526001602052604090206002015490565b6000818152600160205260408120600a01546105dc908290610e8290839063ffffffff6133e216565b600085815260016020818152604080842092845260129092019052902054909150610bec90600a840290610ebd90849063ffffffff6133f816565b9063ffffffff61345416565b6000808460021415610ffd5750604080517f616464726573732047656e6573697350726f746f636f6c416464726573730000602080830191909152600160721b71189e5d195ccccc88141c9bdc1bdcd85b125902603e830152600160a01b6b75696e7432353620566f74650260508301527f75696e7432353620416d6f756e74546f5374616b650000000000000000000000605c830152600160981b6c75696e74323536204e6f6e63650260718301528251605e818403018152607e830184528051908201203060601b609e84015260b283018c905260d283018b905260f283018a90526101128084018a905284518085039091018152610132840185528051908301206101528401919091526101728084019190915283518084039091018152610192909201909252805191012061104e565b604080513060601b602080830191909152603482018c9052605482018b9052607482018a905260948083018a90528351808403909101815260b4909201909252805191012061104b906134c1565b90505b600061109885858080601f016020809104026020016040519081016040528093929190818152602001838380828437600092019190915250869392505063ffffffff613512169050565b90506001600160a01b0381166110f85760408051600160e51b62461bcd02815260206004820152601a60248201527f7374616b657220616464726573732063616e6e6f742062652030000000000000604482015290519081900360640190fd5b6001600160a01b038116600090815260076020526040902054871461111c57600080fd5b6001600160a01b03811660009081526007602052604090205461114690600163ffffffff61360016565b6001600160a01b03821660009081526007602052604090205561116b8a8a8a846128d6565b9a9950505050505050505050565b600160029091565b60005b90565b60009081526001602081905260409091200154600160a01b900460ff1690565b6000828152600160205260408120819060026001820154600160a01b900460ff1660068111156111d357fe5b146111dd57600080fd5b60028082015460009081526012830160209081526040808320546001600160a01b0389168452601386019092529091209182015490919015801590611226575060028301548154145b8015611236575060018360020154145b801561124157508115155b1561125d578183600701548260020154028161125957fe5b0493505b83158015906112f55750600183015460065460408051600160e01b636b8eb4030281526001600160a01b039283166004820152602481018b9052905187939290921691636b8eb40391604480820192602092909190829003018186803b1580156112c657600080fd5b505afa1580156112da573d6000803e3d6000fd5b505050506040513d60208110156112f057600080fd5b505110155b1561141e57600060028201556006830154611316908563ffffffff61365d16565b6006808501919091556001840154905460408051600160e31b6317d4ebe50281526001600160a01b039283166004820152898316602482015260448101889052606481018b90529051919092169163bea75f289160848083019260209291908290030181600087803b15801561138b57600080fd5b505af115801561139f573d6000803e3d6000fd5b505050506040513d60208110156113b557600080fd5b50516113c057600080fd5b8254600090815260036020908152604091829020548251878152925196975087966001600160a01b03808b16949216928b927fb4a37163ec93e05e09b62e52f7f2ea8cfde431802edede7dfebe53d2ad969dbb929081900390910190a45b5050509250929050565b60009182526001602090815260408084209284526012909201905290205490565b6006546001600160a01b031681565b6000908152600160208181526040808420838552601081018352818520546002808752838720549587526012909201909352818520549085529320549093919291565b60006114a561411b565b60008381526001602081815260409283902083516101c08101855281548152928101546001600160a01b038116928401929092529192830190600160a01b900460ff1660068111156114f357fe5b60068111156114fe57fe5b8152600282015460208201526003808301546001600160a01b0316604080840191909152600484015460608085019190915260058501546080850152600685015460a0850152600785015460c0850152600885015460e08501526009850154610100850152600a8501546101208501528151908101918290526101409093019291600b85019182845b815481526020019060010190808311611587575050509183525050600e919091015460ff16151560209091015260c081015181519192506115c791610b91565b6115d0846136bd565b119392505050565b6000838152602081905260408120600b015442116116405760408051600160e51b62461bcd02815260206004820152600e60248201527f6e6f742061637469766520796574000000000000000000000000000000000000604482015290519081900360640190fd5b6000848152602081905260409020546032111561165c57600080fd5b600554604080513060601b60208083019190915260348083018590528351808403909101815260549092019092528051910120906116a190600163ffffffff61360016565b6005556116ac61411b565b33602082810182905260408051606093841b818401526001600160a01b03888116851b603483015282516028818403018152604890920183528151918401919091208552600382860181905261018086015142905260008b815280855283812060029081015460a08901528b841660808901529587019590955260c086018b905285518552909252909120541661179a576001600160a01b038416611770578051600090815260036020526040902080546001600160a01b0319163317905561179a565b8051600090815260036020526040902080546001600160a01b0319166001600160a01b0386161790555b8051600090815260046020908152604080832054898452918390528220600a01546117d191606491610ebd9163ffffffff6133f816565b6000888152602081905260409020600901549091506117f790829063ffffffff6136fe16565b60e0830152600083815260016020818152604092839020855181559085015191810180546001600160a01b0319166001600160a01b039093169290921780835592850151859391929091600160a01b60ff021916600160a01b83600681111561185c57fe5b0217905550606082015160028201556080820151600380830180546001600160a01b0319166001600160a01b039093169290921790915560a0830151600483015560c0830151600583015560e08301516006830155610100830151600783015561012083015160088301556101408301516009830155610160830151600a8301556101808301516118f291600b8401919061419c565b506101a09190910151600e909101805460ff191691151591909117905560e08201516000848152600160209081526040808320600280855260129091018352818420949094558551835260038252918290205482519384526001600160a01b038a8116928501929092528383018b9052915191169185917f75b4ff136cc5de5957574c797de3334eb1c141271922b825eb071e0487ba2c5c916060908290030190a350909695505050505050565b600060648335118015906119b657506032833510155b6119f457604051600160e51b62461bcd0281526004018080602001828103825260298152602001806142716029913960400191505060405180910390fd5b613e80608084013511801590611a0f57506103e86080840135115b611a635760408051600160e51b62461bcd02815260206004820152601e60248201527f31303030203c207468726573686f6c64436f6e7374203c3d2031363030300000604482015290519081900360640190fd5b606460e08401351115611ac05760408051600160e51b62461bcd02815260206004820181905260248201527f766f7465727352657075746174696f6e4c6f7373526174696f203c3d20313030604482015290519081900360640190fd5b60a083013560408401351015611b0a57604051600160e51b62461bcd02815260040180806020018281038252602b815260200180614246602b913960400191505060405180910390fd5b610100830135611b645760408051600160e51b62461bcd02815260206004820152601e60248201527f6d696e696d756d44616f426f756e74792073686f756c64206265203e20300000604482015290519081900360640190fd5b610120830135611bbe5760408051600160e51b62461bcd02815260206004820152601c60248201527f64616f426f756e7479436f6e73742073686f756c64206265203e203000000000604482015290519081900360640190fd5b6000611bf484600b806020026040519081016040528092919082600b602002808284376000920191909152508691506109cf9050565b905060ac60026107d05b613e80811015611c4657608087013581108015611c22575060028102608088013511155b15611c3857818381611c3057fe5b049250611c46565b600190910190600202611bfe565b50604080516101a0810182528735815260208089013590820152878201359181019190915260608088013590820152608080820190611c93908901356001600160d81b03166103e861370e565b81526020810184905260a088810135604083015260c0808a0135606084015260e0808b013560808501526101008b0135928401929092526101208a0135908301520187600a6020908102919091013582526001600160a01b03978816918101919091526000858152808252604090819020835181559183015160018301558201516002820155606082015160038201556080820151600482015560a0820151600582015560c0820151600682015560e0820151600782015561010082015160088201556101208201516009820155610140820151600a820155610160820151600b82015561018090910151600c90910180546001600160a01b0319169190961617909455509392505050565b80611da981612cfb565b611db257600080fd5b5050565b50600290565b60076020526000908152604090205481565b600181565b6000918252600160209081526040808420928452600f909201905290205490565b6003602052600090815260409020546001600160a01b031681565b60046020526000908152604090205481565b600081815260016020526040812060056001820154600160a01b900460ff166006811115611e4b57fe5b1480611e70575060066001820154600160a01b900460ff166006811115611e6e57fe5b145b611eae57604051600160e51b62461bcd0281526004018080602001828103825260338152602001806142bb6033913960400191505060405180910390fd5b611eb783613731565b611f0b5760408051600160e51b62461bcd02815260206004820152601760248201527f70726f706f73616c206e65656420746f20657870697265000000000000000000604482015290519081900360640190fd5b611f37611f2a600b83016001015460048401549063ffffffff61360016565b429063ffffffff61365d16565b600a820155611f4583610e59565b6008820154909250611f5d908363ffffffff61365d16565b600882015560065460408051600160e01b63a9059cbb0281523360048201526024810185905290516001600160a01b039092169163a9059cbb916044808201926020929091908290030181600087803b158015611fb957600080fd5b505af1158015611fcd573d6000803e3d6000fd5b505050506040513d6020811015611fe357600080fd5b50516120395760408051600160e51b62461bcd02815260206004820152601d60248201527f7472616e7366657220746f206d73672e73656e646572206661696c6564000000604482015290519081900360640190fd5b604080518381529051339185917f7468017f6ff596af88244327e88fe691ac48cc1db88b033d11c335f2c7ccdd039181900360200190a350919050565b6000610ada82612cfb565b6120896141da565b60008281526001602052604090819020815160608101909252600b0160038282826020028201915b8154815260200190600101908083116120b15750505050509050919050565b6120d86141da565b600083815260016020526040902060026001820154600160a01b900460ff16600681111561210257fe5b14806121265750600180820154600160a01b900460ff16600681111561212457fe5b145b61216457604051600160e51b62461bcd02815260040180806020018281038252602d815260200180614219602d913960400191505060405180910390fd5b61216c6140aa565b5060058082015460009081526020818152604080832081516101a081018352815481526001820154818501526002808301548285015260038301546060830152600483015460808301529582015460a0820152600682015460c0820152600782015460e082015260088201546101008201526009820154610120820152600a820154610140820152600b820154610160820152600c909101546001600160a01b03908116610180830152881684526013860183528184209486015484526012860190925282205490929161227861224289610e59565b60016000908152601288016020526040808220546002835291205461226c9163ffffffff61360016565b9063ffffffff61365d16565b60018401549091501561234357600180860154600160a01b900460ff1660068111156122a057fe5b14156122b2576001830154865261233b565b60028501548354141561233b578254600114156123195780856007015410156123145760006122ee86600701548361365d90919063ffffffff16565b9050826123088286600101546133f890919063ffffffff16565b8161230f57fe5b048752505b61233b565b60018301548290612330908363ffffffff6133f816565b8161233757fe5b0486525b600060018401555b600e85015460ff16158015612373575084546000908152600360205260409020546001600160a01b038881169116145b80156123985750600180860154600160a01b900460ff16600681111561239557fe5b14155b80156123a8575060028560020154145b156123f95760078501546123e79061226c846123ca838663ffffffff6133f816565b816123d157fe5b048960005b60200201519063ffffffff61360016565b8652600e8501805460ff191660011790555b6001600160a01b0387166000908152601186016020526040902060018101541580159061242a5750600281015460ff165b1561256957600180870154600160a01b900460ff16600681111561244a57fe5b141561248057606461246e86610100015183600101546133f890919063ffffffff16565b8161247557fe5b046020880152612561565b8054600287015414156125615760006001876002015414156124b55750600260009081526010870160205260409020546124ca565b50600160009081526010870160205260409020545b60646124e4876101000151836133f890919063ffffffff16565b816124eb57fe5b6002890154600090815260108a016020526040902054600185015492909104925061255a91612520908463ffffffff6133f816565b8161252757fe5b04606461254689610100015186600101546133f890919063ffffffff16565b8161254d57fe5b049063ffffffff61360016565b6020890152505b600060018201555b60038601546001600160a01b03898116911614801561258c575060018660020154145b80156125a4575060038601546001600160a01b031615155b156125c65760e085015160408801526003860180546001600160a01b03191690555b86511561271957865160088701546125dd9161365d565b6008870155600654875160408051600160e01b63a9059cbb0281526001600160a01b038c8116600483015260248201939093529051919092169163a9059cbb9160448083019260209291908290030181600087803b15801561263e57600080fd5b505af1158015612652573d6000803e3d6000fd5b505050506040513d602081101561266857600080fd5b50516126be5760408051600160e51b62461bcd02815260206004820152601e60248201527f7472616e7366657220746f2062656e6566696369617279206661696c65640000604482015290519081900360640190fd5b8554600090815260036020908152604091829020548951835190815292516001600160a01b038c8116949216928d927f6d26871c9f457d104b2122485f659f126f7a0cf6938cf20482c03f49794a2fbf929081900390910190a45b604087015161272a908860016123d6565b1561283e5760018601546001600160a01b031663d29b5d2f61275589600260200201518a60016123d6565b8a8c6040518463ffffffff1660e01b815260040180848152602001836001600160a01b03166001600160a01b031681526020018281526020019350505050602060405180830381600087803b1580156127ad57600080fd5b505af11580156127c1573d6000803e3d6000fd5b505050506040513d60208110156127d757600080fd5b505085546000908152600360205260409020546001600160a01b03808a1691168a7f7419b736daacf66d5c1645948c956fca2b83be1e2e02d486d65713f289d683b861282c8b600260200201518c60016123d6565b60408051918252519081900360200190a45b50505050505092915050565b6000610ada826136bd565b60008161286181612cfb565b61286a57600080fd5b61287383613731565b9392505050565b60026020526000908152604090205481565b60008282650100000000005b8115610bd55781600116600114156128b7576128b48184613ffd565b90505b60019190911c9081156128d1576128ce8384613ffd565b92505b612898565b6000600284111580156128e95750600084115b61293d5760408051600160e51b62461bcd02815260206004820152601060248201527f77726f6e6720766f74652076616c756500000000000000000000000000000000604482015290519081900360640190fd5b600083116129955760408051600160e51b62461bcd02815260206004820152601b60248201527f7374616b696e6720616d6f756e742073686f756c64206265203e300000000000604482015290519081900360640190fd5b61299e85613731565b156129ab57506001610bec565b600085815260016020526040902060046001820154600160a01b900460ff1660068111156129d557fe5b141580156129fd575060036001820154600160a01b900460ff1660068111156129fa57fe5b14155b15612a0c576000915050610bec565b6001600160a01b03831660009081526013820160205260409020600181015415801590612a3a575080548614155b15612a4a57600092505050610bec565b60065460408051600160e01b6323b872dd0281526001600160a01b038781166004830152306024830152604482018990529151889392909216916323b872dd916064808201926020929091908290030181600087803b158015612aac57600080fd5b505af1158015612ac0573d6000803e3d6000fd5b505050506040513d6020811015612ad657600080fd5b5051612b2c5760408051600160e51b62461bcd02815260206004820152601960248201527f6661696c207472616e736665722066726f6d207374616b657200000000000000604482015290519081900360640190fd5b6008830154612b41908263ffffffff61360016565b60088401556001820154612b5b908263ffffffff61360016565b60018301819055600160801b1015612bbd5760408051600160e51b62461bcd02815260206004820152601a60248201527f7374616b696e6720616d6f756e7420697320746f6f2068696768000000000000604482015290519081900360640190fd5b6006830154612bd790600160801b9063ffffffff61365d16565b83600801541115612c325760408051600160e51b62461bcd02815260206004820152601860248201527f746f74616c207374616b657320697320746f6f20686967680000000000000000604482015290519081900360640190fd5b6001871415612c56576002820154612c50908263ffffffff61360016565b60028301555b8682556000878152601284016020526040902054612c7b90829063ffffffff61360016565b60008881526012850160209081526040808320939093558554825260038152908290205482518a815291820189905282516001600160a01b03808a16949216928c927fd0239d7d4acf51def4507fa173be466927de5d75d8b10d840cd6994d6e10231092918290030190a4612cef88613731565b98975050505050505050565b600081815260016020819052604082200154600160a01b900460ff166004816006811115612d2557fe5b1480612d3c57506005816006811115612d3a57fe5b145b80612d5257506006816006811115612d5057fe5b145b8061287357506003816006811115612d6657fe5b149392505050565b600060028311158015612d815750600083115b612dd55760408051600160e51b62461bcd02815260206004820152600e60248201527f30203c205f766f7465203c3d2032000000000000000000000000000000000000604482015290519081900360640190fd5b612dde85613731565b15612deb57506001610bec565b612df36140aa565b506000858152600160208181526040808420600580820154865285845282862083516101a0810185528154815281870154818701526002820154818601526003820154606082015260048083015460808301529282015460a0820152600682015460c0820152600782015460e082015260088201546101008201526009820154610120820152600a820154610140820152600b820154610160820152600c909101546001600160a01b039081166101808301528c8852868652958301548451600160e11b634ac41bc70281528c881693810193909352602483018d905293519096929592949390921692639588378e92604480840193829003018186803b158015612efd57600080fd5b505afa158015612f11573d6000803e3d6000fd5b505050506040513d6020811015612f2757600080fd5b5051905080612f805760408051600160e51b62461bcd02815260206004820152601b60248201527f5f766f746572206d75737420686176652072657075746174696f6e0000000000604482015290519081900360640190fd5b84811015612fd85760408051600160e51b62461bcd02815260206004820152601260248201527f72657075746174696f6e203e3d205f7265700000000000000000000000000000604482015290519081900360640190fd5b8480612fe15750805b6001600160a01b038816600090815260118401602052604090206001015415613011576000945050505050610bec565b6000878152600f8401602052604090205461303390829063ffffffff61360016565b6000888152600f850160205260408082208390556002860154825281205490899052108061308b57506002808401546000908152600f850160205260408082205492825290205414801561308b575060018360020154145b156131ae5760056001840154600160a01b900460ff1660068111156130ac57fe5b1480156130cc575060c0840151604085015103600b840160010154420310155b806130f0575060066001840154600160a01b900460ff1660068111156130ee57fe5b145b156131a65760066001840154600160a01b900460ff16600681111561311157fe5b1461319f5760c08401516004840155600183018054600160a01b60ff0219167406000000000000000000000000000000000000000017908190556040518a917f21aca7f0285ccddeca2935074d3e36b5ab8fea0327f84cbbf12cf1b6d1a749f991600160a01b90910460ff16908082600681111561318b57fe5b60ff16815260200191505060405180910390a25b42600c8401555b600283018790555b604080516060810182528881526020810183905290810160046001860154600160a01b900460ff1660068111156131e157fe5b1480613206575060036001860154600160a01b900460ff16600681111561320457fe5b145b151590526001600160a01b0389166000908152601185016020908152604091829020835181559083015160018201559101516002909101805460ff191691151591909117905560046001840154600160a01b900460ff16600681111561326857fe5b148061328d575060036001840154600160a01b900460ff16600681111561328b57fe5b145b1561337d5760008781526010840160205260409020546132b490829063ffffffff61360016565b60008881526010850160205260408120919091556101008501516064906132e1908463ffffffff6133f816565b816132e857fe5b600186015460408051600160e11b637c0fc5fb02815293909204600484018190526001600160a01b038d81166024860152604485018f9052925190945091169163f81f8bf69160648083019260209291908290030181600087803b15801561334f57600080fd5b505af1158015613363573d6000803e3d6000fd5b505050506040513d602081101561337957600080fd5b5050505b82546000908152600360209081526040918290205482518a815291820184905282516001600160a01b03808d16949216928d927f066c061a3792cb3eb64a441a928655fcbafb4a54b49725fe9cd2951df5e7189e92918290030190a4610e3789613731565b60008183106133f15781612873565b5090919050565b60008261340757506000610ada565b8282028284828161341457fe5b041461287357604051600160e51b62461bcd02815260040180806020018281038252602181526020018061429a6021913960400191505060405180910390fd5b60008082116134ad5760408051600160e51b62461bcd02815260206004820152601a60248201527f536166654d6174683a206469766973696f6e206279207a65726f000000000000604482015290519081900360640190fd5b60008284816134b857fe5b04949350505050565b604080517f19457468657265756d205369676e6564204d6573736167653a0a333200000000602080830191909152603c8083019490945282518083039094018452605c909101909152815191012090565b6000815160411461352557506000610ada565b60208201516040830151606084015160001a7f7fffffffffffffffffffffffffffffff5d576e7357a4501ddfe92f46681b20a082111561356b5760009350505050610ada565b8060ff16601b1415801561358357508060ff16601c14155b156135945760009350505050610ada565b6040805160008152602080820180845289905260ff8416828401526060820186905260808201859052915160019260a0808401939192601f1981019281900390910190855afa1580156135eb573d6000803e3d6000fd5b5050604051601f190151979650505050505050565b6000828201838110156128735760408051600160e51b62461bcd02815260206004820152601b60248201527f536166654d6174683a206164646974696f6e206f766572666c6f770000000000604482015290519081900360640190fd5b6000828211156136b75760408051600160e51b62461bcd02815260206004820152601e60248201527f536166654d6174683a207375627472616374696f6e206f766572666c6f770000604482015290519081900360640190fd5b50900390565b60008181526001602081815260408084206002855260128101909252808420549284528320549091612873916001600160d81b03169063ffffffff61370e16565b6000818310156133f15781612873565b60006128736001600160d81b03808516650100000000009081029185160261406c565b60008161373d81612cfb565b61374657600080fd5b600083815260016020526040902061375c6140aa565b506005808201546000908152602081815260409182902082516101a0810184528154815260018201549281019290925260028101549282019290925260038201546060820152600482015460808201529181015460a0830152600681015460c0830152600781015460e083015260088101546101008301526009810154610120830152600a810154610140830152600b810154610160830152600c01546001600160a01b031661018082015261381061411b565b604080516101c0810182528454815260018501546001600160a01b03811660208301529091859190830190600160a01b900460ff16600681111561385057fe5b600681111561385b57fe5b8152600282015460208201526003808301546001600160a01b0316604080840191909152600484015460608085019190915260058501546080850152600685015460a0850152600785015460c0850152600885015460e08501526009850154610100850152600a8501546101208501528151908101918290526101409093019291600b85019182845b8154815260200190600101908083116138e4575050509183525050600e919091015460ff161515602091820152600185015460408051600160e01b63b551c373028152600481018b905290519394506000936001600160a01b039092169263b551c37392602480840193829003018186803b15801561396257600080fd5b505afa158015613976573d6000803e3d6000fd5b505050506040513d602081101561398c57600080fd5b5051835160028601546000908152600f87016020526040812054929350606484049091029181908190841015613a3c5760036001890154600160a01b900460ff1660068111156139d857fe5b14156139e75760019250613a17565b60046001890154600160a01b900460ff166006811115613a0357fe5b1415613a125760039250613a17565b600592505b60018801805460029190600160a01b60ff021916600160a01b835b0217905550613cb4565b60036001890154600160a01b900460ff166006811115613a5857fe5b1415613ae0576020870151600b890154420310613a9657600188018054600160a01b60ff021916600160a01b17905560028089018190559250613ae0565b613aa888600501548960000154610b91565b905080613ab48c6136bd565b1115613ae057600188018054600160a01b60ff021916600160a21b17905542600d890155600988018190555b60046001890154600160a01b900460ff166006811115613afc57fe5b1415613cb457613b1488600501548960000154610b91565b6060880151909150600b890160020154420310613c115780613b358c6136bd565b1115613bed5787546000908152600260205260409020546110001115613be85760018881018054600160a01b60ff0219167405000000000000000000000000000000000000000017905542600c8a01558854600090815260026020818152604080842080549095019094558b54835260048152838320548282528484205492845260128d0190915292909120549193509083900381613bd057fe5b89546000908152600460205260409020919005830190555b613c0c565b60018801805460039190600160a01b60ff021916600160a01b83613a32565b613cb4565b6000613c1c8c6136bd565b60098a0154909150613c34908363ffffffff6133e216565b8111613c6857600189018054600160a01b60ff02191674030000000000000000000000000000000000000000179055613cb2565b8089600901541115613cb257600989018290556040805183815290518d917fad767d61af51c7895fa3cc0497dde01afb610c74e55ee4d8a71fa5e3ee136d54919081900360200190a25b505b60056001890154600160a01b900460ff166006811115613cd057fe5b1480613cf5575060066001890154600160a01b900460ff166006811115613cf357fe5b145b15613d28576004880154600c890154420310613d2857600188018054600160a01b60ff021916600160a11b179055600492505b6000836005811115613d3657fe5b14613f57576004836005811115613d4957fe5b1480613d6057506005836005811115613d5e57fe5b145b15613e1b578551600090815260026020526040902054613d8790600163ffffffff61365d16565b86516000908152600260205260408082209290925587518152205480613dbd578854600090815260046020526040812055613e19565b88546000908152600460209081526040808320546002845260128d01909252909120549093508190613dfc9061226c866001850163ffffffff6133f816565b81613e0357fe5b8a54600090815260046020526040902091900490555b505b87546000908152600360209081526040918290205460028b0154835190815291820188905282516001600160a01b03909116928e927f37471b9c9d295ffb1309ad070b8964700bfb7b555e8e8292d0b6cbc7dba35d10929081900390910190a38a7f46a713b994c752c68fbefa9048bec9a0010cc7d933ad95a3c3dbb25931a167e78460405180826005811115613eae57fe5b60ff16815260200191505060405180910390a26001880154600289015460408051600160e01b639d4c162d028152600481018f90526024810192909252516001600160a01b0390921691639d4c162d916044808201926020929091908290030181600087803b158015613f2057600080fd5b505af1158015613f34573d6000803e3d6000fd5b505050506040513d6020811015613f4a57600080fd5b5050600688015460078901555b6001880154600160a01b900460ff166006811115613f7157fe5b86604001516006811115613f8157fe5b14613fde578a7f21aca7f0285ccddeca2935074d3e36b5ab8fea0327f84cbbf12cf1b6d1a749f98960010160149054906101000a900460ff1660405180826006811115613fca57fe5b60ff16815260200191505060405180910390a25b6000836005811115613fec57fe5b14159b9a5050505050505050505050565b60008282028284828161400c57fe5b04146140625760408051600160e51b62461bcd02815260206004820152601560248201527f5265616c4d617468206d756c206f766572666c6f770000000000000000000000604482015290519081900360640190fd5b60281c9392505050565b6000816501000000000084028161407f57fe5b049392505050565b604051806060016040528060008152602001600081526020016000151581525090565b604051806101a0016040528060008152602001600081526020016000815260200160008152602001600081526020016000815260200160008152602001600081526020016000815260200160008152602001600081526020016000815260200160006001600160a01b031681525090565b6040805161020081018252600080825260208201819052909182019081526020016000815260200160006001600160a01b031681526020016000815260200160008019168152602001600081526020016000815260200160008152602001600081526020016000815260200161418f6141da565b8152600060209091015290565b82600381019282156141ca579160200282015b828111156141ca5782518255916020019190600101906141af565b506141d69291506141f8565b5090565b60405180606001604052806003906020820280388339509192915050565b61118491905b808211156141d657600081556001016141fe565b3b15159056fe50726f706f73616c2073686f756c64206265204578656375746564206f722045787069726564496e5175657565626f6f73746564566f7465506572696f644c696d6974203e3d207175696574456e64696e67506572696f643530203c3d20717565756564566f7465526571756972656450657263656e74616765203c3d20313030536166654d6174683a206d756c7469706c69636174696f6e206f766572666c6f7770726f706f73616c20737461746520696e206e6f7420426f6f73746564206e6f72205175696574456e64696e67506572696f64a165627a7a72305820906a16b772834038288b75fae516dfdabbed375e1012b38d265cd5832251cb5c0029",
  "source": "pragma solidity ^0.5.4;\n\nimport \"openzeppelin-solidity/contracts/cryptography/ECDSA.sol\";\nimport \"./GenesisProtocolLogic.sol\";\n\n\n/**\n * @title GenesisProtocol implementation -an organization's voting machine scheme.\n */\ncontract GenesisProtocol is IntVoteInterface, GenesisProtocolLogic {\n    using ECDSA for bytes32;\n\n    // Digest describing the data the user signs according EIP 712.\n    // Needs to match what is passed to Metamask.\n    bytes32 public constant DELEGATION_HASH_EIP712 =\n    keccak256(abi.encodePacked(\n    \"address GenesisProtocolAddress\",\n    \"bytes32 ProposalId\",\n    \"uint256 Vote\",\n    \"uint256 AmountToStake\",\n    \"uint256 Nonce\"\n    ));\n\n    mapping(address=>uint256) public stakesNonce; //stakes Nonce\n\n    /**\n     * @dev Constructor\n     */\n    constructor(IERC20 _stakingToken)\n    public\n    // solhint-disable-next-line no-empty-blocks\n    GenesisProtocolLogic(_stakingToken) {\n    }\n\n    /**\n     * @dev staking function\n     * @param _proposalId id of the proposal\n     * @param _vote  NO(2) or YES(1).\n     * @param _amount the betting amount\n     * @return bool true - the proposal has been executed\n     *              false - otherwise.\n     */\n    function stake(bytes32 _proposalId, uint256 _vote, uint256 _amount) external returns(bool) {\n        return _stake(_proposalId, _vote, _amount, msg.sender);\n    }\n\n    /**\n     * @dev stakeWithSignature function\n     * @param _proposalId id of the proposal\n     * @param _vote  NO(2) or YES(1).\n     * @param _amount the betting amount\n     * @param _nonce nonce value ,it is part of the signature to ensure that\n              a signature can be received only once.\n     * @param _signatureType signature type\n              1 - for web3.eth.sign\n              2 - for eth_signTypedData according to EIP #712.\n     * @param _signature  - signed data by the staker\n     * @return bool true - the proposal has been executed\n     *              false - otherwise.\n     */\n    function stakeWithSignature(\n        bytes32 _proposalId,\n        uint256 _vote,\n        uint256 _amount,\n        uint256 _nonce,\n        uint256 _signatureType,\n        bytes calldata _signature\n        )\n        external\n        returns(bool)\n        {\n        // Recreate the digest the user signed\n        bytes32 delegationDigest;\n        if (_signatureType == 2) {\n            delegationDigest = keccak256(\n                abi.encodePacked(\n                    DELEGATION_HASH_EIP712, keccak256(\n                        abi.encodePacked(\n                        address(this),\n                        _proposalId,\n                        _vote,\n                        _amount,\n                        _nonce)\n                    )\n                )\n            );\n        } else {\n            delegationDigest = keccak256(\n                        abi.encodePacked(\n                        address(this),\n                        _proposalId,\n                        _vote,\n                        _amount,\n                        _nonce)\n                    ).toEthSignedMessageHash();\n        }\n        address staker = delegationDigest.recover(_signature);\n        //a garbage staker address due to wrong signature will revert due to lack of approval and funds.\n        require(staker != address(0), \"staker address cannot be 0\");\n        require(stakesNonce[staker] == _nonce);\n        stakesNonce[staker] = stakesNonce[staker].add(1);\n        return _stake(_proposalId, _vote, _amount, staker);\n    }\n\n    /**\n     * @dev voting function\n     * @param _proposalId id of the proposal\n     * @param _vote NO(2) or YES(1).\n     * @param _amount the reputation amount to vote with . if _amount == 0 it will use all voter reputation.\n     * @param _voter voter address\n     * @return bool true - the proposal has been executed\n     *              false - otherwise.\n     */\n    function vote(bytes32 _proposalId, uint256 _vote, uint256 _amount, address _voter)\n    external\n    votable(_proposalId)\n    returns(bool) {\n        Proposal storage proposal = proposals[_proposalId];\n        Parameters memory params = parameters[proposal.paramsHash];\n        address voter;\n        if (params.voteOnBehalf != address(0)) {\n            require(msg.sender == params.voteOnBehalf);\n            voter = _voter;\n        } else {\n            voter = msg.sender;\n        }\n        return internalVote(_proposalId, voter, _vote, _amount);\n    }\n\n  /**\n   * @dev Cancel the vote of the msg.sender.\n   * cancel vote is not allow in genesisProtocol so this function doing nothing.\n   * This function is here in order to comply to the IntVoteInterface .\n   */\n    function cancelVote(bytes32 _proposalId) external votable(_proposalId) {\n       //this is not allowed\n        return;\n    }\n\n    /**\n      * @dev execute check if the proposal has been decided, and if so, execute the proposal\n      * @param _proposalId the id of the proposal\n      * @return bool true - the proposal has been executed\n      *              false - otherwise.\n     */\n    function execute(bytes32 _proposalId) external votable(_proposalId) returns(bool) {\n        return _execute(_proposalId);\n    }\n\n  /**\n    * @dev getNumberOfChoices returns the number of choices possible in this proposal\n    * @return uint256 that contains number of choices\n    */\n    function getNumberOfChoices(bytes32) external view returns(uint256) {\n        return NUM_OF_CHOICES;\n    }\n\n    /**\n      * @dev getProposalTimes returns proposals times variables.\n      * @param _proposalId id of the proposal\n      * @return proposals times array\n      */\n    function getProposalTimes(bytes32 _proposalId) external view returns(uint[3] memory times) {\n        return proposals[_proposalId].times;\n    }\n\n    /**\n     * @dev voteInfo returns the vote and the amount of reputation of the user committed to this proposal\n     * @param _proposalId the ID of the proposal\n     * @param _voter the address of the voter\n     * @return uint256 vote - the voters vote\n     *        uint256 reputation - amount of reputation committed by _voter to _proposalId\n     */\n    function voteInfo(bytes32 _proposalId, address _voter) external view returns(uint, uint) {\n        Voter memory voter = proposals[_proposalId].voters[_voter];\n        return (voter.vote, voter.reputation);\n    }\n\n    /**\n    * @dev voteStatus returns the reputation voted for a proposal for a specific voting choice.\n    * @param _proposalId the ID of the proposal\n    * @param _choice the index in the\n    * @return voted reputation for the given choice\n    */\n    function voteStatus(bytes32 _proposalId, uint256 _choice) external view returns(uint256) {\n        return proposals[_proposalId].votes[_choice];\n    }\n\n    /**\n    * @dev isVotable check if the proposal is votable\n    * @param _proposalId the ID of the proposal\n    * @return bool true or false\n    */\n    function isVotable(bytes32 _proposalId) external view returns(bool) {\n        return _isVotable(_proposalId);\n    }\n\n    /**\n    * @dev proposalStatus return the total votes and stakes for a given proposal\n    * @param _proposalId the ID of the proposal\n    * @return uint256 preBoostedVotes YES\n    * @return uint256 preBoostedVotes NO\n    * @return uint256 total stakes YES\n    * @return uint256 total stakes NO\n    */\n    function proposalStatus(bytes32 _proposalId) external view returns(uint256, uint256, uint256, uint256) {\n        return (\n                proposals[_proposalId].preBoostedVotes[YES],\n                proposals[_proposalId].preBoostedVotes[NO],\n                proposals[_proposalId].stakes[YES],\n                proposals[_proposalId].stakes[NO]\n        );\n    }\n\n  /**\n    * @dev getProposalOrganization return the organizationId for a given proposal\n    * @param _proposalId the ID of the proposal\n    * @return bytes32 organization identifier\n    */\n    function getProposalOrganization(bytes32 _proposalId) external view returns(bytes32) {\n        return (proposals[_proposalId].organizationId);\n    }\n\n    /**\n      * @dev getStaker return the vote and stake amount for a given proposal and staker\n      * @param _proposalId the ID of the proposal\n      * @param _staker staker address\n      * @return uint256 vote\n      * @return uint256 amount\n    */\n    function getStaker(bytes32 _proposalId, address _staker) external view returns(uint256, uint256) {\n        return (proposals[_proposalId].stakers[_staker].vote, proposals[_proposalId].stakers[_staker].amount);\n    }\n\n    /**\n      * @dev voteStake return the amount stakes for a given proposal and vote\n      * @param _proposalId the ID of the proposal\n      * @param _vote vote number\n      * @return uint256 stake amount\n    */\n    function voteStake(bytes32 _proposalId, uint256 _vote) external view returns(uint256) {\n        return proposals[_proposalId].stakes[_vote];\n    }\n\n  /**\n    * @dev voteStake return the winningVote for a given proposal\n    * @param _proposalId the ID of the proposal\n    * @return uint256 winningVote\n    */\n    function winningVote(bytes32 _proposalId) external view returns(uint256) {\n        return proposals[_proposalId].winningVote;\n    }\n\n    /**\n      * @dev voteStake return the state for a given proposal\n      * @param _proposalId the ID of the proposal\n      * @return ProposalState proposal state\n    */\n    function state(bytes32 _proposalId) external view returns(ProposalState) {\n        return proposals[_proposalId].state;\n    }\n\n   /**\n    * @dev isAbstainAllow returns if the voting machine allow abstain (0)\n    * @return bool true or false\n    */\n    function isAbstainAllow() external pure returns(bool) {\n        return false;\n    }\n\n    /**\n     * @dev getAllowedRangeOfChoices returns the allowed range of choices for a voting machine.\n     * @return min - minimum number of choices\n               max - maximum number of choices\n     */\n    function getAllowedRangeOfChoices() external pure returns(uint256 min, uint256 max) {\n        return (YES, NO);\n    }\n\n    /**\n     * @dev score return the proposal score\n     * @param _proposalId the ID of the proposal\n     * @return uint256 proposal score.\n     */\n    function score(bytes32 _proposalId) public view returns(uint256) {\n        return  _score(_proposalId);\n    }\n}\n",
  "sourcePath": "@daostack/infra/contracts/votingMachines/GenesisProtocol.sol",
  "compiler": {
    "name": "solc",
    "version": "0.5.6+commit.b259423e.Emscripten.clang"
  },
  "schemaVersion": "3.0.14",
  "updatedAt": "2019-09-15T20:14:56.058Z",
  "devdoc": {
    "methods": {
      "calcExecuteCallBounty(bytes32)": {
        "details": "calcExecuteCallBounty calculate the execute boosted call bounty",
        "params": {
          "_proposalId": "the ID of the proposal"
        },
        "return": "uint256 executeCallBounty"
      },
      "cancelVote(bytes32)": {
        "details": "Cancel the vote of the msg.sender. cancel vote is not allow in genesisProtocol so this function doing nothing. This function is here in order to comply to the IntVoteInterface ."
      },
      "constructor": {
        "details": "Constructor"
      },
      "execute(bytes32)": {
        "details": "execute check if the proposal has been decided, and if so, execute the proposal",
        "params": {
          "_proposalId": "the id of the proposal"
        },
        "return": "bool true - the proposal has been executed             false - otherwise."
      },
      "executeBoosted(bytes32)": {
        "details": "executeBoosted try to execute a boosted or QuietEndingPeriod proposal if it is expired it rewards the msg.sender with P % of the proposal's upstakes upon a successful call to this function. P = t/150, where t is the number of seconds passed since the the proposal's timeout. P is capped by 10%.",
        "params": {
          "_proposalId": "the id of the proposal"
        },
        "return": "uint256 expirationCallBounty the bounty amount for the expiration call"
      },
      "getAllowedRangeOfChoices()": {
        "details": "getAllowedRangeOfChoices returns the allowed range of choices for a voting machine.",
        "return": "min - minimum number of choices max - maximum number of choices"
      },
      "getNumberOfChoices(bytes32)": {
        "details": "getNumberOfChoices returns the number of choices possible in this proposal",
        "return": "uint256 that contains number of choices"
      },
      "getParametersHash(uint256[11],address)": {
        "details": "hashParameters returns a hash of the given parameters"
      },
      "getProposalOrganization(bytes32)": {
        "details": "getProposalOrganization return the organizationId for a given proposal",
        "params": {
          "_proposalId": "the ID of the proposal"
        },
        "return": "bytes32 organization identifier"
      },
      "getProposalTimes(bytes32)": {
        "details": "getProposalTimes returns proposals times variables.",
        "params": {
          "_proposalId": "id of the proposal"
        },
        "return": "proposals times array"
      },
      "getStaker(bytes32,address)": {
        "details": "getStaker return the vote and stake amount for a given proposal and staker",
        "params": {
          "_proposalId": "the ID of the proposal",
          "_staker": "staker address"
        },
        "return": "uint256 voteuint256 amount"
      },
      "isAbstainAllow()": {
        "details": "isAbstainAllow returns if the voting machine allow abstain (0)",
        "return": "bool true or false"
      },
      "isVotable(bytes32)": {
        "details": "isVotable check if the proposal is votable",
        "params": {
          "_proposalId": "the ID of the proposal"
        },
        "return": "bool true or false"
      },
      "proposalStatus(bytes32)": {
        "details": "proposalStatus return the total votes and stakes for a given proposal",
        "params": {
          "_proposalId": "the ID of the proposal"
        },
        "return": "uint256 preBoostedVotes YESuint256 preBoostedVotes NOuint256 total stakes YESuint256 total stakes NO"
      },
      "propose(uint256,bytes32,address,address)": {
        "details": "register a new proposal with the given parameters. Every proposal has a unique ID which is being generated by calculating keccak256 of a incremented counter.",
        "params": {
          "_organization": "address",
          "_paramsHash": "parameters hash",
          "_proposer": "address"
        }
      },
      "redeem(bytes32,address)": {
        "details": "redeem a reward for a successful stake, vote or proposing. The function use a beneficiary address as a parameter (and not msg.sender) to enable users to redeem on behalf of someone else.",
        "params": {
          "_beneficiary": "- the beneficiary address",
          "_proposalId": "the ID of the proposal"
        },
        "return": "rewards -          [0] stakerTokenReward          [1] voterReputationReward          [2] proposerReputationReward"
      },
      "redeemDaoBounty(bytes32,address)": {
        "details": "redeemDaoBounty a reward for a successful stake. The function use a beneficiary address as a parameter (and not msg.sender) to enable users to redeem on behalf of someone else.",
        "params": {
          "_beneficiary": "- the beneficiary address",
          "_proposalId": "the ID of the proposal"
        },
        "return": "redeemedAmount - redeem token amountpotentialAmount - potential redeem token amount(if there is enough tokens bounty at the organization )"
      },
      "score(bytes32)": {
        "details": "score return the proposal score",
        "params": {
          "_proposalId": "the ID of the proposal"
        },
        "return": "uint256 proposal score."
      },
      "setParameters(uint256[11],address)": {
        "details": "hash the parameters, save them if necessary, and return the hash value",
        "params": {
          "_params": "a parameters array   _params[0] - _queuedVoteRequiredPercentage,   _params[1] - _queuedVotePeriodLimit, //the time limit for a proposal to be in an absolute voting mode.   _params[2] - _boostedVotePeriodLimit, //the time limit for a proposal to be in an relative voting mode.   _params[3] - _preBoostedVotePeriodLimit, //the time limit for a proposal to be in an preparation                 state (stable) before boosted.   _params[4] -_thresholdConst   _params[5] -_quietEndingPeriod   _params[6] -_proposingRepReward   _params[7] -_votersReputationLossRatio   _params[8] -_minimumDaoBounty   _params[9] -_daoBountyConst   _params[10] -_activationTime",
          "_voteOnBehalf": "- authorized to vote on behalf of others."
        }
      },
      "shouldBoost(bytes32)": {
        "details": "shouldBoost check if a proposal should be shifted to boosted phase.",
        "params": {
          "_proposalId": "the ID of the proposal"
        },
        "return": "bool true or false."
      },
      "stake(bytes32,uint256,uint256)": {
        "details": "staking function",
        "params": {
          "_amount": "the betting amount",
          "_proposalId": "id of the proposal",
          "_vote": "NO(2) or YES(1)."
        },
        "return": "bool true - the proposal has been executed             false - otherwise."
      },
      "stakeWithSignature(bytes32,uint256,uint256,uint256,uint256,bytes)": {
        "details": "stakeWithSignature function",
        "params": {
          "_amount": "the betting amount",
          "_nonce": "nonce value ,it is part of the signature to ensure that a signature can be received only once.",
          "_proposalId": "id of the proposal",
          "_signature": "- signed data by the staker",
          "_signatureType": "signature type 1 - for web3.eth.sign 2 - for eth_signTypedData according to EIP #712.",
          "_vote": "NO(2) or YES(1)."
        },
        "return": "bool true - the proposal has been executed             false - otherwise."
      },
      "state(bytes32)": {
        "details": "voteStake return the state for a given proposal",
        "params": {
          "_proposalId": "the ID of the proposal"
        },
        "return": "ProposalState proposal state"
      },
      "threshold(bytes32,bytes32)": {
        "details": "threshold return the organization's score threshold which required by a proposal to shift to boosted state. This threshold is dynamically set and it depend on the number of boosted proposal.",
        "params": {
          "_organizationId": "the organization identifier",
          "_paramsHash": "the organization parameters hash"
        },
        "return": "uint256 organization's score threshold as real number."
      },
      "vote(bytes32,uint256,uint256,address)": {
        "details": "voting function",
        "params": {
          "_amount": "the reputation amount to vote with . if _amount == 0 it will use all voter reputation.",
          "_proposalId": "id of the proposal",
          "_vote": "NO(2) or YES(1).",
          "_voter": "voter address"
        },
        "return": "bool true - the proposal has been executed             false - otherwise."
      },
      "voteInfo(bytes32,address)": {
        "details": "voteInfo returns the vote and the amount of reputation of the user committed to this proposal",
        "params": {
          "_proposalId": "the ID of the proposal",
          "_voter": "the address of the voter"
        },
        "return": "uint256 vote - the voters vote       uint256 reputation - amount of reputation committed by _voter to _proposalId"
      },
      "voteStake(bytes32,uint256)": {
        "details": "voteStake return the amount stakes for a given proposal and vote",
        "params": {
          "_proposalId": "the ID of the proposal",
          "_vote": "vote number"
        },
        "return": "uint256 stake amount"
      },
      "voteStatus(bytes32,uint256)": {
        "details": "voteStatus returns the reputation voted for a proposal for a specific voting choice.",
        "params": {
          "_choice": "the index in the",
          "_proposalId": "the ID of the proposal"
        },
        "return": "voted reputation for the given choice"
      },
      "winningVote(bytes32)": {
        "details": "voteStake return the winningVote for a given proposal",
        "params": {
          "_proposalId": "the ID of the proposal"
        },
        "return": "uint256 winningVote"
      }
    },
    "title": "GenesisProtocol implementation -an organization's voting machine scheme."
  },
  "userdoc": {
    "methods": {}
  }
}