{
  "contractName": "GenericScheme",
  "abi": [
    {
      "constant": true,
      "inputs": [
        {
          "name": "",
          "type": "bytes32"
        }
      ],
      "name": "parameters",
      "outputs": [
        {
          "name": "intVote",
          "type": "address"
        },
        {
          "name": "voteParams",
          "type": "bytes32"
        },
        {
          "name": "contractToCall",
          "type": "address"
        }
      ],
      "payable": false,
      "stateMutability": "view",
      "type": "function"
    },
    {
      "constant": true,
      "inputs": [
        {
          "name": "",
          "type": "address"
        },
        {
          "name": "",
          "type": "bytes32"
        }
      ],
      "name": "organizationsProposals",
      "outputs": [
        {
          "name": "callData",
          "type": "bytes"
        },
        {
          "name": "value",
          "type": "uint256"
        },
        {
          "name": "exist",
          "type": "bool"
        },
        {
          "name": "passed",
          "type": "bool"
        }
      ],
      "payable": false,
      "stateMutability": "view",
      "type": "function"
    },
    {
      "constant": true,
      "inputs": [
        {
          "name": "",
          "type": "address"
        },
        {
          "name": "",
          "type": "bytes32"
        }
      ],
      "name": "proposalsInfo",
      "outputs": [
        {
          "name": "blockNumber",
          "type": "uint256"
        },
        {
          "name": "avatar",
          "type": "address"
        }
      ],
      "payable": false,
      "stateMutability": "view",
      "type": "function"
    },
    {
      "constant": true,
      "inputs": [
        {
          "name": "_stakingToken",
          "type": "address"
        },
        {
          "name": "_proposalId",
          "type": "bytes32"
        }
      ],
      "name": "balanceOfStakingToken",
      "outputs": [
        {
          "name": "",
          "type": "uint256"
        }
      ],
      "payable": false,
      "stateMutability": "view",
      "type": "function"
    },
    {
      "constant": true,
      "inputs": [
        {
          "name": "_owner",
          "type": "address"
        },
        {
          "name": "_proposalId",
          "type": "bytes32"
        }
      ],
      "name": "reputationOf",
      "outputs": [
        {
          "name": "",
          "type": "uint256"
        }
      ],
      "payable": false,
      "stateMutability": "view",
      "type": "function"
    },
    {
      "constant": true,
      "inputs": [
        {
          "name": "_proposalId",
          "type": "bytes32"
        }
      ],
      "name": "getTotalReputationSupply",
      "outputs": [
        {
          "name": "",
          "type": "uint256"
        }
      ],
      "payable": false,
      "stateMutability": "view",
      "type": "function"
    },
    {
      "constant": false,
      "inputs": [
        {
          "name": "_stakingToken",
          "type": "address"
        },
        {
          "name": "_beneficiary",
          "type": "address"
        },
        {
          "name": "_amount",
          "type": "uint256"
        },
        {
          "name": "_proposalId",
          "type": "bytes32"
        }
      ],
      "name": "stakingTokenTransfer",
      "outputs": [
        {
          "name": "",
          "type": "bool"
        }
      ],
      "payable": false,
      "stateMutability": "nonpayable",
      "type": "function"
    },
    {
      "constant": false,
      "inputs": [
        {
          "name": "_amount",
          "type": "uint256"
        },
        {
          "name": "_beneficiary",
          "type": "address"
        },
        {
          "name": "_proposalId",
          "type": "bytes32"
        }
      ],
      "name": "mintReputation",
      "outputs": [
        {
          "name": "",
          "type": "bool"
        }
      ],
      "payable": false,
      "stateMutability": "nonpayable",
      "type": "function"
    },
    {
      "constant": false,
      "inputs": [
        {
          "name": "_amount",
          "type": "uint256"
        },
        {
          "name": "_beneficiary",
          "type": "address"
        },
        {
          "name": "_proposalId",
          "type": "bytes32"
        }
      ],
      "name": "burnReputation",
      "outputs": [
        {
          "name": "",
          "type": "bool"
        }
      ],
      "payable": false,
      "stateMutability": "nonpayable",
      "type": "function"
    },
    {
      "anonymous": false,
      "inputs": [
        {
          "indexed": true,
          "name": "_avatar",
          "type": "address"
        },
        {
          "indexed": true,
          "name": "_proposalId",
          "type": "bytes32"
        },
        {
          "indexed": false,
          "name": "_callData",
          "type": "bytes"
        },
        {
          "indexed": false,
          "name": "_value",
          "type": "uint256"
        },
        {
          "indexed": false,
          "name": "_descriptionHash",
          "type": "string"
        }
      ],
      "name": "NewCallProposal",
      "type": "event"
    },
    {
      "anonymous": false,
      "inputs": [
        {
          "indexed": true,
          "name": "_avatar",
          "type": "address"
        },
        {
          "indexed": true,
          "name": "_proposalId",
          "type": "bytes32"
        },
        {
          "indexed": false,
          "name": "_genericCallReturnValue",
          "type": "bytes"
        }
      ],
      "name": "ProposalExecuted",
      "type": "event"
    },
    {
      "anonymous": false,
      "inputs": [
        {
          "indexed": true,
          "name": "_avatar",
          "type": "address"
        },
        {
          "indexed": true,
          "name": "_proposalId",
          "type": "bytes32"
        },
        {
          "indexed": false,
          "name": "_param",
          "type": "int256"
        }
      ],
      "name": "ProposalExecutedByVotingMachine",
      "type": "event"
    },
    {
      "anonymous": false,
      "inputs": [
        {
          "indexed": true,
          "name": "_avatar",
          "type": "address"
        },
        {
          "indexed": true,
          "name": "_proposalId",
          "type": "bytes32"
        }
      ],
      "name": "ProposalDeleted",
      "type": "event"
    },
    {
      "constant": false,
      "inputs": [
        {
          "name": "_proposalId",
          "type": "bytes32"
        },
        {
          "name": "_decision",
          "type": "int256"
        }
      ],
      "name": "executeProposal",
      "outputs": [
        {
          "name": "",
          "type": "bool"
        }
      ],
      "payable": false,
      "stateMutability": "nonpayable",
      "type": "function"
    },
    {
      "constant": false,
      "inputs": [
        {
          "name": "_avatar",
          "type": "address"
        },
        {
          "name": "_proposalId",
          "type": "bytes32"
        }
      ],
      "name": "execute",
      "outputs": [],
      "payable": false,
      "stateMutability": "nonpayable",
      "type": "function"
    },
    {
      "constant": false,
      "inputs": [
        {
          "name": "_voteParams",
          "type": "bytes32"
        },
        {
          "name": "_intVote",
          "type": "address"
        },
        {
          "name": "_contractToCall",
          "type": "address"
        }
      ],
      "name": "setParameters",
      "outputs": [
        {
          "name": "",
          "type": "bytes32"
        }
      ],
      "payable": false,
      "stateMutability": "nonpayable",
      "type": "function"
    },
    {
      "constant": true,
      "inputs": [
        {
          "name": "_voteParams",
          "type": "bytes32"
        },
        {
          "name": "_intVote",
          "type": "address"
        },
        {
          "name": "_contractToCall",
          "type": "address"
        }
      ],
      "name": "getParametersHash",
      "outputs": [
        {
          "name": "",
          "type": "bytes32"
        }
      ],
      "payable": false,
      "stateMutability": "pure",
      "type": "function"
    },
    {
      "constant": false,
      "inputs": [
        {
          "name": "_avatar",
          "type": "address"
        },
        {
          "name": "_callData",
          "type": "bytes"
        },
        {
          "name": "_value",
          "type": "uint256"
        },
        {
          "name": "_descriptionHash",
          "type": "string"
        }
      ],
      "name": "proposeCall",
      "outputs": [
        {
          "name": "",
          "type": "bytes32"
        }
      ],
      "payable": false,
      "stateMutability": "nonpayable",
      "type": "function"
    },
    {
      "constant": true,
      "inputs": [
        {
          "name": "_avatar",
          "type": "address"
        }
      ],
      "name": "getContractToCall",
      "outputs": [
        {
          "name": "",
          "type": "address"
        }
      ],
      "payable": false,
      "stateMutability": "view",
      "type": "function"
    }
  ],
  "bytecode": "0x608060405234801561001057600080fd5b50611cac806100206000396000f3fe608060405234801561001057600080fd5b50600436106100f55760003560e01c806388b2666711610097578063b551c37311610066578063b551c3731461050e578063bea75f281461052b578063d29b5d2f14610567578063f81f8bf614610599576100f5565b806388b266671461043b5780639588378e1461047d5780639d4c162d146104a95780639edd8c74146104e0576100f5565b806335a05133116100d357806335a051331461035a57806348ffbfeb1461038e57806360bdbb3f146103c25780636b8eb4031461040f576100f5565b806302506804146100fa57806306e3a9781461014257806320160d7e14610203575b600080fd5b6101176004803603602081101561011057600080fd5b50356105cb565b604080516001600160a01b039485168152602081019390935292168183015290519081900360600190f35b61016e6004803603604081101561015857600080fd5b506001600160a01b0381351690602001356105f8565b60405180806020018581526020018415151515815260200183151515158152602001828103825286818151815260200191508051906020019080838360005b838110156101c55781810151838201526020016101ad565b50505050905090810190601f1680156101f25780820380516001836020036101000a031916815260200191505b509550505050505060405180910390f35b6103486004803603608081101561021957600080fd5b6001600160a01b03823516919081019060408101602082013564010000000081111561024457600080fd5b82018360208201111561025657600080fd5b8035906020019184600183028401116401000000008311171561027857600080fd5b91908080601f016020809104026020016040519081016040528093929190818152602001838380828437600092019190915250929584359590949093506040810192506020013590506401000000008111156102d357600080fd5b8201836020820111156102e557600080fd5b8035906020019184600183028401116401000000008311171561030757600080fd5b91908080601f0160208091040260200160405190810160405280939291908181526020018383808284376000920191909152509295506106b7945050505050565b60408051918252519081900360200190f35b6103486004803603606081101561037057600080fd5b508035906001600160a01b03602082013581169160400135166109a2565b610348600480360360608110156103a457600080fd5b508035906001600160a01b03602082013581169160400135166109e8565b6103ee600480360360408110156103d857600080fd5b506001600160a01b038135169060200135610a43565b604080519283526001600160a01b0390911660208301528051918290030190f35b6103486004803603604081101561042557600080fd5b506001600160a01b038135169060200135610a6d565b6104616004803603602081101561045157600080fd5b50356001600160a01b0316610b2d565b604080516001600160a01b039092168252519081900360200190f35b6103486004803603604081101561049357600080fd5b506001600160a01b038135169060200135610b61565b6104cc600480360360408110156104bf57600080fd5b5080359060200135610c72565b604080519115158252519081900360200190f35b61050c600480360360408110156104f657600080fd5b506001600160a01b038135169060200135610ecc565b005b6103486004803603602081101561052457600080fd5b503561132b565b6104cc6004803603608081101561054157600080fd5b506001600160a01b03813581169160208101359091169060408101359060600135611466565b6104cc6004803603606081101561057d57600080fd5b508035906001600160a01b036020820135169060400135611611565b6104cc600480360360608110156105af57600080fd5b508035906001600160a01b0360208201351690604001356117b3565b60026020819052600091825260409091208054600182015491909201546001600160a01b03928316921683565b600160208181526000938452604080852082529284529282902080548351600293821615610100026000190190911692909204601f810185900485028301850190935282825292909183918301828280156106945780601f1061066957610100808354040283529160200191610694565b820191906000526020600020905b81548152906001019060200180831161067757829003601f168201915b50505050600183015460029093015491929160ff80821692506101009091041684565b60006106c1611b41565b600260006106ce8861191d565b815260208082019290925260409081016000908120825160608101845281546001600160a01b0390811680835260018401548388018190526002948501548316848801528651600160e11b634439bdaf02815260048101959095526024850152336044850152908c16606484015293519095509293919284926388737b5e926084808201939182900301818787803b15801561076957600080fd5b505af115801561077d573d6000803e3d6000fd5b505050506040513d602081101561079357600080fd5b50516040805160808101825289815260208181018a905260018284018190526000606084018190526001600160a01b038e16815290825283812085825282529290922081518051949550919390926107ef928492910190611b61565b506020828101516001838101919091556040808501516002909401805460609687015160ff199091169515159590951761ff0019166101009515159590950294909417909355825180840184524381526001600160a01b038d81168285018181528a51831660009081528087528781208a825287528781209451855590519390940180546001600160a01b0319169390921692909217905583518084018c90528581528c51958101959095528b51869591947f36418f82d814fb021ca04ebdc2c4a3cd69f719851f597c489bca2ed245e8c8ad948e948e948e949093849390840192608085019291890191908190849084905b838110156108fa5781810151838201526020016108e2565b50505050905090810190601f1680156109275780820380516001836020036101000a031916815260200191505b50838103825284518152845160209182019186019080838360005b8381101561095a578181015183820152602001610942565b50505050905090810190601f1680156109875780820380516001836020036101000a031916815260200191505b509550505050505060405180910390a3979650505050505050565b604080516020808201959095526001600160a01b03938416606090811b828401529290931690911b60548301528051808303604801815260689092019052805191012090565b6000806109f68585856109a2565b6000818152600260208190526040909120600181019790975586546001600160a01b03199081166001600160a01b0397881617885596018054909616939094169290921790935550919050565b6000602081815292815260408082209093529081522080546001909101546001600160a01b031682565b336000908152602081815260408083208484529091528120600101546001600160a01b031680610aa1576000915050610b27565b836001600160a01b03166370a08231826040518263ffffffff1660e01b815260040180826001600160a01b03166001600160a01b0316815260200191505060206040518083038186803b158015610af757600080fd5b505afa158015610b0b573d6000803e3d6000fd5b505050506040513d6020811015610b2157600080fd5b50519150505b92915050565b600060026000610b3c8461191d565b81526020810191909152604001600020600201546001600160a01b031690505b919050565b6000610b6b611bdf565b5033600090815260208181526040808320858452825291829020825180840190935280548352600101546001600160a01b0316908201819052610bb2576000915050610b27565b80602001516001600160a01b03166389ae1c906040518163ffffffff1660e01b815260040160206040518083038186803b158015610bef57600080fd5b505afa158015610c03573d6000803e3d6000fd5b505050506040513d6020811015610c1957600080fd5b5051815160408051600160e11b63277166bf0281526001600160a01b038881166004830152602482019390935290519190921691634ee2cd7e916044808301926020929190829003018186803b158015610af757600080fd5b3360009081526020818152604080832085845290915281206001015483906001600160a01b0316610ce55760408051600160e51b62461bcd0281526020600482015260126024820152600160701b716f6e6c7920566f74696e674d616368696e6502604482015290519081900360640190fd5b3360009081526020818152604080832087845282528083206001908101546001600160a01b0316808552908352818420888552909252909120600281015460ff16610d7a5760408051600160e51b62461bcd02815260206004820152601760248201527f6d7573742062652061206c6976652070726f706f73616c000000000000000000604482015290519081900360640190fd5b6002810154610100900460ff1615610ddc5760408051600160e51b62461bcd02815260206004820152601460248201527f63616e6e6f742065786563757465207477696365000000000000000000000000604482015290519081900360640190fd5b8460011415610e055760028101805461ff001916610100179055610e008287610ecc565b610e80565b6001600160a01b0382166000908152600160209081526040808320898452909152812090610e338282611bf6565b506000600182018190556002909101805461ffff1916905560405187916001600160a01b038516917f6bc0cb9e9967b59a69ace442598e1df4368d38661bd5c0800fbcbc9fe855fbbe9190a35b60408051868152905187916001600160a01b038516917f25d4c89430c1f10c60c292556941e3e624ec1ec04972a5da46cee1b352429cbe9181900360200190a350600195945050505050565b610ed4611b41565b60026000610ee18561191d565b815260208082019290925260409081016000908120825160608101845281546001600160a01b0390811682526001808401548388015260029384015482168387015290891684528552838320878452909452919020908101549192509060ff16610f955760408051600160e51b62461bcd02815260206004820152601760248201527f6d7573742062652061206c6976652070726f706f73616c000000000000000000604482015290519081900360640190fd5b6002810154610100900460ff16610fe057604051600160e51b62461bcd028152600401808060200182810382526026815260200180611c5b6026913960400191505060405180910390fd5b60028101805460ff1916905560408051600160e01b638da5cb5b028152905160609160009182916001600160a01b03891691638da5cb5b91600480820192602092909190829003018186803b15801561103857600080fd5b505afa15801561104c573d6000803e3d6000fd5b505050506040513d602081101561106257600080fd5b50516040868101516001878101549251600160e11b6368db844d0281526001600160a01b03808416600483019081528d82166044840152606483018690526080602484019081528b5460029581161561010002600019011694909404608484018190529697509087169563d1b7089a958b948f94919392909160a401908690801561112e5780601f106111035761010080835404028352916020019161112e565b820191906000526020600020905b81548152906001019060200180831161111157829003601f168201915b505095505050505050600060405180830381600087803b15801561115157600080fd5b505af1158015611165573d6000803e3d6000fd5b505050506040513d6000823e601f3d908101601f19168201604090815281101561118e57600080fd5b8151602083018051919392830192916401000000008111156111af57600080fd5b820160208101848111156111c257600080fd5b81516401000000008111828201871017156111dc57600080fd5b509097509395505084159250611312915050576001600160a01b038716600090815260016020908152604080832089845290915281209061121d8282611bf6565b506000600182018190556002909101805461ffff1916905560405187916001600160a01b038a16917f6bc0cb9e9967b59a69ace442598e1df4368d38661bd5c0800fbcbc9fe855fbbe9190a385876001600160a01b03167f1c57c986b085f821f3126bc24b5aba57ed92fe545788a34925528295cef24015856040518080602001828103825283818151815260200191508051906020019080838360005b838110156112d35781810151838201526020016112bb565b50505050905090810190601f1680156113005780820380516001836020036101000a031916815260200191505b509250505060405180910390a3611322565b60028401805460ff191660011790555b50505050505050565b6000611335611bdf565b5033600090815260208181526040808320858452825291829020825180840190935280548352600101546001600160a01b031690820181905261137c576000915050610b5c565b80602001516001600160a01b03166389ae1c906040518163ffffffff1660e01b815260040160206040518083038186803b1580156113b957600080fd5b505afa1580156113cd573d6000803e3d6000fd5b505050506040513d60208110156113e357600080fd5b5051815160408051600160e41b630981b24d0281526004810192909252516001600160a01b039092169163981b24d091602480820192602092909190829003018186803b15801561143357600080fd5b505afa158015611447573d6000803e3d6000fd5b505050506040513d602081101561145d57600080fd5b50519392505050565b3360009081526020818152604080832084845290915281206001015482906001600160a01b03166114d95760408051600160e51b62461bcd0281526020600482015260126024820152600160701b716f6e6c7920566f74696e674d616368696e6502604482015290519081900360640190fd5b336000908152602081815260408083208684529091529020600101546001600160a01b03168061150d576000925050611608565b806001600160a01b0316638da5cb5b6040518163ffffffff1660e01b815260040160206040518083038186803b15801561154657600080fd5b505afa15801561155a573d6000803e3d6000fd5b505050506040513d602081101561157057600080fd5b505160408051600160e01b63b9a04cdd0281526001600160a01b038a8116600483015289811660248301526044820189905284811660648301529151919092169163b9a04cdd9160848083019260209291908290030181600087803b1580156115d857600080fd5b505af11580156115ec573d6000803e3d6000fd5b505050506040513d602081101561160257600080fd5b50519250505b50949350505050565b3360009081526020818152604080832084845290915281206001015482906001600160a01b03166116845760408051600160e51b62461bcd0281526020600482015260126024820152600160701b716f6e6c7920566f74696e674d616368696e6502604482015290519081900360640190fd5b336000908152602081815260408083208684529091529020600101546001600160a01b0316806116b85760009250506117ab565b806001600160a01b0316638da5cb5b6040518163ffffffff1660e01b815260040160206040518083038186803b1580156116f157600080fd5b505afa158015611705573d6000803e3d6000fd5b505050506040513d602081101561171b57600080fd5b505160408051600160e11b63757cca59028152600481018990526001600160a01b03888116602483015284811660448301529151919092169163eaf994b29160648083019260209291908290030181600087803b15801561177b57600080fd5b505af115801561178f573d6000803e3d6000fd5b505050506040513d60208110156117a557600080fd5b50519250505b509392505050565b3360009081526020818152604080832084845290915281206001015482906001600160a01b03166118265760408051600160e51b62461bcd0281526020600482015260126024820152600160701b716f6e6c7920566f74696e674d616368696e6502604482015290519081900360640190fd5b336000908152602081815260408083208684529091529020600101546001600160a01b03168061185a5760009250506117ab565b806001600160a01b0316638da5cb5b6040518163ffffffff1660e01b815260040160206040518083038186803b15801561189357600080fd5b505afa1580156118a7573d6000803e3d6000fd5b505050506040513d60208110156118bd57600080fd5b505160408051600160e31b630dd29a4f028152600481018990526001600160a01b038881166024830152848116604483015291519190921691636e94d2789160648083019260209291908290030181600087803b15801561177b57600080fd5b6000816001600160a01b0316638da5cb5b6040518163ffffffff1660e01b815260040160206040518083038186803b15801561195857600080fd5b505afa15801561196c573d6000803e3d6000fd5b505050506040513d602081101561198257600080fd5b505160408051600160e01b639be2faed0281523060048201526001600160a01b03858116602483015291519190921691639be2faed916044808301926020929190829003018186803b1580156119d757600080fd5b505afa1580156119eb573d6000803e3d6000fd5b505050506040513d6020811015611a0157600080fd5b5051611a575760408051600160e51b62461bcd02815260206004820152601860248201527f736368656d65206973206e6f7420726567697374657265640000000000000000604482015290519081900360640190fd5b816001600160a01b0316638da5cb5b6040518163ffffffff1660e01b815260040160206040518083038186803b158015611a9057600080fd5b505afa158015611aa4573d6000803e3d6000fd5b505050506040513d6020811015611aba57600080fd5b505160408051600160e31b630389aac10281523060048201526001600160a01b03858116602483015291519190921691631c4d5608916044808301926020929190829003018186803b158015611b0f57600080fd5b505afa158015611b23573d6000803e3d6000fd5b505050506040513d6020811015611b3957600080fd5b505192915050565b604080516060810182526000808252602082018190529181019190915290565b828054600181600116156101000203166002900490600052602060002090601f016020900481019282601f10611ba257805160ff1916838001178555611bcf565b82800160010185558215611bcf579182015b82811115611bcf578251825591602001919060010190611bb4565b50611bdb929150611c3d565b5090565b604080518082019091526000808252602082015290565b50805460018160011615610100020316600290046000825580601f10611c1c5750611c3a565b601f016020900490600052602060002090810190611c3a9190611c3d565b50565b611c5791905b80821115611bdb5760008155600101611c43565b9056fe70726f706f73616c206d7573742070617373656420627920766f74696e67206d616368696e65a165627a7a72305820a5ccba6e46562819b5f033ba588e5c986e9637757f733ce4e985a713d89651fa0029",
  "source": "pragma solidity ^0.5.4;\n\nimport \"@daostack/infra/contracts/votingMachines/IntVoteInterface.sol\";\nimport \"@daostack/infra/contracts/votingMachines/VotingMachineCallbacksInterface.sol\";\nimport \"./UniversalScheme.sol\";\nimport \"../votingMachines/VotingMachineCallbacks.sol\";\n\n\n/**\n * @title GenericScheme.\n * @dev  A scheme for proposing and executing calls to an arbitrary function\n * on a specific contract on behalf of the organization avatar.\n */\ncontract GenericScheme is UniversalScheme, VotingMachineCallbacks, ProposalExecuteInterface {\n    event NewCallProposal(\n        address indexed _avatar,\n        bytes32 indexed _proposalId,\n        bytes   _callData,\n        uint256 _value,\n        string  _descriptionHash\n    );\n\n    event ProposalExecuted(\n        address indexed _avatar,\n        bytes32 indexed _proposalId,\n        bytes _genericCallReturnValue\n    );\n\n    event ProposalExecutedByVotingMachine(\n        address indexed _avatar,\n        bytes32 indexed _proposalId,\n        int256 _param\n    );\n\n    event ProposalDeleted(address indexed _avatar, bytes32 indexed _proposalId);\n\n    // Details of a voting proposal:\n    struct CallProposal {\n        bytes callData;\n        uint256 value;\n        bool exist;\n        bool passed;\n    }\n\n    // A mapping from the organization (Avatar) address to the saved data of the organization:\n    mapping(address=>mapping(bytes32=>CallProposal)) public organizationsProposals;\n\n    struct Parameters {\n        IntVoteInterface intVote;\n        bytes32 voteParams;\n        address contractToCall;\n    }\n\n    // A mapping from hashes to parameters (use to store a particular configuration on the controller)\n    mapping(bytes32=>Parameters) public parameters;\n\n    /**\n    * @dev execution of proposals, can only be called by the voting machine in which the vote is held.\n    * @param _proposalId the ID of the voting in the voting machine\n    * @param _decision a parameter of the voting result, 1 yes and 2 is no.\n    * @return bool success\n    */\n    function executeProposal(bytes32 _proposalId, int256 _decision)\n    external\n    onlyVotingMachine(_proposalId)\n    returns(bool) {\n        Avatar avatar = proposalsInfo[msg.sender][_proposalId].avatar;\n        CallProposal storage proposal = organizationsProposals[address(avatar)][_proposalId];\n        require(proposal.exist, \"must be a live proposal\");\n        require(proposal.passed == false, \"cannot execute twice\");\n\n        if (_decision == 1) {\n            proposal.passed = true;\n            execute(avatar, _proposalId);\n        } else {\n            delete organizationsProposals[address(avatar)][_proposalId];\n            emit ProposalDeleted(address(avatar), _proposalId);\n        }\n\n        emit ProposalExecutedByVotingMachine(address(avatar), _proposalId, _decision);\n        return true;\n    }\n\n    /**\n    * @dev execution of proposals after it has been decided by the voting machine\n    * @param _proposalId the ID of the voting in the voting machine\n    */\n    function execute(Avatar _avatar, bytes32 _proposalId) public {\n        Parameters memory params = parameters[getParametersFromController(_avatar)];\n        CallProposal storage proposal = organizationsProposals[address(_avatar)][_proposalId];\n        require(proposal.exist, \"must be a live proposal\");\n        require(proposal.passed, \"proposal must passed by voting machine\");\n        proposal.exist = false;\n        bytes memory genericCallReturnValue;\n        bool success;\n        ControllerInterface controller = ControllerInterface(_avatar.owner());\n        (success, genericCallReturnValue) =\n        controller.genericCall(params.contractToCall, proposal.callData, _avatar, proposal.value);\n        if (success) {\n            delete organizationsProposals[address(_avatar)][_proposalId];\n            emit ProposalDeleted(address(_avatar), _proposalId);\n            emit ProposalExecuted(address(_avatar), _proposalId, genericCallReturnValue);\n        } else {\n            proposal.exist = true;\n        }\n    }\n\n    /**\n    * @dev Hash the parameters, save them if necessary, and return the hash value\n    * @param _voteParams -  voting parameters\n    * @param _intVote  - voting machine contract.\n    * @return bytes32 -the parameters hash\n    */\n    function setParameters(\n        bytes32 _voteParams,\n        IntVoteInterface _intVote,\n        address _contractToCall\n    ) public returns(bytes32)\n    {\n        bytes32 paramsHash = getParametersHash(_voteParams, _intVote, _contractToCall);\n        parameters[paramsHash].voteParams = _voteParams;\n        parameters[paramsHash].intVote = _intVote;\n        parameters[paramsHash].contractToCall = _contractToCall;\n        return paramsHash;\n    }\n\n    /**\n    * @dev Hash the parameters, and return the hash value\n    * @param _voteParams -  voting parameters\n    * @param _intVote  - voting machine contract.\n    * @return bytes32 -the parameters hash\n    */\n    function getParametersHash(\n        bytes32 _voteParams,\n        IntVoteInterface _intVote,\n        address _contractToCall\n    ) public pure returns(bytes32)\n    {\n        return keccak256(abi.encodePacked(_voteParams, _intVote, _contractToCall));\n    }\n\n    /**\n    * @dev propose to call on behalf of the _avatar\n    *      The function trigger NewCallProposal event\n    * @param _avatar avatar of the organization\n    * @param _callData - The abi encode data for the call\n    * @param _value value(ETH) to transfer with the call\n    * @param _descriptionHash proposal description hash\n    * @return an id which represents the proposal\n    */\n    function proposeCall(Avatar _avatar, bytes memory _callData, uint256 _value, string memory _descriptionHash)\n    public\n    returns(bytes32)\n    {\n        Parameters memory params = parameters[getParametersFromController(_avatar)];\n        IntVoteInterface intVote = params.intVote;\n\n        bytes32 proposalId = intVote.propose(2, params.voteParams, msg.sender, address(_avatar));\n\n        organizationsProposals[address(_avatar)][proposalId] = CallProposal({\n            callData: _callData,\n            value: _value,\n            exist: true,\n            passed: false\n        });\n        proposalsInfo[address(params.intVote)][proposalId] = ProposalInfo({\n            blockNumber:block.number,\n            avatar:_avatar\n        });\n        emit NewCallProposal(address(_avatar), proposalId, _callData, _value, _descriptionHash);\n        return proposalId;\n    }\n\n    /**\n    * @dev getContractToCall return the contract this scheme is calling\n    * @param _avatar address of the organization's avatar\n    * @return address the address of the contract this scheme is calling to\n    * on behalf of the avatar\n    */\n    function getContractToCall(Avatar _avatar) public view returns(address) {\n        return parameters[getParametersFromController(_avatar)].contractToCall;\n    }\n\n}\n",
  "sourcePath": "@daostack/arc/contracts/universalSchemes/GenericScheme.sol",
  "compiler": {
    "name": "solc",
    "version": "0.5.6+commit.b259423e.Emscripten.clang"
  },
  "schemaVersion": "3.0.14",
  "updatedAt": "2019-11-16T19:29:45.484Z",
  "devdoc": {
    "details": "A scheme for proposing and executing calls to an arbitrary function on a specific contract on behalf of the organization avatar.",
    "methods": {
      "execute(address,bytes32)": {
        "details": "execution of proposals after it has been decided by the voting machine",
        "params": {
          "_proposalId": "the ID of the voting in the voting machine"
        }
      },
      "executeProposal(bytes32,int256)": {
        "details": "execution of proposals, can only be called by the voting machine in which the vote is held.",
        "params": {
          "_decision": "a parameter of the voting result, 1 yes and 2 is no.",
          "_proposalId": "the ID of the voting in the voting machine"
        },
        "return": "bool success"
      },
      "getContractToCall(address)": {
        "details": "getContractToCall return the contract this scheme is calling",
        "params": {
          "_avatar": "address of the organization's avatar"
        },
        "return": "address the address of the contract this scheme is calling to on behalf of the avatar"
      },
      "getParametersHash(bytes32,address,address)": {
        "details": "Hash the parameters, and return the hash value",
        "params": {
          "_intVote": "- voting machine contract.",
          "_voteParams": "-  voting parameters"
        },
        "return": "bytes32 -the parameters hash"
      },
      "proposeCall(address,bytes,uint256,string)": {
        "details": "propose to call on behalf of the _avatar     The function trigger NewCallProposal event",
        "params": {
          "_avatar": "avatar of the organization",
          "_callData": "- The abi encode data for the call",
          "_descriptionHash": "proposal description hash",
          "_value": "value(ETH) to transfer with the call"
        },
        "return": "an id which represents the proposal"
      },
      "setParameters(bytes32,address,address)": {
        "details": "Hash the parameters, save them if necessary, and return the hash value",
        "params": {
          "_intVote": "- voting machine contract.",
          "_voteParams": "-  voting parameters"
        },
        "return": "bytes32 -the parameters hash"
      }
    },
    "title": "GenericScheme."
  },
  "userdoc": {
    "methods": {}
  }
}