{
  "contractName": "GlobalConstraintMock",
  "abi": [
    {
      "constant": true,
      "inputs": [],
      "name": "currentCallPhase",
      "outputs": [
        {
          "name": "",
          "type": "uint8"
        }
      ],
      "payable": false,
      "stateMutability": "view",
      "type": "function"
    },
    {
      "constant": true,
      "inputs": [
        {
          "name": "",
          "type": "bytes32"
        }
      ],
      "name": "testParams",
      "outputs": [
        {
          "name": "pre",
          "type": "bool"
        },
        {
          "name": "post",
          "type": "bool"
        }
      ],
      "payable": false,
      "stateMutability": "view",
      "type": "function"
    },
    {
      "constant": false,
      "inputs": [
        {
          "name": "method",
          "type": "bytes32"
        },
        {
          "name": "pre",
          "type": "bool"
        },
        {
          "name": "post",
          "type": "bool"
        }
      ],
      "name": "setConstraint",
      "outputs": [
        {
          "name": "",
          "type": "bool"
        }
      ],
      "payable": false,
      "stateMutability": "nonpayable",
      "type": "function"
    },
    {
      "constant": true,
      "inputs": [
        {
          "name": "",
          "type": "address"
        },
        {
          "name": "",
          "type": "bytes32"
        },
        {
          "name": "method",
          "type": "bytes32"
        }
      ],
      "name": "pre",
      "outputs": [
        {
          "name": "",
          "type": "bool"
        }
      ],
      "payable": false,
      "stateMutability": "view",
      "type": "function"
    },
    {
      "constant": true,
      "inputs": [
        {
          "name": "",
          "type": "address"
        },
        {
          "name": "",
          "type": "bytes32"
        },
        {
          "name": "method",
          "type": "bytes32"
        }
      ],
      "name": "post",
      "outputs": [
        {
          "name": "",
          "type": "bool"
        }
      ],
      "payable": false,
      "stateMutability": "view",
      "type": "function"
    },
    {
      "constant": true,
      "inputs": [],
      "name": "when",
      "outputs": [
        {
          "name": "",
          "type": "uint8"
        }
      ],
      "payable": false,
      "stateMutability": "view",
      "type": "function"
    }
  ],
  "bytecode": "0x608060405234801561001057600080fd5b5061028e806100206000396000f3fe608060405234801561001057600080fd5b50600436106100625760003560e01c80632414112b14610067578063696a72531461009357806373d2ea39146100d45780638043154d1461010c578063c1786ab21461013e578063e2b0caef14610170575b600080fd5b61006f610178565b6040518082600281111561007f57fe5b60ff16815260200191505060405180910390f35b6100c0600480360360608110156100a957600080fd5b508035906020810135151590604001351515610181565b604080519115158252519081900360200190f35b6100f1600480360360208110156100ea57600080fd5b5035610206565b60408051921515835290151560208301528051918290030190f35b6100c06004803603606081101561012257600080fd5b506001600160a01b038135169060208101359060400135610224565b6100c06004803603606081101561015457600080fd5b506001600160a01b038135169060208101359060400135610241565b61006f610259565b60015460ff1681565b6000838152602081905260408120805460ff19168415801591821761ff00191661010086151502179092556101b4575081155b156101d257600180546002919060ff191681835b02179055506101fc565b826101ea57600180546000919060ff191681836101c8565b816101fc576001805460ff1916811790555b5060019392505050565b60006020819052908152604090205460ff8082169161010090041682565b600090815260208190526040902054610100900460ff1692915050565b60009081526020819052604090205460ff1692915050565b60015460ff169056fea165627a7a72305820288689f39c9f172e3b2546428bc9ef2161148773c4091fa2e9d7216f11f507bc0029",
  "source": "pragma solidity ^0.5.4;\n\nimport \"../globalConstraints/GlobalConstraintInterface.sol\";\n\n\ncontract GlobalConstraintMock {\n\n    struct TestParam {\n        bool pre;\n        bool post;\n    }\n\n    mapping (bytes32=>TestParam) public testParams;\n\n    GlobalConstraintInterface.CallPhase public currentCallPhase;\n\n    function setConstraint(bytes32 method, bool pre, bool post) public returns(bool) {\n        testParams[method].pre = pre;\n        testParams[method].post = post;\n\n        if (!pre && !post) {\n            currentCallPhase = GlobalConstraintInterface.CallPhase.PreAndPost;\n        } else {\n            if (!pre) {\n                currentCallPhase = GlobalConstraintInterface.CallPhase.Pre;\n            } else if (!post) {\n                currentCallPhase = GlobalConstraintInterface.CallPhase.Post;\n            }\n        }\n        return true;\n    }\n\n    function pre(address, bytes32, bytes32 method) public view returns(bool) {\n        return testParams[method].pre;\n    }\n\n    function post(address, bytes32, bytes32 method) public view returns(bool) {\n        return testParams[method].post;\n    }\n\n    function when() public view returns(GlobalConstraintInterface.CallPhase) {\n        return currentCallPhase;\n    }\n}\n",
  "sourcePath": "/src/contracts/arc/test/GlobalConstraintMock.sol",
  "compiler": {
    "name": "solc",
    "version": "0.5.6+commit.b259423e.Emscripten.clang"
  },
  "schemaVersion": "3.0.14",
  "updatedAt": "2019-10-27T20:10:40.588Z",
  "devdoc": {
    "methods": {}
  },
  "userdoc": {
    "methods": {}
  }
}