{
  "contractName": "LockingToken4Reputation",
  "abi": [
    {
      "constant": true,
      "inputs": [],
      "name": "redeemEnableTime",
      "outputs": [
        {
          "name": "",
          "type": "uint256"
        }
      ],
      "payable": false,
      "stateMutability": "view",
      "type": "function"
    },
    {
      "constant": true,
      "inputs": [],
      "name": "priceOracleContract",
      "outputs": [
        {
          "name": "",
          "type": "address"
        }
      ],
      "payable": false,
      "stateMutability": "view",
      "type": "function"
    },
    {
      "constant": true,
      "inputs": [],
      "name": "lockingStartTime",
      "outputs": [
        {
          "name": "",
          "type": "uint256"
        }
      ],
      "payable": false,
      "stateMutability": "view",
      "type": "function"
    },
    {
      "constant": true,
      "inputs": [],
      "name": "totalLocked",
      "outputs": [
        {
          "name": "",
          "type": "uint256"
        }
      ],
      "payable": false,
      "stateMutability": "view",
      "type": "function"
    },
    {
      "constant": true,
      "inputs": [],
      "name": "avatar",
      "outputs": [
        {
          "name": "",
          "type": "address"
        }
      ],
      "payable": false,
      "stateMutability": "view",
      "type": "function"
    },
    {
      "constant": true,
      "inputs": [],
      "name": "getAgreementHash",
      "outputs": [
        {
          "name": "",
          "type": "bytes32"
        }
      ],
      "payable": false,
      "stateMutability": "view",
      "type": "function"
    },
    {
      "constant": true,
      "inputs": [
        {
          "name": "",
          "type": "address"
        }
      ],
      "name": "scores",
      "outputs": [
        {
          "name": "",
          "type": "uint256"
        }
      ],
      "payable": false,
      "stateMutability": "view",
      "type": "function"
    },
    {
      "constant": true,
      "inputs": [
        {
          "name": "",
          "type": "address"
        },
        {
          "name": "",
          "type": "bytes32"
        }
      ],
      "name": "lockers",
      "outputs": [
        {
          "name": "amount",
          "type": "uint256"
        },
        {
          "name": "releaseTime",
          "type": "uint256"
        }
      ],
      "payable": false,
      "stateMutability": "view",
      "type": "function"
    },
    {
      "constant": false,
      "inputs": [
        {
          "name": "_beneficiary",
          "type": "address"
        }
      ],
      "name": "redeem",
      "outputs": [
        {
          "name": "reputation",
          "type": "uint256"
        }
      ],
      "payable": false,
      "stateMutability": "nonpayable",
      "type": "function"
    },
    {
      "constant": true,
      "inputs": [],
      "name": "lockingEndTime",
      "outputs": [
        {
          "name": "",
          "type": "uint256"
        }
      ],
      "payable": false,
      "stateMutability": "view",
      "type": "function"
    },
    {
      "constant": true,
      "inputs": [],
      "name": "reputationRewardLeft",
      "outputs": [
        {
          "name": "",
          "type": "uint256"
        }
      ],
      "payable": false,
      "stateMutability": "view",
      "type": "function"
    },
    {
      "constant": true,
      "inputs": [],
      "name": "maxLockingPeriod",
      "outputs": [
        {
          "name": "",
          "type": "uint256"
        }
      ],
      "payable": false,
      "stateMutability": "view",
      "type": "function"
    },
    {
      "constant": true,
      "inputs": [],
      "name": "totalScore",
      "outputs": [
        {
          "name": "",
          "type": "uint256"
        }
      ],
      "payable": false,
      "stateMutability": "view",
      "type": "function"
    },
    {
      "constant": true,
      "inputs": [],
      "name": "lockingsCounter",
      "outputs": [
        {
          "name": "",
          "type": "uint256"
        }
      ],
      "payable": false,
      "stateMutability": "view",
      "type": "function"
    },
    {
      "constant": true,
      "inputs": [],
      "name": "totalLockedLeft",
      "outputs": [
        {
          "name": "",
          "type": "uint256"
        }
      ],
      "payable": false,
      "stateMutability": "view",
      "type": "function"
    },
    {
      "constant": true,
      "inputs": [
        {
          "name": "",
          "type": "bytes32"
        }
      ],
      "name": "lockedTokens",
      "outputs": [
        {
          "name": "",
          "type": "address"
        }
      ],
      "payable": false,
      "stateMutability": "view",
      "type": "function"
    },
    {
      "constant": true,
      "inputs": [],
      "name": "reputationReward",
      "outputs": [
        {
          "name": "",
          "type": "uint256"
        }
      ],
      "payable": false,
      "stateMutability": "view",
      "type": "function"
    },
    {
      "anonymous": false,
      "inputs": [
        {
          "indexed": true,
          "name": "_lockingId",
          "type": "bytes32"
        },
        {
          "indexed": true,
          "name": "_token",
          "type": "address"
        },
        {
          "indexed": false,
          "name": "_numerator",
          "type": "uint256"
        },
        {
          "indexed": false,
          "name": "_denominator",
          "type": "uint256"
        }
      ],
      "name": "LockToken",
      "type": "event"
    },
    {
      "anonymous": false,
      "inputs": [
        {
          "indexed": true,
          "name": "_beneficiary",
          "type": "address"
        },
        {
          "indexed": false,
          "name": "_amount",
          "type": "uint256"
        }
      ],
      "name": "Redeem",
      "type": "event"
    },
    {
      "anonymous": false,
      "inputs": [
        {
          "indexed": true,
          "name": "_lockingId",
          "type": "bytes32"
        },
        {
          "indexed": true,
          "name": "_beneficiary",
          "type": "address"
        },
        {
          "indexed": false,
          "name": "_amount",
          "type": "uint256"
        }
      ],
      "name": "Release",
      "type": "event"
    },
    {
      "anonymous": false,
      "inputs": [
        {
          "indexed": true,
          "name": "_locker",
          "type": "address"
        },
        {
          "indexed": true,
          "name": "_lockingId",
          "type": "bytes32"
        },
        {
          "indexed": false,
          "name": "_amount",
          "type": "uint256"
        },
        {
          "indexed": false,
          "name": "_period",
          "type": "uint256"
        }
      ],
      "name": "Lock",
      "type": "event"
    },
    {
      "constant": false,
      "inputs": [
        {
          "name": "_avatar",
          "type": "address"
        },
        {
          "name": "_reputationReward",
          "type": "uint256"
        },
        {
          "name": "_lockingStartTime",
          "type": "uint256"
        },
        {
          "name": "_lockingEndTime",
          "type": "uint256"
        },
        {
          "name": "_redeemEnableTime",
          "type": "uint256"
        },
        {
          "name": "_maxLockingPeriod",
          "type": "uint256"
        },
        {
          "name": "_priceOracleContract",
          "type": "address"
        },
        {
          "name": "_agreementHash",
          "type": "bytes32"
        }
      ],
      "name": "initialize",
      "outputs": [],
      "payable": false,
      "stateMutability": "nonpayable",
      "type": "function"
    },
    {
      "constant": false,
      "inputs": [
        {
          "name": "_beneficiary",
          "type": "address"
        },
        {
          "name": "_lockingId",
          "type": "bytes32"
        }
      ],
      "name": "release",
      "outputs": [
        {
          "name": "",
          "type": "bool"
        }
      ],
      "payable": false,
      "stateMutability": "nonpayable",
      "type": "function"
    },
    {
      "constant": false,
      "inputs": [
        {
          "name": "_amount",
          "type": "uint256"
        },
        {
          "name": "_period",
          "type": "uint256"
        },
        {
          "name": "_token",
          "type": "address"
        },
        {
          "name": "_agreementHash",
          "type": "bytes32"
        }
      ],
      "name": "lock",
      "outputs": [
        {
          "name": "lockingId",
          "type": "bytes32"
        }
      ],
      "payable": false,
      "stateMutability": "nonpayable",
      "type": "function"
    }
  ],
  "bytecode": "0x608060405234801561001057600080fd5b50611655806100206000396000f3fe608060405234801561001057600080fd5b506004361061012c5760003560e01c806395a2251f116100ad578063c3201add11610071578063c3201add146102cd578063c348a24b146102d5578063d7c2eec7146102dd578063e8d335881461031d578063ed1ff6d81461033a5761012c565b806395a2251f14610287578063a8c33017146102ad578063afe0e33c146102b5578063bf0df445146102bd578063c006719f146102c55761012c565b8063696da921116100f4578063696da9211461018757806376dd110f1461018f5780637ad88799146101b5578063838057421461020a57806394d0cb6e1461024f5761012c565b80633d1678f414610131578063457454db1461014b57806355bfec881461016f57806356891412146101775780635aef7de61461017f575b600080fd5b610139610342565b60408051918252519081900360200190f35b610153610348565b604080516001600160a01b039092168252519081900360200190f35b610139610357565b61013961035d565b610153610363565b610139610372565b610139600480360360208110156101a557600080fd5b50356001600160a01b0316610378565b61020860048036036101008110156101cc57600080fd5b506001600160a01b03813581169160208101359160408201359160608101359160808201359160a08101359160c0820135169060e0013561038a565b005b6102366004803603604081101561022057600080fd5b506001600160a01b0381351690602001356103be565b6040805192835260208301919091528051918290030190f35b6101396004803603608081101561026557600080fd5b508035906020810135906001600160a01b0360408201351690606001356103e2565b6101396004803603602081101561029d57600080fd5b50356001600160a01b03166105b6565b61013961087e565b610139610884565b61013961088a565b610139610890565b610139610896565b61013961089c565b610309600480360360408110156102f357600080fd5b506001600160a01b0381351690602001356108a2565b604080519115158252519081900360200190f35b6101536004803603602081101561033357600080fd5b50356108e7565b610139610902565b600d5481565b600e546001600160a01b031681565b600c5481565b60045481565b6001546001600160a01b031681565b60005490565b60036020526000908152604090205481565b600e80546001600160a01b0319166001600160a01b0384161790556103b488888888888887610908565b5050505050505050565b60026020908152600092835260408084209091529082529020805460019091015482565b600e5460408051600160e01b6341976e090281526001600160a01b03858116600483015282516000948594859493909116926341976e099260248083019392829003018186803b15801561043557600080fd5b505afa158015610449573d6000803e3d6000fd5b505050506040513d604081101561045f57600080fd5b5080516020909101519092509050816104c25760408051600160e51b62461bcd02815260206004820152601760248201527f6e756d657261746f722073686f756c64206265203e2030000000000000000000604482015290519081900360640190fd5b6000811161051a5760408051600160e51b62461bcd02815260206004820152601960248201527f64656e6f6d696e61746f722073686f756c64206265203e203000000000000000604482015290519081900360640190fd5b6105356001600160a01b03861633308a63ffffffff610a9516565b610543878733858589610c20565b6000818152600f602090815260409182902080546001600160a01b0319166001600160a01b038a16908117909155825186815291820185905282519396509286927f09ae2accb7909b2605e5e74e2584c7f5aa396bc6ab76290633ae3819ff650e9f928290030190a35050949350505050565b6000600d5442116106115760408051600160e51b62461bcd02815260206004820152601660248201527f6e6f77203e2072656465656d456e61626c6554696d6500000000000000000000604482015290519081900360640190fd5b6001600160a01b03821660009081526003602052604090205461067e5760408051600160e51b62461bcd02815260206004820152601360248201527f73636f72652073686f756c64206265203e203000000000000000000000000000604482015290519081900360640190fd5b6001600160a01b03821660009081526003602052604081208054908290556008549091906106b390839063ffffffff61102416565b90506106ca6006548261108790919063ffffffff16565b6009549093506106e0908463ffffffff6110f416565b60095560015460408051600160e01b638da5cb5b02815290516001600160a01b0390921691638da5cb5b91600480820192602092909190829003018186803b15801561072b57600080fd5b505afa15801561073f573d6000803e3d6000fd5b505050506040513d602081101561075557600080fd5b505160015460408051600160e11b63757cca59028152600481018790526001600160a01b03888116602483015292831660448201529051919092169163eaf994b29160648083019260209291908290030181600087803b1580156107b857600080fd5b505af11580156107cc573d6000803e3d6000fd5b505050506040513d60208110156107e257600080fd5b50516108385760408051600160e51b62461bcd02815260206004820152601e60248201527f6d696e742072657075746174696f6e2073686f756c6420737563636565640000604482015290519081900360640190fd5b6040805184815290516001600160a01b038616917f222838db2794d11532d940e8dec38ae307ed0b63cd97c233322e221f998767a6919081900360200190a25050919050565b600a5481565b60095481565b600b5481565b60065481565b60075481565b60055481565b6000806108af8484611154565b6000848152600f60205260409020549091506108db906001600160a01b0316858363ffffffff61128e16565b60019150505b92915050565b600f602052600090815260409020546001600160a01b031681565b60085481565b6001546001600160a01b0316156109695760408051600160e51b62461bcd02815260206004820152601b60248201527f63616e2062652063616c6c6564206f6e6c79206f6e652074696d650000000000604482015290519081900360640190fd5b6001600160a01b0387166109c75760408051600160e51b62461bcd02815260206004820152601560248201527f6176617461722063616e6e6f74206265207a65726f0000000000000000000000604482015290519081900360640190fd5b848411610a0857604051600160e51b62461bcd02815260040180806020018281038252603a81526020018061157a603a913960400191505060405180910390fd5b83831015610a4a57604051600160e51b62461bcd0281526004018080602001828103825260228152602001806116086022913960400191505060405180910390fd5b60088690556009869055600a849055600b829055600180546001600160a01b0319166001600160a01b038916179055600c859055600d839055610a8c8161141b565b50505050505050565b610aa7846001600160a01b0316611478565b610ab057600080fd5b60006060856001600160a01b03166040518060600160405280602581526020016114dc602591398051602091820120604080516001600160a01b03808b166024830152891660448201526064808201899052825180830390910181526084909101825292830180516001600160e01b03166001600160e01b0319909316929092178252518251909182918083835b60208310610b5d5780518252601f199092019160209182019101610b3e565b6001836020036101000a0380198251168184511680821785525050505050509050019150506000604051808303816000865af19150503d8060008114610bbf576040519150601f19603f3d011682016040523d82523d6000602084013e610bc4565b606091505b509150915081610bd357600080fd5b80511580610c0f575080516020148015610c0f575080601f81518110610bf557fe5b01602001516001600160f81b031960f891821c90911b1615155b610c1857600080fd5b505050505050565b6000816000548114610c6657604051600160e51b62461bcd0281526004018080602001828103825260288152602001806115b46028913960400191505060405180910390fd5b60008811610cbe5760408051600160e51b62461bcd02815260206004820152601c60248201527f6c6f636b696e6720616d6f756e742073686f756c64206265203e203000000000604482015290519081900360640190fd5b600b54871115610d0257604051600160e51b62461bcd02815260040180806020018281038252602c8152602001806115dc602c913960400191505060405180910390fd5b60008711610d5a5760408051600160e51b62461bcd02815260206004820152601c60248201527f6c6f636b696e6720706572696f642073686f756c64206265203e203000000000604482015290519081900360640190fd5b600a54421115610d9e57604051600160e51b62461bcd0281526004018080602001828103825260308152602001806115296030913960400191505060405180910390fd5b600c54421015610de257604051600160e51b62461bcd0281526004018080602001828103825260288152602001806115016028913960400191505060405180910390fd5b600754604080513060601b602080830191909152603480830185905283518084039091018152605490920190925280519101209250610e2890600163ffffffff61147e16565b6007556001600160a01b038616600090815260026020908152604080832085845290915290208881554288016001820155600454610e6c908a63ffffffff61147e16565b600455600554610e82908a63ffffffff61147e16565b6005556000610eb786610eab89610e9f8d8f63ffffffff61102416565b9063ffffffff61102416565b9063ffffffff61108716565b905060008111610f115760408051600160e51b62461bcd02815260206004820152601160248201527f73636f7265206d757374206d65203e2030000000000000000000000000000000604482015290519081900360640190fd5b6001600160a01b038816600090815260036020526040902054610f3a908263ffffffff61147e16565b6001600160a01b03891660009081526003602052604090208190556008549081810281610f6357fe5b0414610fb95760408051600160e51b62461bcd02815260206004820152601160248201527f73636f726520697320746f6f2068696768000000000000000000000000000000604482015290519081900360640190fd5b600654610fcc908263ffffffff61147e16565b600655604080518b8152602081018b9052815186926001600160a01b038c16927fd173f98f4a2080eab40a0bff4d9a575753270cb2401c74efdec1feb0ba31b426929081900390910190a35050509695505050505050565b600082611033575060006108e1565b8282028284828161104057fe5b041461108057604051600160e51b62461bcd0281526004018080602001828103825260218152602001806115596021913960400191505060405180910390fd5b9392505050565b60008082116110e05760408051600160e51b62461bcd02815260206004820152601a60248201527f536166654d6174683a206469766973696f6e206279207a65726f000000000000604482015290519081900360640190fd5b60008284816110eb57fe5b04949350505050565b60008282111561114e5760408051600160e51b62461bcd02815260206004820152601e60248201527f536166654d6174683a207375627472616374696f6e206f766572666c6f770000604482015290519081900360640190fd5b50900390565b6001600160a01b0382166000908152600260209081526040808320848452909152812080546111cd5760408051600160e51b62461bcd02815260206004820152601460248201527f616d6f756e742073686f756c64206265203e2030000000000000000000000000604482015290519081900360640190fd5b805460008255600182015490925042116112315760408051600160e51b62461bcd02815260206004820152601a60248201527f636865636b20746865206c6f636b20706572696f642070617373000000000000604482015290519081900360640190fd5b600554611244908363ffffffff6110f416565b6005556040805183815290516001600160a01b0386169185917fcb7ab693259d2332e08e7666832578144deb74443e37a762847e848793fc29819181900360200190a35092915050565b6112a0836001600160a01b0316611478565b6112a957600080fd5b604080518082018252601981527f7472616e7366657228616464726573732c75696e74323536290000000000000060209182015281516001600160a01b0385811660248301526044808301869052845180840390910181526064909201845291810180516001600160e01b0316600160e01b63a9059cbb021781529251815160009460609489169392918291908083835b602083106113595780518252601f19909201916020918201910161133a565b6001836020036101000a0380198251168184511680821785525050505050509050019150506000604051808303816000865af19150503d80600081146113bb576040519150601f19603f3d011682016040523d82523d6000602084013e6113c0565b606091505b5091509150816113cf57600080fd5b8051158061140b57508051602014801561140b575080601f815181106113f157fe5b01602001516001600160f81b031960f891821c90911b1615155b61141457600080fd5b5050505050565b600054156114735760408051600160e51b62461bcd02815260206004820152601b60248201527f43616e206e6f74207365742061677265656d656e742074776963650000000000604482015290519081900360640190fd5b600055565b3b151590565b6000828201838110156110805760408051600160e51b62461bcd02815260206004820152601b60248201527f536166654d6174683a206164646974696f6e206f766572666c6f770000000000604482015290519081900360640190fdfe7472616e7366657246726f6d28616464726573732c616464726573732c75696e74323536296c6f636b2073686f756c64207374617274206166746572206c6f636b696e67537461727454696d656c6f636b2073686f756c642062652077697468696e2074686520616c6c6f776564206c6f636b696e6720706572696f64536166654d6174683a206d756c7469706c69636174696f6e206f766572666c6f776c6f636b696e6720656e642074696d652073686f756c642062652067726561746572207468616e206c6f636b696e672073746172742074696d6553656e646572206d7573742073656e64207468652072696768742061677265656d656e74486173686c6f636b696e6720706572696f642073686f756c64206265203c3d206d61784c6f636b696e67506572696f6472656465656d456e61626c6554696d65203e3d206c6f636b696e67456e6454696d65a165627a7a72305820e6368774670c2a2ee615902159fe46266ff8da2ebfa468b9049c38ab5fb5c33c0029",
  "source": "pragma solidity ^0.5.4;\n\nimport \"./Locking4Reputation.sol\";\nimport \"./PriceOracleInterface.sol\";\nimport \"../libs/SafeERC20.sol\";\n\n\n/**\n * @title A scheme for locking ERC20 Tokens for reputation\n */\n\ncontract LockingToken4Reputation is Locking4Reputation {\n    using SafeERC20 for address;\n\n    PriceOracleInterface public priceOracleContract;\n    //      lockingId => token\n    mapping(bytes32   => address) public lockedTokens;\n\n    event LockToken(bytes32 indexed _lockingId, address indexed _token, uint256 _numerator, uint256 _denominator);\n\n    /**\n     * @dev initialize\n     * @param _avatar the avatar to mint reputation from\n     * @param _reputationReward the total reputation this contract will reward\n     *        for the token locking\n     * @param _lockingStartTime locking starting period time.\n     * @param _lockingEndTime the locking end time.\n     *        locking is disable after this time.\n     * @param _redeemEnableTime redeem enable time .\n     *        redeem reputation can be done after this time.\n     * @param _maxLockingPeriod maximum locking period allowed.\n     * @param _priceOracleContract the price oracle contract which the locked token will be\n     *        validated against\n     */\n    function initialize(\n        Avatar _avatar,\n        uint256 _reputationReward,\n        uint256 _lockingStartTime,\n        uint256 _lockingEndTime,\n        uint256 _redeemEnableTime,\n        uint256 _maxLockingPeriod,\n        PriceOracleInterface _priceOracleContract,\n        bytes32 _agreementHash)\n    external\n    {\n        priceOracleContract = _priceOracleContract;\n        super._initialize(\n        _avatar,\n        _reputationReward,\n        _lockingStartTime,\n        _lockingEndTime,\n        _redeemEnableTime,\n        _maxLockingPeriod,\n        _agreementHash);\n    }\n\n    /**\n     * @dev release locked tokens\n     * @param _beneficiary the release _beneficiary\n     * @param _lockingId the locking id\n     * @return bool\n     */\n    function release(address _beneficiary, bytes32 _lockingId) public returns(bool) {\n        uint256 amount = super._release(_beneficiary, _lockingId);\n        lockedTokens[_lockingId].safeTransfer(_beneficiary, amount);\n\n        return true;\n    }\n\n    /**\n     * @dev lock function\n     * @param _amount the amount to lock\n     * @param _period the locking period\n     * @param _token the token to lock - this should be whitelisted at the priceOracleContract\n     * @return lockingId\n     */\n    function lock(uint256 _amount,\n        uint256 _period,\n        address _token,\n        bytes32 _agreementHash)\n    public returns(bytes32 lockingId) {\n\n        uint256 numerator;\n        uint256 denominator;\n\n        (numerator, denominator) = priceOracleContract.getPrice(_token);\n\n        require(numerator > 0, \"numerator should be > 0\");\n        require(denominator > 0, \"denominator should be > 0\");\n\n        _token.safeTransferFrom(msg.sender, address(this), _amount);\n\n        lockingId = super._lock(_amount, _period, msg.sender, numerator, denominator, _agreementHash);\n\n        lockedTokens[lockingId] = _token;\n\n        emit LockToken(lockingId, _token, numerator, denominator);\n    }\n}\n",
  "sourcePath": "/src/contracts/arc/schemes/LockingToken4Reputation.sol",
  "compiler": {
    "name": "solc",
    "version": "0.5.6+commit.b259423e.Emscripten.clang"
  },
  "schemaVersion": "3.0.14",
  "updatedAt": "2019-11-03T19:26:01.519Z",
  "devdoc": {
    "methods": {
      "getAgreementHash()": {
        "details": "getAgreementHash",
        "return": "bytes32 agreementHash"
      },
      "initialize(address,uint256,uint256,uint256,uint256,uint256,address,bytes32)": {
        "details": "initialize",
        "params": {
          "_avatar": "the avatar to mint reputation from",
          "_lockingEndTime": "the locking end time.       locking is disable after this time.",
          "_lockingStartTime": "locking starting period time.",
          "_maxLockingPeriod": "maximum locking period allowed.",
          "_priceOracleContract": "the price oracle contract which the locked token will be       validated against",
          "_redeemEnableTime": "redeem enable time .       redeem reputation can be done after this time.",
          "_reputationReward": "the total reputation this contract will reward       for the token locking"
        }
      },
      "lock(uint256,uint256,address,bytes32)": {
        "details": "lock function",
        "params": {
          "_amount": "the amount to lock",
          "_period": "the locking period",
          "_token": "the token to lock - this should be whitelisted at the priceOracleContract"
        },
        "return": "lockingId"
      },
      "redeem(address)": {
        "details": "redeem reputation function",
        "params": {
          "_beneficiary": "the beneficiary for the release"
        },
        "return": "uint256 reputation rewarded"
      },
      "release(address,bytes32)": {
        "details": "release locked tokens",
        "params": {
          "_beneficiary": "the release _beneficiary",
          "_lockingId": "the locking id"
        },
        "return": "bool"
      }
    },
    "title": "A scheme for locking ERC20 Tokens for reputation"
  },
  "userdoc": {
    "methods": {}
  }
}