{
  "contractName": "LockingEth4Reputation",
  "abi": [
    {
      "constant": true,
      "inputs": [],
      "name": "redeemEnableTime",
      "outputs": [
        {
          "name": "",
          "type": "uint256"
        }
      ],
      "payable": false,
      "stateMutability": "view",
      "type": "function"
    },
    {
      "constant": true,
      "inputs": [],
      "name": "lockingStartTime",
      "outputs": [
        {
          "name": "",
          "type": "uint256"
        }
      ],
      "payable": false,
      "stateMutability": "view",
      "type": "function"
    },
    {
      "constant": true,
      "inputs": [],
      "name": "totalLocked",
      "outputs": [
        {
          "name": "",
          "type": "uint256"
        }
      ],
      "payable": false,
      "stateMutability": "view",
      "type": "function"
    },
    {
      "constant": true,
      "inputs": [],
      "name": "avatar",
      "outputs": [
        {
          "name": "",
          "type": "address"
        }
      ],
      "payable": false,
      "stateMutability": "view",
      "type": "function"
    },
    {
      "constant": true,
      "inputs": [],
      "name": "getAgreementHash",
      "outputs": [
        {
          "name": "",
          "type": "bytes32"
        }
      ],
      "payable": false,
      "stateMutability": "view",
      "type": "function"
    },
    {
      "constant": true,
      "inputs": [
        {
          "name": "",
          "type": "address"
        }
      ],
      "name": "scores",
      "outputs": [
        {
          "name": "",
          "type": "uint256"
        }
      ],
      "payable": false,
      "stateMutability": "view",
      "type": "function"
    },
    {
      "constant": true,
      "inputs": [
        {
          "name": "",
          "type": "address"
        },
        {
          "name": "",
          "type": "bytes32"
        }
      ],
      "name": "lockers",
      "outputs": [
        {
          "name": "amount",
          "type": "uint256"
        },
        {
          "name": "releaseTime",
          "type": "uint256"
        }
      ],
      "payable": false,
      "stateMutability": "view",
      "type": "function"
    },
    {
      "constant": false,
      "inputs": [
        {
          "name": "_beneficiary",
          "type": "address"
        }
      ],
      "name": "redeem",
      "outputs": [
        {
          "name": "reputation",
          "type": "uint256"
        }
      ],
      "payable": false,
      "stateMutability": "nonpayable",
      "type": "function"
    },
    {
      "constant": true,
      "inputs": [],
      "name": "lockingEndTime",
      "outputs": [
        {
          "name": "",
          "type": "uint256"
        }
      ],
      "payable": false,
      "stateMutability": "view",
      "type": "function"
    },
    {
      "constant": true,
      "inputs": [],
      "name": "reputationRewardLeft",
      "outputs": [
        {
          "name": "",
          "type": "uint256"
        }
      ],
      "payable": false,
      "stateMutability": "view",
      "type": "function"
    },
    {
      "constant": true,
      "inputs": [],
      "name": "maxLockingPeriod",
      "outputs": [
        {
          "name": "",
          "type": "uint256"
        }
      ],
      "payable": false,
      "stateMutability": "view",
      "type": "function"
    },
    {
      "constant": true,
      "inputs": [],
      "name": "totalScore",
      "outputs": [
        {
          "name": "",
          "type": "uint256"
        }
      ],
      "payable": false,
      "stateMutability": "view",
      "type": "function"
    },
    {
      "constant": true,
      "inputs": [],
      "name": "lockingsCounter",
      "outputs": [
        {
          "name": "",
          "type": "uint256"
        }
      ],
      "payable": false,
      "stateMutability": "view",
      "type": "function"
    },
    {
      "constant": true,
      "inputs": [],
      "name": "totalLockedLeft",
      "outputs": [
        {
          "name": "",
          "type": "uint256"
        }
      ],
      "payable": false,
      "stateMutability": "view",
      "type": "function"
    },
    {
      "constant": true,
      "inputs": [],
      "name": "reputationReward",
      "outputs": [
        {
          "name": "",
          "type": "uint256"
        }
      ],
      "payable": false,
      "stateMutability": "view",
      "type": "function"
    },
    {
      "anonymous": false,
      "inputs": [
        {
          "indexed": true,
          "name": "_beneficiary",
          "type": "address"
        },
        {
          "indexed": false,
          "name": "_amount",
          "type": "uint256"
        }
      ],
      "name": "Redeem",
      "type": "event"
    },
    {
      "anonymous": false,
      "inputs": [
        {
          "indexed": true,
          "name": "_lockingId",
          "type": "bytes32"
        },
        {
          "indexed": true,
          "name": "_beneficiary",
          "type": "address"
        },
        {
          "indexed": false,
          "name": "_amount",
          "type": "uint256"
        }
      ],
      "name": "Release",
      "type": "event"
    },
    {
      "anonymous": false,
      "inputs": [
        {
          "indexed": true,
          "name": "_locker",
          "type": "address"
        },
        {
          "indexed": true,
          "name": "_lockingId",
          "type": "bytes32"
        },
        {
          "indexed": false,
          "name": "_amount",
          "type": "uint256"
        },
        {
          "indexed": false,
          "name": "_period",
          "type": "uint256"
        }
      ],
      "name": "Lock",
      "type": "event"
    },
    {
      "constant": false,
      "inputs": [
        {
          "name": "_avatar",
          "type": "address"
        },
        {
          "name": "_reputationReward",
          "type": "uint256"
        },
        {
          "name": "_lockingStartTime",
          "type": "uint256"
        },
        {
          "name": "_lockingEndTime",
          "type": "uint256"
        },
        {
          "name": "_redeemEnableTime",
          "type": "uint256"
        },
        {
          "name": "_maxLockingPeriod",
          "type": "uint256"
        },
        {
          "name": "_agreementHash",
          "type": "bytes32"
        }
      ],
      "name": "initialize",
      "outputs": [],
      "payable": false,
      "stateMutability": "nonpayable",
      "type": "function"
    },
    {
      "constant": false,
      "inputs": [
        {
          "name": "_beneficiary",
          "type": "address"
        },
        {
          "name": "_lockingId",
          "type": "bytes32"
        }
      ],
      "name": "release",
      "outputs": [
        {
          "name": "",
          "type": "bool"
        }
      ],
      "payable": false,
      "stateMutability": "nonpayable",
      "type": "function"
    },
    {
      "constant": false,
      "inputs": [
        {
          "name": "_period",
          "type": "uint256"
        },
        {
          "name": "_agreementHash",
          "type": "bytes32"
        }
      ],
      "name": "lock",
      "outputs": [
        {
          "name": "lockingId",
          "type": "bytes32"
        }
      ],
      "payable": true,
      "stateMutability": "payable",
      "type": "function"
    }
  ],
  "bytecode": "0x608060405234801561001057600080fd5b50611185806100206000396000f3fe6080604052600436106101095760003560e01c806395a2251f11610095578063c006719f11610064578063c006719f14610318578063c3201add1461032d578063c348a24b14610342578063d7c2eec714610357578063ed1ff6d8146103a457610109565b806395a2251f146102a6578063a8c33017146102d9578063afe0e33c146102ee578063bf0df4451461030357610109565b80635aef7de6116100dc5780635aef7de614610182578063650e81f2146101b3578063696da9211461020c57806376dd110f14610221578063838057421461025457610109565b80633d1678f41461010e578063496a36f21461013557806355bfec8814610158578063568914121461016d575b600080fd5b34801561011a57600080fd5b506101236103b9565b60408051918252519081900360200190f35b6101236004803603604081101561014b57600080fd5b50803590602001356103bf565b34801561016457600080fd5b506101236103d9565b34801561017957600080fd5b506101236103df565b34801561018e57600080fd5b506101976103e5565b604080516001600160a01b039092168252519081900360200190f35b3480156101bf57600080fd5b5061020a600480360360e08110156101d657600080fd5b506001600160a01b038135169060208101359060408101359060608101359060808101359060a08101359060c001356103f4565b005b34801561021857600080fd5b5061012361040c565b34801561022d57600080fd5b506101236004803603602081101561024457600080fd5b50356001600160a01b0316610412565b34801561026057600080fd5b5061028d6004803603604081101561027757600080fd5b506001600160a01b038135169060200135610424565b6040805192835260208301919091528051918290030190f35b3480156102b257600080fd5b50610123600480360360208110156102c957600080fd5b50356001600160a01b0316610448565b3480156102e557600080fd5b50610123610710565b3480156102fa57600080fd5b50610123610716565b34801561030f57600080fd5b5061012361071c565b34801561032457600080fd5b50610123610722565b34801561033957600080fd5b50610123610728565b34801561034e57600080fd5b5061012361072e565b34801561036357600080fd5b506103906004803603604081101561037a57600080fd5b506001600160a01b038135169060200135610734565b604080519115158252519081900360200190f35b3480156103b057600080fd5b50610123610785565b600d5481565b60006103d03484336001808761078b565b90505b92915050565b600c5481565b60045481565b6001546001600160a01b031681565b61040387878787878787610b8f565b50505050505050565b60005490565b60036020526000908152604090205481565b60026020908152600092835260408084209091529082529020805460019091015482565b6000600d5442116104a35760408051600160e51b62461bcd02815260206004820152601660248201527f6e6f77203e2072656465656d456e61626c6554696d6500000000000000000000604482015290519081900360640190fd5b6001600160a01b0382166000908152600360205260409020546105105760408051600160e51b62461bcd02815260206004820152601360248201527f73636f72652073686f756c64206265203e203000000000000000000000000000604482015290519081900360640190fd5b6001600160a01b038216600090815260036020526040812080549082905560085490919061054590839063ffffffff610d1316565b905061055c60065482610d6f90919063ffffffff16565b600954909350610572908463ffffffff610ddc16565b60095560015460408051600160e01b638da5cb5b02815290516001600160a01b0390921691638da5cb5b91600480820192602092909190829003018186803b1580156105bd57600080fd5b505afa1580156105d1573d6000803e3d6000fd5b505050506040513d60208110156105e757600080fd5b505160015460408051600160e11b63757cca59028152600481018790526001600160a01b03888116602483015292831660448201529051919092169163eaf994b29160648083019260209291908290030181600087803b15801561064a57600080fd5b505af115801561065e573d6000803e3d6000fd5b505050506040513d602081101561067457600080fd5b50516106ca5760408051600160e51b62461bcd02815260206004820152601e60248201527f6d696e742072657075746174696f6e2073686f756c6420737563636565640000604482015290519081900360640190fd5b6040805184815290516001600160a01b038616917f222838db2794d11532d940e8dec38ae307ed0b63cd97c233322e221f998767a6919081900360200190a25050919050565b600a5481565b60095481565b600b5481565b60065481565b60075481565b60055481565b6000806107418484610e3c565b6040519091506001600160a01b0385169082156108fc029083906000818181858888f1935050505015801561077a573d6000803e3d6000fd5b506001949350505050565b60085481565b60008160005481146107d157604051600160e51b62461bcd0281526004018080602001828103825260288152602001806110e46028913960400191505060405180910390fd5b600088116108295760408051600160e51b62461bcd02815260206004820152601c60248201527f6c6f636b696e6720616d6f756e742073686f756c64206265203e203000000000604482015290519081900360640190fd5b600b5487111561086d57604051600160e51b62461bcd02815260040180806020018281038252602c81526020018061110c602c913960400191505060405180910390fd5b600087116108c55760408051600160e51b62461bcd02815260206004820152601c60248201527f6c6f636b696e6720706572696f642073686f756c64206265203e203000000000604482015290519081900360640190fd5b600a5442111561090957604051600160e51b62461bcd0281526004018080602001828103825260308152602001806110596030913960400191505060405180910390fd5b600c5442101561094d57604051600160e51b62461bcd0281526004018080602001828103825260288152602001806110316028913960400191505060405180910390fd5b600754604080513060601b60208083019190915260348083018590528351808403909101815260549092019092528051910120925061099390600163ffffffff610f7616565b6007556001600160a01b0386166000908152600260209081526040808320858452909152902088815542880160018201556004546109d7908a63ffffffff610f7616565b6004556005546109ed908a63ffffffff610f7616565b6005556000610a2286610a1689610a0a8d8f63ffffffff610d1316565b9063ffffffff610d1316565b9063ffffffff610d6f16565b905060008111610a7c5760408051600160e51b62461bcd02815260206004820152601160248201527f73636f7265206d757374206d65203e2030000000000000000000000000000000604482015290519081900360640190fd5b6001600160a01b038816600090815260036020526040902054610aa5908263ffffffff610f7616565b6001600160a01b03891660009081526003602052604090208190556008549081810281610ace57fe5b0414610b245760408051600160e51b62461bcd02815260206004820152601160248201527f73636f726520697320746f6f2068696768000000000000000000000000000000604482015290519081900360640190fd5b600654610b37908263ffffffff610f7616565b600655604080518b8152602081018b9052815186926001600160a01b038c16927fd173f98f4a2080eab40a0bff4d9a575753270cb2401c74efdec1feb0ba31b426929081900390910190a35050509695505050505050565b6001546001600160a01b031615610bf05760408051600160e51b62461bcd02815260206004820152601b60248201527f63616e2062652063616c6c6564206f6e6c79206f6e652074696d650000000000604482015290519081900360640190fd5b6001600160a01b038716610c4e5760408051600160e51b62461bcd02815260206004820152601560248201527f6176617461722063616e6e6f74206265207a65726f0000000000000000000000604482015290519081900360640190fd5b848411610c8f57604051600160e51b62461bcd02815260040180806020018281038252603a8152602001806110aa603a913960400191505060405180910390fd5b83831015610cd157604051600160e51b62461bcd0281526004018080602001828103825260228152602001806111386022913960400191505060405180910390fd5b60088690556009869055600a849055600b829055600180546001600160a01b0319166001600160a01b038916179055600c859055600d83905561040381610fd3565b600082610d22575060006103d3565b82820282848281610d2f57fe5b04146103d057604051600160e51b62461bcd0281526004018080602001828103825260218152602001806110896021913960400191505060405180910390fd5b6000808211610dc85760408051600160e51b62461bcd02815260206004820152601a60248201527f536166654d6174683a206469766973696f6e206279207a65726f000000000000604482015290519081900360640190fd5b6000828481610dd357fe5b04949350505050565b600082821115610e365760408051600160e51b62461bcd02815260206004820152601e60248201527f536166654d6174683a207375627472616374696f6e206f766572666c6f770000604482015290519081900360640190fd5b50900390565b6001600160a01b038216600090815260026020908152604080832084845290915281208054610eb55760408051600160e51b62461bcd02815260206004820152601460248201527f616d6f756e742073686f756c64206265203e2030000000000000000000000000604482015290519081900360640190fd5b80546000825560018201549092504211610f195760408051600160e51b62461bcd02815260206004820152601a60248201527f636865636b20746865206c6f636b20706572696f642070617373000000000000604482015290519081900360640190fd5b600554610f2c908363ffffffff610ddc16565b6005556040805183815290516001600160a01b0386169185917fcb7ab693259d2332e08e7666832578144deb74443e37a762847e848793fc29819181900360200190a35092915050565b6000828201838110156103d05760408051600160e51b62461bcd02815260206004820152601b60248201527f536166654d6174683a206164646974696f6e206f766572666c6f770000000000604482015290519081900360640190fd5b6000541561102b5760408051600160e51b62461bcd02815260206004820152601b60248201527f43616e206e6f74207365742061677265656d656e742074776963650000000000604482015290519081900360640190fd5b60005556fe6c6f636b2073686f756c64207374617274206166746572206c6f636b696e67537461727454696d656c6f636b2073686f756c642062652077697468696e2074686520616c6c6f776564206c6f636b696e6720706572696f64536166654d6174683a206d756c7469706c69636174696f6e206f766572666c6f776c6f636b696e6720656e642074696d652073686f756c642062652067726561746572207468616e206c6f636b696e672073746172742074696d6553656e646572206d7573742073656e64207468652072696768742061677265656d656e74486173686c6f636b696e6720706572696f642073686f756c64206265203c3d206d61784c6f636b696e67506572696f6472656465656d456e61626c6554696d65203e3d206c6f636b696e67456e6454696d65a165627a7a7230582065d2abf4d37bc92dc761d5cc5f29b1b1da7030c4a96921a7ef6e8b46cd9ab5300029",
  "source": "pragma solidity ^0.5.4;\n\nimport \"./Locking4Reputation.sol\";\n\n/**\n * @title A scheme for locking ETH for reputation\n */\n\ncontract LockingEth4Reputation is Locking4Reputation {\n\n    /**\n     * @dev initialize\n     * @param _avatar the avatar to mint reputation from\n     * @param _reputationReward the total reputation this contract will reward\n     *        for eth locking\n     * @param _lockingStartTime locking starting period time.\n     * @param _lockingEndTime the locking end time.\n     *        locking is disable after this time.\n     * @param _redeemEnableTime redeem enable time .\n     *        redeem reputation can be done after this time.\n     * @param _maxLockingPeriod maximum locking period allowed.\n     */\n    function initialize(\n        Avatar _avatar,\n        uint256 _reputationReward,\n        uint256 _lockingStartTime,\n        uint256 _lockingEndTime,\n        uint256 _redeemEnableTime,\n        uint256 _maxLockingPeriod,\n        bytes32 _agreementHash )\n    external\n    {\n        super._initialize(\n        _avatar,\n        _reputationReward,\n        _lockingStartTime,\n        _lockingEndTime,\n        _redeemEnableTime,\n        _maxLockingPeriod,\n        _agreementHash);\n    }\n\n    /**\n     * @dev release locked eth\n     * @param _beneficiary the release _beneficiary\n     * @param _lockingId the locking id\n     * @return bool\n     */\n    function release(address payable _beneficiary, bytes32 _lockingId) public returns(bool) {\n        uint256 amount = super._release(_beneficiary, _lockingId);\n        _beneficiary.transfer(amount);\n\n        return true;\n    }\n\n    /**\n     * @dev lock function\n     * @param _period the locking period\n     * @return lockingId the unique Id\n     */\n    function lock(uint256 _period, bytes32 _agreementHash) public payable returns(bytes32 lockingId) {\n        return super._lock(msg.value, _period, msg.sender, 1, 1, _agreementHash);\n    }\n\n}\n",
  "sourcePath": "/src/contracts/arc/schemes/LockingEth4Reputation.sol",
  "compiler": {
    "name": "solc",
    "version": "0.5.6+commit.b259423e.Emscripten.clang"
  },
  "schemaVersion": "3.0.14",
  "updatedAt": "2019-11-03T19:26:01.517Z",
  "devdoc": {
    "methods": {
      "getAgreementHash()": {
        "details": "getAgreementHash",
        "return": "bytes32 agreementHash"
      },
      "initialize(address,uint256,uint256,uint256,uint256,uint256,bytes32)": {
        "details": "initialize",
        "params": {
          "_avatar": "the avatar to mint reputation from",
          "_lockingEndTime": "the locking end time.       locking is disable after this time.",
          "_lockingStartTime": "locking starting period time.",
          "_maxLockingPeriod": "maximum locking period allowed.",
          "_redeemEnableTime": "redeem enable time .       redeem reputation can be done after this time.",
          "_reputationReward": "the total reputation this contract will reward       for eth locking"
        }
      },
      "lock(uint256,bytes32)": {
        "details": "lock function",
        "params": {
          "_period": "the locking period"
        },
        "return": "lockingId the unique Id"
      },
      "redeem(address)": {
        "details": "redeem reputation function",
        "params": {
          "_beneficiary": "the beneficiary for the release"
        },
        "return": "uint256 reputation rewarded"
      },
      "release(address,bytes32)": {
        "details": "release locked eth",
        "params": {
          "_beneficiary": "the release _beneficiary",
          "_lockingId": "the locking id"
        },
        "return": "bool"
      }
    },
    "title": "A scheme for locking ETH for reputation"
  },
  "userdoc": {
    "methods": {}
  }
}