{
  "contractName": "OrganizationRegister",
  "abi": [
    {
      "constant": true,
      "inputs": [
        {
          "name": "",
          "type": "bytes32"
        }
      ],
      "name": "parameters",
      "outputs": [
        {
          "name": "fee",
          "type": "uint256"
        },
        {
          "name": "token",
          "type": "address"
        },
        {
          "name": "beneficiary",
          "type": "address"
        }
      ],
      "payable": false,
      "stateMutability": "view",
      "type": "function"
    },
    {
      "constant": true,
      "inputs": [
        {
          "name": "",
          "type": "address"
        },
        {
          "name": "",
          "type": "address"
        }
      ],
      "name": "organizationsRegistry",
      "outputs": [
        {
          "name": "",
          "type": "uint256"
        }
      ],
      "payable": false,
      "stateMutability": "view",
      "type": "function"
    },
    {
      "anonymous": false,
      "inputs": [
        {
          "indexed": true,
          "name": "_registry",
          "type": "address"
        },
        {
          "indexed": true,
          "name": "_org",
          "type": "address"
        }
      ],
      "name": "OrgAdded",
      "type": "event"
    },
    {
      "anonymous": false,
      "inputs": [
        {
          "indexed": true,
          "name": "_registry",
          "type": "address"
        },
        {
          "indexed": true,
          "name": "_org",
          "type": "address"
        },
        {
          "indexed": false,
          "name": "_amount",
          "type": "uint256"
        }
      ],
      "name": "Promotion",
      "type": "event"
    },
    {
      "constant": false,
      "inputs": [
        {
          "name": "_token",
          "type": "address"
        },
        {
          "name": "_fee",
          "type": "uint256"
        },
        {
          "name": "_beneficiary",
          "type": "address"
        }
      ],
      "name": "setParameters",
      "outputs": [
        {
          "name": "",
          "type": "bytes32"
        }
      ],
      "payable": false,
      "stateMutability": "nonpayable",
      "type": "function"
    },
    {
      "constant": true,
      "inputs": [
        {
          "name": "_token",
          "type": "address"
        },
        {
          "name": "_fee",
          "type": "uint256"
        },
        {
          "name": "_beneficiary",
          "type": "address"
        }
      ],
      "name": "getParametersHash",
      "outputs": [
        {
          "name": "",
          "type": "bytes32"
        }
      ],
      "payable": false,
      "stateMutability": "pure",
      "type": "function"
    },
    {
      "constant": false,
      "inputs": [
        {
          "name": "_avatar",
          "type": "address"
        },
        {
          "name": "_record",
          "type": "address"
        },
        {
          "name": "_amount",
          "type": "uint256"
        }
      ],
      "name": "addOrPromoteAddress",
      "outputs": [],
      "payable": false,
      "stateMutability": "nonpayable",
      "type": "function"
    }
  ],
  "bytecode": "0x608060405234801561001057600080fd5b506108cf806100206000396000f3fe608060405234801561001057600080fd5b50600436106100575760003560e01c8063025068041461005c578063197275f1146100a157806343cfe6b2146100d95780638fd631af1461011957806399cc9e731461014f575b600080fd5b6100796004803603602081101561007257600080fd5b5035610185565b604080519384526001600160a01b039283166020850152911682820152519081900360600190f35b6100d7600480360360608110156100b757600080fd5b506001600160a01b038135811691602081013590911690604001356101b2565b005b610107600480360360408110156100ef57600080fd5b506001600160a01b0381358116916020013516610362565b60408051918252519081900360200190f35b6101076004803603606081101561012f57600080fd5b506001600160a01b0381358116916020810135916040909101351661037c565b6101076004803603606081101561016557600080fd5b506001600160a01b038135811691602081013591604090910135166103fb565b60016020819052600091825260409091208054918101546002909101546001600160a01b03918216911683565b6101ba61085e565b600160006101c786610445565b81526020808201929092526040908101600090812082516060810184528154815260018201546001600160a01b0390811682870152600290920154821681850152888216835282855283832091881683529352205490915015158061022d575080518210155b61023657600080fd5b61025e3382604001518484602001516001600160a01b0316610669909392919063ffffffff16565b6001600160a01b03808516600090815260208181526040808320938716835292905220546102c757826001600160a01b0316846001600160a01b03167fbb755c25de622371a070056e89daca3dffb2591e14bfeaf5a22a5ff538f6430460405160405180910390a35b6001600160a01b03808516600090815260208181526040808320938716835292905220546102fb908363ffffffff6107f416565b6001600160a01b03808616600081815260208181526040808320948916808452948252918290209490945580518681529051929391927fbd26cf001a8e3be5dc9ac9f95c5e8fef2258c1ded9c61814e107db3ce9bbf2ca929181900390910190a350505050565b600060208181529281526040808220909352908152205481565b60008061038a8585856103fb565b600081815260016020819052604090912001549091506001600160a01b03166103f357600081815260016020819052604090912090810180546001600160a01b038089166001600160a01b03199283161790925586835560029092018054918616919092161790555b949350505050565b604080516001600160a01b03948516606090811b60208084019190915260348301959095529290941690911b60548401528051808403604801815260689093019052815191012090565b6000816001600160a01b0316638da5cb5b6040518163ffffffff1660e01b815260040160206040518083038186803b15801561048057600080fd5b505afa158015610494573d6000803e3d6000fd5b505050506040513d60208110156104aa57600080fd5b505160408051600160e01b639be2faed0281523060048201526001600160a01b03858116602483015291519190921691639be2faed916044808301926020929190829003018186803b1580156104ff57600080fd5b505afa158015610513573d6000803e3d6000fd5b505050506040513d602081101561052957600080fd5b505161057f5760408051600160e51b62461bcd02815260206004820152601860248201527f736368656d65206973206e6f7420726567697374657265640000000000000000604482015290519081900360640190fd5b816001600160a01b0316638da5cb5b6040518163ffffffff1660e01b815260040160206040518083038186803b1580156105b857600080fd5b505afa1580156105cc573d6000803e3d6000fd5b505050506040513d60208110156105e257600080fd5b505160408051600160e31b630389aac10281523060048201526001600160a01b03858116602483015291519190921691631c4d5608916044808301926020929190829003018186803b15801561063757600080fd5b505afa15801561064b573d6000803e3d6000fd5b505050506040513d602081101561066157600080fd5b505192915050565b61067b846001600160a01b0316610858565b61068457600080fd5b60006060856001600160a01b031660405180606001604052806025815260200161087f602591398051602091820120604080516001600160a01b03808b166024830152891660448201526064808201899052825180830390910181526084909101825292830180516001600160e01b03166001600160e01b0319909316929092178252518251909182918083835b602083106107315780518252601f199092019160209182019101610712565b6001836020036101000a0380198251168184511680821785525050505050509050019150506000604051808303816000865af19150503d8060008114610793576040519150601f19603f3d011682016040523d82523d6000602084013e610798565b606091505b5091509150816107a757600080fd5b805115806107e35750805160201480156107e3575080601f815181106107c957fe5b01602001516001600160f81b031960f891821c90911b1615155b6107ec57600080fd5b505050505050565b6000828201838110156108515760408051600160e51b62461bcd02815260206004820152601b60248201527f536166654d6174683a206164646974696f6e206f766572666c6f770000000000604482015290519081900360640190fd5b9392505050565b3b151590565b60408051606081018252600080825260208201819052918101919091529056fe7472616e7366657246726f6d28616464726573732c616464726573732c75696e7432353629a165627a7a7230582042b44acc830241b1b18a8e9d241f037ffeff44b48f6e32090bcf344b594ed3250029",
  "source": "pragma solidity ^0.5.4;\n\nimport \"./UniversalScheme.sol\";\nimport \"../libs/SafeERC20.sol\";\n\n/**\n * @title A universal organization registry.\n * @dev Organizations can use this scheme to open a registry.\n * Other organizations can then add and promote themselves on this registry.\n */\n\ncontract OrganizationRegister is UniversalScheme {\n    using SafeMath for uint;\n    using SafeERC20 for address;\n\n    struct Parameters {\n        uint256 fee;\n        IERC20 token;\n        address beneficiary;\n    }\n\n    // A mapping from the organization (Avatar) address to the saved data of the organization:\n    mapping(address=>mapping(address=>uint)) public organizationsRegistry;\n\n    mapping(bytes32=>Parameters) public parameters;\n\n    event OrgAdded( address indexed _registry, address indexed _org);\n    event Promotion( address indexed _registry, address indexed _org, uint256 _amount);\n\n    /**\n    * @dev Hash the parameters, save if needed and return the hash value\n    * @param _token -  the token to pay for register or promotion an address.\n    * @param _fee  - fee needed for register an address.\n    * @param _beneficiary  - the beneficiary payment address\n    * @return bytes32 -the parameters hash\n    */\n    function setParameters(IERC20 _token, uint256 _fee, address _beneficiary) public returns(bytes32) {\n        bytes32 paramsHash = getParametersHash(_token, _fee, _beneficiary);\n        if (parameters[paramsHash].token == ERC20(0)) {\n            parameters[paramsHash].token = _token;\n            parameters[paramsHash].fee = _fee;\n            parameters[paramsHash].beneficiary = _beneficiary;\n        }\n        return paramsHash;\n    }\n\n    /**\n    * @dev Hash the parameters ,and return the hash value\n    * @param _token -  the token to pay for register or promotion an address.\n    * @param _fee  - fee needed for register an address.\n    * @param _beneficiary  - the beneficiary payment address\n    * @return bytes32 -the parameters hash\n    */\n    function getParametersHash(IERC20 _token, uint256 _fee, address _beneficiary)\n    public pure returns(bytes32)\n    {\n        return (keccak256(abi.encodePacked(_token, _fee, _beneficiary)));\n    }\n\n    /**\n     * @dev Adding or promoting an address on the registry.\n     *      An address(record) to add or promote can be organization address or any contract address.\n     *      Adding a record is done by paying at least the minimum required by the registry params.\n     *      Promoting a record is done by paying(adding)amount of token to the registry beneficiary.\n     * @param _avatar The _avatar of the organization which own the registry.\n     * @param _record The address to add or promote.\n     * @param _amount amount to pay for adding or promoting\n     */\n    function addOrPromoteAddress(Avatar _avatar, address _record, uint256 _amount)\n    public\n    {\n        Parameters memory params = parameters[getParametersFromController(_avatar)];\n        // Pay promotion, if the org was not listed the minimum is the fee:\n        require((organizationsRegistry[address(_avatar)][_record] > 0) || (_amount >= params.fee));\n\n        address(params.token).safeTransferFrom(msg.sender, params.beneficiary, _amount);\n        if (organizationsRegistry[address(_avatar)][_record] == 0) {\n            emit OrgAdded(address(_avatar), _record);\n        }\n        organizationsRegistry[address(_avatar)][_record] =\n        organizationsRegistry[address(_avatar)][_record].add(_amount);\n        emit Promotion(address(_avatar), _record, _amount);\n    }\n}\n",
  "sourcePath": "/src/contracts/arc/universalSchemes/OrganizationRegister.sol",
  "compiler": {
    "name": "solc",
    "version": "0.5.6+commit.b259423e.Emscripten.clang"
  },
  "schemaVersion": "3.0.14",
  "updatedAt": "2019-09-27T19:17:02.437Z",
  "devdoc": {
    "details": "Organizations can use this scheme to open a registry. Other organizations can then add and promote themselves on this registry.",
    "methods": {
      "addOrPromoteAddress(address,address,uint256)": {
        "details": "Adding or promoting an address on the registry.     An address(record) to add or promote can be organization address or any contract address.     Adding a record is done by paying at least the minimum required by the registry params.     Promoting a record is done by paying(adding)amount of token to the registry beneficiary.",
        "params": {
          "_amount": "amount to pay for adding or promoting",
          "_avatar": "The _avatar of the organization which own the registry.",
          "_record": "The address to add or promote."
        }
      },
      "getParametersHash(address,uint256,address)": {
        "details": "Hash the parameters ,and return the hash value",
        "params": {
          "_beneficiary": "- the beneficiary payment address",
          "_fee": "- fee needed for register an address.",
          "_token": "-  the token to pay for register or promotion an address."
        },
        "return": "bytes32 -the parameters hash"
      },
      "setParameters(address,uint256,address)": {
        "details": "Hash the parameters, save if needed and return the hash value",
        "params": {
          "_beneficiary": "- the beneficiary payment address",
          "_fee": "- fee needed for register an address.",
          "_token": "-  the token to pay for register or promotion an address."
        },
        "return": "bytes32 -the parameters hash"
      }
    },
    "title": "A universal organization registry."
  },
  "userdoc": {
    "methods": {}
  }
}