{
  "contractName": "PolkaCurve",
  "abi": [
    {
      "constant": true,
      "inputs": [],
      "name": "SUM_OF_SQRTS",
      "outputs": [
        {
          "name": "",
          "type": "uint256"
        }
      ],
      "payable": false,
      "stateMutability": "view",
      "type": "function"
    },
    {
      "constant": true,
      "inputs": [],
      "name": "TOTAL_REPUTATION",
      "outputs": [
        {
          "name": "",
          "type": "uint256"
        }
      ],
      "payable": false,
      "stateMutability": "view",
      "type": "function"
    },
    {
      "constant": true,
      "inputs": [
        {
          "name": "_value",
          "type": "uint256"
        }
      ],
      "name": "calc",
      "outputs": [
        {
          "name": "sqrt",
          "type": "uint256"
        }
      ],
      "payable": false,
      "stateMutability": "pure",
      "type": "function"
    }
  ],
  "bytecode": "0x608060405234801561001057600080fd5b50610105806100206000396000f3fe6080604052348015600f57600080fd5b5060043610603c5760003560e01c806338c9027a1460415780633f4f781c14606d57806344cac103146073575b600080fd5b605b60048036036020811015605557600080fd5b50356079565b60408051918252519081900360200190f35b605b60cb565b605b60d2565b670de0b6b3a7640000810280600260018201045b8281101560b15780925060028182848160a257fe5b04018160aa57fe5b049050608d565b621a3722620c3500840204633b9aca000292505050919050565b621a372281565b620c35008156fea165627a7a7230582021bcc3f3d776b3dfbe1c86aed7a8947d10d767303407e83cd50973a2dd79af4a0029",
  "source": "pragma solidity ^0.5.4;\n\nimport \"../schemes/CurveInterface.sol\";\n\n/**\n * @title A Curve contract which implement the function of square root.\n * the result is normalized for the total reputation allocated. \n*/\n\ncontract PolkaCurve is CurveInterface {\n\n    uint256 public constant TOTAL_REPUTATION = 800000;\n    uint256 public constant SUM_OF_SQRTS = 1718050;\n\n    function calc(uint256 _value) external pure returns (uint256 sqrt) {\n        uint value = _value * 1 ether;\n        uint z = (value + 1) / 2;\n        sqrt = value;\n        while (z < sqrt) {\n            sqrt = z;\n            z = (value / z + z) / 2;\n        }\n        sqrt = ((sqrt*TOTAL_REPUTATION)/SUM_OF_SQRTS) * 1000000000;\n    }\n}\n",
  "sourcePath": "/src/contracts/arc/test/PolkaCurve.sol",
  "compiler": {
    "name": "solc",
    "version": "0.5.6+commit.b259423e.Emscripten.clang"
  },
  "schemaVersion": "3.0.14",
  "updatedAt": "2019-11-03T19:26:01.550Z",
  "devdoc": {
    "methods": {},
    "title": "A Curve contract which implement the function of square root. the result is normalized for the total reputation allocated. "
  },
  "userdoc": {
    "methods": {}
  }
}