{
  "contractName": "RepAllocation",
  "abi": [
    {
      "constant": true,
      "inputs": [
        {
          "name": "",
          "type": "address"
        }
      ],
      "name": "reputationAllocations",
      "outputs": [
        {
          "name": "",
          "type": "uint256"
        }
      ],
      "payable": false,
      "stateMutability": "view",
      "type": "function"
    },
    {
      "constant": false,
      "inputs": [],
      "name": "renounceOwnership",
      "outputs": [],
      "payable": false,
      "stateMutability": "nonpayable",
      "type": "function"
    },
    {
      "constant": true,
      "inputs": [],
      "name": "owner",
      "outputs": [
        {
          "name": "",
          "type": "address"
        }
      ],
      "payable": false,
      "stateMutability": "view",
      "type": "function"
    },
    {
      "constant": true,
      "inputs": [],
      "name": "isOwner",
      "outputs": [
        {
          "name": "",
          "type": "bool"
        }
      ],
      "payable": false,
      "stateMutability": "view",
      "type": "function"
    },
    {
      "constant": true,
      "inputs": [],
      "name": "isFreeze",
      "outputs": [
        {
          "name": "",
          "type": "bool"
        }
      ],
      "payable": false,
      "stateMutability": "view",
      "type": "function"
    },
    {
      "constant": false,
      "inputs": [
        {
          "name": "newOwner",
          "type": "address"
        }
      ],
      "name": "transferOwnership",
      "outputs": [],
      "payable": false,
      "stateMutability": "nonpayable",
      "type": "function"
    },
    {
      "anonymous": false,
      "inputs": [
        {
          "indexed": true,
          "name": "_beneficiary",
          "type": "address"
        },
        {
          "indexed": true,
          "name": "_amount",
          "type": "uint256"
        }
      ],
      "name": "BeneficiaryAddressAdded",
      "type": "event"
    },
    {
      "anonymous": false,
      "inputs": [
        {
          "indexed": true,
          "name": "previousOwner",
          "type": "address"
        },
        {
          "indexed": true,
          "name": "newOwner",
          "type": "address"
        }
      ],
      "name": "OwnershipTransferred",
      "type": "event"
    },
    {
      "constant": false,
      "inputs": [
        {
          "name": "_beneficiary",
          "type": "address"
        },
        {
          "name": "_amount",
          "type": "uint256"
        }
      ],
      "name": "addBeneficiary",
      "outputs": [],
      "payable": false,
      "stateMutability": "nonpayable",
      "type": "function"
    },
    {
      "constant": false,
      "inputs": [
        {
          "name": "_beneficiaries",
          "type": "address[]"
        },
        {
          "name": "_amounts",
          "type": "uint256[]"
        }
      ],
      "name": "addBeneficiaries",
      "outputs": [],
      "payable": false,
      "stateMutability": "nonpayable",
      "type": "function"
    },
    {
      "constant": false,
      "inputs": [],
      "name": "freeze",
      "outputs": [],
      "payable": false,
      "stateMutability": "nonpayable",
      "type": "function"
    },
    {
      "constant": true,
      "inputs": [
        {
          "name": "_beneficiary",
          "type": "address"
        }
      ],
      "name": "balanceOf",
      "outputs": [
        {
          "name": "",
          "type": "uint256"
        }
      ],
      "payable": false,
      "stateMutability": "view",
      "type": "function"
    }
  ],
  "bytecode": "0x60806040819052600080546001600160a01b03191633178082556001600160a01b0316917f8be0079c531659141344cd1fd0a4f28419497f9722a3daafe3b4186f6b6457e0908290a361073e806100576000396000f3fe608060405234801561001057600080fd5b506004361061009e5760003560e01c80638f32d59b116100665780638f32d59b1461013757806396074e7014610153578063a96106551461017f578063c154d6ca146102a6578063f2fde38b146102ae5761009e565b80630b98d181146100a357806362a5af3b146100db57806370a08231146100e5578063715018a61461010b5780638da5cb5b14610113575b600080fd5b6100c9600480360360208110156100b957600080fd5b50356001600160a01b03166102d4565b60408051918252519081900360200190f35b6100e36102e6565b005b6100c9600480360360208110156100fb57600080fd5b50356001600160a01b031661033f565b6100e361035a565b61011b6103ee565b604080516001600160a01b039092168252519081900360200190f35b61013f6103fd565b604080519115158252519081900360200190f35b6100e36004803603604081101561016957600080fd5b506001600160a01b03813516906020013561040e565b6100e36004803603604081101561019557600080fd5b8101906020810181356401000000008111156101b057600080fd5b8201836020820111156101c257600080fd5b803590602001918460208302840111640100000000831117156101e457600080fd5b919080806020026020016040519081016040528093929190818152602001838360200280828437600092019190915250929594936020810193503591505064010000000081111561023457600080fd5b82018360208201111561024657600080fd5b8035906020019184602083028401116401000000008311171561026857600080fd5b919080806020026020016040519081016040528093929190818152602001838360200280828437600092019190915250929550610502945050505050565b61013f6105a3565b6100e3600480360360208110156102c457600080fd5b50356001600160a01b03166105ac565b60016020526000908152604090205481565b6102ee6103fd565b6103305760408051600160e51b62461bcd02815260206004820181905260248201526000805160206106cc833981519152604482015290519081900360640190fd5b6002805460ff19166001179055565b6001600160a01b031660009081526001602052604090205490565b6103626103fd565b6103a45760408051600160e51b62461bcd02815260206004820181905260248201526000805160206106cc833981519152604482015290519081900360640190fd5b600080546040516001600160a01b03909116907f8be0079c531659141344cd1fd0a4f28419497f9722a3daafe3b4186f6b6457e0908390a3600080546001600160a01b0319169055565b6000546001600160a01b031690565b6000546001600160a01b0316331490565b6104166103fd565b6104585760408051600160e51b62461bcd02815260206004820181905260248201526000805160206106cc833981519152604482015290519081900360640190fd5b60025460ff161561049d57604051600160e51b62461bcd0281526004018080602001828103825260278152602001806106ec6027913960400191505060405180910390fd5b6001600160a01b0382166000908152600160205260409020546104fe576001600160a01b038216600081815260016020526040808220849055518392917fbf94baaff7b294d05de11f4ad7c615c6b8d41f4defab8fa5b962a0437842c58e91a35b5050565b61050a6103fd565b61054c5760408051600160e51b62461bcd02815260206004820181905260248201526000805160206106cc833981519152604482015290519081900360640190fd5b805182511461055a57600080fd5b60005b825181101561059e5761059683828151811061057557fe5b602002602001015183838151811061058957fe5b602002602001015161040e565b60010161055d565b505050565b60025460ff1681565b6105b46103fd565b6105f65760408051600160e51b62461bcd02815260206004820181905260248201526000805160206106cc833981519152604482015290519081900360640190fd5b6105ff81610602565b50565b6001600160a01b03811661064a57604051600160e51b62461bcd0281526004018080602001828103825260268152602001806106a66026913960400191505060405180910390fd5b600080546040516001600160a01b03808516939216917f8be0079c531659141344cd1fd0a4f28419497f9722a3daafe3b4186f6b6457e091a3600080546001600160a01b0319166001600160a01b039290921691909117905556fe4f776e61626c653a206e6577206f776e657220697320746865207a65726f20616464726573734f776e61626c653a2063616c6c6572206973206e6f7420746865206f776e657263616e206164642062656e6566696369617279206f6e6c79206966206e6f742064697361626c65a165627a7a723058206279570e3b77a6f27c41b590fac897bcfc09b948102e4eabfa03d8ab1ee4ae040029",
  "source": "pragma solidity ^0.5.4;\n\nimport \"openzeppelin-solidity/contracts/ownership/Ownable.sol\";\n\n\n/**\n * @title reputation allocation contract\n * This scheme can be used to allocate a pre define amount of reputation to whitelisted\n * beneficiaries.\n * this contract can be used as the rep mapping contract for  RepitationFromToken contract.\n */\ncontract RepAllocation is Ownable {\n\n\n       // beneficiary -> amount\n    mapping(address   =>   uint256) public reputationAllocations;\n    bool public isFreeze;\n\n    event BeneficiaryAddressAdded(address indexed _beneficiary, uint256 indexed _amount);\n\n    /**\n     * @dev addBeneficiary function\n     * @param _beneficiary to be whitelisted\n     */\n    function addBeneficiary(address _beneficiary, uint256 _amount) public onlyOwner {\n        require(!isFreeze, \"can add beneficiary only if not disable\");\n\n        if (reputationAllocations[_beneficiary] == 0) {\n            reputationAllocations[_beneficiary] = _amount;\n            emit BeneficiaryAddressAdded(_beneficiary, _amount);\n        }\n    }\n\n    /**\n     * @dev add addBeneficiaries function\n     * @param _beneficiaries addresses\n     */\n    function addBeneficiaries(address[] memory _beneficiaries, uint256[] memory _amounts) public onlyOwner {\n        require(_beneficiaries.length == _amounts.length);\n        for (uint256 i = 0; i < _beneficiaries.length; i++) {\n            addBeneficiary(_beneficiaries[i], _amounts[i]);\n        }\n    }\n\n    /**\n     * @dev freeze function\n     * cannot defreeze\n     */\n    function freeze() public onlyOwner {\n        isFreeze = true;\n    }\n\n    /**\n     * @dev get balanceOf _beneficiary function\n     * @param _beneficiary addresses\n     */\n    function balanceOf(address _beneficiary) public view returns(uint256) {\n        return reputationAllocations[_beneficiary];\n    }\n\n}\n",
  "sourcePath": "/src/contracts/arc/utils/RepAllocation.sol",
  "compiler": {
    "name": "solc",
    "version": "0.5.6+commit.b259423e.Emscripten.clang"
  },
  "schemaVersion": "3.0.14",
  "updatedAt": "2019-10-27T20:10:40.610Z",
  "devdoc": {
    "methods": {
      "addBeneficiaries(address[],uint256[])": {
        "details": "add addBeneficiaries function",
        "params": {
          "_beneficiaries": "addresses"
        }
      },
      "addBeneficiary(address,uint256)": {
        "details": "addBeneficiary function",
        "params": {
          "_beneficiary": "to be whitelisted"
        }
      },
      "balanceOf(address)": {
        "details": "get balanceOf _beneficiary function",
        "params": {
          "_beneficiary": "addresses"
        }
      },
      "freeze()": {
        "details": "freeze function cannot defreeze"
      },
      "isOwner()": {
        "details": "Returns true if the caller is the current owner."
      },
      "owner()": {
        "details": "Returns the address of the current owner."
      },
      "renounceOwnership()": {
        "details": "Leaves the contract without owner. It will not be possible to call `onlyOwner` functions anymore. Can only be called by the current owner.     * > Note: Renouncing ownership will leave the contract without an owner, thereby removing any functionality that is only available to the owner."
      },
      "transferOwnership(address)": {
        "details": "Transfers ownership of the contract to a new account (`newOwner`). Can only be called by the current owner."
      }
    },
    "title": "reputation allocation contract This scheme can be used to allocate a pre define amount of reputation to whitelisted beneficiaries. this contract can be used as the rep mapping contract for  RepitationFromToken contract."
  },
  "userdoc": {
    "methods": {}
  }
}