{
  "contractName": "ReputationFromToken",
  "abi": [
    {
      "constant": true,
      "inputs": [
        {
          "name": "",
          "type": "address"
        }
      ],
      "name": "redeems",
      "outputs": [
        {
          "name": "",
          "type": "bool"
        }
      ],
      "payable": false,
      "stateMutability": "view",
      "type": "function"
    },
    {
      "constant": true,
      "inputs": [],
      "name": "tokenContract",
      "outputs": [
        {
          "name": "",
          "type": "address"
        }
      ],
      "payable": false,
      "stateMutability": "view",
      "type": "function"
    },
    {
      "constant": true,
      "inputs": [],
      "name": "avatar",
      "outputs": [
        {
          "name": "",
          "type": "address"
        }
      ],
      "payable": false,
      "stateMutability": "view",
      "type": "function"
    },
    {
      "constant": true,
      "inputs": [],
      "name": "curve",
      "outputs": [
        {
          "name": "",
          "type": "address"
        }
      ],
      "payable": false,
      "stateMutability": "view",
      "type": "function"
    },
    {
      "anonymous": false,
      "inputs": [
        {
          "indexed": true,
          "name": "_beneficiary",
          "type": "address"
        },
        {
          "indexed": true,
          "name": "_sender",
          "type": "address"
        },
        {
          "indexed": false,
          "name": "_amount",
          "type": "uint256"
        }
      ],
      "name": "Redeem",
      "type": "event"
    },
    {
      "constant": false,
      "inputs": [
        {
          "name": "_avatar",
          "type": "address"
        },
        {
          "name": "_tokenContract",
          "type": "address"
        },
        {
          "name": "_curve",
          "type": "address"
        }
      ],
      "name": "initialize",
      "outputs": [],
      "payable": false,
      "stateMutability": "nonpayable",
      "type": "function"
    },
    {
      "constant": false,
      "inputs": [
        {
          "name": "_beneficiary",
          "type": "address"
        }
      ],
      "name": "redeem",
      "outputs": [
        {
          "name": "",
          "type": "uint256"
        }
      ],
      "payable": false,
      "stateMutability": "nonpayable",
      "type": "function"
    }
  ],
  "bytecode": "0x608060405234801561001057600080fd5b50610675806100206000396000f3fe608060405234801561001057600080fd5b50600436106100625760003560e01c8063511ffbff1461006757806355a373d6146100a15780635aef7de6146100c55780637165485d146100cd57806395a2251f146100d5578063c0c53b8b1461010d575b600080fd5b61008d6004803603602081101561007d57600080fd5b50356001600160a01b0316610147565b604080519115158252519081900360200190f35b6100a961015c565b604080516001600160a01b039092168252519081900360200190f35b6100a961016b565b6100a961017a565b6100fb600480360360208110156100eb57600080fd5b50356001600160a01b0316610189565b60408051918252519081900360200190f35b6101456004803603606081101561012357600080fd5b506001600160a01b038135811691602081013582169160409091013516610519565b005b60026020526000908152604090205460ff1681565b6000546001600160a01b031681565b6003546001600160a01b031681565b6001546001600160a01b031681565b6003546000906001600160a01b03166101ec5760408051600160e51b62461bcd02815260206004820152601760248201527f73686f756c6420696e697469616c697a65206669727374000000000000000000604482015290519081900360640190fd5b3360009081526002602052604090205460ff161561023e57604051600160e51b62461bcd0281526004018080602001828103825260348152602001806106166034913960400191505060405180910390fd5b336000818152600260209081526040808320805460ff1916600117905582548151600160e01b6370a082310281526004810195909552905192936001600160a01b0391909116926370a0823192602480840193919291829003018186803b1580156102a857600080fd5b505afa1580156102bc573d6000803e3d6000fd5b505050506040513d60208110156102d257600080fd5b50516001549091506001600160a01b0316156103665760015460408051600160e11b631c64813d0281526004810184905290516001600160a01b03909216916338c9027a91602480820192602092909190829003018186803b15801561033757600080fd5b505afa15801561034b573d6000803e3d6000fd5b505050506040513d602081101561036157600080fd5b505190505b6001600160a01b038316610378573392505b600360009054906101000a90046001600160a01b03166001600160a01b0316638da5cb5b6040518163ffffffff1660e01b815260040160206040518083038186803b1580156103c657600080fd5b505afa1580156103da573d6000803e3d6000fd5b505050506040513d60208110156103f057600080fd5b505160035460408051600160e11b63757cca59028152600481018590526001600160a01b03878116602483015292831660448201529051919092169163eaf994b29160648083019260209291908290030181600087803b15801561045357600080fd5b505af1158015610467573d6000803e3d6000fd5b505050506040513d602081101561047d57600080fd5b50516104d35760408051600160e51b62461bcd02815260206004820152601e60248201527f6d696e742072657075746174696f6e2073686f756c6420737563636565640000604482015290519081900360640190fd5b60408051828152905133916001600160a01b038616917fd12200efa34901b99367694174c3b0d32c99585fdf37c7c26892136ddd0836d99181900360200190a392915050565b6003546001600160a01b03161561057a5760408051600160e51b62461bcd02815260206004820152601b60248201527f63616e2062652063616c6c6564206f6e6c79206f6e652074696d650000000000604482015290519081900360640190fd5b6001600160a01b0383166105d85760408051600160e51b62461bcd02815260206004820152601560248201527f6176617461722063616e6e6f74206265207a65726f0000000000000000000000604482015290519081900360640190fd5b600080546001600160a01b03199081166001600160a01b03948516179091556003805482169484169490941790935560018054909316911617905556fe72656465656d696e672074776963652066726f6d207468652073616d65206163636f756e74206973206e6f7420616c6c6f776564a165627a7a72305820bfff049994dac6313be96f089b1b5e5fc084885ed50ed3b26c3450b94d62ac710029",
  "source": "pragma solidity ^0.5.4;\n\nimport \"../controller/ControllerInterface.sol\";\nimport \"openzeppelin-solidity/contracts/token/ERC20/IERC20.sol\";\nimport \"./CurveInterface.sol\";\n\n/**\n * @title A scheme for reputation allocation according to token balances\n *        This contract is assuming that the token contract is paused, and one cannot transfer its tokens.\n */\n\ncontract ReputationFromToken {\n\n    IERC20 public tokenContract;\n    CurveInterface public curve;\n    //      beneficiary -> bool\n    mapping(address     => bool) public redeems;\n    Avatar public avatar;\n\n    event Redeem(address indexed _beneficiary, address indexed _sender, uint256 _amount);\n\n    /**\n     * @dev initialize\n     * @param _avatar the avatar to mint reputation from\n     * @param _tokenContract the token contract\n     */\n    function initialize(Avatar _avatar, IERC20 _tokenContract, CurveInterface _curve) external\n    {\n        require(avatar == Avatar(0), \"can be called only one time\");\n        require(_avatar != Avatar(0), \"avatar cannot be zero\");\n        tokenContract = _tokenContract;\n        avatar = _avatar;\n        curve = _curve;\n    }\n\n    /**\n     * @dev redeem function\n     * @param _beneficiary the beneficiary address to redeem for\n     * @return uint256 minted reputation\n     */\n    function redeem(address _beneficiary) public returns(uint256) {\n        require(avatar != Avatar(0), \"should initialize first\");\n        require(redeems[msg.sender] == false, \"redeeming twice from the same account is not allowed\");\n        redeems[msg.sender] = true;\n        uint256 tokenAmount = tokenContract.balanceOf(msg.sender);\n        if (curve != CurveInterface(0)) {\n            tokenAmount = curve.calc(tokenAmount);\n        }\n        if (_beneficiary == address(0)) {\n            _beneficiary = msg.sender;\n        }\n        require(\n        ControllerInterface(\n        avatar.owner())\n        .mintReputation(tokenAmount, _beneficiary, address(avatar)), \"mint reputation should succeed\");\n        emit Redeem(_beneficiary, msg.sender, tokenAmount);\n        return tokenAmount;\n    }\n}\n",
  "sourcePath": "/src/contracts/arc/schemes/ReputationFromToken.sol",
  "compiler": {
    "name": "solc",
    "version": "0.5.6+commit.b259423e.Emscripten.clang"
  },
  "schemaVersion": "3.0.14",
  "updatedAt": "2019-10-26T14:19:12.873Z",
  "devdoc": {
    "methods": {
      "initialize(address,address,address)": {
        "details": "initialize",
        "params": {
          "_avatar": "the avatar to mint reputation from",
          "_tokenContract": "the token contract"
        }
      },
      "redeem(address)": {
        "details": "redeem function",
        "params": {
          "_beneficiary": "the beneficiary address to redeem for"
        },
        "return": "uint256 minted reputation"
      }
    },
    "title": "A scheme for reputation allocation according to token balances       This contract is assuming that the token contract is paused, and one cannot transfer its tokens."
  },
  "userdoc": {
    "methods": {}
  }
}