{
  "contractName": "SafeERC20Mock",
  "abi": [
    {
      "constant": true,
      "inputs": [],
      "name": "token",
      "outputs": [
        {
          "name": "",
          "type": "address"
        }
      ],
      "payable": false,
      "stateMutability": "view",
      "type": "function"
    },
    {
      "inputs": [
        {
          "name": "_token",
          "type": "address"
        }
      ],
      "payable": false,
      "stateMutability": "nonpayable",
      "type": "constructor"
    },
    {
      "constant": false,
      "inputs": [
        {
          "name": "_to",
          "type": "address"
        },
        {
          "name": "_value",
          "type": "uint256"
        }
      ],
      "name": "transfer",
      "outputs": [
        {
          "name": "",
          "type": "bool"
        }
      ],
      "payable": false,
      "stateMutability": "nonpayable",
      "type": "function"
    },
    {
      "constant": false,
      "inputs": [
        {
          "name": "_to",
          "type": "address"
        },
        {
          "name": "_value",
          "type": "uint256"
        }
      ],
      "name": "transferWithFix",
      "outputs": [
        {
          "name": "",
          "type": "bool"
        }
      ],
      "payable": false,
      "stateMutability": "nonpayable",
      "type": "function"
    },
    {
      "constant": false,
      "inputs": [
        {
          "name": "_from",
          "type": "address"
        },
        {
          "name": "_to",
          "type": "address"
        },
        {
          "name": "_value",
          "type": "uint256"
        }
      ],
      "name": "transferFromWithFix",
      "outputs": [
        {
          "name": "",
          "type": "bool"
        }
      ],
      "payable": false,
      "stateMutability": "nonpayable",
      "type": "function"
    },
    {
      "constant": false,
      "inputs": [
        {
          "name": "_spender",
          "type": "address"
        },
        {
          "name": "_value",
          "type": "uint256"
        }
      ],
      "name": "approveWithFix",
      "outputs": [
        {
          "name": "",
          "type": "bool"
        }
      ],
      "payable": false,
      "stateMutability": "nonpayable",
      "type": "function"
    }
  ],
  "bytecode": "0x608060405234801561001057600080fd5b506040516020806107878339810180604052602081101561003057600080fd5b5051600080546001600160a01b039092166001600160a01b0319909216919091179055610725806100626000396000f3fe608060405234801561001057600080fd5b50600436106100575760003560e01c80633a4ac55d1461005c5780638a076ab21461009c578063a9059cbb146100c8578063ac6e0f90146100f4578063fc0c546a1461012a575b600080fd5b6100886004803603604081101561007257600080fd5b506001600160a01b03813516906020013561014e565b604080519115158252519081900360200190f35b610088600480360360408110156100b257600080fd5b506001600160a01b038135169060200135610176565b610088600480360360408110156100de57600080fd5b506001600160a01b038135169060200135610194565b6100886004803603606081101561010a57600080fd5b506001600160a01b03813581169160208101359091169060400135610222565b61013261024b565b604080516001600160a01b039092168252519081900360200190f35b6000805461016c906001600160a01b0316848463ffffffff61025a16565b5060015b92915050565b6000805461016c906001600160a01b0316848463ffffffff61047916565b6000805460408051600160e01b63a9059cbb0281526001600160a01b038681166004830152602482018690529151919092169163a9059cbb91604480830192602092919082900301818787803b1580156101ed57600080fd5b505af1158015610201573d6000803e3d6000fd5b505050506040513d602081101561021757600080fd5b505161017057600080fd5b60008054610241906001600160a01b031685858563ffffffff61054316565b5060019392505050565b6000546001600160a01b031681565b61026c836001600160a01b03166106ce565b61027557600080fd5b8015806102fe575060408051600160e11b636eb1769f0281523060048201526001600160a01b03848116602483015291519185169163dd62ed3e91604480820192602092909190829003018186803b1580156102d057600080fd5b505afa1580156102e4573d6000803e3d6000fd5b505050506040513d60208110156102fa57600080fd5b5051155b61030757600080fd5b604080518082018252601881527f617070726f766528616464726573732c75696e7432353629000000000000000060209182015281516001600160a01b0385811660248301526044808301869052845180840390910181526064909201845291810180516001600160e01b0316600160e01b63095ea7b3021781529251815160009460609489169392918291908083835b602083106103b75780518252601f199092019160209182019101610398565b6001836020036101000a0380198251168184511680821785525050505050509050019150506000604051808303816000865af19150503d8060008114610419576040519150601f19603f3d011682016040523d82523d6000602084013e61041e565b606091505b50915091508161042d57600080fd5b80511580610469575080516020148015610469575080601f8151811061044f57fe5b01602001516001600160f81b031960f891821c90911b1615155b61047257600080fd5b5050505050565b61048b836001600160a01b03166106ce565b61049457600080fd5b604080518082018252601981527f7472616e7366657228616464726573732c75696e74323536290000000000000060209182015281516001600160a01b0385811660248301526044808301869052845180840390910181526064909201845291810180516001600160e01b0316600160e01b63a9059cbb02178152925181516000946060948916939291829190808383602083106103b75780518252601f199092019160209182019101610398565b610555846001600160a01b03166106ce565b61055e57600080fd5b60006060856001600160a01b03166040518060600160405280602581526020016106d5602591398051602091820120604080516001600160a01b03808b166024830152891660448201526064808201899052825180830390910181526084909101825292830180516001600160e01b03166001600160e01b0319909316929092178252518251909182918083835b6020831061060b5780518252601f1990920191602091820191016105ec565b6001836020036101000a0380198251168184511680821785525050505050509050019150506000604051808303816000865af19150503d806000811461066d576040519150601f19603f3d011682016040523d82523d6000602084013e610672565b606091505b50915091508161068157600080fd5b805115806106bd5750805160201480156106bd575080601f815181106106a357fe5b01602001516001600160f81b031960f891821c90911b1615155b6106c657600080fd5b505050505050565b3b15159056fe7472616e7366657246726f6d28616464726573732c616464726573732c75696e7432353629a165627a7a723058204bb44a3ceb4a3ec2ae62ade8b9cfb98b1b9a414f1797570703a50e74cca0bac80029",
  "source": "pragma solidity ^0.5.4;\n\nimport \"./BadERC20.sol\";\nimport \"openzeppelin-solidity/contracts/token/ERC20/IERC20.sol\";\nimport \"../libs/SafeERC20.sol\";\n\n\ncontract SafeERC20Mock {\n    using SafeERC20 for address;\n\n    address public token;\n\n    constructor(IERC20 _token) public {\n        token = address(_token);\n    }\n\n    function transfer(address _to, uint256 _value) public returns(bool) {\n        require(IERC20(token).transfer(_to, _value));\n    }\n\n    function transferWithFix(address _to, uint256 _value) public returns(bool) {\n        token.safeTransfer(_to, _value);\n        return true;\n    }\n\n    function transferFromWithFix(address _from, address _to, uint256 _value) public returns(bool) {\n        token.safeTransferFrom(_from, _to, _value);\n        return true;\n    }\n\n    function approveWithFix(address _spender, uint256 _value) public returns(bool) {\n        token.safeApprove(_spender, _value);\n        return true;\n    }\n\n}\n",
  "sourcePath": "/src/contracts/arc/test/SafeERC20Mock.sol",
  "compiler": {
    "name": "solc",
    "version": "0.5.6+commit.b259423e.Emscripten.clang"
  },
  "schemaVersion": "3.0.14",
  "updatedAt": "2019-09-27T19:17:02.417Z",
  "devdoc": {
    "methods": {}
  },
  "userdoc": {
    "methods": {}
  }
}