{
  "contractName": "SchemeRegistrar",
  "abi": [
    {
      "constant": true,
      "inputs": [
        {
          "name": "",
          "type": "bytes32"
        }
      ],
      "name": "parameters",
      "outputs": [
        {
          "name": "voteRegisterParams",
          "type": "bytes32"
        },
        {
          "name": "voteRemoveParams",
          "type": "bytes32"
        },
        {
          "name": "intVote",
          "type": "address"
        }
      ],
      "payable": false,
      "stateMutability": "view",
      "type": "function"
    },
    {
      "constant": true,
      "inputs": [
        {
          "name": "",
          "type": "address"
        },
        {
          "name": "",
          "type": "bytes32"
        }
      ],
      "name": "organizationsProposals",
      "outputs": [
        {
          "name": "scheme",
          "type": "address"
        },
        {
          "name": "addScheme",
          "type": "bool"
        },
        {
          "name": "parametersHash",
          "type": "bytes32"
        },
        {
          "name": "permissions",
          "type": "bytes4"
        }
      ],
      "payable": false,
      "stateMutability": "view",
      "type": "function"
    },
    {
      "constant": true,
      "inputs": [
        {
          "name": "",
          "type": "address"
        },
        {
          "name": "",
          "type": "bytes32"
        }
      ],
      "name": "proposalsInfo",
      "outputs": [
        {
          "name": "blockNumber",
          "type": "uint256"
        },
        {
          "name": "avatar",
          "type": "address"
        }
      ],
      "payable": false,
      "stateMutability": "view",
      "type": "function"
    },
    {
      "constant": true,
      "inputs": [
        {
          "name": "_stakingToken",
          "type": "address"
        },
        {
          "name": "_proposalId",
          "type": "bytes32"
        }
      ],
      "name": "balanceOfStakingToken",
      "outputs": [
        {
          "name": "",
          "type": "uint256"
        }
      ],
      "payable": false,
      "stateMutability": "view",
      "type": "function"
    },
    {
      "constant": true,
      "inputs": [
        {
          "name": "_owner",
          "type": "address"
        },
        {
          "name": "_proposalId",
          "type": "bytes32"
        }
      ],
      "name": "reputationOf",
      "outputs": [
        {
          "name": "",
          "type": "uint256"
        }
      ],
      "payable": false,
      "stateMutability": "view",
      "type": "function"
    },
    {
      "constant": true,
      "inputs": [
        {
          "name": "_proposalId",
          "type": "bytes32"
        }
      ],
      "name": "getTotalReputationSupply",
      "outputs": [
        {
          "name": "",
          "type": "uint256"
        }
      ],
      "payable": false,
      "stateMutability": "view",
      "type": "function"
    },
    {
      "constant": false,
      "inputs": [
        {
          "name": "_stakingToken",
          "type": "address"
        },
        {
          "name": "_beneficiary",
          "type": "address"
        },
        {
          "name": "_amount",
          "type": "uint256"
        },
        {
          "name": "_proposalId",
          "type": "bytes32"
        }
      ],
      "name": "stakingTokenTransfer",
      "outputs": [
        {
          "name": "",
          "type": "bool"
        }
      ],
      "payable": false,
      "stateMutability": "nonpayable",
      "type": "function"
    },
    {
      "constant": false,
      "inputs": [
        {
          "name": "_amount",
          "type": "uint256"
        },
        {
          "name": "_beneficiary",
          "type": "address"
        },
        {
          "name": "_proposalId",
          "type": "bytes32"
        }
      ],
      "name": "mintReputation",
      "outputs": [
        {
          "name": "",
          "type": "bool"
        }
      ],
      "payable": false,
      "stateMutability": "nonpayable",
      "type": "function"
    },
    {
      "constant": false,
      "inputs": [
        {
          "name": "_amount",
          "type": "uint256"
        },
        {
          "name": "_beneficiary",
          "type": "address"
        },
        {
          "name": "_proposalId",
          "type": "bytes32"
        }
      ],
      "name": "burnReputation",
      "outputs": [
        {
          "name": "",
          "type": "bool"
        }
      ],
      "payable": false,
      "stateMutability": "nonpayable",
      "type": "function"
    },
    {
      "anonymous": false,
      "inputs": [
        {
          "indexed": true,
          "name": "_avatar",
          "type": "address"
        },
        {
          "indexed": true,
          "name": "_proposalId",
          "type": "bytes32"
        },
        {
          "indexed": true,
          "name": "_intVoteInterface",
          "type": "address"
        },
        {
          "indexed": false,
          "name": "_scheme",
          "type": "address"
        },
        {
          "indexed": false,
          "name": "_parametersHash",
          "type": "bytes32"
        },
        {
          "indexed": false,
          "name": "_permissions",
          "type": "bytes4"
        },
        {
          "indexed": false,
          "name": "_descriptionHash",
          "type": "string"
        }
      ],
      "name": "NewSchemeProposal",
      "type": "event"
    },
    {
      "anonymous": false,
      "inputs": [
        {
          "indexed": true,
          "name": "_avatar",
          "type": "address"
        },
        {
          "indexed": true,
          "name": "_proposalId",
          "type": "bytes32"
        },
        {
          "indexed": true,
          "name": "_intVoteInterface",
          "type": "address"
        },
        {
          "indexed": false,
          "name": "_scheme",
          "type": "address"
        },
        {
          "indexed": false,
          "name": "_descriptionHash",
          "type": "string"
        }
      ],
      "name": "RemoveSchemeProposal",
      "type": "event"
    },
    {
      "anonymous": false,
      "inputs": [
        {
          "indexed": true,
          "name": "_avatar",
          "type": "address"
        },
        {
          "indexed": true,
          "name": "_proposalId",
          "type": "bytes32"
        },
        {
          "indexed": false,
          "name": "_param",
          "type": "int256"
        }
      ],
      "name": "ProposalExecuted",
      "type": "event"
    },
    {
      "anonymous": false,
      "inputs": [
        {
          "indexed": true,
          "name": "_avatar",
          "type": "address"
        },
        {
          "indexed": true,
          "name": "_proposalId",
          "type": "bytes32"
        }
      ],
      "name": "ProposalDeleted",
      "type": "event"
    },
    {
      "constant": false,
      "inputs": [
        {
          "name": "_proposalId",
          "type": "bytes32"
        },
        {
          "name": "_param",
          "type": "int256"
        }
      ],
      "name": "executeProposal",
      "outputs": [
        {
          "name": "",
          "type": "bool"
        }
      ],
      "payable": false,
      "stateMutability": "nonpayable",
      "type": "function"
    },
    {
      "constant": false,
      "inputs": [
        {
          "name": "_voteRegisterParams",
          "type": "bytes32"
        },
        {
          "name": "_voteRemoveParams",
          "type": "bytes32"
        },
        {
          "name": "_intVote",
          "type": "address"
        }
      ],
      "name": "setParameters",
      "outputs": [
        {
          "name": "",
          "type": "bytes32"
        }
      ],
      "payable": false,
      "stateMutability": "nonpayable",
      "type": "function"
    },
    {
      "constant": true,
      "inputs": [
        {
          "name": "_voteRegisterParams",
          "type": "bytes32"
        },
        {
          "name": "_voteRemoveParams",
          "type": "bytes32"
        },
        {
          "name": "_intVote",
          "type": "address"
        }
      ],
      "name": "getParametersHash",
      "outputs": [
        {
          "name": "",
          "type": "bytes32"
        }
      ],
      "payable": false,
      "stateMutability": "pure",
      "type": "function"
    },
    {
      "constant": false,
      "inputs": [
        {
          "name": "_avatar",
          "type": "address"
        },
        {
          "name": "_scheme",
          "type": "address"
        },
        {
          "name": "_parametersHash",
          "type": "bytes32"
        },
        {
          "name": "_permissions",
          "type": "bytes4"
        },
        {
          "name": "_descriptionHash",
          "type": "string"
        }
      ],
      "name": "proposeScheme",
      "outputs": [
        {
          "name": "",
          "type": "bytes32"
        }
      ],
      "payable": false,
      "stateMutability": "nonpayable",
      "type": "function"
    },
    {
      "constant": false,
      "inputs": [
        {
          "name": "_avatar",
          "type": "address"
        },
        {
          "name": "_scheme",
          "type": "address"
        },
        {
          "name": "_descriptionHash",
          "type": "string"
        }
      ],
      "name": "proposeToRemoveScheme",
      "outputs": [
        {
          "name": "",
          "type": "bytes32"
        }
      ],
      "payable": false,
      "stateMutability": "nonpayable",
      "type": "function"
    }
  ],
  "bytecode": "0x608060405234801561001057600080fd5b50611a2c806100206000396000f3fe608060405234801561001057600080fd5b50600436106100ea5760003560e01c80639588378e1161008c578063bea75f2811610066578063bea75f28146103dd578063d29b5d2f14610419578063e7ac593e1461044b578063f81f8bf61461050a576100ea565b80639588378e1461035d5780639d4c162d14610389578063b551c373146103c0576100ea565b80635099e006116100c85780635099e006146101dd57806360bdbb3f146102b25780636b8eb403146102ff578063771822611461032b576100ea565b806302506804146100ef57806306e3a978146101335780630a6687fd14610199575b600080fd5b61010c6004803603602081101561010557600080fd5b503561053c565b6040805193845260208401929092526001600160a01b031682820152519081900360600190f35b61015f6004803603604081101561014957600080fd5b506001600160a01b038135169060200135610565565b604080516001600160a01b0390951685529215156020850152838301919091526001600160e01b0319166060830152519081900360800190f35b6101cb600480360360608110156101af57600080fd5b50803590602081013590604001356001600160a01b03166105a7565b60408051918252519081900360200190f35b6101cb600480360360a08110156101f357600080fd5b6001600160a01b0382358116926020810135909116916040820135916001600160e01b03196060820135169181019060a08101608082013564010000000081111561023d57600080fd5b82018360208201111561024f57600080fd5b8035906020019184600183028401116401000000008311171561027157600080fd5b91908080601f0160208091040260200160405190810160405280939291908181526020018383808284376000920191909152509295506105f6945050505050565b6102de600480360360408110156102c857600080fd5b506001600160a01b03813516906020013561093a565b604080519283526001600160a01b0390911660208301528051918290030190f35b6101cb6004803603604081101561031557600080fd5b506001600160a01b038135169060200135610964565b6101cb6004803603606081101561034157600080fd5b50803590602081013590604001356001600160a01b0316610a24565b6101cb6004803603604081101561037357600080fd5b506001600160a01b038135169060200135610a66565b6103ac6004803603604081101561039f57600080fd5b5080359060200135610b77565b604080519115158252519081900360200190f35b6101cb600480360360208110156103d657600080fd5b5035610f0b565b6103ac600480360360808110156103f357600080fd5b506001600160a01b03813581169160208101359091169060408101359060600135611048565b6103ac6004803603606081101561042f57600080fd5b508035906001600160a01b0360208201351690604001356111f3565b6101cb6004803603606081101561046157600080fd5b6001600160a01b03823581169260208101359091169181019060608101604082013564010000000081111561049557600080fd5b8201836020820111156104a757600080fd5b803590602001918460018302840111640100000000831117156104c957600080fd5b91908080601f016020809104026020016040519081016040528093929190818152602001838380828437600092019190915250929550611395945050505050565b6103ac6004803603606081101561052057600080fd5b508035906001600160a01b036020820135169060400135611614565b60026020819052600091825260409091208054600182015491909201546001600160a01b031683565b600160208181526000938452604080852090915291835291208054918101546002909101546001600160a01b03831692600160a01b900460ff16919060e01b84565b6000806105b5858585610a24565b6000818152600260208190526040909120878155600181018790550180546001600160a01b0386166001600160a01b03199091161790559150509392505050565b60006001600160a01b0385166106565760408051600160e51b62461bcd02815260206004820152601560248201527f736368656d652063616e6e6f74206265207a65726f0000000000000000000000604482015290519081900360640190fd5b61065e6119a2565b6002600061066b8961177e565b815260208082019290925260409081016000908120825160608101845281548082526001830154828701526002928301546001600160a01b039081168387018190528651600160e11b634439bdaf028152600481019590955260248501929092523360448501528d166064840152935190955091936388737b5e9260848084019382900301818787803b15801561070157600080fd5b505af1158015610715573d6000803e3d6000fd5b505050506040513d602081101561072b57600080fd5b505190506107376119c2565b6040518060800160405280896001600160a01b03168152602001600115158152602001888152602001876001600160e01b031916815250905082604001516001600160a01b0316828a6001600160a01b03167fcc9180a05805acc3615b472c3ba00cdc9cd2c6e0e0b3648d60eb58f2c1001b848b8b8b8b60405180856001600160a01b03166001600160a01b03168152602001848152602001836001600160e01b0319166001600160e01b031916815260200180602001828103825283818151815260200191508051906020019080838360005b8381101561082357818101518382015260200161080b565b50505050905090810190601f1680156108505780820380516001836020036101000a031916815260200191505b509550505050505060405180910390a46001600160a01b03808a166000818152600160208181526040808420888552825280842087518154848a01511515600160a01b0274ff000000000000000000000000000000000000000019928a166001600160a01b0319928316179290921691909117825582890151828601556060909801516002909101805460e09290921c63ffffffff1990921691909117905580518082018252438152808301958652988101518616845283825280842088855290915290912095518655905194018054949091169390911692909217909155905095945050505050565b6000602081815292815260408082209093529081522080546001909101546001600160a01b031682565b336000908152602081815260408083208484529091528120600101546001600160a01b031680610998576000915050610a1e565b836001600160a01b03166370a08231826040518263ffffffff1660e01b815260040180826001600160a01b03166001600160a01b0316815260200191505060206040518083038186803b1580156109ee57600080fd5b505afa158015610a02573d6000803e3d6000fd5b505050506040513d6020811015610a1857600080fd5b50519150505b92915050565b60408051602080820195909552808201939093526001600160a01b0391909116606090811b908301528051808303605401815260749092019052805191012090565b6000610a706119e9565b5033600090815260208181526040808320858452825291829020825180840190935280548352600101546001600160a01b0316908201819052610ab7576000915050610a1e565b80602001516001600160a01b03166389ae1c906040518163ffffffff1660e01b815260040160206040518083038186803b158015610af457600080fd5b505afa158015610b08573d6000803e3d6000fd5b505050506040513d6020811015610b1e57600080fd5b5051815160408051600160e11b63277166bf0281526001600160a01b038881166004830152602482019390935290519190921691634ee2cd7e916044808301926020929190829003018186803b1580156109ee57600080fd5b3360009081526020818152604080832085845290915281206001015483906001600160a01b0316610bea5760408051600160e51b62461bcd0281526020600482015260126024820152600160701b716f6e6c7920566f74696e674d616368696e6502604482015290519081900360640190fd5b336000908152602081815260408083208784529091529020600101546001600160a01b0316610c176119c2565b506001600160a01b0381811660009081526001602081815260408084208a855282529283902083516080810185528154958616808252600160a01b90960460ff1615159281019290925291820154928101929092526002015460e01b6001600160e01b031916606082015290610c8c57600080fd5b6001600160a01b03821660008181526001602081815260408084208b855290915280832080546001600160a81b03191681559182018390556002909101805463ffffffff19169055518892917f6bc0cb9e9967b59a69ace442598e1df4368d38661bd5c0800fbcbc9fe855fbbe91a38460011415610ebf576000826001600160a01b0316638da5cb5b6040518163ffffffff1660e01b815260040160206040518083038186803b158015610d3f57600080fd5b505afa158015610d53573d6000803e3d6000fd5b505050506040513d6020811015610d6957600080fd5b5051602083015190915015610e2657815160408084015160608501518251600160e01b63e869d45f0281526001600160a01b03948516600482015260248101929092526001600160e01b0319166044820152858316606482015290519183169163e869d45f916084808201926020929091908290030181600087803b158015610df157600080fd5b505af1158015610e05573d6000803e3d6000fd5b505050506040513d6020811015610e1b57600080fd5b5051610e2657600080fd5b8160200151610ebd57815160408051600160e01b63039de01d0281526001600160a01b039283166004820152858316602482015290519183169163039de01d916044808201926020929091908290030181600087803b158015610e8857600080fd5b505af1158015610e9c573d6000803e3d6000fd5b505050506040513d6020811015610eb257600080fd5b5051610ebd57600080fd5b505b60408051868152905187916001600160a01b038516917fd2632e80f5364f02aded1c64e8a04637b7c8bb9c2db2bedf4b6ac47c013acbc09181900360200190a350600195945050505050565b6000610f156119e9565b5033600090815260208181526040808320858452825291829020825180840190935280548352600101546001600160a01b0316908201819052610f5c576000915050611043565b80602001516001600160a01b03166389ae1c906040518163ffffffff1660e01b815260040160206040518083038186803b158015610f9957600080fd5b505afa158015610fad573d6000803e3d6000fd5b505050506040513d6020811015610fc357600080fd5b5051815160408051600160e41b630981b24d0281526004810192909252516001600160a01b039092169163981b24d091602480820192602092909190829003018186803b15801561101357600080fd5b505afa158015611027573d6000803e3d6000fd5b505050506040513d602081101561103d57600080fd5b50519150505b919050565b3360009081526020818152604080832084845290915281206001015482906001600160a01b03166110bb5760408051600160e51b62461bcd0281526020600482015260126024820152600160701b716f6e6c7920566f74696e674d616368696e6502604482015290519081900360640190fd5b336000908152602081815260408083208684529091529020600101546001600160a01b0316806110ef5760009250506111ea565b806001600160a01b0316638da5cb5b6040518163ffffffff1660e01b815260040160206040518083038186803b15801561112857600080fd5b505afa15801561113c573d6000803e3d6000fd5b505050506040513d602081101561115257600080fd5b505160408051600160e01b63b9a04cdd0281526001600160a01b038a8116600483015289811660248301526044820189905284811660648301529151919092169163b9a04cdd9160848083019260209291908290030181600087803b1580156111ba57600080fd5b505af11580156111ce573d6000803e3d6000fd5b505050506040513d60208110156111e457600080fd5b50519250505b50949350505050565b3360009081526020818152604080832084845290915281206001015482906001600160a01b03166112665760408051600160e51b62461bcd0281526020600482015260126024820152600160701b716f6e6c7920566f74696e674d616368696e6502604482015290519081900360640190fd5b336000908152602081815260408083208684529091529020600101546001600160a01b03168061129a57600092505061138d565b806001600160a01b0316638da5cb5b6040518163ffffffff1660e01b815260040160206040518083038186803b1580156112d357600080fd5b505afa1580156112e7573d6000803e3d6000fd5b505050506040513d60208110156112fd57600080fd5b505160408051600160e11b63757cca59028152600481018990526001600160a01b03888116602483015284811660448301529151919092169163eaf994b29160648083019260209291908290030181600087803b15801561135d57600080fd5b505af1158015611371573d6000803e3d6000fd5b505050506040513d602081101561138757600080fd5b50519250505b509392505050565b60006001600160a01b0383166113f55760408051600160e51b62461bcd02815260206004820152601560248201527f736368656d652063616e6e6f74206265207a65726f0000000000000000000000604482015290519081900360640190fd5b60006114008561177e565b905061140a6119a2565b5060008181526002602081815260408084208151606081018352815481526001820154818501819052918501546001600160a01b039081168285018190528451600160e11b634439bdaf028152600481019790975260248701939093523360448701528b166064860152915191949093909284926388737b5e92608480820193929182900301818787803b1580156114a157600080fd5b505af11580156114b5573d6000803e3d6000fd5b505050506040513d60208110156114cb57600080fd5b50516001600160a01b038981166000818152600160209081526040808320868452825280832080546001600160a01b0319168e871690811790915581519081528083018281528d51928201929092528c519697509488169587957f504b6bd2558241a5f0532c970f3444e1fc24e1f7cf3d7c49a8d213bd612e9055948f948f9492936060850192918601918190849084905b8381101561157557818101518382015260200161155d565b50505050905090810190601f1680156115a25780820380516001836020036101000a031916815260200191505b50935050505060405180910390a46040805180820182524381526001600160a01b03998a166020808301918252958301518b166000908152808752838120858252909652919094209351845551600190930180546001600160a01b031916939098169290921790965595945050505050565b3360009081526020818152604080832084845290915281206001015482906001600160a01b03166116875760408051600160e51b62461bcd0281526020600482015260126024820152600160701b716f6e6c7920566f74696e674d616368696e6502604482015290519081900360640190fd5b336000908152602081815260408083208684529091529020600101546001600160a01b0316806116bb57600092505061138d565b806001600160a01b0316638da5cb5b6040518163ffffffff1660e01b815260040160206040518083038186803b1580156116f457600080fd5b505afa158015611708573d6000803e3d6000fd5b505050506040513d602081101561171e57600080fd5b505160408051600160e31b630dd29a4f028152600481018990526001600160a01b038881166024830152848116604483015291519190921691636e94d2789160648083019260209291908290030181600087803b15801561135d57600080fd5b6000816001600160a01b0316638da5cb5b6040518163ffffffff1660e01b815260040160206040518083038186803b1580156117b957600080fd5b505afa1580156117cd573d6000803e3d6000fd5b505050506040513d60208110156117e357600080fd5b505160408051600160e01b639be2faed0281523060048201526001600160a01b03858116602483015291519190921691639be2faed916044808301926020929190829003018186803b15801561183857600080fd5b505afa15801561184c573d6000803e3d6000fd5b505050506040513d602081101561186257600080fd5b50516118b85760408051600160e51b62461bcd02815260206004820152601860248201527f736368656d65206973206e6f7420726567697374657265640000000000000000604482015290519081900360640190fd5b816001600160a01b0316638da5cb5b6040518163ffffffff1660e01b815260040160206040518083038186803b1580156118f157600080fd5b505afa158015611905573d6000803e3d6000fd5b505050506040513d602081101561191b57600080fd5b505160408051600160e31b630389aac10281523060048201526001600160a01b03858116602483015291519190921691631c4d5608916044808301926020929190829003018186803b15801561197057600080fd5b505afa158015611984573d6000803e3d6000fd5b505050506040513d602081101561199a57600080fd5b505192915050565b604080516060810182526000808252602082018190529181019190915290565b60408051608081018252600080825260208201819052918101829052606081019190915290565b60408051808201909152600080825260208201529056fea165627a7a72305820e31bfafdd35b595bcf8dc1a7b56fb95d8dad42313b908ebbc7a249f63076c7bc0029",
  "source": "pragma solidity ^0.5.4;\n\nimport \"@daostack/infra/contracts/votingMachines/IntVoteInterface.sol\";\nimport \"@daostack/infra/contracts/votingMachines/VotingMachineCallbacksInterface.sol\";\nimport \"./UniversalScheme.sol\";\nimport \"../votingMachines/VotingMachineCallbacks.sol\";\n\n\n/**\n * @title A registrar for Schemes for organizations\n * @dev The SchemeRegistrar is used for registering and unregistering schemes at organizations\n */\n\ncontract SchemeRegistrar is UniversalScheme, VotingMachineCallbacks, ProposalExecuteInterface {\n    event NewSchemeProposal(\n        address indexed _avatar,\n        bytes32 indexed _proposalId,\n        address indexed _intVoteInterface,\n        address _scheme,\n        bytes32 _parametersHash,\n        bytes4 _permissions,\n        string _descriptionHash\n    );\n\n    event RemoveSchemeProposal(address indexed _avatar,\n        bytes32 indexed _proposalId,\n        address indexed _intVoteInterface,\n        address _scheme,\n        string _descriptionHash\n    );\n\n    event ProposalExecuted(address indexed _avatar, bytes32 indexed _proposalId, int256 _param);\n    event ProposalDeleted(address indexed _avatar, bytes32 indexed _proposalId);\n\n    // a SchemeProposal is a  proposal to add or remove a scheme to/from the an organization\n    struct SchemeProposal {\n        address scheme; //\n        bool addScheme; // true: add a scheme, false: remove a scheme.\n        bytes32 parametersHash;\n        bytes4 permissions;\n    }\n\n    // A mapping from the organization (Avatar) address to the saved data of the organization:\n    mapping(address=>mapping(bytes32=>SchemeProposal)) public organizationsProposals;\n\n    // A mapping from hashes to parameters (use to store a particular configuration on the controller)\n    struct Parameters {\n        bytes32 voteRegisterParams;\n        bytes32 voteRemoveParams;\n        IntVoteInterface intVote;\n    }\n\n    mapping(bytes32=>Parameters) public parameters;\n\n    /**\n    * @dev execution of proposals, can only be called by the voting machine in which the vote is held.\n    * @param _proposalId the ID of the voting in the voting machine\n    * @param _param a parameter of the voting result, 1 yes and 2 is no.\n    */\n    function executeProposal(bytes32 _proposalId, int256 _param) external onlyVotingMachine(_proposalId) returns(bool) {\n        Avatar avatar = proposalsInfo[msg.sender][_proposalId].avatar;\n        SchemeProposal memory proposal = organizationsProposals[address(avatar)][_proposalId];\n        require(proposal.scheme != address(0));\n        delete organizationsProposals[address(avatar)][_proposalId];\n        emit ProposalDeleted(address(avatar), _proposalId);\n        if (_param == 1) {\n\n          // Define controller and get the params:\n            ControllerInterface controller = ControllerInterface(avatar.owner());\n\n          // Add a scheme:\n            if (proposal.addScheme) {\n                require(controller.registerScheme(\n                        proposal.scheme,\n                        proposal.parametersHash,\n                        proposal.permissions,\n                        address(avatar))\n                );\n            }\n          // Remove a scheme:\n            if (!proposal.addScheme) {\n                require(controller.unregisterScheme(proposal.scheme, address(avatar)));\n            }\n        }\n        emit ProposalExecuted(address(avatar), _proposalId, _param);\n        return true;\n    }\n\n    /**\n    * @dev hash the parameters, save them if necessary, and return the hash value\n    */\n    function setParameters(\n        bytes32 _voteRegisterParams,\n        bytes32 _voteRemoveParams,\n        IntVoteInterface _intVote\n    ) public returns(bytes32)\n    {\n        bytes32 paramsHash = getParametersHash(_voteRegisterParams, _voteRemoveParams, _intVote);\n        parameters[paramsHash].voteRegisterParams = _voteRegisterParams;\n        parameters[paramsHash].voteRemoveParams = _voteRemoveParams;\n        parameters[paramsHash].intVote = _intVote;\n        return paramsHash;\n    }\n\n    function getParametersHash(\n        bytes32 _voteRegisterParams,\n        bytes32 _voteRemoveParams,\n        IntVoteInterface _intVote\n    ) public pure returns(bytes32)\n    {\n        return keccak256(abi.encodePacked(_voteRegisterParams, _voteRemoveParams, _intVote));\n    }\n\n    /**\n    * @dev create a proposal to register a scheme\n    * @param _avatar the address of the organization the scheme will be registered for\n    * @param _scheme the address of the scheme to be registered\n    * @param _parametersHash a hash of the configuration of the _scheme\n    * @param _permissions the permission of the scheme to be registered\n    * @param _descriptionHash proposal's description hash\n    * @return a proposal Id\n    * @dev NB: not only proposes the vote, but also votes for it\n    */\n    function proposeScheme(\n        Avatar _avatar,\n        address _scheme,\n        bytes32 _parametersHash,\n        bytes4 _permissions,\n        string memory _descriptionHash\n    )\n    public\n    returns(bytes32)\n    {\n        // propose\n        require(_scheme != address(0), \"scheme cannot be zero\");\n        Parameters memory controllerParams = parameters[getParametersFromController(_avatar)];\n\n        bytes32 proposalId = controllerParams.intVote.propose(\n            2,\n            controllerParams.voteRegisterParams,\n            msg.sender,\n            address(_avatar)\n        );\n\n        SchemeProposal memory proposal = SchemeProposal({\n            scheme: _scheme,\n            parametersHash: _parametersHash,\n            addScheme: true,\n            permissions: _permissions\n        });\n        emit NewSchemeProposal(\n            address(_avatar),\n            proposalId,\n            address(controllerParams.intVote),\n            _scheme, _parametersHash,\n            _permissions,\n            _descriptionHash\n        );\n        organizationsProposals[address(_avatar)][proposalId] = proposal;\n        proposalsInfo[address(controllerParams.intVote)][proposalId] = ProposalInfo({\n            blockNumber:block.number,\n            avatar:_avatar\n        });\n        return proposalId;\n    }\n\n    /**\n    * @dev propose to remove a scheme for a controller\n    * @param _avatar the address of the controller from which we want to remove a scheme\n    * @param _scheme the address of the scheme we want to remove\n    * @param _descriptionHash proposal description hash\n    * NB: not only registers the proposal, but also votes for it\n    */\n    function proposeToRemoveScheme(Avatar _avatar, address _scheme, string memory _descriptionHash)\n    public\n    returns(bytes32)\n    {\n        require(_scheme != address(0), \"scheme cannot be zero\");\n        bytes32 paramsHash = getParametersFromController(_avatar);\n        Parameters memory params = parameters[paramsHash];\n\n        IntVoteInterface intVote = params.intVote;\n        bytes32 proposalId = intVote.propose(2, params.voteRemoveParams, msg.sender, address(_avatar));\n        organizationsProposals[address(_avatar)][proposalId].scheme = _scheme;\n        emit RemoveSchemeProposal(address(_avatar), proposalId, address(intVote), _scheme, _descriptionHash);\n        proposalsInfo[address(params.intVote)][proposalId] = ProposalInfo({\n            blockNumber:block.number,\n            avatar:_avatar\n        });\n        return proposalId;\n    }\n}\n",
  "sourcePath": "/src/contracts/arc/universalSchemes/SchemeRegistrar.sol",
  "compiler": {
    "name": "solc",
    "version": "0.5.6+commit.b259423e.Emscripten.clang"
  },
  "schemaVersion": "3.0.14",
  "updatedAt": "2019-11-07T20:35:07.733Z",
  "devdoc": {
    "details": "The SchemeRegistrar is used for registering and unregistering schemes at organizations",
    "methods": {
      "executeProposal(bytes32,int256)": {
        "details": "execution of proposals, can only be called by the voting machine in which the vote is held.",
        "params": {
          "_param": "a parameter of the voting result, 1 yes and 2 is no.",
          "_proposalId": "the ID of the voting in the voting machine"
        }
      },
      "proposeScheme(address,address,bytes32,bytes4,string)": {
        "details": "create a proposal to register a schemeNB: not only proposes the vote, but also votes for it",
        "params": {
          "_avatar": "the address of the organization the scheme will be registered for",
          "_descriptionHash": "proposal's description hash",
          "_parametersHash": "a hash of the configuration of the _scheme",
          "_permissions": "the permission of the scheme to be registered",
          "_scheme": "the address of the scheme to be registered"
        },
        "return": "a proposal Id"
      },
      "proposeToRemoveScheme(address,address,string)": {
        "details": "propose to remove a scheme for a controller",
        "params": {
          "_avatar": "the address of the controller from which we want to remove a scheme",
          "_descriptionHash": "proposal description hash NB: not only registers the proposal, but also votes for it",
          "_scheme": "the address of the scheme we want to remove"
        }
      },
      "setParameters(bytes32,bytes32,address)": {
        "details": "hash the parameters, save them if necessary, and return the hash value"
      }
    },
    "title": "A registrar for Schemes for organizations"
  },
  "userdoc": {
    "methods": {}
  }
}