{
  "contractName": "SignalScheme",
  "abi": [
    {
      "constant": true,
      "inputs": [
        {
          "name": "",
          "type": "bytes32"
        }
      ],
      "name": "proposals",
      "outputs": [
        {
          "name": "descriptionHash",
          "type": "string"
        },
        {
          "name": "executed",
          "type": "bool"
        }
      ],
      "payable": false,
      "stateMutability": "view",
      "type": "function"
    },
    {
      "constant": true,
      "inputs": [
        {
          "name": "",
          "type": "address"
        },
        {
          "name": "",
          "type": "bytes32"
        }
      ],
      "name": "proposalsInfo",
      "outputs": [
        {
          "name": "blockNumber",
          "type": "uint256"
        },
        {
          "name": "avatar",
          "type": "address"
        }
      ],
      "payable": false,
      "stateMutability": "view",
      "type": "function"
    },
    {
      "constant": true,
      "inputs": [
        {
          "name": "_stakingToken",
          "type": "address"
        },
        {
          "name": "_proposalId",
          "type": "bytes32"
        }
      ],
      "name": "balanceOfStakingToken",
      "outputs": [
        {
          "name": "",
          "type": "uint256"
        }
      ],
      "payable": false,
      "stateMutability": "view",
      "type": "function"
    },
    {
      "constant": true,
      "inputs": [
        {
          "name": "_owner",
          "type": "address"
        },
        {
          "name": "_proposalId",
          "type": "bytes32"
        }
      ],
      "name": "reputationOf",
      "outputs": [
        {
          "name": "",
          "type": "uint256"
        }
      ],
      "payable": false,
      "stateMutability": "view",
      "type": "function"
    },
    {
      "constant": true,
      "inputs": [
        {
          "name": "_proposalId",
          "type": "bytes32"
        }
      ],
      "name": "getTotalReputationSupply",
      "outputs": [
        {
          "name": "",
          "type": "uint256"
        }
      ],
      "payable": false,
      "stateMutability": "view",
      "type": "function"
    },
    {
      "constant": false,
      "inputs": [
        {
          "name": "_stakingToken",
          "type": "address"
        },
        {
          "name": "_beneficiary",
          "type": "address"
        },
        {
          "name": "_amount",
          "type": "uint256"
        },
        {
          "name": "_proposalId",
          "type": "bytes32"
        }
      ],
      "name": "stakingTokenTransfer",
      "outputs": [
        {
          "name": "",
          "type": "bool"
        }
      ],
      "payable": false,
      "stateMutability": "nonpayable",
      "type": "function"
    },
    {
      "constant": true,
      "inputs": [],
      "name": "params",
      "outputs": [
        {
          "name": "voteApproveParams",
          "type": "bytes32"
        },
        {
          "name": "intVote",
          "type": "address"
        },
        {
          "name": "signalType",
          "type": "uint256"
        },
        {
          "name": "avatar",
          "type": "address"
        }
      ],
      "payable": false,
      "stateMutability": "view",
      "type": "function"
    },
    {
      "constant": false,
      "inputs": [
        {
          "name": "_amount",
          "type": "uint256"
        },
        {
          "name": "_beneficiary",
          "type": "address"
        },
        {
          "name": "_proposalId",
          "type": "bytes32"
        }
      ],
      "name": "mintReputation",
      "outputs": [
        {
          "name": "",
          "type": "bool"
        }
      ],
      "payable": false,
      "stateMutability": "nonpayable",
      "type": "function"
    },
    {
      "constant": false,
      "inputs": [
        {
          "name": "_amount",
          "type": "uint256"
        },
        {
          "name": "_beneficiary",
          "type": "address"
        },
        {
          "name": "_proposalId",
          "type": "bytes32"
        }
      ],
      "name": "burnReputation",
      "outputs": [
        {
          "name": "",
          "type": "bool"
        }
      ],
      "payable": false,
      "stateMutability": "nonpayable",
      "type": "function"
    },
    {
      "anonymous": false,
      "inputs": [
        {
          "indexed": true,
          "name": "_avatar",
          "type": "address"
        },
        {
          "indexed": true,
          "name": "_proposalId",
          "type": "bytes32"
        },
        {
          "indexed": true,
          "name": "_signalType",
          "type": "uint256"
        },
        {
          "indexed": false,
          "name": "_descriptionHash",
          "type": "string"
        }
      ],
      "name": "NewSignalProposal",
      "type": "event"
    },
    {
      "anonymous": false,
      "inputs": [
        {
          "indexed": true,
          "name": "_avatar",
          "type": "address"
        },
        {
          "indexed": true,
          "name": "_proposalId",
          "type": "bytes32"
        },
        {
          "indexed": true,
          "name": "_signalType",
          "type": "uint256"
        },
        {
          "indexed": false,
          "name": "_descriptionHash",
          "type": "string"
        }
      ],
      "name": "Signal",
      "type": "event"
    },
    {
      "constant": false,
      "inputs": [
        {
          "name": "_avatar",
          "type": "address"
        },
        {
          "name": "_signalType",
          "type": "uint256"
        },
        {
          "name": "_voteApproveParams",
          "type": "bytes32"
        },
        {
          "name": "_intVote",
          "type": "address"
        }
      ],
      "name": "initialize",
      "outputs": [],
      "payable": false,
      "stateMutability": "nonpayable",
      "type": "function"
    },
    {
      "constant": false,
      "inputs": [
        {
          "name": "_descriptionHash",
          "type": "string"
        }
      ],
      "name": "proposeSignal",
      "outputs": [
        {
          "name": "",
          "type": "bytes32"
        }
      ],
      "payable": false,
      "stateMutability": "nonpayable",
      "type": "function"
    },
    {
      "constant": false,
      "inputs": [
        {
          "name": "_proposalId",
          "type": "bytes32"
        },
        {
          "name": "_param",
          "type": "int256"
        }
      ],
      "name": "executeProposal",
      "outputs": [
        {
          "name": "",
          "type": "bool"
        }
      ],
      "payable": false,
      "stateMutability": "nonpayable",
      "type": "function"
    }
  ],
  "bytecode": "0x608060405234801561001057600080fd5b506112fc806100206000396000f3fe608060405234801561001057600080fd5b50600436106100b45760003560e01c80639d4c162d116100715780639d4c162d146102bc578063b551c373146102f3578063bea75f2814610310578063cff0ab961461034c578063d29b5d2f14610385578063f81f8bf6146103b7576100b4565b8063294e8d0e146100b957806332ed5b12146100f557806360bdbb3f146101955780636b8eb403146101e257806385434788146102205780639588378e14610290575b600080fd5b6100f3600480360360808110156100cf57600080fd5b506001600160a01b03813581169160208101359160408201359160600135166103e9565b005b6101126004803603602081101561010b57600080fd5b5035610508565b604051808060200183151515158152602001828103825284818151815260200191508051906020019080838360005b83811015610159578181015183820152602001610141565b50505050905090810190601f1680156101865780820380516001836020036101000a031916815260200191505b50935050505060405180910390f35b6101c1600480360360408110156101ab57600080fd5b506001600160a01b0381351690602001356105ad565b604080519283526001600160a01b0390911660208301528051918290030190f35b61020e600480360360408110156101f857600080fd5b506001600160a01b0381351690602001356105d7565b60408051918252519081900360200190f35b61020e6004803603602081101561023657600080fd5b81019060208101813564010000000081111561025157600080fd5b82018360208201111561026357600080fd5b8035906020019184600183028401116401000000008311171561028557600080fd5b509092509050610697565b61020e600480360360408110156102a657600080fd5b506001600160a01b03813516906020013561096e565b6102df600480360360408110156102d257600080fd5b5080359060200135610a7f565b604080519115158252519081900360200190f35b61020e6004803603602081101561030957600080fd5b5035610c0e565b6102df6004803603608081101561032657600080fd5b506001600160a01b03813581169160208101359091169060408101359060600135610d4b565b610354610ef6565b604080519485526001600160a01b039384166020860152848101929092529091166060830152519081900360800190f35b6102df6004803603606081101561039b57600080fd5b508035906001600160a01b036020820135169060400135610f12565b6102df600480360360608110156103cd57600080fd5b508035906001600160a01b0360208201351690604001356110b4565b6005546001600160a01b03161561044a5760408051600160e51b62461bcd02815260206004820152601b60248201527f63616e2062652063616c6c6564206f6e6c79206f6e652074696d650000000000604482015290519081900360640190fd5b6001600160a01b0384166104a85760408051600160e51b62461bcd02815260206004820152601560248201527f6176617461722063616e6e6f74206265207a65726f0000000000000000000000604482015290519081900360640190fd5b604080516080810182528381526001600160a01b0392831660208201819052918101859052949091166060909401849052600291909155600380546001600160a01b03199081169092179055600491909155600580549091169091179055565b60016020818152600092835260409283902080548451600294821615610100026000190190911693909304601f810183900483028401830190945283835292839183018282801561059a5780601f1061056f5761010080835404028352916020019161059a565b820191906000526020600020905b81548152906001019060200180831161057d57829003601f168201915b5050506001909301549192505060ff1682565b6000602081815292815260408082209093529081522080546001909101546001600160a01b031682565b336000908152602081815260408083208484529091528120600101546001600160a01b03168061060b576000915050610691565b836001600160a01b03166370a08231826040518263ffffffff1660e01b815260040180826001600160a01b03166001600160a01b0316815260200191505060206040518083038186803b15801561066157600080fd5b505afa158015610675573d6000803e3d6000fd5b505050506040513d602081101561068b57600080fd5b50519150505b92915050565b60055460408051600160e01b638da5cb5b02815290516000926001600160a01b031691638da5cb5b916004808301926020929190829003018186803b1580156106df57600080fd5b505afa1580156106f3573d6000803e3d6000fd5b505050506040513d602081101561070957600080fd5b505160055460408051600160e01b639be2faed0281523060048201526001600160a01b03928316602482015290519190921691639be2faed916044808301926020929190829003018186803b15801561076157600080fd5b505afa158015610775573d6000803e3d6000fd5b505050506040513d602081101561078b57600080fd5b50516107e15760408051600160e51b62461bcd02815260206004820152601860248201527f736368656d65206973206e6f7420726567697374657265640000000000000000604482015290519081900360640190fd5b6003546002805460055460408051600160e11b634439bdaf028152600481019490945260248401929092523360448401526001600160a01b039081166064840152905160009391909116916388737b5e91608480830192602092919082900301818787803b15801561085257600080fd5b505af1158015610866573d6000803e3d6000fd5b505050506040513d602081101561087c57600080fd5b5051600081815260016020526040902090915061089a90858561121e565b50600454600554604080516020808252810187905284926001600160a01b0316917f940af78fa85d990be5623aeca8b988922784c8c782b1c2c2fb416d83c05547fb91899189919081908101848480828437600083820152604051601f909101601f19169092018290039550909350505050a46040805180820182524381526005546001600160a01b0390811660208084019182526003548316600090815280825285812087825290915293909320915182559151600190910180546001600160a01b031916919092161790559392505050565b600061097861129c565b5033600090815260208181526040808320858452825291829020825180840190935280548352600101546001600160a01b03169082018190526109bf576000915050610691565b80602001516001600160a01b03166389ae1c906040518163ffffffff1660e01b815260040160206040518083038186803b1580156109fc57600080fd5b505afa158015610a10573d6000803e3d6000fd5b505050506040513d6020811015610a2657600080fd5b5051815160408051600160e11b63277166bf0281526001600160a01b038881166004830152602482019390935290519190921691634ee2cd7e916044808301926020929190829003018186803b15801561066157600080fd5b3360009081526020818152604080832085845290915281206001015483906001600160a01b0316610af25760408051600160e51b62461bcd0281526020600482015260126024820152600160701b716f6e6c7920566f74696e674d616368696e6502604482015290519081900360640190fd5b6000848152600160208190526040909120015460ff1615610b1257600080fd5b60008481526001602081905260409091208101805460ff191682179055831415610c0457600454600554600086815260016020818152604092839020835182815281546002600019958216156101000295909501169390930491830182905289946001600160a01b0316937fefc186437cd31fb390ee7bfa83473db0ede42b31121c466bb7afb8b3f665ca98939192829182019084908015610bf55780601f10610bca57610100808354040283529160200191610bf5565b820191906000526020600020905b815481529060010190602001808311610bd857829003601f168201915b50509250505060405180910390a45b5060019392505050565b6000610c1861129c565b5033600090815260208181526040808320858452825291829020825180840190935280548352600101546001600160a01b0316908201819052610c5f576000915050610d46565b80602001516001600160a01b03166389ae1c906040518163ffffffff1660e01b815260040160206040518083038186803b158015610c9c57600080fd5b505afa158015610cb0573d6000803e3d6000fd5b505050506040513d6020811015610cc657600080fd5b5051815160408051600160e41b630981b24d0281526004810192909252516001600160a01b039092169163981b24d091602480820192602092909190829003018186803b158015610d1657600080fd5b505afa158015610d2a573d6000803e3d6000fd5b505050506040513d6020811015610d4057600080fd5b50519150505b919050565b3360009081526020818152604080832084845290915281206001015482906001600160a01b0316610dbe5760408051600160e51b62461bcd0281526020600482015260126024820152600160701b716f6e6c7920566f74696e674d616368696e6502604482015290519081900360640190fd5b336000908152602081815260408083208684529091529020600101546001600160a01b031680610df2576000925050610eed565b806001600160a01b0316638da5cb5b6040518163ffffffff1660e01b815260040160206040518083038186803b158015610e2b57600080fd5b505afa158015610e3f573d6000803e3d6000fd5b505050506040513d6020811015610e5557600080fd5b505160408051600160e01b63b9a04cdd0281526001600160a01b038a8116600483015289811660248301526044820189905284811660648301529151919092169163b9a04cdd9160848083019260209291908290030181600087803b158015610ebd57600080fd5b505af1158015610ed1573d6000803e3d6000fd5b505050506040513d6020811015610ee757600080fd5b50519250505b50949350505050565b6002546003546004546005546001600160a01b03928316921684565b3360009081526020818152604080832084845290915281206001015482906001600160a01b0316610f855760408051600160e51b62461bcd0281526020600482015260126024820152600160701b716f6e6c7920566f74696e674d616368696e6502604482015290519081900360640190fd5b336000908152602081815260408083208684529091529020600101546001600160a01b031680610fb95760009250506110ac565b806001600160a01b0316638da5cb5b6040518163ffffffff1660e01b815260040160206040518083038186803b158015610ff257600080fd5b505afa158015611006573d6000803e3d6000fd5b505050506040513d602081101561101c57600080fd5b505160408051600160e11b63757cca59028152600481018990526001600160a01b03888116602483015284811660448301529151919092169163eaf994b29160648083019260209291908290030181600087803b15801561107c57600080fd5b505af1158015611090573d6000803e3d6000fd5b505050506040513d60208110156110a657600080fd5b50519250505b509392505050565b3360009081526020818152604080832084845290915281206001015482906001600160a01b03166111275760408051600160e51b62461bcd0281526020600482015260126024820152600160701b716f6e6c7920566f74696e674d616368696e6502604482015290519081900360640190fd5b336000908152602081815260408083208684529091529020600101546001600160a01b03168061115b5760009250506110ac565b806001600160a01b0316638da5cb5b6040518163ffffffff1660e01b815260040160206040518083038186803b15801561119457600080fd5b505afa1580156111a8573d6000803e3d6000fd5b505050506040513d60208110156111be57600080fd5b505160408051600160e31b630dd29a4f028152600481018990526001600160a01b038881166024830152848116604483015291519190921691636e94d2789160648083019260209291908290030181600087803b15801561107c57600080fd5b828054600181600116156101000203166002900490600052602060002090601f016020900481019282601f1061125f5782800160ff1982351617855561128c565b8280016001018555821561128c579182015b8281111561128c578235825591602001919060010190611271565b506112989291506112b3565b5090565b604080518082019091526000808252602082015290565b6112cd91905b8082111561129857600081556001016112b9565b9056fea165627a7a723058204b2f71ed09078114d2844a0e4ec9cbb81b25853fcfd64b97f3236ec6743a7dac0029",
  "source": "pragma solidity ^0.5.4;\n\nimport \"@daostack/infra/contracts/votingMachines/IntVoteInterface.sol\";\nimport \"@daostack/infra/contracts/votingMachines/VotingMachineCallbacksInterface.sol\";\nimport \"../votingMachines/VotingMachineCallbacks.sol\";\nimport \"../controller/Avatar.sol\";\n\n\n/**\n * @title A scheme for proposing a signal on behalkf of the daoCreator\n */\n\ncontract SignalScheme is VotingMachineCallbacks, ProposalExecuteInterface {\n\n    event NewSignalProposal(\n        address indexed _avatar,\n        bytes32 indexed _proposalId,\n        uint256 indexed _signalType,\n        string _descriptionHash\n    );\n\n    event Signal(\n        address indexed _avatar,\n        bytes32 indexed _proposalId,\n        uint256 indexed _signalType,\n        string _descriptionHash\n    );\n\n    struct Proposal {\n        string descriptionHash;\n        bool executed;\n    }\n\n    struct Parameters {\n        bytes32 voteApproveParams;\n        IntVoteInterface intVote;\n        uint256 signalType;\n        Avatar avatar;\n    }\n\n    mapping(bytes32  =>  Proposal) public proposals;\n\n    Parameters public params;\n\n    /**\n     * @dev initialize\n     * @param  _avatar the scheme avatar\n     * @param _signalType - signal types\n     * @param _voteApproveParams voting machine params\n     * @param _intVote  voting machine address\n     */\n    function initialize(Avatar _avatar,\n                        uint256 _signalType,\n                        bytes32 _voteApproveParams,\n                        IntVoteInterface _intVote)\n    external {\n        require(params.avatar == Avatar(0), \"can be called only one time\");\n        require(_avatar != Avatar(0), \"avatar cannot be zero\");\n        params = Parameters({\n            voteApproveParams: _voteApproveParams,\n            signalType: _signalType,\n            intVote: _intVote,\n            avatar: _avatar\n        });\n    }\n\n    /**\n    * @dev Submit a proposal for a dao signal\n    * @param _descriptionHash A hash of the proposal's description\n    */\n    function proposeSignal(\n        string calldata _descriptionHash\n    )\n    external\n    returns(bytes32)\n    {\n        require(ControllerInterface(params.avatar.owner()).isSchemeRegistered(address(this), address(params.avatar)),\n        \"scheme is not registered\");\n\n        bytes32 proposalId = params.intVote.propose(\n        2,\n        params.voteApproveParams,\n        msg.sender,\n        address(params.avatar)\n        );\n\n        proposals[proposalId].descriptionHash = _descriptionHash;\n\n        emit NewSignalProposal(\n            address(params.avatar),\n            proposalId,\n            params.signalType,\n            _descriptionHash\n        );\n\n        proposalsInfo[address(params.intVote)][proposalId] = ProposalInfo({\n            blockNumber:block.number,\n            avatar:params.avatar\n        });\n        return proposalId;\n    }\n\n    /**\n    * @dev execution of proposals, can only be called by the voting machine in which the vote is held.\n    * @param _proposalId the ID of the voting in the voting machine\n    * @param _param a parameter of the voting result, 1 yes and 2 is no.\n    */\n    function executeProposal(bytes32 _proposalId, int256 _param) external onlyVotingMachine(_proposalId) returns(bool) {\n        require(!proposals[_proposalId].executed);\n        proposals[_proposalId].executed = true;\n        // Check if vote was successful:\n        if (_param == 1) {\n            emit Signal(address(params.avatar),\n                        _proposalId,\n                        params.signalType,\n                        proposals[_proposalId].descriptionHash);\n        }\n        return true;\n    }\n}\n",
  "sourcePath": "/src/contracts/arc/schemes/SignalScheme.sol",
  "compiler": {
    "name": "solc",
    "version": "0.5.6+commit.b259423e.Emscripten.clang"
  },
  "schemaVersion": "3.0.14",
  "updatedAt": "2019-11-07T20:35:01.441Z",
  "devdoc": {
    "methods": {
      "executeProposal(bytes32,int256)": {
        "details": "execution of proposals, can only be called by the voting machine in which the vote is held.",
        "params": {
          "_param": "a parameter of the voting result, 1 yes and 2 is no.",
          "_proposalId": "the ID of the voting in the voting machine"
        }
      },
      "initialize(address,uint256,bytes32,address)": {
        "details": "initialize",
        "params": {
          "_avatar": "the scheme avatar",
          "_intVote": "voting machine address",
          "_signalType": "- signal types",
          "_voteApproveParams": "voting machine params"
        }
      },
      "proposeSignal(string)": {
        "details": "Submit a proposal for a dao signal",
        "params": {
          "_descriptionHash": "A hash of the proposal's description"
        }
      }
    },
    "title": "A scheme for proposing a signal on behalkf of the daoCreator"
  },
  "userdoc": {
    "methods": {}
  }
}