{
  "contractName": "TokenCapGC",
  "abi": [
    {
      "constant": true,
      "inputs": [
        {
          "name": "",
          "type": "bytes32"
        }
      ],
      "name": "parameters",
      "outputs": [
        {
          "name": "token",
          "type": "address"
        },
        {
          "name": "cap",
          "type": "uint256"
        }
      ],
      "payable": false,
      "stateMutability": "view",
      "type": "function"
    },
    {
      "constant": false,
      "inputs": [
        {
          "name": "_token",
          "type": "address"
        },
        {
          "name": "_cap",
          "type": "uint256"
        }
      ],
      "name": "setParameters",
      "outputs": [
        {
          "name": "",
          "type": "bytes32"
        }
      ],
      "payable": false,
      "stateMutability": "nonpayable",
      "type": "function"
    },
    {
      "constant": true,
      "inputs": [
        {
          "name": "_token",
          "type": "address"
        },
        {
          "name": "_cap",
          "type": "uint256"
        }
      ],
      "name": "getParametersHash",
      "outputs": [
        {
          "name": "",
          "type": "bytes32"
        }
      ],
      "payable": false,
      "stateMutability": "pure",
      "type": "function"
    },
    {
      "constant": true,
      "inputs": [
        {
          "name": "",
          "type": "address"
        },
        {
          "name": "",
          "type": "bytes32"
        },
        {
          "name": "",
          "type": "bytes32"
        }
      ],
      "name": "pre",
      "outputs": [
        {
          "name": "",
          "type": "bool"
        }
      ],
      "payable": false,
      "stateMutability": "pure",
      "type": "function"
    },
    {
      "constant": true,
      "inputs": [
        {
          "name": "",
          "type": "address"
        },
        {
          "name": "_paramsHash",
          "type": "bytes32"
        },
        {
          "name": "",
          "type": "bytes32"
        }
      ],
      "name": "post",
      "outputs": [
        {
          "name": "",
          "type": "bool"
        }
      ],
      "payable": false,
      "stateMutability": "view",
      "type": "function"
    },
    {
      "constant": true,
      "inputs": [],
      "name": "when",
      "outputs": [
        {
          "name": "",
          "type": "uint8"
        }
      ],
      "payable": false,
      "stateMutability": "pure",
      "type": "function"
    }
  ],
  "bytecode": "0x608060405234801561001057600080fd5b50610354806100206000396000f3fe608060405234801561001057600080fd5b50600436106100625760003560e01c8063025068041461006757806378fc063c146100a75780638043154d146100e5578063c1786ab21461012b578063c41981611461015d578063e2b0caef14610189575b600080fd5b6100846004803603602081101561007d57600080fd5b50356101b5565b604080516001600160a01b03909316835260208301919091528051918290030190f35b6100d3600480360360408110156100bd57600080fd5b506001600160a01b0381351690602001356101da565b60408051918252519081900360200190f35b610117600480360360608110156100fb57600080fd5b506001600160a01b038135169060208101359060400135610218565b604080519115158252519081900360200190f35b6101176004803603606081101561014157600080fd5b506001600160a01b0381351690602081013590604001356102d5565b6100d36004803603604081101561017357600080fd5b506001600160a01b0381351690602001356102de565b610191610323565b604051808260028111156101a157fe5b60ff16815260200191505060405180910390f35b600060208190529081526040902080546001909101546001600160a01b039091169082565b604080516001600160a01b039390931660601b6020808501919091526034808501939093528151808503909301835260549093019052805191012090565b6000828152602081905260408120546001600160a01b0316158015906102bd575060008381526020818152604091829020600181015490548351600160e01b6318160ddd028152935191936001600160a01b03909116926318160ddd92600480840193829003018186803b15801561028f57600080fd5b505afa1580156102a3573d6000803e3d6000fd5b505050506040513d60208110156102b957600080fd5b5051115b156102ca575060006102ce565b5060015b9392505050565b60019392505050565b6000806102eb84846101da565b600081815260208190526040902080546001600160a01b0387166001600160a01b031990911617815560010184905591505092915050565b60019056fea165627a7a72305820351e99ac7011578fd5c05455e6e1c26732af691e729524c54e41c183a4da5c200029",
  "source": "pragma solidity ^0.5.4;\n\nimport \"openzeppelin-solidity/contracts/token/ERC20/IERC20.sol\";\nimport \"./GlobalConstraintInterface.sol\";\n\n\n/**\n * @title Token Cap Global Constraint\n * @dev A simple global constraint to cap the number of tokens.\n */\n\ncontract TokenCapGC {\n    // A set of parameters, on which the cap will be checked:\n    struct Parameters {\n        IERC20 token;\n        uint256 cap;\n    }\n\n    // Mapping from the hash of the parameters to the parameters themselves:\n    mapping (bytes32=>Parameters) public parameters;\n\n    /**\n     * @dev adding a new set of parameters\n     * @param  _token the token to add to the params.\n     * @param _cap the cap to check the total supply against.\n     * @return the calculated parameters hash\n     */\n    function setParameters(IERC20 _token, uint256 _cap) public returns(bytes32) {\n        bytes32 paramsHash = getParametersHash(_token, _cap);\n        parameters[paramsHash].token = _token;\n        parameters[paramsHash].cap = _cap;\n        return paramsHash;\n    }\n\n    /**\n     * @dev calculate and returns the hash of the given parameters\n     * @param  _token the token to add to the params.\n     * @param _cap the cap to check the total supply against.\n     * @return the calculated parameters hash\n     */\n    function getParametersHash(IERC20 _token, uint256 _cap) public pure returns(bytes32) {\n        return (keccak256(abi.encodePacked(_token, _cap)));\n    }\n\n    /**\n     * @dev check the constraint after the action.\n     * This global constraint only checks the state after the action, so here we just return true:\n     * @return true\n     */\n    function pre(address, bytes32, bytes32) public pure returns(bool) {\n        return true;\n    }\n\n    /**\n     * @dev check the total supply cap.\n     * @param  _paramsHash the parameters hash to check the total supply cap against.\n     * @return bool which represents a success\n     */\n    function post(address, bytes32 _paramsHash, bytes32) public view returns(bool) {\n        if ((parameters[_paramsHash].token != IERC20(0)) &&\n            (parameters[_paramsHash].token.totalSupply() > parameters[_paramsHash].cap)) {\n            return false;\n        }\n        return true;\n    }\n\n    /**\n     * @dev when return if this globalConstraints is pre, post or both.\n     * @return CallPhase enum indication  Pre, Post or PreAndPost.\n     */\n    function when() public pure returns(GlobalConstraintInterface.CallPhase) {\n        return GlobalConstraintInterface.CallPhase.Post;\n    }\n}\n",
  "sourcePath": "/src/contracts/arc/globalConstraints/TokenCapGC.sol",
  "compiler": {
    "name": "solc",
    "version": "0.5.6+commit.b259423e.Emscripten.clang"
  },
  "schemaVersion": "3.0.14",
  "updatedAt": "2019-10-27T20:10:40.532Z",
  "devdoc": {
    "details": "A simple global constraint to cap the number of tokens.",
    "methods": {
      "getParametersHash(address,uint256)": {
        "details": "calculate and returns the hash of the given parameters",
        "params": {
          "_cap": "the cap to check the total supply against.",
          "_token": "the token to add to the params."
        },
        "return": "the calculated parameters hash"
      },
      "post(address,bytes32,bytes32)": {
        "details": "check the total supply cap.",
        "params": {
          "_paramsHash": "the parameters hash to check the total supply cap against."
        },
        "return": "bool which represents a success"
      },
      "pre(address,bytes32,bytes32)": {
        "details": "check the constraint after the action. This global constraint only checks the state after the action, so here we just return true:",
        "return": "true"
      },
      "setParameters(address,uint256)": {
        "details": "adding a new set of parameters",
        "params": {
          "_cap": "the cap to check the total supply against.",
          "_token": "the token to add to the params."
        },
        "return": "the calculated parameters hash"
      },
      "when()": {
        "details": "when return if this globalConstraints is pre, post or both.",
        "return": "CallPhase enum indication  Pre, Post or PreAndPost."
      }
    },
    "title": "Token Cap Global Constraint"
  },
  "userdoc": {
    "methods": {}
  }
}