{
  "contractName": "UController",
  "abi": [
    {
      "constant": true,
      "inputs": [
        {
          "name": "",
          "type": "address"
        }
      ],
      "name": "newControllers",
      "outputs": [
        {
          "name": "",
          "type": "address"
        }
      ],
      "payable": false,
      "stateMutability": "view",
      "type": "function"
    },
    {
      "constant": true,
      "inputs": [
        {
          "name": "",
          "type": "address"
        }
      ],
      "name": "organizations",
      "outputs": [
        {
          "name": "nativeToken",
          "type": "address"
        },
        {
          "name": "nativeReputation",
          "type": "address"
        }
      ],
      "payable": false,
      "stateMutability": "view",
      "type": "function"
    },
    {
      "constant": true,
      "inputs": [
        {
          "name": "",
          "type": "address"
        }
      ],
      "name": "actors",
      "outputs": [
        {
          "name": "",
          "type": "bool"
        }
      ],
      "payable": false,
      "stateMutability": "view",
      "type": "function"
    },
    {
      "anonymous": false,
      "inputs": [
        {
          "indexed": true,
          "name": "_sender",
          "type": "address"
        },
        {
          "indexed": true,
          "name": "_to",
          "type": "address"
        },
        {
          "indexed": false,
          "name": "_amount",
          "type": "uint256"
        },
        {
          "indexed": true,
          "name": "_avatar",
          "type": "address"
        }
      ],
      "name": "MintReputation",
      "type": "event"
    },
    {
      "anonymous": false,
      "inputs": [
        {
          "indexed": true,
          "name": "_sender",
          "type": "address"
        },
        {
          "indexed": true,
          "name": "_from",
          "type": "address"
        },
        {
          "indexed": false,
          "name": "_amount",
          "type": "uint256"
        },
        {
          "indexed": true,
          "name": "_avatar",
          "type": "address"
        }
      ],
      "name": "BurnReputation",
      "type": "event"
    },
    {
      "anonymous": false,
      "inputs": [
        {
          "indexed": true,
          "name": "_sender",
          "type": "address"
        },
        {
          "indexed": true,
          "name": "_beneficiary",
          "type": "address"
        },
        {
          "indexed": false,
          "name": "_amount",
          "type": "uint256"
        },
        {
          "indexed": true,
          "name": "_avatar",
          "type": "address"
        }
      ],
      "name": "MintTokens",
      "type": "event"
    },
    {
      "anonymous": false,
      "inputs": [
        {
          "indexed": true,
          "name": "_sender",
          "type": "address"
        },
        {
          "indexed": true,
          "name": "_scheme",
          "type": "address"
        },
        {
          "indexed": true,
          "name": "_avatar",
          "type": "address"
        }
      ],
      "name": "RegisterScheme",
      "type": "event"
    },
    {
      "anonymous": false,
      "inputs": [
        {
          "indexed": true,
          "name": "_sender",
          "type": "address"
        },
        {
          "indexed": true,
          "name": "_scheme",
          "type": "address"
        },
        {
          "indexed": true,
          "name": "_avatar",
          "type": "address"
        }
      ],
      "name": "UnregisterScheme",
      "type": "event"
    },
    {
      "anonymous": false,
      "inputs": [
        {
          "indexed": true,
          "name": "_oldController",
          "type": "address"
        },
        {
          "indexed": false,
          "name": "_newController",
          "type": "address"
        },
        {
          "indexed": false,
          "name": "_avatar",
          "type": "address"
        }
      ],
      "name": "UpgradeController",
      "type": "event"
    },
    {
      "anonymous": false,
      "inputs": [
        {
          "indexed": true,
          "name": "_globalConstraint",
          "type": "address"
        },
        {
          "indexed": false,
          "name": "_params",
          "type": "bytes32"
        },
        {
          "indexed": false,
          "name": "_when",
          "type": "uint8"
        },
        {
          "indexed": true,
          "name": "_avatar",
          "type": "address"
        }
      ],
      "name": "AddGlobalConstraint",
      "type": "event"
    },
    {
      "anonymous": false,
      "inputs": [
        {
          "indexed": true,
          "name": "_globalConstraint",
          "type": "address"
        },
        {
          "indexed": false,
          "name": "_index",
          "type": "uint256"
        },
        {
          "indexed": false,
          "name": "_isPre",
          "type": "bool"
        },
        {
          "indexed": true,
          "name": "_avatar",
          "type": "address"
        }
      ],
      "name": "RemoveGlobalConstraint",
      "type": "event"
    },
    {
      "constant": false,
      "inputs": [
        {
          "name": "_avatar",
          "type": "address"
        }
      ],
      "name": "newOrganization",
      "outputs": [],
      "payable": false,
      "stateMutability": "nonpayable",
      "type": "function"
    },
    {
      "constant": false,
      "inputs": [
        {
          "name": "_amount",
          "type": "uint256"
        },
        {
          "name": "_to",
          "type": "address"
        },
        {
          "name": "_avatar",
          "type": "address"
        }
      ],
      "name": "mintReputation",
      "outputs": [
        {
          "name": "",
          "type": "bool"
        }
      ],
      "payable": false,
      "stateMutability": "nonpayable",
      "type": "function"
    },
    {
      "constant": false,
      "inputs": [
        {
          "name": "_amount",
          "type": "uint256"
        },
        {
          "name": "_from",
          "type": "address"
        },
        {
          "name": "_avatar",
          "type": "address"
        }
      ],
      "name": "burnReputation",
      "outputs": [
        {
          "name": "",
          "type": "bool"
        }
      ],
      "payable": false,
      "stateMutability": "nonpayable",
      "type": "function"
    },
    {
      "constant": false,
      "inputs": [
        {
          "name": "_amount",
          "type": "uint256"
        },
        {
          "name": "_beneficiary",
          "type": "address"
        },
        {
          "name": "_avatar",
          "type": "address"
        }
      ],
      "name": "mintTokens",
      "outputs": [
        {
          "name": "",
          "type": "bool"
        }
      ],
      "payable": false,
      "stateMutability": "nonpayable",
      "type": "function"
    },
    {
      "constant": false,
      "inputs": [
        {
          "name": "_scheme",
          "type": "address"
        },
        {
          "name": "_paramsHash",
          "type": "bytes32"
        },
        {
          "name": "_permissions",
          "type": "bytes4"
        },
        {
          "name": "_avatar",
          "type": "address"
        }
      ],
      "name": "registerScheme",
      "outputs": [
        {
          "name": "",
          "type": "bool"
        }
      ],
      "payable": false,
      "stateMutability": "nonpayable",
      "type": "function"
    },
    {
      "constant": false,
      "inputs": [
        {
          "name": "_scheme",
          "type": "address"
        },
        {
          "name": "_avatar",
          "type": "address"
        }
      ],
      "name": "unregisterScheme",
      "outputs": [
        {
          "name": "",
          "type": "bool"
        }
      ],
      "payable": false,
      "stateMutability": "nonpayable",
      "type": "function"
    },
    {
      "constant": false,
      "inputs": [
        {
          "name": "_avatar",
          "type": "address"
        }
      ],
      "name": "unregisterSelf",
      "outputs": [
        {
          "name": "",
          "type": "bool"
        }
      ],
      "payable": false,
      "stateMutability": "nonpayable",
      "type": "function"
    },
    {
      "constant": false,
      "inputs": [
        {
          "name": "_globalConstraint",
          "type": "address"
        },
        {
          "name": "_params",
          "type": "bytes32"
        },
        {
          "name": "_avatar",
          "type": "address"
        }
      ],
      "name": "addGlobalConstraint",
      "outputs": [
        {
          "name": "",
          "type": "bool"
        }
      ],
      "payable": false,
      "stateMutability": "nonpayable",
      "type": "function"
    },
    {
      "constant": false,
      "inputs": [
        {
          "name": "_globalConstraint",
          "type": "address"
        },
        {
          "name": "_avatar",
          "type": "address"
        }
      ],
      "name": "removeGlobalConstraint",
      "outputs": [
        {
          "name": "",
          "type": "bool"
        }
      ],
      "payable": false,
      "stateMutability": "nonpayable",
      "type": "function"
    },
    {
      "constant": false,
      "inputs": [
        {
          "name": "_newController",
          "type": "address"
        },
        {
          "name": "_avatar",
          "type": "address"
        }
      ],
      "name": "upgradeController",
      "outputs": [
        {
          "name": "",
          "type": "bool"
        }
      ],
      "payable": false,
      "stateMutability": "nonpayable",
      "type": "function"
    },
    {
      "constant": false,
      "inputs": [
        {
          "name": "_contract",
          "type": "address"
        },
        {
          "name": "_data",
          "type": "bytes"
        },
        {
          "name": "_avatar",
          "type": "address"
        },
        {
          "name": "_value",
          "type": "uint256"
        }
      ],
      "name": "genericCall",
      "outputs": [
        {
          "name": "",
          "type": "bool"
        },
        {
          "name": "",
          "type": "bytes"
        }
      ],
      "payable": false,
      "stateMutability": "nonpayable",
      "type": "function"
    },
    {
      "constant": false,
      "inputs": [
        {
          "name": "_amountInWei",
          "type": "uint256"
        },
        {
          "name": "_to",
          "type": "address"
        },
        {
          "name": "_avatar",
          "type": "address"
        }
      ],
      "name": "sendEther",
      "outputs": [
        {
          "name": "",
          "type": "bool"
        }
      ],
      "payable": false,
      "stateMutability": "nonpayable",
      "type": "function"
    },
    {
      "constant": false,
      "inputs": [
        {
          "name": "_externalToken",
          "type": "address"
        },
        {
          "name": "_to",
          "type": "address"
        },
        {
          "name": "_value",
          "type": "uint256"
        },
        {
          "name": "_avatar",
          "type": "address"
        }
      ],
      "name": "externalTokenTransfer",
      "outputs": [
        {
          "name": "",
          "type": "bool"
        }
      ],
      "payable": false,
      "stateMutability": "nonpayable",
      "type": "function"
    },
    {
      "constant": false,
      "inputs": [
        {
          "name": "_externalToken",
          "type": "address"
        },
        {
          "name": "_from",
          "type": "address"
        },
        {
          "name": "_to",
          "type": "address"
        },
        {
          "name": "_value",
          "type": "uint256"
        },
        {
          "name": "_avatar",
          "type": "address"
        }
      ],
      "name": "externalTokenTransferFrom",
      "outputs": [
        {
          "name": "",
          "type": "bool"
        }
      ],
      "payable": false,
      "stateMutability": "nonpayable",
      "type": "function"
    },
    {
      "constant": false,
      "inputs": [
        {
          "name": "_externalToken",
          "type": "address"
        },
        {
          "name": "_spender",
          "type": "address"
        },
        {
          "name": "_value",
          "type": "uint256"
        },
        {
          "name": "_avatar",
          "type": "address"
        }
      ],
      "name": "externalTokenApproval",
      "outputs": [
        {
          "name": "",
          "type": "bool"
        }
      ],
      "payable": false,
      "stateMutability": "nonpayable",
      "type": "function"
    },
    {
      "constant": false,
      "inputs": [
        {
          "name": "_metaData",
          "type": "string"
        },
        {
          "name": "_avatar",
          "type": "address"
        }
      ],
      "name": "metaData",
      "outputs": [
        {
          "name": "",
          "type": "bool"
        }
      ],
      "payable": false,
      "stateMutability": "nonpayable",
      "type": "function"
    },
    {
      "constant": true,
      "inputs": [
        {
          "name": "_scheme",
          "type": "address"
        },
        {
          "name": "_avatar",
          "type": "address"
        }
      ],
      "name": "isSchemeRegistered",
      "outputs": [
        {
          "name": "",
          "type": "bool"
        }
      ],
      "payable": false,
      "stateMutability": "view",
      "type": "function"
    },
    {
      "constant": true,
      "inputs": [
        {
          "name": "_scheme",
          "type": "address"
        },
        {
          "name": "_avatar",
          "type": "address"
        }
      ],
      "name": "getSchemeParameters",
      "outputs": [
        {
          "name": "",
          "type": "bytes32"
        }
      ],
      "payable": false,
      "stateMutability": "view",
      "type": "function"
    },
    {
      "constant": true,
      "inputs": [
        {
          "name": "_scheme",
          "type": "address"
        },
        {
          "name": "_avatar",
          "type": "address"
        }
      ],
      "name": "getSchemePermissions",
      "outputs": [
        {
          "name": "",
          "type": "bytes4"
        }
      ],
      "payable": false,
      "stateMutability": "view",
      "type": "function"
    },
    {
      "constant": true,
      "inputs": [
        {
          "name": "_globalConstraint",
          "type": "address"
        },
        {
          "name": "_avatar",
          "type": "address"
        }
      ],
      "name": "getGlobalConstraintParameters",
      "outputs": [
        {
          "name": "",
          "type": "bytes32"
        }
      ],
      "payable": false,
      "stateMutability": "view",
      "type": "function"
    },
    {
      "constant": true,
      "inputs": [
        {
          "name": "_avatar",
          "type": "address"
        }
      ],
      "name": "globalConstraintsCount",
      "outputs": [
        {
          "name": "",
          "type": "uint256"
        },
        {
          "name": "",
          "type": "uint256"
        }
      ],
      "payable": false,
      "stateMutability": "view",
      "type": "function"
    },
    {
      "constant": true,
      "inputs": [
        {
          "name": "_globalConstraint",
          "type": "address"
        },
        {
          "name": "_avatar",
          "type": "address"
        }
      ],
      "name": "isGlobalConstraintRegistered",
      "outputs": [
        {
          "name": "",
          "type": "bool"
        }
      ],
      "payable": false,
      "stateMutability": "view",
      "type": "function"
    },
    {
      "constant": true,
      "inputs": [
        {
          "name": "_avatar",
          "type": "address"
        }
      ],
      "name": "getNativeReputation",
      "outputs": [
        {
          "name": "",
          "type": "address"
        }
      ],
      "payable": false,
      "stateMutability": "view",
      "type": "function"
    }
  ],
  "bytecode": "0x608060405234801561001057600080fd5b50614801806100206000396000f3fe608060405234801561001057600080fd5b506004361061018e5760003560e01c80639b51e35a116100de578063e08738da11610097578063eaa66a3c11610071578063eaa66a3c14610772578063eaf994b214610798578063f76488be146107cc578063fb4856a2146107fa5761018e565b8063e08738da146106ca578063e4537a74146106f8578063e869d45f1461072e5761018e565b80639b51e35a146104625780639be2faed146104ad578063b9981364146104db578063b9a04cdd14610503578063c9b62eb11461053f578063d1b7089a146105b85761018e565b80635a1f74061161014b5780636c525b13116101255780636c525b13146103a35780636e94d278146103c9578063824f2f1f146103fd5780638da039971461043c5761018e565b80635a1f7406146102ef578063634965da1461033b5780636407e4321461036f5761018e565b8063039de01d146101935780631c4d5608146101d557806342427bf8146102155780634f52b5be146102435780634fe125a31461027157806351803cd8146102b3575b600080fd5b6101c1600480360360408110156101a957600080fd5b506001600160a01b0381358116916020013516610840565b604080519115158252519081900360200190f35b610203600480360360408110156101eb57600080fd5b506001600160a01b0381358116916020013516610c93565b60408051918252519081900360200190f35b6101c16004803603604081101561022b57600080fd5b506001600160a01b0381358116916020013516610cc2565b6101c16004803603604081101561025957600080fd5b506001600160a01b03813581169160200135166111ca565b6102976004803603602081101561028757600080fd5b50356001600160a01b03166112eb565b604080516001600160a01b039092168252519081900360200190f35b6101c1600480360360808110156102c957600080fd5b506001600160a01b03813581169160208101358216916040820135916060013516611306565b6103156004803603602081101561030557600080fd5b50356001600160a01b03166116e8565b604080516001600160a01b03938416815291909216602082015281519081900390910190f35b6101c16004803603606081101561035157600080fd5b508035906001600160a01b036020820135811691604001351661170e565b6101c16004803603606081101561038557600080fd5b508035906001600160a01b0360208201358116916040013516611ae0565b6101c1600480360360208110156103b957600080fd5b50356001600160a01b0316611f35565b6101c1600480360360608110156103df57600080fd5b508035906001600160a01b0360208201358116916040013516611fb8565b6104236004803603602081101561041357600080fd5b50356001600160a01b031661241d565b6040805192835260208301919091528051918290030190f35b6102976004803603602081101561045257600080fd5b50356001600160a01b0316612443565b6104906004803603604081101561047857600080fd5b506001600160a01b0381358116916020013516612464565b604080516001600160e01b03199092168252519081900360200190f35b6101c1600480360360408110156104c357600080fd5b506001600160a01b0381358116916020013516612498565b610501600480360360208110156104f157600080fd5b50356001600160a01b03166124ab565b005b6101c16004803603608081101561051957600080fd5b506001600160a01b03813581169160208101358216916040820135916060013516612880565b6101c16004803603604081101561055557600080fd5b81019060208101813564010000000081111561057057600080fd5b82018360208201111561058257600080fd5b803590602001918460018302840111640100000000831117156105a457600080fd5b9193509150356001600160a01b0316612c54565b610647600480360360808110156105ce57600080fd5b6001600160a01b0382351691908101906040810160208201356401000000008111156105f957600080fd5b82018360208201111561060b57600080fd5b8035906020019184600183028401116401000000008311171561062d57600080fd5b91935091506001600160a01b038135169060200135612d3f565b604051808315151515815260200180602001828103825283818151815260200191508051906020019080838360005b8381101561068e578181015183820152602001610676565b50505050905090810190601f1680156106bb5780820380516001836020036101000a031916815260200191505b50935050505060405180910390f35b610203600480360360408110156106e057600080fd5b506001600160a01b03813581169160200135166131b4565b6101c16004803603606081101561070e57600080fd5b506001600160a01b038135811691602081013591604090910135166132a1565b6101c16004803603608081101561074457600080fd5b506001600160a01b0381358116916020810135916001600160e01b0319604083013516916060013516613622565b6101c16004803603602081101561078857600080fd5b50356001600160a01b0316613ac9565b6101c1600480360360608110156107ae57600080fd5b508035906001600160a01b0360208201358116916040013516613ade565b6101c1600480360360408110156107e257600080fd5b506001600160a01b0381358116916020013516613f43565b6101c1600480360360a081101561081057600080fd5b506001600160a01b0381358116916020810135821691604082013581169160608101359160809091013516613fa8565b6001600160a01b038116600090815260208181526040808320338452600201909152812060010154829060e01b600160e11b9081161461087f57600080fd5b7f756e7265676973746572536368656d65000000000000000000000000000000008360006060600080846001600160a01b03166001600160a01b03168152602001908152602001600020600301805480602002602001604051908101604052809291908181526020016000905b82821015610934576000848152602090819020604080518082019091526002850290910180546001600160a01b031682526001908101548284015290835290920191016108ec565b505050506001600160a01b03841660009081526020818152604080832060040180548251818502810185019093528083529495506060949193909284015b828210156109ba576000848152602090819020604080518082019091526002850290910180546001600160a01b03168252600190810154828401529083529092019101610972565b505050509050600092505b8151831015610aa4578183815181106109da57fe5b6020026020010151600001516001600160a01b031663c1786ab233848681518110610a0157fe5b602002602001015160200151886040518463ffffffff1660e01b815260040180846001600160a01b03166001600160a01b031681526020018381526020018281526020019350505050602060405180830381600087803b158015610a6457600080fd5b505af1158015610a78573d6000803e3d6000fd5b505050506040513d6020811015610a8e57600080fd5b5051610a9957600080fd5b6001909201916109c5565b6001600160a01b03808916600090815260208181526040808320938d16835260029093019052206001015460e01b600160e01b8116610ae7576000975050610ba3565b6001600160a01b03891660009081526020818152604080832033845260020190915290206001015460e01b198116600160e01b601f021615610b2857600080fd5b6040516001600160a01b03808b1691908c169033907f6c6acccb2a8bdecd133efe43bc929b25f75255a88da20af641c9ba4acc0e0e5b90600090a4506001600160a01b03808916600090815260208181526040808320938d168352600290930190529081209081556001908101805463ffffffff1916905596505b600092505b8051831015610c8757808381518110610bbd57fe5b6020026020010151600001516001600160a01b0316638043154d33838681518110610be457fe5b602002602001015160200151886040518463ffffffff1660e01b815260040180846001600160a01b03166001600160a01b031681526020018381526020018281526020019350505050602060405180830381600087803b158015610c4757600080fd5b505af1158015610c5b573d6000803e3d6000fd5b505050506040513d6020811015610c7157600080fd5b5051610c7c57600080fd5b600190920191610ba8565b50505050505092915050565b6001600160a01b0380821660009081526020818152604080832093861683526002909301905220545b92915050565b6001600160a01b038116600090815260208181526040808320338452600201909152812060010154829060e01b600160e31b90811614610d0157600080fd5b6001600160a01b038381166000908152600160205260409020541615610d2657600080fd5b6001600160a01b038416610d3957600080fd5b6001600160a01b0383811660008181526001602052604080822080546001600160a01b03191694891694851790558051600160e01b63f2fde38b028152600481019490945251919263f2fde38b926024808301939282900301818387803b158015610da357600080fd5b505af1158015610db7573d6000803e3d6000fd5b50505050836001600160a01b0316836001600160a01b0316638da5cb5b6040518163ffffffff1660e01b815260040160206040518083038186803b158015610dfe57600080fd5b505afa158015610e12573d6000803e3d6000fd5b505050506040513d6020811015610e2857600080fd5b50516001600160a01b031614610e3d57600080fd5b6001600160a01b0383811660009081526020818152604091829020548251600160e01b638da5cb5b028152925130949190911692638da5cb5b926004808301939192829003018186803b158015610e9357600080fd5b505afa158015610ea7573d6000803e3d6000fd5b505050506040513d6020811015610ebd57600080fd5b50516001600160a01b03161415610fd8576001600160a01b03808416600090815260208190526040808220548151600160e01b63f2fde38b0281528885166004820152915193169263f2fde38b9260248084019391929182900301818387803b158015610f2957600080fd5b505af1158015610f3d573d6000803e3d6000fd5b505050506001600160a01b0383811660009081526020818152604091829020548251600160e01b638da5cb5b0281529251848916949190911692638da5cb5b926004808301939192829003018186803b158015610f9957600080fd5b505afa158015610fad573d6000803e3d6000fd5b505050506040513d6020811015610fc357600080fd5b50516001600160a01b031614610fd857600080fd5b6001600160a01b0383811660009081526020818152604091829020600101548251600160e01b638da5cb5b028152925130949190911692638da5cb5b926004808301939192829003018186803b15801561103157600080fd5b505afa158015611045573d6000803e3d6000fd5b505050506040513d602081101561105b57600080fd5b50516001600160a01b0316141561117c576001600160a01b03808416600090815260208190526040808220600101548151600160e01b63f2fde38b0281528885166004820152915193169263f2fde38b9260248084019391929182900301818387803b1580156110ca57600080fd5b505af11580156110de573d6000803e3d6000fd5b505050506001600160a01b0383811660009081526020818152604091829020600101548251600160e01b638da5cb5b0281529251848916949190911692638da5cb5b926004808301939192829003018186803b15801561113d57600080fd5b505afa158015611151573d6000803e3d6000fd5b505050506040513d602081101561116757600080fd5b50516001600160a01b03161461117c57600080fd5b604080516001600160a01b03868116825285166020820152815130927f8206909fdb23a8ad42188f753026bc9082758d85e20dce9bc8c4b34f2ec3db32928290030190a25060019392505050565b6001600160a01b038116600090815260208181526040808320338452600201909152812060010154829060e01b600160e21b9081161461120957600080fd5b6000846001600160a01b031663e2b0caef6040518163ffffffff1660e01b8152600401602060405180830381600087803b15801561124657600080fd5b505af115801561125a573d6000803e3d6000fd5b505050506040513d602081101561127057600080fd5b50519050600081600281111561128257fe5b14806112995750600281600281111561129757fe5b145b156112aa576112a88585614393565b505b60018160028111156112b857fe5b14806112cf575060028160028111156112cd57fe5b145b156112e0576112de8585614560565b505b506001949350505050565b6001602052600090815260409020546001600160a01b031681565b6001600160a01b038116600090815260208181526040808320338452600201909152812060010154829060e01b600160e01b9081161461134557600080fd5b7f65787465726e616c546f6b656e417070726f76616c00000000000000000000008360006060600080846001600160a01b03166001600160a01b03168152602001908152602001600020600301805480602002602001604051908101604052809291908181526020016000905b828210156113fa576000848152602090819020604080518082019091526002850290910180546001600160a01b031682526001908101548284015290835290920191016113b2565b505050506001600160a01b03841660009081526020818152604080832060040180548251818502810185019093528083529495506060949193909284015b82821015611480576000848152602090819020604080518082019091526002850290910180546001600160a01b03168252600190810154828401529083529092019101611438565b505050509050600092505b815183101561156a578183815181106114a057fe5b6020026020010151600001516001600160a01b031663c1786ab2338486815181106114c757fe5b602002602001015160200151886040518463ffffffff1660e01b815260040180846001600160a01b03166001600160a01b031681526020018381526020018281526020019350505050602060405180830381600087803b15801561152a57600080fd5b505af115801561153e573d6000803e3d6000fd5b505050506040513d602081101561155457600080fd5b505161155f57600080fd5b60019092019161148b565b60408051600160e01b63ab751f710281526001600160a01b038d811660048301528c81166024830152604482018c90529151918a169163ab751f71916064808201926020929091908290030181600087803b1580156115c857600080fd5b505af11580156115dc573d6000803e3d6000fd5b505050506040513d60208110156115f257600080fd5b50519650600092505b80518310156116da5780838151811061161057fe5b6020026020010151600001516001600160a01b0316638043154d3383868151811061163757fe5b602002602001015160200151886040518463ffffffff1660e01b815260040180846001600160a01b03166001600160a01b031681526020018381526020018281526020019350505050602060405180830381600087803b15801561169a57600080fd5b505af11580156116ae573d6000803e3d6000fd5b505050506040513d60208110156116c457600080fd5b50516116cf57600080fd5b6001909201916115fb565b505050505050949350505050565b600060208190529081526040902080546001909101546001600160a01b03918216911682565b6001600160a01b038116600090815260208181526040808320338452600201909152812060010154829060e01b600160e01b9081161461174d57600080fd5b600160b91b6839b2b73222ba3432b9028360006060600080846001600160a01b03166001600160a01b03168152602001908152602001600020600301805480602002602001604051908101604052809291908181526020016000905b828210156117f1576000848152602090819020604080518082019091526002850290910180546001600160a01b031682526001908101548284015290835290920191016117a9565b505050506001600160a01b03841660009081526020818152604080832060040180548251818502810185019093528083529495506060949193909284015b82821015611877576000848152602090819020604080518082019091526002850290910180546001600160a01b0316825260019081015482840152908352909201910161182f565b505050509050600092505b81518310156119615781838151811061189757fe5b6020026020010151600001516001600160a01b031663c1786ab2338486815181106118be57fe5b602002602001015160200151886040518463ffffffff1660e01b815260040180846001600160a01b03166001600160a01b031681526020018381526020018281526020019350505050602060405180830381600087803b15801561192157600080fd5b505af1158015611935573d6000803e3d6000fd5b505050506040513d602081101561194b57600080fd5b505161195657600080fd5b600190920191611882565b876001600160a01b031663cb16d4a28b8b6040518363ffffffff1660e01b815260040180838152602001826001600160a01b03166001600160a01b0316815260200192505050602060405180830381600087803b1580156119c157600080fd5b505af11580156119d5573d6000803e3d6000fd5b505050506040513d60208110156119eb57600080fd5b50519650600092505b8051831015611ad357808381518110611a0957fe5b6020026020010151600001516001600160a01b0316638043154d33838681518110611a3057fe5b602002602001015160200151886040518463ffffffff1660e01b815260040180846001600160a01b03166001600160a01b031681526020018381526020018281526020019350505050602060405180830381600087803b158015611a9357600080fd5b505af1158015611aa7573d6000803e3d6000fd5b505050506040513d6020811015611abd57600080fd5b5051611ac857600080fd5b6001909201916119f4565b5050505050509392505050565b6001600160a01b038116600090815260208181526040808320338452600201909152812060010154829060e01b600160e01b90811614611b1f57600080fd5b600160b01b696d696e74546f6b656e73028360006060600080846001600160a01b03166001600160a01b03168152602001908152602001600020600301805480602002602001604051908101604052809291908181526020016000905b82821015611bc4576000848152602090819020604080518082019091526002850290910180546001600160a01b03168252600190810154828401529083529092019101611b7c565b505050506001600160a01b03841660009081526020818152604080832060040180548251818502810185019093528083529495506060949193909284015b82821015611c4a576000848152602090819020604080518082019091526002850290910180546001600160a01b03168252600190810154828401529083529092019101611c02565b505050509050600092505b8151831015611d3457818381518110611c6a57fe5b6020026020010151600001516001600160a01b031663c1786ab233848681518110611c9157fe5b602002602001015160200151886040518463ffffffff1660e01b815260040180846001600160a01b03166001600160a01b031681526020018381526020018281526020019350505050602060405180830381600087803b158015611cf457600080fd5b505af1158015611d08573d6000803e3d6000fd5b505050506040513d6020811015611d1e57600080fd5b5051611d2957600080fd5b600190920191611c55565b876001600160a01b0316896001600160a01b0316336001600160a01b03167f5f31335b49d4d41584177ece651b9e2bb48565b82a1dfbf1b75eec6343215e4c8d6040518082815260200191505060405180910390a4600080896001600160a01b03166001600160a01b0316815260200190815260200160002060000160009054906101000a90046001600160a01b03166001600160a01b03166340c10f198a8c6040518363ffffffff1660e01b815260040180836001600160a01b03166001600160a01b0316815260200182815260200192505050602060405180830381600087803b158015611e2357600080fd5b505af1158015611e37573d6000803e3d6000fd5b505050506040513d6020811015611e4d57600080fd5b50519650600092505b8051831015611ad357808381518110611e6b57fe5b6020026020010151600001516001600160a01b0316638043154d33838681518110611e9257fe5b602002602001015160200151886040518463ffffffff1660e01b815260040180846001600160a01b03166001600160a01b031681526020018381526020018281526020019350505050602060405180830381600087803b158015611ef557600080fd5b505af1158015611f09573d6000803e3d6000fd5b505050506040513d6020811015611f1f57600080fd5b5051611f2a57600080fd5b600190920191611e56565b6000611f41338361471f565b611f4d57506000611fb3565b6001600160a01b038216600081815260208181526040808320338085526002909101909252808320838155600101805463ffffffff1916905551909182917f6c6acccb2a8bdecd133efe43bc929b25f75255a88da20af641c9ba4acc0e0e5b9190a45060015b919050565b6001600160a01b038116600090815260208181526040808320338452600201909152812060010154829060e01b600160e01b90811614611ff757600080fd5b7f6275726e52657075746174696f6e0000000000000000000000000000000000008360006060600080846001600160a01b03166001600160a01b03168152602001908152602001600020600301805480602002602001604051908101604052809291908181526020016000905b828210156120ac576000848152602090819020604080518082019091526002850290910180546001600160a01b03168252600190810154828401529083529092019101612064565b505050506001600160a01b03841660009081526020818152604080832060040180548251818502810185019093528083529495506060949193909284015b82821015612132576000848152602090819020604080518082019091526002850290910180546001600160a01b031682526001908101548284015290835290920191016120ea565b505050509050600092505b815183101561221c5781838151811061215257fe5b6020026020010151600001516001600160a01b031663c1786ab23384868151811061217957fe5b602002602001015160200151886040518463ffffffff1660e01b815260040180846001600160a01b03166001600160a01b031681526020018381526020018281526020019350505050602060405180830381600087803b1580156121dc57600080fd5b505af11580156121f0573d6000803e3d6000fd5b505050506040513d602081101561220657600080fd5b505161221157600080fd5b60019092019161213d565b876001600160a01b0316896001600160a01b0316336001600160a01b03167fc9d509efc43bbd833bfbc3d7031bf2c4b4a7c30c53ba374bc9d5ec44661dbf878d6040518082815260200191505060405180910390a4600080896001600160a01b03166001600160a01b0316815260200190815260200160002060010160009054906101000a90046001600160a01b03166001600160a01b0316639dc29fac8a8c6040518363ffffffff1660e01b815260040180836001600160a01b03166001600160a01b0316815260200182815260200192505050602060405180830381600087803b15801561230b57600080fd5b505af115801561231f573d6000803e3d6000fd5b505050506040513d602081101561233557600080fd5b50519650600092505b8051831015611ad35780838151811061235357fe5b6020026020010151600001516001600160a01b0316638043154d3383868151811061237a57fe5b602002602001015160200151886040518463ffffffff1660e01b815260040180846001600160a01b03166001600160a01b031681526020018381526020018281526020019350505050602060405180830381600087803b1580156123dd57600080fd5b505af11580156123f1573d6000803e3d6000fd5b505050506040513d602081101561240757600080fd5b505161241257600080fd5b60019092019161233e565b6001600160a01b0316600090815260208190526040902060038101546004909101549091565b6001600160a01b039081166000908152602081905260409020600101541690565b6001600160a01b03808216600090815260208181526040808320938616835260029093019052206001015460e01b92915050565b60006124a4838361471f565b9392505050565b6001600160a01b03811660009081526002602052604090205460ff16156124d157600080fd5b6001600160a01b038116600081815260026020908152604091829020805460ff191660011790558151600160e01b638da5cb5b0281529151309392638da5cb5b926004808301939192829003018186803b15801561252e57600080fd5b505afa158015612542573d6000803e3d6000fd5b505050506040513d602081101561255857600080fd5b50516001600160a01b03161461256d57600080fd5b6000816001600160a01b031663e1758bd86040518163ffffffff1660e01b815260040160206040518083038186803b1580156125a857600080fd5b505afa1580156125bc573d6000803e3d6000fd5b505050506040513d60208110156125d257600080fd5b505160408051600160e41b63089ae1c902815290519192506000916001600160a01b038516916389ae1c90916004808301926020929190829003018186803b15801561261d57600080fd5b505afa158015612631573d6000803e3d6000fd5b505050506040513d602081101561264757600080fd5b505160408051600160e01b638da5cb5b028152905191925030916001600160a01b03851691638da5cb5b916004808301926020929190829003018186803b15801561269157600080fd5b505afa1580156126a5573d6000803e3d6000fd5b505050506040513d60208110156126bb57600080fd5b50516001600160a01b0316146126d057600080fd5b306001600160a01b0316816001600160a01b0316638da5cb5b6040518163ffffffff1660e01b815260040160206040518083038186803b15801561271357600080fd5b505afa158015612727573d6000803e3d6000fd5b505050506040513d602081101561273d57600080fd5b50516001600160a01b03161461275257600080fd5b6001600160a01b03811660009081526002602052604090205460ff161561277857600080fd5b6001600160a01b03808216600090815260026020526040808220805460ff191660011790559184168152205460ff16156127b157600080fd5b6001600160a01b0382811660008181526002602081815260408084208054600160ff19909116811790915589871680865285845282862080546001600160a01b031990811690981781558083018054909816988a169890981790965581518083018352858152600160e01b601f02818501908152338088529890950190935281852092518355925191909201805463ffffffff191660e09290921c9190911790555191929182917f521230fe5fa463e77907aa7d9653b8cf93661e82561e966af8aa0a99910554c191a4505050565b6001600160a01b038116600090815260208181526040808320338452600201909152812060010154829060e01b600160e01b908116146128bf57600080fd5b7f65787465726e616c546f6b656e5472616e7366657200000000000000000000008360006060600080846001600160a01b03166001600160a01b03168152602001908152602001600020600301805480602002602001604051908101604052809291908181526020016000905b82821015612974576000848152602090819020604080518082019091526002850290910180546001600160a01b0316825260019081015482840152908352909201910161292c565b505050506001600160a01b03841660009081526020818152604080832060040180548251818502810185019093528083529495506060949193909284015b828210156129fa576000848152602090819020604080518082019091526002850290910180546001600160a01b031682526001908101548284015290835290920191016129b2565b505050509050600092505b8151831015612ae457818381518110612a1a57fe5b6020026020010151600001516001600160a01b031663c1786ab233848681518110612a4157fe5b602002602001015160200151886040518463ffffffff1660e01b815260040180846001600160a01b03166001600160a01b031681526020018381526020018281526020019350505050602060405180830381600087803b158015612aa457600080fd5b505af1158015612ab8573d6000803e3d6000fd5b505050506040513d6020811015612ace57600080fd5b5051612ad957600080fd5b600190920191612a05565b60408051600160e01b63dab0efff0281526001600160a01b038d811660048301528c81166024830152604482018c90529151918a169163dab0efff916064808201926020929091908290030181600087803b158015612b4257600080fd5b505af1158015612b56573d6000803e3d6000fd5b505050506040513d6020811015612b6c57600080fd5b50519650600092505b80518310156116da57808381518110612b8a57fe5b6020026020010151600001516001600160a01b0316638043154d33838681518110612bb157fe5b602002602001015160200151886040518463ffffffff1660e01b815260040180846001600160a01b03166001600160a01b031681526020018381526020018281526020019350505050602060405180830381600087803b158015612c1457600080fd5b505af1158015612c28573d6000803e3d6000fd5b505050506040513d6020811015612c3e57600080fd5b5051612c4957600080fd5b600190920191612b75565b6001600160a01b038116600090815260208181526040808320338452600201909152812060010154829060e01b600160e41b90811614612c9357600080fd5b604051600160e21b632242b11b028152602060048201908152602482018690526001600160a01b0385169163890ac46c9188918891908190604401848480828437600081840152601f19601f8201169050808301925050509350505050602060405180830381600087803b158015612d0a57600080fd5b505af1158015612d1e573d6000803e3d6000fd5b505050506040513d6020811015612d3457600080fd5b505195945050505050565b6001600160a01b038216600090815260208181526040808320338452600201909152812060010154606090849060e01b600160e41b90811614612d8157600080fd5b600160aa1b6a19d95b995c9a58d0d85b1b028560006060600080846001600160a01b03166001600160a01b03168152602001908152602001600020600301805480602002602001604051908101604052809291908181526020016000905b82821015612e27576000848152602090819020604080518082019091526002850290910180546001600160a01b03168252600190810154828401529083529092019101612ddf565b505050506001600160a01b03841660009081526020818152604080832060040180548251818502810185019093528083529495506060949193909284015b82821015612ead576000848152602090819020604080518082019091526002850290910180546001600160a01b03168252600190810154828401529083529092019101612e65565b505050509050600092505b8151831015612f9757818381518110612ecd57fe5b6020026020010151600001516001600160a01b031663c1786ab233848681518110612ef457fe5b602002602001015160200151886040518463ffffffff1660e01b815260040180846001600160a01b03166001600160a01b031681526020018381526020018281526020019350505050602060405180830381600087803b158015612f5757600080fd5b505af1158015612f6b573d6000803e3d6000fd5b505050506040513d6020811015612f8157600080fd5b5051612f8c57600080fd5b600190920191612eb8565b896001600160a01b0316632bf164588e8e8e8d6040518563ffffffff1660e01b815260040180856001600160a01b03166001600160a01b03168152602001806020018381526020018281038252858582818152602001925080828437600081840152601f19601f82011690508083019250505095505050505050600060405180830381600087803b15801561302b57600080fd5b505af115801561303f573d6000803e3d6000fd5b505050506040513d6000823e601f3d908101601f19168201604090815281101561306857600080fd5b81516020830180519193928301929164010000000081111561308957600080fd5b8201602081018481111561309c57600080fd5b81516401000000008111828201871017156130b657600080fd5b50949c509a5050505050600092505b80518310156131a4578083815181106130da57fe5b6020026020010151600001516001600160a01b0316638043154d3383868151811061310157fe5b602002602001015160200151886040518463ffffffff1660e01b815260040180846001600160a01b03166001600160a01b031681526020018381526020018281526020019350505050602060405180830381600087803b15801561316457600080fd5b505af1158015613178573d6000803e3d6000fd5b505050506040513d602081101561318e57600080fd5b505161319957600080fd5b6001909201916130c5565b5050505050509550959350505050565b6001600160a01b03811660009081526020819052604081206131d461475b565b506001600160a01b03841660009081526005820160209081526040918290208251808401909352805460ff16158015845260019091015491830191909152613244578160030181602001518154811061322957fe5b90600052602060002090600202016001015492505050610cbc565b506001600160a01b03841660009081526006820160209081526040918290208251808401909352805460ff16158015845260019091015491830191909152613299578160040181602001518154811061322957fe5b505092915050565b6001600160a01b038116600090815260208181526040808320338452600201909152812060010154829060e01b600160e21b908116146132e057600080fd5b6001600160a01b038084166000908152602081815260408083208151600160e01b63e2b0caef028152915190948a169263e2b0caef926004808201939182900301818787803b15801561333257600080fd5b505af1158015613346573d6000803e3d6000fd5b505050506040513d602081101561335c57600080fd5b50519050600081600281111561336e57fe5b14806133855750600281600281111561338357fe5b145b1561348a576001600160a01b038716600090815260058301602052604090205460ff16613445576040805180820182526001600160a01b0389811680835260208084018b81526003880180546001808201835560008381528581209851600290930290980180546001600160a01b031916929097169190911786559151948201949094558551808701875281815293546000190184830190815292855260058801909152939092209051815460ff1916901515178155905191015561348a565b6001600160a01b0387166000908152600583016020526040902060010154600383018054889290811061347457fe5b9060005260206000209060020201600101819055505b600181600281111561349857fe5b14806134af575060028160028111156134ad57fe5b145b156135b4576001600160a01b038716600090815260068301602052604090205460ff1661356f576040805180820182526001600160a01b0389811680835260208084018b81526004880180546001808201835560008381528581209851600290930290980180546001600160a01b031916929097169190911786559151948201949094558551808701875281815293546000190184830190815292855260068801909152939092209051815460ff191690151517815590519101556135b4565b6001600160a01b0387166000908152600683016020526040902060010154600483018054889290811061359e57fe5b9060005260206000209060020201600101819055505b846001600160a01b0316876001600160a01b03167ffc47a21fc3b2a989787e5778a52ac976fa54ccfecf6fda51089ffa95b699b90a88846040518083815260200182600281111561360157fe5b60ff1681526020019250505060405180910390a35060019695505050505050565b6001600160a01b038116600090815260208181526040808320338452600201909152812060010154829060e01b600160e11b9081161461366157600080fd5b7f7265676973746572536368656d650000000000000000000000000000000000008360006060600080846001600160a01b03166001600160a01b03168152602001908152602001600020600301805480602002602001604051908101604052809291908181526020016000905b82821015613716576000848152602090819020604080518082019091526002850290910180546001600160a01b031682526001908101548284015290835290920191016136ce565b505050506001600160a01b03841660009081526020818152604080832060040180548251818502810185019093528083529495506060949193909284015b8282101561379c576000848152602090819020604080518082019091526002850290910180546001600160a01b03168252600190810154828401529083529092019101613754565b505050509050600092505b8151831015613886578183815181106137bc57fe5b6020026020010151600001516001600160a01b031663c1786ab2338486815181106137e357fe5b602002602001015160200151886040518463ffffffff1660e01b815260040180846001600160a01b03166001600160a01b031681526020018381526020018281526020019350505050602060405180830381600087803b15801561384657600080fd5b505af115801561385a573d6000803e3d6000fd5b505050506040513d602081101561387057600080fd5b505161387b57600080fd5b6001909201916137a7565b6001600160a01b03888116600090815260208181526040808320938f1683526002909301905281812060019081015433835292909120015460e091821b911b600160e01b601f0281198c84181616156138de57600080fd5b600160e01b601f028119831616156138f557600080fd5b60405180604001604052808d8152602001600160e01b8d176001600160e01b0319168152506000808c6001600160a01b03166001600160a01b0316815260200190815260200160002060020160008f6001600160a01b03166001600160a01b031681526020019081526020016000206000820151816000015560208201518160010160006101000a81548163ffffffff021916908360e01c0217905550905050896001600160a01b03168d6001600160a01b0316336001600160a01b03167f521230fe5fa463e77907aa7d9653b8cf93661e82561e966af8aa0a99910554c160405160405180910390a4600198505050600092505b80518310156116da578083815181106139ff57fe5b6020026020010151600001516001600160a01b0316638043154d33838681518110613a2657fe5b602002602001015160200151886040518463ffffffff1660e01b815260040180846001600160a01b03166001600160a01b031681526020018381526020018281526020019350505050602060405180830381600087803b158015613a8957600080fd5b505af1158015613a9d573d6000803e3d6000fd5b505050506040513d6020811015613ab357600080fd5b5051613abe57600080fd5b6001909201916139ea565b60026020526000908152604090205460ff1681565b6001600160a01b038116600090815260208181526040808320338452600201909152812060010154829060e01b600160e01b90811614613b1d57600080fd5b7f6d696e7452657075746174696f6e0000000000000000000000000000000000008360006060600080846001600160a01b03166001600160a01b03168152602001908152602001600020600301805480602002602001604051908101604052809291908181526020016000905b82821015613bd2576000848152602090819020604080518082019091526002850290910180546001600160a01b03168252600190810154828401529083529092019101613b8a565b505050506001600160a01b03841660009081526020818152604080832060040180548251818502810185019093528083529495506060949193909284015b82821015613c58576000848152602090819020604080518082019091526002850290910180546001600160a01b03168252600190810154828401529083529092019101613c10565b505050509050600092505b8151831015613d4257818381518110613c7857fe5b6020026020010151600001516001600160a01b031663c1786ab233848681518110613c9f57fe5b602002602001015160200151886040518463ffffffff1660e01b815260040180846001600160a01b03166001600160a01b031681526020018381526020018281526020019350505050602060405180830381600087803b158015613d0257600080fd5b505af1158015613d16573d6000803e3d6000fd5b505050506040513d6020811015613d2c57600080fd5b5051613d3757600080fd5b600190920191613c63565b876001600160a01b0316896001600160a01b0316336001600160a01b03167feb0f295d539be95eb3777b524f7bff44ed3505db2e2795382482bb1a9cd1dae08d6040518082815260200191505060405180910390a4600080896001600160a01b03166001600160a01b0316815260200190815260200160002060010160009054906101000a90046001600160a01b03166001600160a01b03166340c10f198a8c6040518363ffffffff1660e01b815260040180836001600160a01b03166001600160a01b0316815260200182815260200192505050602060405180830381600087803b158015613e3157600080fd5b505af1158015613e45573d6000803e3d6000fd5b505050506040513d6020811015613e5b57600080fd5b50519650600092505b8051831015611ad357808381518110613e7957fe5b6020026020010151600001516001600160a01b0316638043154d33838681518110613ea057fe5b602002602001015160200151886040518463ffffffff1660e01b815260040180846001600160a01b03166001600160a01b031681526020018381526020018281526020019350505050602060405180830381600087803b158015613f0357600080fd5b505af1158015613f17573d6000803e3d6000fd5b505050506040513d6020811015613f2d57600080fd5b5051613f3857600080fd5b600190920191613e64565b6001600160a01b038082166000908152602081815260408083209386168352600590930190529081205460ff16806124a45750506001600160a01b03908116600090815260208181526040808320949093168252600690930190925290205460ff1690565b6001600160a01b038116600090815260208181526040808320338452600201909152812060010154829060e01b600160e01b90811614613fe757600080fd5b7f65787465726e616c546f6b656e5472616e7366657246726f6d000000000000008360006060600080846001600160a01b03166001600160a01b03168152602001908152602001600020600301805480602002602001604051908101604052809291908181526020016000905b8282101561409c576000848152602090819020604080518082019091526002850290910180546001600160a01b03168252600190810154828401529083529092019101614054565b505050506001600160a01b03841660009081526020818152604080832060040180548251818502810185019093528083529495506060949193909284015b82821015614122576000848152602090819020604080518082019091526002850290910180546001600160a01b031682526001908101548284015290835290920191016140da565b505050509050600092505b815183101561420c5781838151811061414257fe5b6020026020010151600001516001600160a01b031663c1786ab23384868151811061416957fe5b602002602001015160200151886040518463ffffffff1660e01b815260040180846001600160a01b03166001600160a01b031681526020018381526020018281526020019350505050602060405180830381600087803b1580156141cc57600080fd5b505af11580156141e0573d6000803e3d6000fd5b505050506040513d60208110156141f657600080fd5b505161420157600080fd5b60019092019161412d565b60408051600160e11b635bab6ad10281526001600160a01b038e811660048301528d811660248301528c81166044830152606482018c90529151918a169163b756d5a2916084808201926020929091908290030181600087803b15801561427257600080fd5b505af1158015614286573d6000803e3d6000fd5b505050506040513d602081101561429c57600080fd5b50519650600092505b8051831015614384578083815181106142ba57fe5b6020026020010151600001516001600160a01b0316638043154d338386815181106142e157fe5b602002602001015160200151886040518463ffffffff1660e01b815260040180846001600160a01b03166001600160a01b031681526020018381526020018281526020019350505050602060405180830381600087803b15801561434457600080fd5b505af1158015614358573d6000803e3d6000fd5b505050506040513d602081101561436e57600080fd5b505161437957600080fd5b6001909201916142a5565b50505050505095945050505050565b600061439d61475b565b506001600160a01b0380831660008181526020818152604080832094881683526005850182528083208151808301909252805460ff1615158252600101548183015292825252805190916003019015614555576001818054905003826020015110156144be5761440b61475b565b81548290600019810190811061441d57fe5b60009182526020918290206040805180820190915260029092020180546001600160a01b0316825260010154818301529084015183549192508291849190811061446357fe5b6000918252602080832084516002939093020180546001600160a01b0319166001600160a01b039384161781559381015160019485015586810151898316845283825260408085209651909316845260059095019052902001555b80546144ce826000198301614772565b506001600160a01b03808516600081815260208181526040808320948a1680845260059095018252808320805460ff191681556001908101939093558682015181519081529182019290925281519293927f16e52dc226f9b9f6729d31340ecff10d85e6f9c0a8f21b07ec74a2c58c485a22929181900390910190a3600192505050610cbc565b506000949350505050565b600061456a61475b565b506001600160a01b0380831660008181526020818152604080832094881683526006850182528083208151808301909252805460ff16151582526001015481830152928252528051909160040190156145555760018180549050038260200151101561468b576145d861475b565b8154829060001981019081106145ea57fe5b60009182526020918290206040805180820190915260029092020180546001600160a01b0316825260010154818301529084015183549192508291849190811061463057fe5b6000918252602080832084516002939093020180546001600160a01b0319166001600160a01b039384161781559381015160019485015586810151898316845283825260408085209651909316845260069095019052902001555b805461469b826000198301614772565b506001600160a01b03808516600081815260208181526040808320948a1680845260069095018252808320805460ff191681556001018390558682015181519081529182019290925281519293927f16e52dc226f9b9f6729d31340ecff10d85e6f9c0a8f21b07ec74a2c58c485a22929181900390910190a3600192505050610cbc565b6001600160a01b03808216600090815260208181526040808320938616835260029093019052206001015460e01b600160e01b16151592915050565b604080518082019091526000808252602082015290565b81548183558181111561479e5760020281600202836000526020600020918201910161479e91906147a3565b505050565b6147d291905b808211156147ce5780546001600160a01b0319168155600060018201556002016147a9565b5090565b9056fea165627a7a72305820905f12f0569a1dba2887ce17bf7122563f428866af2633275fd7b78c9f1845890029",
  "source": "pragma solidity ^0.5.4;\n\nimport \"./Avatar.sol\";\nimport \"../globalConstraints/GlobalConstraintInterface.sol\";\nimport \"./ControllerInterface.sol\";\n\n\n/**\n * @title Universal Controller contract\n * @dev A universal controller hold organizations and controls their tokens ,reputations\n *       and avatar.\n * It is subject to a set of schemes and constraints that determine its behavior.\n * Each scheme has it own parameters and operation permissions.\n */\ncontract UController is ControllerInterface {\n\n    struct Scheme {\n        bytes32 paramsHash;  // a hash \"configuration\" of the scheme\n        bytes4  permissions; // A bitwise flags of permissions,\n                            // All 0: Not registered,\n                            // 1st bit: Flag if the scheme is registered,\n                            // 2nd bit: Scheme can register other schemes\n                            // 3th bit: Scheme can add/remove global constraints\n                            // 4rd bit: Scheme can upgrade the controller\n                            // 5th bit: Scheme can call delegatecall\n    }\n\n    struct GlobalConstraint {\n        address gcAddress;\n        bytes32 params;\n    }\n\n    struct GlobalConstraintRegister {\n        bool isRegistered; //is registered\n        uint256 index;    //index at globalConstraints\n    }\n\n    struct Organization {\n        DAOToken                  nativeToken;\n        Reputation                nativeReputation;\n        mapping(address=>Scheme)  schemes;\n      // globalConstraintsPre that determine pre- conditions for all actions on the controller\n        GlobalConstraint[] globalConstraintsPre;\n        // globalConstraintsPost that determine post-conditions for all actions on the controller\n        GlobalConstraint[] globalConstraintsPost;\n      // globalConstraintsRegisterPre indicate if a globalConstraints is registered as a Pre global constraint.\n        mapping(address=>GlobalConstraintRegister) globalConstraintsRegisterPre;\n      // globalConstraintsRegisterPost indicate if a globalConstraints is registered as a Post global constraint.\n        mapping(address=>GlobalConstraintRegister) globalConstraintsRegisterPost;\n    }\n\n    //mapping between organization's avatar address to Organization\n    mapping(address=>Organization) public organizations;\n    // newController will point to the new controller after the present controller is upgraded\n    //  address external newController;\n    mapping(address=>address) public newControllers;//mapping between avatar address and newController address\n    //mapping for all reputation system and tokens addresses registered.\n    mapping(address=>bool) public actors;\n\n    event MintReputation (address indexed _sender, address indexed _to, uint256 _amount, address indexed _avatar);\n    event BurnReputation (address indexed _sender, address indexed _from, uint256 _amount, address indexed _avatar);\n    event MintTokens (address indexed _sender, address indexed _beneficiary, uint256 _amount, address indexed _avatar);\n    event RegisterScheme (address indexed _sender, address indexed _scheme, address indexed _avatar);\n    event UnregisterScheme (address indexed _sender, address indexed _scheme, address indexed _avatar);\n    event UpgradeController(address indexed _oldController, address _newController, address _avatar);\n\n    event AddGlobalConstraint(\n        address indexed _globalConstraint,\n        bytes32 _params,\n        GlobalConstraintInterface.CallPhase _when,\n        address indexed _avatar\n    );\n\n    event RemoveGlobalConstraint(\n        address indexed _globalConstraint,\n        uint256 _index,\n        bool _isPre,\n        address indexed _avatar\n    );\n\n   /**\n    * @dev newOrganization set up a new organization with default daoCreator.\n    * @param _avatar the organization avatar\n    */\n    function newOrganization(\n        Avatar _avatar\n    ) external\n    {\n        require(!actors[address(_avatar)]);\n        actors[address(_avatar)] = true;\n        require(_avatar.owner() == address(this));\n        DAOToken nativeToken = _avatar.nativeToken();\n        Reputation nativeReputation = _avatar.nativeReputation();\n        require(nativeToken.owner() == address(this));\n        require(nativeReputation.owner() == address(this));\n        //To guaranty uniqueness for the reputation systems.\n        require(!actors[address(nativeReputation)]);\n        actors[address(nativeReputation)] = true;\n        //To guaranty uniqueness for the nativeToken.\n        require(!actors[address(nativeToken)]);\n        actors[address(nativeToken)] = true;\n        organizations[address(_avatar)].nativeToken = nativeToken;\n        organizations[address(_avatar)].nativeReputation = nativeReputation;\n        organizations[address(_avatar)].schemes[msg.sender] =\n        Scheme({paramsHash: bytes32(0), permissions: bytes4(0x0000001f)});\n        emit RegisterScheme(msg.sender, msg.sender, address(_avatar));\n    }\n\n  // Modifiers:\n    modifier onlyRegisteredScheme(address avatar) {\n        require(organizations[avatar].schemes[msg.sender].permissions&bytes4(0x00000001) == bytes4(0x00000001));\n        _;\n    }\n\n    modifier onlyRegisteringSchemes(address avatar) {\n        require(organizations[avatar].schemes[msg.sender].permissions&bytes4(0x00000002) == bytes4(0x00000002));\n        _;\n    }\n\n    modifier onlyGlobalConstraintsScheme(address avatar) {\n        require(organizations[avatar].schemes[msg.sender].permissions&bytes4(0x00000004) == bytes4(0x00000004));\n        _;\n    }\n\n    modifier onlyUpgradingScheme(address _avatar) {\n        require(organizations[_avatar].schemes[msg.sender].permissions&bytes4(0x00000008) == bytes4(0x00000008));\n        _;\n    }\n\n    modifier onlyGenericCallScheme(address _avatar) {\n        require(organizations[_avatar].schemes[msg.sender].permissions&bytes4(0x00000010) == bytes4(0x00000010));\n        _;\n    }\n\n    modifier onlyMetaDataScheme(address _avatar) {\n        require(organizations[_avatar].schemes[msg.sender].permissions&bytes4(0x00000010) == bytes4(0x00000010));\n        _;\n    }\n\n    modifier onlySubjectToConstraint(bytes32 func, address _avatar) {\n        uint256 idx;\n        GlobalConstraint[] memory globalConstraintsPre = organizations[_avatar].globalConstraintsPre;\n        GlobalConstraint[] memory globalConstraintsPost = organizations[_avatar].globalConstraintsPost;\n        for (idx = 0; idx < globalConstraintsPre.length; idx++) {\n            require(\n            (GlobalConstraintInterface(globalConstraintsPre[idx].gcAddress))\n            .pre(msg.sender, globalConstraintsPre[idx].params, func));\n        }\n        _;\n        for (idx = 0; idx < globalConstraintsPost.length; idx++) {\n            require(\n            (GlobalConstraintInterface(globalConstraintsPost[idx].gcAddress))\n            .post(msg.sender, globalConstraintsPost[idx].params, func));\n        }\n    }\n\n    /**\n     * @dev Mint `_amount` of reputation that are assigned to `_to` .\n     * @param  _amount amount of reputation to mint\n     * @param _to beneficiary address\n     * @param _avatar the address of the organization's avatar\n     * @return bool which represents a success\n     */\n    function mintReputation(uint256 _amount, address _to, address _avatar)\n    external\n    onlyRegisteredScheme(_avatar)\n    onlySubjectToConstraint(\"mintReputation\", _avatar)\n    returns(bool)\n    {\n        emit MintReputation(msg.sender, _to, _amount, _avatar);\n        return organizations[_avatar].nativeReputation.mint(_to, _amount);\n    }\n\n    /**\n     * @dev Burns `_amount` of reputation from `_from`\n     * @param _amount amount of reputation to burn\n     * @param _from The address that will lose the reputation\n     * @return bool which represents a success\n     */\n    function burnReputation(uint256 _amount, address _from, address _avatar)\n    external\n    onlyRegisteredScheme(_avatar)\n    onlySubjectToConstraint(\"burnReputation\", _avatar)\n    returns(bool)\n    {\n        emit BurnReputation(msg.sender, _from, _amount, _avatar);\n        return organizations[_avatar].nativeReputation.burn(_from, _amount);\n    }\n\n    /**\n     * @dev mint tokens .\n     * @param  _amount amount of token to mint\n     * @param _beneficiary beneficiary address\n     * @param _avatar the organization avatar.\n     * @return bool which represents a success\n     */\n    function mintTokens(uint256 _amount, address _beneficiary, address _avatar)\n    external\n    onlyRegisteredScheme(_avatar)\n    onlySubjectToConstraint(\"mintTokens\", _avatar)\n    returns(bool)\n    {\n        emit MintTokens(msg.sender, _beneficiary, _amount, _avatar);\n        return organizations[_avatar].nativeToken.mint(_beneficiary, _amount);\n    }\n\n  /**\n   * @dev register or update a scheme\n   * @param _scheme the address of the scheme\n   * @param _paramsHash a hashed configuration of the usage of the scheme\n   * @param _permissions the permissions the new scheme will have\n   * @param _avatar the organization avatar.\n   * @return bool which represents a success\n   */\n    function registerScheme(address _scheme, bytes32 _paramsHash, bytes4 _permissions, address _avatar)\n    external\n    onlyRegisteringSchemes(_avatar)\n    onlySubjectToConstraint(\"registerScheme\", _avatar)\n    returns(bool)\n    {\n        bytes4 schemePermission = organizations[_avatar].schemes[_scheme].permissions;\n        bytes4 senderPermission = organizations[_avatar].schemes[msg.sender].permissions;\n    // Check scheme has at least the permissions it is changing, and at least the current permissions:\n    // Implementation is a bit messy. One must recall logic-circuits ^^\n\n    // produces non-zero if sender does not have all of the perms that are changing between old and new\n        require(bytes4(0x0000001f)&(_permissions^schemePermission)&(~senderPermission) == bytes4(0));\n\n    // produces non-zero if sender does not have all of the perms in the old scheme\n        require(bytes4(0x0000001f)&(schemePermission&(~senderPermission)) == bytes4(0));\n\n    // Add or change the scheme:\n        organizations[_avatar].schemes[_scheme] =\n        Scheme({paramsHash:_paramsHash, permissions:_permissions|bytes4(0x00000001)});\n        emit RegisterScheme(msg.sender, _scheme, _avatar);\n        return true;\n    }\n\n    /**\n     * @dev unregister a scheme\n     * @param _scheme the address of the scheme\n     * @param _avatar the organization avatar.\n     * @return bool which represents a success\n     */\n    function unregisterScheme(address _scheme, address _avatar)\n    external\n    onlyRegisteringSchemes(_avatar)\n    onlySubjectToConstraint(\"unregisterScheme\", _avatar)\n    returns(bool)\n    {\n        bytes4 schemePermission = organizations[_avatar].schemes[_scheme].permissions;\n    //check if the scheme is registered\n        if (schemePermission&bytes4(0x00000001) == bytes4(0)) {\n            return false;\n        }\n    // Check the unregistering scheme has enough permissions:\n        require(\n        bytes4(0x0000001f)&(schemePermission&(~organizations[_avatar].schemes[msg.sender].permissions)) == bytes4(0));\n\n    // Unregister:\n        emit UnregisterScheme(msg.sender, _scheme, _avatar);\n        delete organizations[_avatar].schemes[_scheme];\n        return true;\n    }\n\n    /**\n     * @dev unregister the caller's scheme\n     * @param _avatar the organization avatar.\n     * @return bool which represents a success\n     */\n    function unregisterSelf(address _avatar) external returns(bool) {\n        if (_isSchemeRegistered(msg.sender, _avatar) == false) {\n            return false;\n        }\n        delete organizations[_avatar].schemes[msg.sender];\n        emit UnregisterScheme(msg.sender, msg.sender, _avatar);\n        return true;\n    }\n\n    /**\n     * @dev add or update Global Constraint\n     * @param _globalConstraint the address of the global constraint to be added.\n     * @param _params the constraint parameters hash.\n     * @param _avatar the avatar of the organization\n     * @return bool which represents a success\n     */\n    function addGlobalConstraint(address _globalConstraint, bytes32 _params, address _avatar)\n    external onlyGlobalConstraintsScheme(_avatar) returns(bool)\n    {\n        Organization storage organization = organizations[_avatar];\n        GlobalConstraintInterface.CallPhase when = GlobalConstraintInterface(_globalConstraint).when();\n        if ((when == GlobalConstraintInterface.CallPhase.Pre)||\n            (when == GlobalConstraintInterface.CallPhase.PreAndPost)) {\n            if (!organization.globalConstraintsRegisterPre[_globalConstraint].isRegistered) {\n                organization.globalConstraintsPre.push(GlobalConstraint(_globalConstraint, _params));\n                organization.globalConstraintsRegisterPre[_globalConstraint] =\n                GlobalConstraintRegister(true, organization.globalConstraintsPre.length-1);\n            }else {\n                organization\n                .globalConstraintsPre[organization.globalConstraintsRegisterPre[_globalConstraint].index]\n                .params = _params;\n            }\n        }\n\n        if ((when == GlobalConstraintInterface.CallPhase.Post)||\n            (when == GlobalConstraintInterface.CallPhase.PreAndPost)) {\n            if (!organization.globalConstraintsRegisterPost[_globalConstraint].isRegistered) {\n                organization.globalConstraintsPost.push(GlobalConstraint(_globalConstraint, _params));\n                organization.globalConstraintsRegisterPost[_globalConstraint] =\n                GlobalConstraintRegister(true, organization.globalConstraintsPost.length-1);\n            } else {\n                organization\n                .globalConstraintsPost[organization.globalConstraintsRegisterPost[_globalConstraint].index]\n                .params = _params;\n            }\n        }\n        emit AddGlobalConstraint(_globalConstraint, _params, when, _avatar);\n        return true;\n    }\n\n    /**\n     * @dev remove Global Constraint\n     * @param _globalConstraint the address of the global constraint to be remove.\n     * @param _avatar the organization avatar.\n     * @return bool which represents a success\n     */\n    function removeGlobalConstraint (address _globalConstraint, address _avatar)\n    external onlyGlobalConstraintsScheme(_avatar) returns(bool)\n    {\n        GlobalConstraintInterface.CallPhase when = GlobalConstraintInterface(_globalConstraint).when();\n        if ((when == GlobalConstraintInterface.CallPhase.Pre)||\n            (when == GlobalConstraintInterface.CallPhase.PreAndPost)) {\n            removeGlobalConstraintPre(_globalConstraint, _avatar);\n        }\n        if ((when == GlobalConstraintInterface.CallPhase.Post)||\n            (when == GlobalConstraintInterface.CallPhase.PreAndPost)) {\n            removeGlobalConstraintPost(_globalConstraint, _avatar);\n        }\n        return true;\n    }\n\n  /**\n    * @dev upgrade the Controller\n    *      The function will trigger an event 'UpgradeController'.\n    * @param  _newController the address of the new controller.\n    * @param _avatar the organization avatar.\n    * @return bool which represents a success\n    */\n    function upgradeController(address _newController, Avatar _avatar)\n    external onlyUpgradingScheme(address(_avatar)) returns(bool)\n    {\n        require(newControllers[address(_avatar)] == address(0));   // so the upgrade could be done once for a contract.\n        require(_newController != address(0));\n        newControllers[address(_avatar)] = _newController;\n        _avatar.transferOwnership(_newController);\n        require(_avatar.owner() == _newController);\n        if (organizations[address(_avatar)].nativeToken.owner() == address(this)) {\n            organizations[address(_avatar)].nativeToken.transferOwnership(_newController);\n            require(organizations[address(_avatar)].nativeToken.owner() == _newController);\n        }\n        if (organizations[address(_avatar)].nativeReputation.owner() == address(this)) {\n            organizations[address(_avatar)].nativeReputation.transferOwnership(_newController);\n            require(organizations[address(_avatar)].nativeReputation.owner() == _newController);\n        }\n        emit UpgradeController(address(this), _newController, address(_avatar));\n        return true;\n    }\n\n    /**\n    * @dev perform a generic call to an arbitrary contract\n    * @param _contract  the contract's address to call\n    * @param _data ABI-encoded contract call to call `_contract` address.\n    * @param _avatar the controller's avatar address\n    * @param _value value (ETH) to transfer with the transaction\n    * @return bool -success\n    *         bytes  - the return value of the called _contract's function.\n    */\n    function genericCall(address _contract, bytes calldata _data, Avatar _avatar, uint256 _value)\n    external\n    onlyGenericCallScheme(address(_avatar))\n    onlySubjectToConstraint(\"genericCall\", address(_avatar))\n    returns (bool, bytes memory)\n    {\n        return _avatar.genericCall(_contract, _data, _value);\n    }\n\n  /**\n   * @dev send some ether\n   * @param _amountInWei the amount of ether (in Wei) to send\n   * @param _to address of the beneficiary\n   * @param _avatar the organization avatar.\n   * @return bool which represents a success\n   */\n    function sendEther(uint256 _amountInWei, address payable _to, Avatar _avatar)\n    external\n    onlyRegisteredScheme(address(_avatar))\n    onlySubjectToConstraint(\"sendEther\", address(_avatar))\n    returns(bool)\n    {\n        return _avatar.sendEther(_amountInWei, _to);\n    }\n\n    /**\n    * @dev send some amount of arbitrary ERC20 Tokens\n    * @param _externalToken the address of the Token Contract\n    * @param _to address of the beneficiary\n    * @param _value the amount of ether (in Wei) to send\n    * @param _avatar the organization avatar.\n    * @return bool which represents a success\n    */\n    function externalTokenTransfer(IERC20 _externalToken, address _to, uint256 _value, Avatar _avatar)\n    external\n    onlyRegisteredScheme(address(_avatar))\n    onlySubjectToConstraint(\"externalTokenTransfer\", address(_avatar))\n    returns(bool)\n    {\n        return _avatar.externalTokenTransfer(_externalToken, _to, _value);\n    }\n\n    /**\n    * @dev transfer token \"from\" address \"to\" address\n    *      One must to approve the amount of tokens which can be spend from the\n    *      \"from\" account.This can be done using externalTokenApprove.\n    * @param _externalToken the address of the Token Contract\n    * @param _from address of the account to send from\n    * @param _to address of the beneficiary\n    * @param _value the amount of ether (in Wei) to send\n    * @param _avatar the organization avatar.\n    * @return bool which represents a success\n    */\n    function externalTokenTransferFrom(\n    IERC20 _externalToken,\n    address _from,\n    address _to,\n    uint256 _value,\n    Avatar _avatar)\n    external\n    onlyRegisteredScheme(address(_avatar))\n    onlySubjectToConstraint(\"externalTokenTransferFrom\", address(_avatar))\n    returns(bool)\n    {\n        return _avatar.externalTokenTransferFrom(_externalToken, _from, _to, _value);\n    }\n\n    /**\n    * @dev externalTokenApproval approve the spender address to spend a specified amount of tokens\n    *      on behalf of msg.sender.\n    * @param _externalToken the address of the Token Contract\n    * @param _spender address\n    * @param _value the amount of ether (in Wei) which the approval is referring to.\n    * @return bool which represents a success\n    */\n    function externalTokenApproval(IERC20 _externalToken, address _spender, uint256 _value, Avatar _avatar)\n    external\n    onlyRegisteredScheme(address(_avatar))\n    onlySubjectToConstraint(\"externalTokenApproval\", address(_avatar))\n    returns(bool)\n    {\n        return _avatar.externalTokenApproval(_externalToken, _spender, _value);\n    }\n\n    /**\n    * @dev metaData emits an event with a string, should contain the hash of some meta data.\n    * @param _metaData a string representing a hash of the meta data\n    * @param _avatar Avatar\n    * @return bool which represents a success\n    */\n    function metaData(string calldata _metaData, Avatar _avatar)\n        external\n        onlyMetaDataScheme(address(_avatar))\n        returns(bool)\n        {\n        return _avatar.metaData(_metaData);\n    }\n\n    function isSchemeRegistered( address _scheme, address _avatar) external view returns(bool) {\n        return _isSchemeRegistered(_scheme, _avatar);\n    }\n\n    function getSchemeParameters(address _scheme, address _avatar) external view returns(bytes32) {\n        return organizations[_avatar].schemes[_scheme].paramsHash;\n    }\n\n    function getSchemePermissions(address _scheme, address _avatar) external view returns(bytes4) {\n        return organizations[_avatar].schemes[_scheme].permissions;\n    }\n\n    function getGlobalConstraintParameters(address _globalConstraint, address _avatar) external view returns(bytes32) {\n\n        Organization storage organization = organizations[_avatar];\n\n        GlobalConstraintRegister memory register = organization.globalConstraintsRegisterPre[_globalConstraint];\n\n        if (register.isRegistered) {\n            return organization.globalConstraintsPre[register.index].params;\n        }\n\n        register = organization.globalConstraintsRegisterPost[_globalConstraint];\n\n        if (register.isRegistered) {\n            return organization.globalConstraintsPost[register.index].params;\n        }\n    }\n\n   /**\n   * @dev globalConstraintsCount return the global constraint pre and post count\n   * @return uint256 globalConstraintsPre count.\n   * @return uint256 globalConstraintsPost count.\n   */\n    function globalConstraintsCount(address _avatar) external view returns(uint, uint) {\n        return (\n        organizations[_avatar].globalConstraintsPre.length,\n        organizations[_avatar].globalConstraintsPost.length\n        );\n    }\n\n    function isGlobalConstraintRegistered(address _globalConstraint, address _avatar) external view returns(bool) {\n        return (organizations[_avatar].globalConstraintsRegisterPre[_globalConstraint].isRegistered ||\n        organizations[_avatar].globalConstraintsRegisterPost[_globalConstraint].isRegistered);\n    }\n\n    /**\n     * @dev getNativeReputation\n     * @param _avatar the organization avatar.\n     * @return organization native reputation\n     */\n    function getNativeReputation(address _avatar) external view returns(address) {\n        return address(organizations[_avatar].nativeReputation);\n    }\n\n    /**\n     * @dev removeGlobalConstraintPre\n     * @param _globalConstraint the address of the global constraint to be remove.\n     * @param _avatar the organization avatar.\n     * @return bool which represents a success\n     */\n    function removeGlobalConstraintPre(address _globalConstraint, address _avatar)\n    private returns(bool)\n    {\n        GlobalConstraintRegister memory globalConstraintRegister =\n        organizations[_avatar].globalConstraintsRegisterPre[_globalConstraint];\n        GlobalConstraint[] storage globalConstraints = organizations[_avatar].globalConstraintsPre;\n\n        if (globalConstraintRegister.isRegistered) {\n            if (globalConstraintRegister.index < globalConstraints.length-1) {\n                GlobalConstraint memory globalConstraint = globalConstraints[globalConstraints.length-1];\n                globalConstraints[globalConstraintRegister.index] = globalConstraint;\n                organizations[_avatar].globalConstraintsRegisterPre[globalConstraint.gcAddress].index =\n                globalConstraintRegister.index;\n            }\n            globalConstraints.length--;\n            delete organizations[_avatar].globalConstraintsRegisterPre[_globalConstraint];\n            emit RemoveGlobalConstraint(_globalConstraint, globalConstraintRegister.index, true, _avatar);\n            return true;\n        }\n        return false;\n    }\n\n    /**\n     * @dev removeGlobalConstraintPost\n     * @param _globalConstraint the address of the global constraint to be remove.\n     * @param _avatar the organization avatar.\n     * @return bool which represents a success\n     */\n    function removeGlobalConstraintPost(address _globalConstraint, address _avatar)\n    private returns(bool)\n    {\n        GlobalConstraintRegister memory globalConstraintRegister =\n        organizations[_avatar].globalConstraintsRegisterPost[_globalConstraint];\n        GlobalConstraint[] storage globalConstraints = organizations[_avatar].globalConstraintsPost;\n\n        if (globalConstraintRegister.isRegistered) {\n            if (globalConstraintRegister.index < globalConstraints.length-1) {\n                GlobalConstraint memory globalConstraint = globalConstraints[globalConstraints.length-1];\n                globalConstraints[globalConstraintRegister.index] = globalConstraint;\n                organizations[_avatar].globalConstraintsRegisterPost[globalConstraint.gcAddress].index =\n                globalConstraintRegister.index;\n            }\n            globalConstraints.length--;\n            delete organizations[_avatar].globalConstraintsRegisterPost[_globalConstraint];\n            emit RemoveGlobalConstraint(_globalConstraint, globalConstraintRegister.index, false, _avatar);\n            return true;\n        }\n        return false;\n    }\n\n    function _isSchemeRegistered( address _scheme, address _avatar) private view returns(bool) {\n        return (organizations[_avatar].schemes[_scheme].permissions&bytes4(0x00000001) != bytes4(0));\n    }\n}\n",
  "sourcePath": "/src/contracts/arc/controller/UController.sol",
  "compiler": {
    "name": "solc",
    "version": "0.5.6+commit.b259423e.Emscripten.clang"
  },
  "schemaVersion": "3.0.14",
  "updatedAt": "2019-10-26T14:19:12.785Z",
  "devdoc": {
    "details": "A universal controller hold organizations and controls their tokens ,reputations      and avatar. It is subject to a set of schemes and constraints that determine its behavior. Each scheme has it own parameters and operation permissions.",
    "methods": {
      "addGlobalConstraint(address,bytes32,address)": {
        "details": "add or update Global Constraint",
        "params": {
          "_avatar": "the avatar of the organization",
          "_globalConstraint": "the address of the global constraint to be added.",
          "_params": "the constraint parameters hash."
        },
        "return": "bool which represents a success"
      },
      "burnReputation(uint256,address,address)": {
        "details": "Burns `_amount` of reputation from `_from`",
        "params": {
          "_amount": "amount of reputation to burn",
          "_from": "The address that will lose the reputation"
        },
        "return": "bool which represents a success"
      },
      "externalTokenApproval(address,address,uint256,address)": {
        "details": "externalTokenApproval approve the spender address to spend a specified amount of tokens     on behalf of msg.sender.",
        "params": {
          "_externalToken": "the address of the Token Contract",
          "_spender": "address",
          "_value": "the amount of ether (in Wei) which the approval is referring to."
        },
        "return": "bool which represents a success"
      },
      "externalTokenTransfer(address,address,uint256,address)": {
        "details": "send some amount of arbitrary ERC20 Tokens",
        "params": {
          "_avatar": "the organization avatar.",
          "_externalToken": "the address of the Token Contract",
          "_to": "address of the beneficiary",
          "_value": "the amount of ether (in Wei) to send"
        },
        "return": "bool which represents a success"
      },
      "externalTokenTransferFrom(address,address,address,uint256,address)": {
        "details": "transfer token \"from\" address \"to\" address     One must to approve the amount of tokens which can be spend from the     \"from\" account.This can be done using externalTokenApprove.",
        "params": {
          "_avatar": "the organization avatar.",
          "_externalToken": "the address of the Token Contract",
          "_from": "address of the account to send from",
          "_to": "address of the beneficiary",
          "_value": "the amount of ether (in Wei) to send"
        },
        "return": "bool which represents a success"
      },
      "genericCall(address,bytes,address,uint256)": {
        "details": "perform a generic call to an arbitrary contract",
        "params": {
          "_avatar": "the controller's avatar address",
          "_contract": "the contract's address to call",
          "_data": "ABI-encoded contract call to call `_contract` address.",
          "_value": "value (ETH) to transfer with the transaction"
        },
        "return": "bool -success        bytes  - the return value of the called _contract's function."
      },
      "getNativeReputation(address)": {
        "details": "getNativeReputation",
        "params": {
          "_avatar": "the organization avatar."
        },
        "return": "organization native reputation"
      },
      "globalConstraintsCount(address)": {
        "details": "globalConstraintsCount return the global constraint pre and post count",
        "return": "uint256 globalConstraintsPre count.uint256 globalConstraintsPost count."
      },
      "metaData(string,address)": {
        "details": "metaData emits an event with a string, should contain the hash of some meta data.",
        "params": {
          "_avatar": "Avatar",
          "_metaData": "a string representing a hash of the meta data"
        },
        "return": "bool which represents a success"
      },
      "mintReputation(uint256,address,address)": {
        "details": "Mint `_amount` of reputation that are assigned to `_to` .",
        "params": {
          "_amount": "amount of reputation to mint",
          "_avatar": "the address of the organization's avatar",
          "_to": "beneficiary address"
        },
        "return": "bool which represents a success"
      },
      "mintTokens(uint256,address,address)": {
        "details": "mint tokens .",
        "params": {
          "_amount": "amount of token to mint",
          "_avatar": "the organization avatar.",
          "_beneficiary": "beneficiary address"
        },
        "return": "bool which represents a success"
      },
      "newOrganization(address)": {
        "details": "newOrganization set up a new organization with default daoCreator.",
        "params": {
          "_avatar": "the organization avatar"
        }
      },
      "registerScheme(address,bytes32,bytes4,address)": {
        "details": "register or update a scheme",
        "params": {
          "_avatar": "the organization avatar.",
          "_paramsHash": "a hashed configuration of the usage of the scheme",
          "_permissions": "the permissions the new scheme will have",
          "_scheme": "the address of the scheme"
        },
        "return": "bool which represents a success"
      },
      "removeGlobalConstraint(address,address)": {
        "details": "remove Global Constraint",
        "params": {
          "_avatar": "the organization avatar.",
          "_globalConstraint": "the address of the global constraint to be remove."
        },
        "return": "bool which represents a success"
      },
      "sendEther(uint256,address,address)": {
        "details": "send some ether",
        "params": {
          "_amountInWei": "the amount of ether (in Wei) to send",
          "_avatar": "the organization avatar.",
          "_to": "address of the beneficiary"
        },
        "return": "bool which represents a success"
      },
      "unregisterScheme(address,address)": {
        "details": "unregister a scheme",
        "params": {
          "_avatar": "the organization avatar.",
          "_scheme": "the address of the scheme"
        },
        "return": "bool which represents a success"
      },
      "unregisterSelf(address)": {
        "details": "unregister the caller's scheme",
        "params": {
          "_avatar": "the organization avatar."
        },
        "return": "bool which represents a success"
      },
      "upgradeController(address,address)": {
        "details": "upgrade the Controller     The function will trigger an event 'UpgradeController'.",
        "params": {
          "_avatar": "the organization avatar.",
          "_newController": "the address of the new controller."
        },
        "return": "bool which represents a success"
      }
    },
    "title": "Universal Controller contract"
  },
  "userdoc": {
    "methods": {}
  }
}