{
  "contractName": "UniversalSchemeMock",
  "abi": [
    {
      "constant": false,
      "inputs": [
        {
          "name": "_avatar",
          "type": "address"
        },
        {
          "name": "_contract",
          "type": "address"
        },
        {
          "name": "_a",
          "type": "uint256"
        },
        {
          "name": "_b",
          "type": "address"
        },
        {
          "name": "_c",
          "type": "bytes32"
        },
        {
          "name": "_value",
          "type": "uint256"
        }
      ],
      "name": "genericCall",
      "outputs": [
        {
          "name": "",
          "type": "bool"
        },
        {
          "name": "",
          "type": "bytes"
        }
      ],
      "payable": false,
      "stateMutability": "nonpayable",
      "type": "function"
    },
    {
      "constant": false,
      "inputs": [
        {
          "name": "_avatar",
          "type": "address"
        },
        {
          "name": "_contract",
          "type": "address"
        },
        {
          "name": "_a",
          "type": "uint256"
        },
        {
          "name": "_b",
          "type": "address"
        },
        {
          "name": "_c",
          "type": "bytes32"
        },
        {
          "name": "_value",
          "type": "uint256"
        }
      ],
      "name": "genericCallDirect",
      "outputs": [
        {
          "name": "",
          "type": "bool"
        },
        {
          "name": "",
          "type": "bytes"
        }
      ],
      "payable": false,
      "stateMutability": "nonpayable",
      "type": "function"
    }
  ],
  "bytecode": "0x608060405234801561001057600080fd5b50610599806100206000396000f3fe608060405234801561001057600080fd5b50600436106100355760003560e01c80624080961461003a578063b9642c0e14610107575b600080fd5b610084600480360360c081101561005057600080fd5b506001600160a01b038135811691602081013582169160408201359160608101359091169060808101359060a00135610151565b604051808315151515815260200180602001828103825283818151815260200191508051906020019080838360005b838110156100cb5781810151838201526020016100b3565b50505050905090810190601f1680156100f85780820380516001836020036101000a031916815260200191505b50935050505060405180910390f35b610084600480360360c081101561011d57600080fd5b506001600160a01b038135811691602081013582169160408201359160608101359091169060808101359060a001356102fe565b6040805160248082018790526001600160a01b038681166044808501919091526064808501889052855180860382018152608495860187526020810180516001600160e01b0316600160e41b630f3e8dcd021781529651600160e31b63057e2c8b0281528c851660048201908152938101899052606095810186815282519382019390935281516000989697958f1696632bf16458968f9694958c95949093910191908083838e5b838110156102115781810151838201526020016101f9565b50505050905090810190601f16801561023e5780820380516001836020036101000a031916815260200191505b50945050505050600060405180830381600087803b15801561025f57600080fd5b505af1158015610273573d6000803e3d6000fd5b505050506040513d6000823e601f3d908101601f19168201604090815281101561029c57600080fd5b8151602083018051919392830192916401000000008111156102bd57600080fd5b820160208101848111156102d057600080fd5b81516401000000008111828201871017156102ea57600080fd5b50949d909c509a5050505050505050505050565b600060606000886001600160a01b0316638da5cb5b6040518163ffffffff1660e01b815260040160206040518083038186803b15801561033d57600080fd5b505afa158015610351573d6000803e3d6000fd5b505050506040513d602081101561036757600080fd5b81019080805190602001909291905050509050806001600160a01b031663d1b7089a8989898960405160240180848152602001836001600160a01b03166001600160a01b031681526020018281526020019350505050604051602081830303815290604052600160e41b630f3e8dcd026001600160e01b0319166020820180516001600160e01b0383818316178352505050508c886040518563ffffffff1660e01b815260040180856001600160a01b03166001600160a01b0316815260200180602001846001600160a01b03166001600160a01b03168152602001838152602001828103825285818151815260200191508051906020019080838360005b8381101561047e578181015183820152602001610466565b50505050905090810190601f1680156104ab5780820380516001836020036101000a031916815260200191505b5095505050505050600060405180830381600087803b1580156104cd57600080fd5b505af11580156104e1573d6000803e3d6000fd5b505050506040513d6000823e601f3d908101601f19168201604090815281101561050a57600080fd5b81516020830180519193928301929164010000000081111561052b57600080fd5b8201602081018481111561053e57600080fd5b815164010000000081118282018710171561055857600080fd5b50949e909d509b50505050505050505050505056fea165627a7a72305820b64fa8bc689cfae3470d007e0b464f726b3247a8a0da1a0b4d9c5c1ced8356420029",
  "source": "pragma solidity ^0.5.4;\n\nimport \"../universalSchemes/UniversalScheme.sol\";\nimport \"../controller/ControllerInterface.sol\";\n\n\ncontract UniversalSchemeMock is UniversalScheme {\n\n    function genericCall(Avatar _avatar, address _contract, uint256 _a, address _b, bytes32 _c, uint256 _value)\n    public returns(bool, bytes memory)\n    {\n\n        address controller = _avatar.owner();\n        return ControllerInterface(controller).genericCall(\n        _contract, abi.encodeWithSignature(\"test(uint256,address,bytes32)\", _a, _b, _c), _avatar, _value);\n    }\n\n    function genericCallDirect(Avatar _avatar, address _contract, uint256 _a, address _b, bytes32 _c, uint256 _value)\n    public returns(bool, bytes memory)\n    {\n        return _avatar.genericCall(\n        _contract,\n        abi.encodeWithSignature(\"test(uint256,address,bytes32)\", _a, _b, _c),\n        _value);\n    }\n}\n",
  "sourcePath": "/src/contracts/arc/test/UniversalSchemeMock.sol",
  "compiler": {
    "name": "solc",
    "version": "0.5.6+commit.b259423e.Emscripten.clang"
  },
  "schemaVersion": "3.0.14",
  "updatedAt": "2019-10-27T20:10:40.592Z",
  "devdoc": {
    "methods": {}
  },
  "userdoc": {
    "methods": {}
  }
}