{
  "contractName": "UpgradeScheme",
  "abi": [
    {
      "constant": true,
      "inputs": [
        {
          "name": "",
          "type": "bytes32"
        }
      ],
      "name": "parameters",
      "outputs": [
        {
          "name": "voteParams",
          "type": "bytes32"
        },
        {
          "name": "intVote",
          "type": "address"
        }
      ],
      "payable": false,
      "stateMutability": "view",
      "type": "function"
    },
    {
      "constant": true,
      "inputs": [
        {
          "name": "",
          "type": "address"
        },
        {
          "name": "",
          "type": "bytes32"
        }
      ],
      "name": "organizationsProposals",
      "outputs": [
        {
          "name": "upgradeContract",
          "type": "address"
        },
        {
          "name": "params",
          "type": "bytes32"
        },
        {
          "name": "proposalType",
          "type": "uint256"
        }
      ],
      "payable": false,
      "stateMutability": "view",
      "type": "function"
    },
    {
      "constant": true,
      "inputs": [
        {
          "name": "",
          "type": "address"
        },
        {
          "name": "",
          "type": "bytes32"
        }
      ],
      "name": "proposalsInfo",
      "outputs": [
        {
          "name": "blockNumber",
          "type": "uint256"
        },
        {
          "name": "avatar",
          "type": "address"
        }
      ],
      "payable": false,
      "stateMutability": "view",
      "type": "function"
    },
    {
      "constant": true,
      "inputs": [
        {
          "name": "_stakingToken",
          "type": "address"
        },
        {
          "name": "_proposalId",
          "type": "bytes32"
        }
      ],
      "name": "balanceOfStakingToken",
      "outputs": [
        {
          "name": "",
          "type": "uint256"
        }
      ],
      "payable": false,
      "stateMutability": "view",
      "type": "function"
    },
    {
      "constant": true,
      "inputs": [
        {
          "name": "_owner",
          "type": "address"
        },
        {
          "name": "_proposalId",
          "type": "bytes32"
        }
      ],
      "name": "reputationOf",
      "outputs": [
        {
          "name": "",
          "type": "uint256"
        }
      ],
      "payable": false,
      "stateMutability": "view",
      "type": "function"
    },
    {
      "constant": true,
      "inputs": [
        {
          "name": "_proposalId",
          "type": "bytes32"
        }
      ],
      "name": "getTotalReputationSupply",
      "outputs": [
        {
          "name": "",
          "type": "uint256"
        }
      ],
      "payable": false,
      "stateMutability": "view",
      "type": "function"
    },
    {
      "constant": false,
      "inputs": [
        {
          "name": "_stakingToken",
          "type": "address"
        },
        {
          "name": "_beneficiary",
          "type": "address"
        },
        {
          "name": "_amount",
          "type": "uint256"
        },
        {
          "name": "_proposalId",
          "type": "bytes32"
        }
      ],
      "name": "stakingTokenTransfer",
      "outputs": [
        {
          "name": "",
          "type": "bool"
        }
      ],
      "payable": false,
      "stateMutability": "nonpayable",
      "type": "function"
    },
    {
      "constant": false,
      "inputs": [
        {
          "name": "_amount",
          "type": "uint256"
        },
        {
          "name": "_beneficiary",
          "type": "address"
        },
        {
          "name": "_proposalId",
          "type": "bytes32"
        }
      ],
      "name": "mintReputation",
      "outputs": [
        {
          "name": "",
          "type": "bool"
        }
      ],
      "payable": false,
      "stateMutability": "nonpayable",
      "type": "function"
    },
    {
      "constant": false,
      "inputs": [
        {
          "name": "_amount",
          "type": "uint256"
        },
        {
          "name": "_beneficiary",
          "type": "address"
        },
        {
          "name": "_proposalId",
          "type": "bytes32"
        }
      ],
      "name": "burnReputation",
      "outputs": [
        {
          "name": "",
          "type": "bool"
        }
      ],
      "payable": false,
      "stateMutability": "nonpayable",
      "type": "function"
    },
    {
      "anonymous": false,
      "inputs": [
        {
          "indexed": true,
          "name": "_avatar",
          "type": "address"
        },
        {
          "indexed": true,
          "name": "_proposalId",
          "type": "bytes32"
        },
        {
          "indexed": true,
          "name": "_intVoteInterface",
          "type": "address"
        },
        {
          "indexed": false,
          "name": "_newController",
          "type": "address"
        },
        {
          "indexed": false,
          "name": "_descriptionHash",
          "type": "string"
        }
      ],
      "name": "NewUpgradeProposal",
      "type": "event"
    },
    {
      "anonymous": false,
      "inputs": [
        {
          "indexed": true,
          "name": "_avatar",
          "type": "address"
        },
        {
          "indexed": true,
          "name": "_proposalId",
          "type": "bytes32"
        },
        {
          "indexed": true,
          "name": "_intVoteInterface",
          "type": "address"
        },
        {
          "indexed": false,
          "name": "_newUpgradeScheme",
          "type": "address"
        },
        {
          "indexed": false,
          "name": "_params",
          "type": "bytes32"
        },
        {
          "indexed": false,
          "name": "_descriptionHash",
          "type": "string"
        }
      ],
      "name": "ChangeUpgradeSchemeProposal",
      "type": "event"
    },
    {
      "anonymous": false,
      "inputs": [
        {
          "indexed": true,
          "name": "_avatar",
          "type": "address"
        },
        {
          "indexed": true,
          "name": "_proposalId",
          "type": "bytes32"
        },
        {
          "indexed": false,
          "name": "_param",
          "type": "int256"
        }
      ],
      "name": "ProposalExecuted",
      "type": "event"
    },
    {
      "anonymous": false,
      "inputs": [
        {
          "indexed": true,
          "name": "_avatar",
          "type": "address"
        },
        {
          "indexed": true,
          "name": "_proposalId",
          "type": "bytes32"
        }
      ],
      "name": "ProposalDeleted",
      "type": "event"
    },
    {
      "constant": false,
      "inputs": [
        {
          "name": "_proposalId",
          "type": "bytes32"
        },
        {
          "name": "_param",
          "type": "int256"
        }
      ],
      "name": "executeProposal",
      "outputs": [
        {
          "name": "",
          "type": "bool"
        }
      ],
      "payable": false,
      "stateMutability": "nonpayable",
      "type": "function"
    },
    {
      "constant": false,
      "inputs": [
        {
          "name": "_voteParams",
          "type": "bytes32"
        },
        {
          "name": "_intVote",
          "type": "address"
        }
      ],
      "name": "setParameters",
      "outputs": [
        {
          "name": "",
          "type": "bytes32"
        }
      ],
      "payable": false,
      "stateMutability": "nonpayable",
      "type": "function"
    },
    {
      "constant": true,
      "inputs": [
        {
          "name": "_voteParams",
          "type": "bytes32"
        },
        {
          "name": "_intVote",
          "type": "address"
        }
      ],
      "name": "getParametersHash",
      "outputs": [
        {
          "name": "",
          "type": "bytes32"
        }
      ],
      "payable": false,
      "stateMutability": "pure",
      "type": "function"
    },
    {
      "constant": false,
      "inputs": [
        {
          "name": "_avatar",
          "type": "address"
        },
        {
          "name": "_newController",
          "type": "address"
        },
        {
          "name": "_descriptionHash",
          "type": "string"
        }
      ],
      "name": "proposeUpgrade",
      "outputs": [
        {
          "name": "",
          "type": "bytes32"
        }
      ],
      "payable": false,
      "stateMutability": "nonpayable",
      "type": "function"
    },
    {
      "constant": false,
      "inputs": [
        {
          "name": "_avatar",
          "type": "address"
        },
        {
          "name": "_scheme",
          "type": "address"
        },
        {
          "name": "_params",
          "type": "bytes32"
        },
        {
          "name": "_descriptionHash",
          "type": "string"
        }
      ],
      "name": "proposeChangeUpgradingScheme",
      "outputs": [
        {
          "name": "",
          "type": "bytes32"
        }
      ],
      "payable": false,
      "stateMutability": "nonpayable",
      "type": "function"
    }
  ],
  "bytecode": "0x608060405234801561001057600080fd5b506119f9806100206000396000f3fe608060405234801561001057600080fd5b50600436106100ea5760003560e01c80639588378e1161008c578063bea75f2811610066578063bea75f2814610382578063d29b5d2f146103be578063da816894146103f0578063f81f8bf6146104b6576100ea565b80639588378e146103025780639d4c162d1461032e578063b551c37314610365576100ea565b806360bdbb3f116100c857806360bdbb3f146101bf57806368e14dac146101eb5780636b8eb4031461021757806374ad5c3314610243576100ea565b806302506804146100ef57806306e3a9781461012d5780632453732a14610181575b600080fd5b61010c6004803603602081101561010557600080fd5b50356104e8565b604080519283526001600160a01b0390911660208301528051918290030190f35b6101596004803603604081101561014357600080fd5b506001600160a01b03813516906020013561050a565b604080516001600160a01b039094168452602084019290925282820152519081900360600190f35b6101ad6004803603604081101561019757600080fd5b50803590602001356001600160a01b031661053e565b60408051918252519081900360200190f35b61010c600480360360408110156101d557600080fd5b506001600160a01b038135169060200135610579565b6101ad6004803603604081101561020157600080fd5b50803590602001356001600160a01b03166105a3565b6101ad6004803603604081101561022d57600080fd5b506001600160a01b0381351690602001356105e8565b6101ad6004803603606081101561025957600080fd5b6001600160a01b03823581169260208101359091169181019060608101604082013564010000000081111561028d57600080fd5b82018360208201111561029f57600080fd5b803590602001918460018302840111640100000000831117156102c157600080fd5b91908080601f0160208091040260200160405190810160405280939291908181526020018383808284376000920191909152509295506106a6945050505050565b6101ad6004803603604081101561031857600080fd5b506001600160a01b0381351690602001356108fa565b6103516004803603604081101561034457600080fd5b5080359060200135610a0b565b604080519115158252519081900360200190f35b6101ad6004803603602081101561037b57600080fd5b5035610e95565b6103516004803603608081101561039857600080fd5b506001600160a01b03813581169160208101359091169060408101359060600135610fd2565b610351600480360360608110156103d457600080fd5b508035906001600160a01b03602082013516906040013561117d565b6101ad6004803603608081101561040657600080fd5b6001600160a01b0382358116926020810135909116916040820135919081019060808101606082013564010000000081111561044157600080fd5b82018360208201111561045357600080fd5b8035906020019184600183028401116401000000008311171561047557600080fd5b91908080601f01602080910402602001604051908101604052809392919081815260200183838082843760009201919091525092955061131f945050505050565b610351600480360360608110156104cc57600080fd5b508035906001600160a01b036020820135169060400135611608565b600260205260009081526040902080546001909101546001600160a01b031682565b600160208181526000938452604080852090915291835291208054918101546002909101546001600160a01b039092169183565b6040805160208082018590526001600160a01b03841660601b8284015282516034818403018152605490920190925280519101205b92915050565b6000602081815292815260408082209093529081522080546001909101546001600160a01b031682565b6000806105b0848461053e565b600081815260026020526040902085815560010180546001600160a01b0386166001600160a01b031990911617905591505092915050565b336000908152602081815260408083208484529091528120600101546001600160a01b03168061061c576000915050610573565b836001600160a01b03166370a08231826040518263ffffffff1660e01b815260040180826001600160a01b03166001600160a01b0316815260200191505060206040518083038186803b15801561067257600080fd5b505afa158015610686573d6000803e3d6000fd5b505050506040513d602081101561069c57600080fd5b5051949350505050565b60006106b0611996565b600260006106bd87611772565b8152602080820192909252604090810160009081208251808401845281548082526001909201546001600160a01b039081168287018190528551600160e11b634439bdaf028152600260048201526024810194909452336044850152908b166064840152935190955091936388737b5e9260848084019382900301818787803b15801561074957600080fd5b505af115801561075d573d6000803e3d6000fd5b505050506040513d602081101561077357600080fd5b5051905061077f6119ad565b5060408051606080820183526001600160a01b038881168084526000602080860182815260018789018181528f87168086528285528a86208c875285528a86208a5181546001600160a01b031916908a16178155935192840192909255516002909201919091558982015188519485528483018981528d51998601999099528c519798951696899691957f5378fb6111ece3f1032a0e9b60cb0caa886ec384da4300631570473ae5a4fbc0958f958f95919492939285019291860191908190849084905b8381101561085b578181015183820152602001610843565b50505050905090810190601f1680156108885780820380516001836020036101000a031916815260200191505b50935050505060405180910390a4506040805180820182524381526001600160a01b0397881660208083019182529485015189166000908152808652838120858252909552919093209251835551600190920180546001600160a01b0319169290961691909117909455509192915050565b6000610904611996565b5033600090815260208181526040808320858452825291829020825180840190935280548352600101546001600160a01b031690820181905261094b576000915050610573565b80602001516001600160a01b03166389ae1c906040518163ffffffff1660e01b815260040160206040518083038186803b15801561098857600080fd5b505afa15801561099c573d6000803e3d6000fd5b505050506040513d60208110156109b257600080fd5b5051815160408051600160e11b63277166bf0281526001600160a01b038881166004830152602482019390935290519190921691634ee2cd7e916044808301926020929190829003018186803b15801561067257600080fd5b3360009081526020818152604080832085845290915281206001015483906001600160a01b0316610a7e5760408051600160e51b62461bcd0281526020600482015260126024820152600160701b716f6e6c7920566f74696e674d616368696e6502604482015290519081900360640190fd5b336000908152602081815260408083208784529091529020600101546001600160a01b0316610aab6119ad565b506001600160a01b0380821660009081526001602081815260408084208a8552825292839020835160608101855281549095168552918201549084015260020154908201819052610afb57600080fd5b6001600160a01b03821660008181526001602081815260408084208b855290915280832080546001600160a01b03191681559182018390556002909101829055518892917f6bc0cb9e9967b59a69ace442598e1df4368d38661bd5c0800fbcbc9fe855fbbe91a38460011415610e49576000826001600160a01b0316638da5cb5b6040518163ffffffff1660e01b815260040160206040518083038186803b158015610ba657600080fd5b505afa158015610bba573d6000803e3d6000fd5b505050506040513d6020811015610bd057600080fd5b5051604083015190915060011415610c7057815160408051600160e31b6308484f7f0281526001600160a01b03928316600482015285831660248201529051918316916342427bf8916044808201926020929091908290030181600087803b158015610c3b57600080fd5b505af1158015610c4f573d6000803e3d6000fd5b505050506040513d6020811015610c6557600080fd5b5051610c7057600080fd5b816040015160021415610e475760408051600160e11b634da8f1ad0281523060048201526001600160a01b0385811660248301529151600092841691639b51e35a916044808301926020929190829003018186803b158015610cd157600080fd5b505afa158015610ce5573d6000803e3d6000fd5b505050506040513d6020811015610cfb57600080fd5b5051835160208581015160408051600160e01b63e869d45f0281526001600160a01b03948516600482015260248101929092526001600160e01b0319851660448301528884166064830152519394509185169263e869d45f9260848082019392918290030181600087803b158015610d7257600080fd5b505af1158015610d86573d6000803e3d6000fd5b505050506040513d6020811015610d9c57600080fd5b5051610da757600080fd5b82516001600160a01b03163014610e4557816001600160a01b0316636c525b13856040518263ffffffff1660e01b815260040180826001600160a01b03166001600160a01b03168152602001915050602060405180830381600087803b158015610e1057600080fd5b505af1158015610e24573d6000803e3d6000fd5b505050506040513d6020811015610e3a57600080fd5b5051610e4557600080fd5b505b505b60408051868152905187916001600160a01b038516917fd2632e80f5364f02aded1c64e8a04637b7c8bb9c2db2bedf4b6ac47c013acbc09181900360200190a350600195945050505050565b6000610e9f611996565b5033600090815260208181526040808320858452825291829020825180840190935280548352600101546001600160a01b0316908201819052610ee6576000915050610fcd565b80602001516001600160a01b03166389ae1c906040518163ffffffff1660e01b815260040160206040518083038186803b158015610f2357600080fd5b505afa158015610f37573d6000803e3d6000fd5b505050506040513d6020811015610f4d57600080fd5b5051815160408051600160e41b630981b24d0281526004810192909252516001600160a01b039092169163981b24d091602480820192602092909190829003018186803b158015610f9d57600080fd5b505afa158015610fb1573d6000803e3d6000fd5b505050506040513d6020811015610fc757600080fd5b50519150505b919050565b3360009081526020818152604080832084845290915281206001015482906001600160a01b03166110455760408051600160e51b62461bcd0281526020600482015260126024820152600160701b716f6e6c7920566f74696e674d616368696e6502604482015290519081900360640190fd5b336000908152602081815260408083208684529091529020600101546001600160a01b031680611079576000925050611174565b806001600160a01b0316638da5cb5b6040518163ffffffff1660e01b815260040160206040518083038186803b1580156110b257600080fd5b505afa1580156110c6573d6000803e3d6000fd5b505050506040513d60208110156110dc57600080fd5b505160408051600160e01b63b9a04cdd0281526001600160a01b038a8116600483015289811660248301526044820189905284811660648301529151919092169163b9a04cdd9160848083019260209291908290030181600087803b15801561114457600080fd5b505af1158015611158573d6000803e3d6000fd5b505050506040513d602081101561116e57600080fd5b50519250505b50949350505050565b3360009081526020818152604080832084845290915281206001015482906001600160a01b03166111f05760408051600160e51b62461bcd0281526020600482015260126024820152600160701b716f6e6c7920566f74696e674d616368696e6502604482015290519081900360640190fd5b336000908152602081815260408083208684529091529020600101546001600160a01b031680611224576000925050611317565b806001600160a01b0316638da5cb5b6040518163ffffffff1660e01b815260040160206040518083038186803b15801561125d57600080fd5b505afa158015611271573d6000803e3d6000fd5b505050506040513d602081101561128757600080fd5b505160408051600160e11b63757cca59028152600481018990526001600160a01b03888116602483015284811660448301529151919092169163eaf994b29160648083019260209291908290030181600087803b1580156112e757600080fd5b505af11580156112fb573d6000803e3d6000fd5b505050506040513d602081101561131157600080fd5b50519250505b509392505050565b6000611329611996565b6002600061133688611772565b8152602080820192909252604090810160009081208251808401845281548082526001909201546001600160a01b039081168287018190528551600160e11b634439bdaf028152600260048201526024810194909452336044850152908c16606484015293519095509293919284926388737b5e926084808201939182900301818787803b1580156113c757600080fd5b505af11580156113db573d6000803e3d6000fd5b505050506040513d60208110156113f157600080fd5b50516001600160a01b03891660009081526001602090815260408083208484529091529020600201549091501561142757600080fd5b61142f6119ad565b6040518060600160405280896001600160a01b031681526020018881526020016002815250905080600160008b6001600160a01b03166001600160a01b03168152602001908152602001600020600084815260200190815260200160002060008201518160000160006101000a8154816001600160a01b0302191690836001600160a01b03160217905550602082015181600101556040820151816002015590505083602001516001600160a01b0316828a6001600160a01b03167f54db9b1773952b7528e7872ab8f8411827fe4d14f722aecf6dc0f0fd59de99b88b8b8b60405180846001600160a01b03166001600160a01b0316815260200183815260200180602001828103825283818151815260200191508051906020019080838360005b83811015611569578181015183820152602001611551565b50505050905090810190601f1680156115965780820380516001836020036101000a031916815260200191505b5094505050505060405180910390a4506040805180820182524381526001600160a01b03998a166020808301918252948b166000908152808652838120858252909552919093209251835551600190920180546001600160a01b03191692909816919091179096555093949350505050565b3360009081526020818152604080832084845290915281206001015482906001600160a01b031661167b5760408051600160e51b62461bcd0281526020600482015260126024820152600160701b716f6e6c7920566f74696e674d616368696e6502604482015290519081900360640190fd5b336000908152602081815260408083208684529091529020600101546001600160a01b0316806116af576000925050611317565b806001600160a01b0316638da5cb5b6040518163ffffffff1660e01b815260040160206040518083038186803b1580156116e857600080fd5b505afa1580156116fc573d6000803e3d6000fd5b505050506040513d602081101561171257600080fd5b505160408051600160e31b630dd29a4f028152600481018990526001600160a01b038881166024830152848116604483015291519190921691636e94d2789160648083019260209291908290030181600087803b1580156112e757600080fd5b6000816001600160a01b0316638da5cb5b6040518163ffffffff1660e01b815260040160206040518083038186803b1580156117ad57600080fd5b505afa1580156117c1573d6000803e3d6000fd5b505050506040513d60208110156117d757600080fd5b505160408051600160e01b639be2faed0281523060048201526001600160a01b03858116602483015291519190921691639be2faed916044808301926020929190829003018186803b15801561182c57600080fd5b505afa158015611840573d6000803e3d6000fd5b505050506040513d602081101561185657600080fd5b50516118ac5760408051600160e51b62461bcd02815260206004820152601860248201527f736368656d65206973206e6f7420726567697374657265640000000000000000604482015290519081900360640190fd5b816001600160a01b0316638da5cb5b6040518163ffffffff1660e01b815260040160206040518083038186803b1580156118e557600080fd5b505afa1580156118f9573d6000803e3d6000fd5b505050506040513d602081101561190f57600080fd5b505160408051600160e31b630389aac10281523060048201526001600160a01b03858116602483015291519190921691631c4d5608916044808301926020929190829003018186803b15801561196457600080fd5b505afa158015611978573d6000803e3d6000fd5b505050506040513d602081101561198e57600080fd5b505192915050565b604080518082019091526000808252602082015290565b60408051606081018252600080825260208201819052918101919091529056fea165627a7a72305820b909046484e33a4e3dd3c1fa9b7720dd0628ac7fbb0fd276186bfa3f44aaf06d0029",
  "source": "pragma solidity ^0.5.4;\n\nimport \"@daostack/infra/contracts/votingMachines/IntVoteInterface.sol\";\nimport \"@daostack/infra/contracts/votingMachines/ProposalExecuteInterface.sol\";\nimport \"./UniversalScheme.sol\";\nimport \"../votingMachines/VotingMachineCallbacks.sol\";\n\n\n/**\n * @title A scheme to manage the upgrade of an organization.\n * @dev The scheme is used to upgrade the controller of an organization to a new controller.\n */\n\ncontract UpgradeScheme is UniversalScheme, VotingMachineCallbacks, ProposalExecuteInterface {\n\n    event NewUpgradeProposal(\n        address indexed _avatar,\n        bytes32 indexed _proposalId,\n        address indexed _intVoteInterface,\n        address _newController,\n        string _descriptionHash\n    );\n\n    event ChangeUpgradeSchemeProposal(\n        address indexed _avatar,\n        bytes32 indexed _proposalId,\n        address indexed _intVoteInterface,\n        address _newUpgradeScheme,\n        bytes32 _params,\n        string _descriptionHash\n    );\n\n    event ProposalExecuted(address indexed _avatar, bytes32 indexed _proposalId, int256 _param);\n    event ProposalDeleted(address indexed _avatar, bytes32 indexed _proposalId);\n\n    // Details of an upgrade proposal:\n    struct UpgradeProposal {\n        address upgradeContract; // Either the new controller we upgrade to, or the new upgrading scheme.\n        bytes32 params; // Params for the new upgrading scheme.\n        uint256 proposalType; // 1: Upgrade controller, 2: change upgrade scheme.\n    }\n\n    // A mapping from the organization's (Avatar) address to the saved data of the organization:\n    mapping(address=>mapping(bytes32=>UpgradeProposal)) public organizationsProposals;\n\n    // A mapping from hashes to parameters (use to store a particular configuration on the controller)\n    struct Parameters {\n        bytes32 voteParams;\n        IntVoteInterface intVote;\n    }\n\n    mapping(bytes32=>Parameters) public parameters;\n\n    /**\n    * @dev execution of proposals, can only be called by the voting machine in which the vote is held.\n    * @param _proposalId the ID of the voting in the voting machine\n    * @param _param a parameter of the voting result, 1 yes and 2 is no.\n    */\n    function executeProposal(bytes32 _proposalId, int256 _param) external onlyVotingMachine(_proposalId) returns(bool) {\n        Avatar avatar = proposalsInfo[msg.sender][_proposalId].avatar;\n        UpgradeProposal memory proposal = organizationsProposals[address(avatar)][_proposalId];\n        require(proposal.proposalType != 0);\n        delete organizationsProposals[address(avatar)][_proposalId];\n        emit ProposalDeleted(address(avatar), _proposalId);\n        // Check if vote was successful:\n        if (_param == 1) {\n\n        // Define controller and get the params:\n            ControllerInterface controller = ControllerInterface(avatar.owner());\n        // Upgrading controller:\n            if (proposal.proposalType == 1) {\n                require(controller.upgradeController(proposal.upgradeContract, avatar));\n            }\n\n        // Changing upgrade scheme:\n            if (proposal.proposalType == 2) {\n                bytes4 permissions = controller.getSchemePermissions(address(this), address(avatar));\n                require(\n                controller.registerScheme(proposal.upgradeContract, proposal.params, permissions, address(avatar))\n                );\n                if (proposal.upgradeContract != address(this)) {\n                    require(controller.unregisterSelf(address(avatar)));\n                }\n            }\n        }\n        emit ProposalExecuted(address(avatar), _proposalId, _param);\n        return true;\n    }\n\n    /**\n    * @dev hash the parameters, save them if necessary, and return the hash value\n    */\n    function setParameters(\n        bytes32 _voteParams,\n        IntVoteInterface _intVote\n    ) public returns(bytes32)\n    {\n        bytes32 paramsHash = getParametersHash(_voteParams, _intVote);\n        parameters[paramsHash].voteParams = _voteParams;\n        parameters[paramsHash].intVote = _intVote;\n        return paramsHash;\n    }\n\n    /**\n    * @dev return a hash of the given parameters\n    */\n    function getParametersHash(\n        bytes32 _voteParams,\n        IntVoteInterface _intVote\n    ) public pure returns(bytes32)\n    {\n        return  (keccak256(abi.encodePacked(_voteParams, _intVote)));\n    }\n\n    /**\n    * @dev propose an upgrade of the organization's controller\n    * @param _avatar avatar of the organization\n    * @param _newController address of the new controller that is being proposed\n    * @param _descriptionHash proposal description hash\n    * @return an id which represents the proposal\n    */\n    function proposeUpgrade(Avatar _avatar, address _newController, string memory _descriptionHash)\n        public\n        returns(bytes32)\n    {\n        Parameters memory params = parameters[getParametersFromController(_avatar)];\n        bytes32 proposalId = params.intVote.propose(2, params.voteParams, msg.sender, address(_avatar));\n        UpgradeProposal memory proposal = UpgradeProposal({\n            proposalType: 1,\n            upgradeContract: _newController,\n            params: bytes32(0)\n        });\n        organizationsProposals[address(_avatar)][proposalId] = proposal;\n        emit NewUpgradeProposal(\n        address(_avatar),\n        proposalId,\n        address(params.intVote),\n        _newController,\n        _descriptionHash\n        );\n        proposalsInfo[address(params.intVote)][proposalId] = ProposalInfo({\n            blockNumber:block.number,\n            avatar:_avatar\n        });\n        return proposalId;\n    }\n\n    /**\n    * @dev propose to replace this scheme by another upgrading scheme\n    * @param _avatar avatar of the organization\n    * @param _scheme address of the new upgrading scheme\n    * @param _params the parameters of the new upgrading scheme\n    * @param _descriptionHash proposal description hash\n    * @return an id which represents the proposal\n    */\n    function proposeChangeUpgradingScheme(\n        Avatar _avatar,\n        address _scheme,\n        bytes32 _params,\n        string memory _descriptionHash\n    )\n        public\n        returns(bytes32)\n    {\n        Parameters memory params = parameters[getParametersFromController(_avatar)];\n        IntVoteInterface intVote = params.intVote;\n        bytes32 proposalId = intVote.propose(2, params.voteParams, msg.sender, address(_avatar));\n        require(organizationsProposals[address(_avatar)][proposalId].proposalType == 0);\n\n        UpgradeProposal memory proposal = UpgradeProposal({\n            proposalType: 2,\n            upgradeContract: _scheme,\n            params: _params\n        });\n        organizationsProposals[address(_avatar)][proposalId] = proposal;\n\n        emit ChangeUpgradeSchemeProposal(\n            address(_avatar),\n            proposalId,\n            address(params.intVote),\n            _scheme,\n            _params,\n            _descriptionHash\n        );\n        proposalsInfo[address(intVote)][proposalId] = ProposalInfo({\n            blockNumber:block.number,\n            avatar:_avatar\n        });\n        return proposalId;\n    }\n}\n",
  "sourcePath": "@daostack/arc/contracts/universalSchemes/UpgradeScheme.sol",
  "compiler": {
    "name": "solc",
    "version": "0.5.6+commit.b259423e.Emscripten.clang"
  },
  "schemaVersion": "3.0.14",
  "updatedAt": "2019-11-16T19:29:53.729Z",
  "devdoc": {
    "details": "The scheme is used to upgrade the controller of an organization to a new controller.",
    "methods": {
      "executeProposal(bytes32,int256)": {
        "details": "execution of proposals, can only be called by the voting machine in which the vote is held.",
        "params": {
          "_param": "a parameter of the voting result, 1 yes and 2 is no.",
          "_proposalId": "the ID of the voting in the voting machine"
        }
      },
      "getParametersHash(bytes32,address)": {
        "details": "return a hash of the given parameters"
      },
      "proposeChangeUpgradingScheme(address,address,bytes32,string)": {
        "details": "propose to replace this scheme by another upgrading scheme",
        "params": {
          "_avatar": "avatar of the organization",
          "_descriptionHash": "proposal description hash",
          "_params": "the parameters of the new upgrading scheme",
          "_scheme": "address of the new upgrading scheme"
        },
        "return": "an id which represents the proposal"
      },
      "proposeUpgrade(address,address,string)": {
        "details": "propose an upgrade of the organization's controller",
        "params": {
          "_avatar": "avatar of the organization",
          "_descriptionHash": "proposal description hash",
          "_newController": "address of the new controller that is being proposed"
        },
        "return": "an id which represents the proposal"
      },
      "setParameters(bytes32,address)": {
        "details": "hash the parameters, save them if necessary, and return the hash value"
      }
    },
    "title": "A scheme to manage the upgrade of an organization."
  },
  "userdoc": {
    "methods": {}
  }
}