{
  "contractName": "VoteInOrganizationScheme",
  "abi": [
    {
      "constant": true,
      "inputs": [
        {
          "name": "",
          "type": "bytes32"
        }
      ],
      "name": "parameters",
      "outputs": [
        {
          "name": "intVote",
          "type": "address"
        },
        {
          "name": "voteParams",
          "type": "bytes32"
        }
      ],
      "payable": false,
      "stateMutability": "view",
      "type": "function"
    },
    {
      "constant": true,
      "inputs": [
        {
          "name": "",
          "type": "address"
        },
        {
          "name": "",
          "type": "bytes32"
        }
      ],
      "name": "organizationsProposals",
      "outputs": [
        {
          "name": "originalIntVote",
          "type": "address"
        },
        {
          "name": "originalProposalId",
          "type": "bytes32"
        },
        {
          "name": "vote",
          "type": "uint256"
        },
        {
          "name": "exist",
          "type": "bool"
        }
      ],
      "payable": false,
      "stateMutability": "view",
      "type": "function"
    },
    {
      "constant": true,
      "inputs": [
        {
          "name": "",
          "type": "address"
        },
        {
          "name": "",
          "type": "bytes32"
        }
      ],
      "name": "proposalsInfo",
      "outputs": [
        {
          "name": "blockNumber",
          "type": "uint256"
        },
        {
          "name": "avatar",
          "type": "address"
        }
      ],
      "payable": false,
      "stateMutability": "view",
      "type": "function"
    },
    {
      "constant": true,
      "inputs": [
        {
          "name": "_stakingToken",
          "type": "address"
        },
        {
          "name": "_proposalId",
          "type": "bytes32"
        }
      ],
      "name": "balanceOfStakingToken",
      "outputs": [
        {
          "name": "",
          "type": "uint256"
        }
      ],
      "payable": false,
      "stateMutability": "view",
      "type": "function"
    },
    {
      "constant": true,
      "inputs": [
        {
          "name": "_owner",
          "type": "address"
        },
        {
          "name": "_proposalId",
          "type": "bytes32"
        }
      ],
      "name": "reputationOf",
      "outputs": [
        {
          "name": "",
          "type": "uint256"
        }
      ],
      "payable": false,
      "stateMutability": "view",
      "type": "function"
    },
    {
      "constant": true,
      "inputs": [
        {
          "name": "_proposalId",
          "type": "bytes32"
        }
      ],
      "name": "getTotalReputationSupply",
      "outputs": [
        {
          "name": "",
          "type": "uint256"
        }
      ],
      "payable": false,
      "stateMutability": "view",
      "type": "function"
    },
    {
      "constant": false,
      "inputs": [
        {
          "name": "_stakingToken",
          "type": "address"
        },
        {
          "name": "_beneficiary",
          "type": "address"
        },
        {
          "name": "_amount",
          "type": "uint256"
        },
        {
          "name": "_proposalId",
          "type": "bytes32"
        }
      ],
      "name": "stakingTokenTransfer",
      "outputs": [
        {
          "name": "",
          "type": "bool"
        }
      ],
      "payable": false,
      "stateMutability": "nonpayable",
      "type": "function"
    },
    {
      "constant": false,
      "inputs": [
        {
          "name": "_amount",
          "type": "uint256"
        },
        {
          "name": "_beneficiary",
          "type": "address"
        },
        {
          "name": "_proposalId",
          "type": "bytes32"
        }
      ],
      "name": "mintReputation",
      "outputs": [
        {
          "name": "",
          "type": "bool"
        }
      ],
      "payable": false,
      "stateMutability": "nonpayable",
      "type": "function"
    },
    {
      "constant": false,
      "inputs": [
        {
          "name": "_amount",
          "type": "uint256"
        },
        {
          "name": "_beneficiary",
          "type": "address"
        },
        {
          "name": "_proposalId",
          "type": "bytes32"
        }
      ],
      "name": "burnReputation",
      "outputs": [
        {
          "name": "",
          "type": "bool"
        }
      ],
      "payable": false,
      "stateMutability": "nonpayable",
      "type": "function"
    },
    {
      "anonymous": false,
      "inputs": [
        {
          "indexed": true,
          "name": "_avatar",
          "type": "address"
        },
        {
          "indexed": true,
          "name": "_proposalId",
          "type": "bytes32"
        },
        {
          "indexed": true,
          "name": "_intVoteInterface",
          "type": "address"
        },
        {
          "indexed": false,
          "name": "_originalIntVote",
          "type": "address"
        },
        {
          "indexed": false,
          "name": "_originalProposalId",
          "type": "bytes32"
        },
        {
          "indexed": false,
          "name": "_vote",
          "type": "uint256"
        },
        {
          "indexed": false,
          "name": "_descriptionHash",
          "type": "string"
        }
      ],
      "name": "NewVoteProposal",
      "type": "event"
    },
    {
      "anonymous": false,
      "inputs": [
        {
          "indexed": true,
          "name": "_avatar",
          "type": "address"
        },
        {
          "indexed": true,
          "name": "_proposalId",
          "type": "bytes32"
        },
        {
          "indexed": false,
          "name": "_param",
          "type": "int256"
        },
        {
          "indexed": false,
          "name": "_callReturnValue",
          "type": "bytes"
        }
      ],
      "name": "ProposalExecuted",
      "type": "event"
    },
    {
      "anonymous": false,
      "inputs": [
        {
          "indexed": true,
          "name": "_avatar",
          "type": "address"
        },
        {
          "indexed": true,
          "name": "_proposalId",
          "type": "bytes32"
        }
      ],
      "name": "ProposalDeleted",
      "type": "event"
    },
    {
      "constant": false,
      "inputs": [
        {
          "name": "_proposalId",
          "type": "bytes32"
        },
        {
          "name": "_param",
          "type": "int256"
        }
      ],
      "name": "executeProposal",
      "outputs": [
        {
          "name": "",
          "type": "bool"
        }
      ],
      "payable": false,
      "stateMutability": "nonpayable",
      "type": "function"
    },
    {
      "constant": false,
      "inputs": [
        {
          "name": "_voteParams",
          "type": "bytes32"
        },
        {
          "name": "_intVote",
          "type": "address"
        }
      ],
      "name": "setParameters",
      "outputs": [
        {
          "name": "",
          "type": "bytes32"
        }
      ],
      "payable": false,
      "stateMutability": "nonpayable",
      "type": "function"
    },
    {
      "constant": true,
      "inputs": [
        {
          "name": "_voteParams",
          "type": "bytes32"
        },
        {
          "name": "_intVote",
          "type": "address"
        }
      ],
      "name": "getParametersHash",
      "outputs": [
        {
          "name": "",
          "type": "bytes32"
        }
      ],
      "payable": false,
      "stateMutability": "pure",
      "type": "function"
    },
    {
      "constant": false,
      "inputs": [
        {
          "name": "_avatar",
          "type": "address"
        },
        {
          "name": "_originalIntVote",
          "type": "address"
        },
        {
          "name": "_originalProposalId",
          "type": "bytes32"
        },
        {
          "name": "_vote",
          "type": "uint256"
        },
        {
          "name": "_descriptionHash",
          "type": "string"
        }
      ],
      "name": "proposeVote",
      "outputs": [
        {
          "name": "",
          "type": "bytes32"
        }
      ],
      "payable": false,
      "stateMutability": "nonpayable",
      "type": "function"
    }
  ],
  "bytecode": "0x608060405234801561001057600080fd5b5061192d806100206000396000f3fe608060405234801561001057600080fd5b50600436106100cf5760003560e01c80636b8eb4031161008c578063b551c37311610066578063b551c37314610383578063bea75f28146103a0578063d29b5d2f146103dc578063f81f8bf61461040e576100cf565b80636b8eb403146102f45780639588378e146103205780639d4c162d1461034c576100cf565b806302506804146100d457806306e3a9781461011457806319910699146101725780632453732a1461024f57806360bdbb3f1461027b57806368e14dac146102c8575b600080fd5b6100f1600480360360208110156100ea57600080fd5b5035610440565b604080516001600160a01b03909316835260208301919091528051918290030190f35b6101406004803603604081101561012a57600080fd5b506001600160a01b038135169060200135610465565b604080516001600160a01b03909516855260208501939093528383019190915215156060830152519081900360800190f35b61023d600480360360a081101561018857600080fd5b6001600160a01b03823581169260208101359091169160408201359160608101359181019060a0810160808201356401000000008111156101c857600080fd5b8201836020820111156101da57600080fd5b803590602001918460018302840111640100000000831117156101fc57600080fd5b91908080601f0160208091040260200160405190810160405280939291908181526020018383808284376000920191909152509295506104a4945050505050565b60408051918252519081900360200190f35b61023d6004803603604081101561026557600080fd5b50803590602001356001600160a01b0316610915565b6102a76004803603604081101561029157600080fd5b506001600160a01b038135169060200135610950565b604080519283526001600160a01b0390911660208301528051918290030190f35b61023d600480360360408110156102de57600080fd5b50803590602001356001600160a01b031661097a565b61023d6004803603604081101561030a57600080fd5b506001600160a01b0381351690602001356109c0565b61023d6004803603604081101561033657600080fd5b506001600160a01b038135169060200135610a7e565b61036f6004803603604081101561036257600080fd5b5080359060200135610b8f565b604080519115158252519081900360200190f35b61023d6004803603602081101561039957600080fd5b5035611053565b61036f600480360360808110156103b657600080fd5b506001600160a01b03813581169160208101359091169060408101359060600135611190565b61036f600480360360608110156103f257600080fd5b508035906001600160a01b03602082013516906040013561133b565b61036f6004803603606081101561042457600080fd5b508035906001600160a01b0360208201351690604001356114dd565b600260205260009081526040902080546001909101546001600160a01b039091169082565b6001602081815260009384526040808520909152918352912080549181015460028201546003909201546001600160a01b039093169290919060ff1684565b60006104ae61186b565b600260006104bb89611647565b8152602080820192909252604090810160009081208251808401845281546001600160a01b03908116808352600190930154958201959095528351600160e11b6328a15e0f02815284519196509194929384938c1692635142bc1e9260048083019392829003018186803b15801561053257600080fd5b505afa158015610546573d6000803e3d6000fd5b505050506040513d604081101561055c57600080fd5b508051602090910151909250905080871180159061057a5750818710155b6105b857604051600160e51b62461bcd0281526004018080602001828103825260238152602001806118aa6023913960400191505060405180910390fd5b886001600160a01b031663a003651d896040518263ffffffff1660e01b81526004018082815260200191505060206040518083038186803b1580156105fc57600080fd5b505afa158015610610573d6000803e3d6000fd5b505050506040513d602081101561062657600080fd5b505187111561066957604051600160e51b62461bcd0281526004018080602001828103825260358152602001806118cd6035913960400191505060405180910390fd5b60208085015160408051600160e11b634439bdaf0281526002600482015260248101929092523360448301526001600160a01b038d811660648401529051600093918716926388737b5e92608480830193919282900301818787803b1580156106d157600080fd5b505af11580156106e5573d6000803e3d6000fd5b505050506040513d60208110156106fb57600080fd5b8101908080519060200190929190505050905060405180608001604052808b6001600160a01b031681526020018a815260200189815260200160011515815250600160008d6001600160a01b03166001600160a01b03168152602001908152602001600020600083815260200190815260200160002060008201518160000160006101000a8154816001600160a01b0302191690836001600160a01b03160217905550602082015181600101556040820151816002015560608201518160030160006101000a81548160ff02191690831515021790555090505084600001516001600160a01b0316818c6001600160a01b03167f612d055dc0e586b349ae636d1de3fc64fbcf367d8c8c7406bd1823267cfe7e208d8d8d8d60405180856001600160a01b03166001600160a01b0316815260200184815260200183815260200180602001828103825283818151815260200191508051906020019080838360005b8381101561087457818101518382015260200161085c565b50505050905090810190601f1680156108a15780820380516001836020036101000a031916815260200191505b509550505050505060405180910390a46040805180820182524381526001600160a01b039c8d166020808301918252968e166000908152808852838120858252909752919095209451855551600190940180546001600160a01b03191694909b169390931790995550979650505050505050565b6040805160208082018590526001600160a01b03841660601b8284015282516034818403018152605490920190925280519101205b92915050565b6000602081815292815260408082209093529081522080546001909101546001600160a01b031682565b6000806109878484610915565b60008181526002602052604090206001810186905580546001600160a01b0386166001600160a01b031990911617905591505092915050565b336000908152602081815260408083208484529091528120600101546001600160a01b0316806109f457600091505061094a565b836001600160a01b03166370a08231826040518263ffffffff1660e01b815260040180826001600160a01b03166001600160a01b0316815260200191505060206040518083038186803b158015610a4a57600080fd5b505afa158015610a5e573d6000803e3d6000fd5b505050506040513d6020811015610a7457600080fd5b5051949350505050565b6000610a8861186b565b5033600090815260208181526040808320858452825291829020825180840190935280548352600101546001600160a01b0316908201819052610acf57600091505061094a565b80602001516001600160a01b03166389ae1c906040518163ffffffff1660e01b815260040160206040518083038186803b158015610b0c57600080fd5b505afa158015610b20573d6000803e3d6000fd5b505050506040513d6020811015610b3657600080fd5b5051815160408051600160e11b63277166bf0281526001600160a01b038881166004830152602482019390935290519190921691634ee2cd7e916044808301926020929190829003018186803b158015610a4a57600080fd5b3360009081526020818152604080832085845290915281206001015483906001600160a01b0316610c025760408051600160e51b62461bcd0281526020600482015260126024820152600160701b716f6e6c7920566f74696e674d616368696e6502604482015290519081900360640190fd5b336000908152602081815260408083208784529091529020600101546001600160a01b0316610c2f611882565b506001600160a01b0380821660009081526001602081815260408084208a855282529283902083516080810185528154909516855291820154908401526002810154918301919091526003015460ff16151560608201819052610c9157600080fd5b6001600160a01b03821660008181526001602081815260408084208b855290915280832080546001600160a01b0319168155918201839055600282018390556003909101805460ff19169055518892917f6bc0cb9e9967b59a69ace442598e1df4368d38661bd5c0800fbcbc9fe855fbbe91a3606060008660011415610f99576000846001600160a01b0316638da5cb5b6040518163ffffffff1660e01b815260040160206040518083038186803b158015610d4c57600080fd5b505afa158015610d60573d6000803e3d6000fd5b505050506040513d6020811015610d7657600080fd5b81019080805190602001909291905050509050806001600160a01b031663d1b7089a856000015186602001518760400151600030604051602401808581526020018481526020018360ff168152602001826001600160a01b03166001600160a01b03168152602001945050505050604051602081830303815290604052600160e01b63359afa49026001600160e01b0319166020820180516001600160e01b0383818316178352505050508860006040518563ffffffff1660e01b815260040180856001600160a01b03166001600160a01b0316815260200180602001846001600160a01b03166001600160a01b03168152602001838152602001828103825285818151815260200191508051906020019080838360005b83811015610ea6578181015183820152602001610e8e565b50505050905090810190601f168015610ed35780820380516001836020036101000a031916815260200191505b5095505050505050600060405180830381600087803b158015610ef557600080fd5b505af1158015610f09573d6000803e3d6000fd5b505050506040513d6000823e601f3d908101601f191682016040908152811015610f3257600080fd5b815160208301805191939283019291640100000000811115610f5357600080fd5b82016020810184811115610f6657600080fd5b8151640100000000811182820187101715610f8057600080fd5b50909750939550859350610f979250505057600080fd5b505b87846001600160a01b03167f7c1ea889aeb873862488f79e0228a2240ec23e80244de201dd45f39f603fc3c489856040518083815260200180602001828103825283818151815260200191508051906020019080838360005b8381101561100a578181015183820152602001610ff2565b50505050905090810190601f1680156110375780820380516001836020036101000a031916815260200191505b50935050505060405180910390a3506001979650505050505050565b600061105d61186b565b5033600090815260208181526040808320858452825291829020825180840190935280548352600101546001600160a01b03169082018190526110a457600091505061118b565b80602001516001600160a01b03166389ae1c906040518163ffffffff1660e01b815260040160206040518083038186803b1580156110e157600080fd5b505afa1580156110f5573d6000803e3d6000fd5b505050506040513d602081101561110b57600080fd5b5051815160408051600160e41b630981b24d0281526004810192909252516001600160a01b039092169163981b24d091602480820192602092909190829003018186803b15801561115b57600080fd5b505afa15801561116f573d6000803e3d6000fd5b505050506040513d602081101561118557600080fd5b50519150505b919050565b3360009081526020818152604080832084845290915281206001015482906001600160a01b03166112035760408051600160e51b62461bcd0281526020600482015260126024820152600160701b716f6e6c7920566f74696e674d616368696e6502604482015290519081900360640190fd5b336000908152602081815260408083208684529091529020600101546001600160a01b031680611237576000925050611332565b806001600160a01b0316638da5cb5b6040518163ffffffff1660e01b815260040160206040518083038186803b15801561127057600080fd5b505afa158015611284573d6000803e3d6000fd5b505050506040513d602081101561129a57600080fd5b505160408051600160e01b63b9a04cdd0281526001600160a01b038a8116600483015289811660248301526044820189905284811660648301529151919092169163b9a04cdd9160848083019260209291908290030181600087803b15801561130257600080fd5b505af1158015611316573d6000803e3d6000fd5b505050506040513d602081101561132c57600080fd5b50519250505b50949350505050565b3360009081526020818152604080832084845290915281206001015482906001600160a01b03166113ae5760408051600160e51b62461bcd0281526020600482015260126024820152600160701b716f6e6c7920566f74696e674d616368696e6502604482015290519081900360640190fd5b336000908152602081815260408083208684529091529020600101546001600160a01b0316806113e25760009250506114d5565b806001600160a01b0316638da5cb5b6040518163ffffffff1660e01b815260040160206040518083038186803b15801561141b57600080fd5b505afa15801561142f573d6000803e3d6000fd5b505050506040513d602081101561144557600080fd5b505160408051600160e11b63757cca59028152600481018990526001600160a01b03888116602483015284811660448301529151919092169163eaf994b29160648083019260209291908290030181600087803b1580156114a557600080fd5b505af11580156114b9573d6000803e3d6000fd5b505050506040513d60208110156114cf57600080fd5b50519250505b509392505050565b3360009081526020818152604080832084845290915281206001015482906001600160a01b03166115505760408051600160e51b62461bcd0281526020600482015260126024820152600160701b716f6e6c7920566f74696e674d616368696e6502604482015290519081900360640190fd5b336000908152602081815260408083208684529091529020600101546001600160a01b0316806115845760009250506114d5565b806001600160a01b0316638da5cb5b6040518163ffffffff1660e01b815260040160206040518083038186803b1580156115bd57600080fd5b505afa1580156115d1573d6000803e3d6000fd5b505050506040513d60208110156115e757600080fd5b505160408051600160e31b630dd29a4f028152600481018990526001600160a01b038881166024830152848116604483015291519190921691636e94d2789160648083019260209291908290030181600087803b1580156114a557600080fd5b6000816001600160a01b0316638da5cb5b6040518163ffffffff1660e01b815260040160206040518083038186803b15801561168257600080fd5b505afa158015611696573d6000803e3d6000fd5b505050506040513d60208110156116ac57600080fd5b505160408051600160e01b639be2faed0281523060048201526001600160a01b03858116602483015291519190921691639be2faed916044808301926020929190829003018186803b15801561170157600080fd5b505afa158015611715573d6000803e3d6000fd5b505050506040513d602081101561172b57600080fd5b50516117815760408051600160e51b62461bcd02815260206004820152601860248201527f736368656d65206973206e6f7420726567697374657265640000000000000000604482015290519081900360640190fd5b816001600160a01b0316638da5cb5b6040518163ffffffff1660e01b815260040160206040518083038186803b1580156117ba57600080fd5b505afa1580156117ce573d6000803e3d6000fd5b505050506040513d60208110156117e457600080fd5b505160408051600160e31b630389aac10281523060048201526001600160a01b03858116602483015291519190921691631c4d5608916044808301926020929190829003018186803b15801561183957600080fd5b505afa15801561184d573d6000803e3d6000fd5b505050506040513d602081101561186357600080fd5b505192915050565b604080518082019091526000808252602082015290565b6040805160808101825260008082526020820181905291810182905260608101919091529056fe766f74652073686f756c6420626520696e2074686520616c6c6f7765642072616e6765766f74652073686f756c64206265203c3d206f726967696e616c2070726f706f73616c206e756d626572206f662063686f69636573a165627a7a72305820a53bceb3f8877e648fe0500692b1f545d780c07e3e93dbe7ad3429101e693fc30029",
  "source": "pragma solidity ^0.5.4;\n\nimport \"@daostack/infra/contracts/votingMachines/IntVoteInterface.sol\";\nimport \"@daostack/infra/contracts/votingMachines/VotingMachineCallbacksInterface.sol\";\nimport \"./UniversalScheme.sol\";\nimport \"../votingMachines/VotingMachineCallbacks.sol\";\n\n\n/**\n * @title VoteInOrganizationScheme.\n * @dev A scheme to allow an organization to vote in a proposal.\n */\ncontract VoteInOrganizationScheme is UniversalScheme, VotingMachineCallbacks, ProposalExecuteInterface {\n    event NewVoteProposal(\n        address indexed _avatar,\n        bytes32 indexed _proposalId,\n        address indexed _intVoteInterface,\n        IntVoteInterface _originalIntVote,\n        bytes32 _originalProposalId,\n        uint256 _vote,\n        string _descriptionHash\n    );\n\n    event ProposalExecuted(address indexed _avatar, bytes32 indexed _proposalId, int256 _param, bytes _callReturnValue);\n    event ProposalDeleted(address indexed _avatar, bytes32 indexed _proposalId);\n\n    // Details of a voting proposal:\n    struct VoteProposal {\n        IntVoteInterface originalIntVote;\n        bytes32 originalProposalId;\n        uint256 vote;\n        bool exist;\n    }\n\n    // A mapping from the organization (Avatar) address to the saved data of the organization:\n    mapping(address=>mapping(bytes32=>VoteProposal)) public organizationsProposals;\n\n    struct Parameters {\n        IntVoteInterface intVote;\n        bytes32 voteParams;\n    }\n\n    // A mapping from hashes to parameters (use to store a particular configuration on the controller)\n    mapping(bytes32=>Parameters) public parameters;\n\n    /**\n    * @dev execution of proposals, can only be called by the voting machine in which the vote is held.\n    * @param _proposalId the ID of the voting in the voting machine\n    * @param _param a parameter of the voting result, 1 yes and 2 is no.\n    * @return bool which represents a successful of the function\n    */\n    function executeProposal(bytes32 _proposalId, int256 _param) external onlyVotingMachine(_proposalId) returns(bool) {\n        Avatar avatar = proposalsInfo[msg.sender][_proposalId].avatar;\n        // Save proposal to memory and delete from storage:\n        VoteProposal memory proposal = organizationsProposals[address(avatar)][_proposalId];\n        require(proposal.exist);\n        delete organizationsProposals[address(avatar)][_proposalId];\n        emit ProposalDeleted(address(avatar), _proposalId);\n        bytes memory callReturnValue;\n        bool success;\n        // If no decision do nothing:\n        if (_param == 1) {\n\n            ControllerInterface controller = ControllerInterface(avatar.owner());\n            (success, callReturnValue) = controller.genericCall(\n            address(proposal.originalIntVote),\n            abi.encodeWithSignature(\"vote(bytes32,uint256,uint256,address)\",\n            proposal.originalProposalId,\n            proposal.vote,\n            0,\n            address(this)),\n            avatar,\n            0\n            );\n            require(success);\n        }\n        emit ProposalExecuted(address(avatar), _proposalId, _param, callReturnValue);\n        return true;\n    }\n\n    /**\n    * @dev Hash the parameters, save them if necessary, and return the hash value\n    * @param _voteParams -  voting parameters\n    * @param _intVote  - voting machine contract.\n    * @return bytes32 -the parameters hash\n    */\n    function setParameters(\n        bytes32 _voteParams,\n        IntVoteInterface _intVote\n    ) public returns(bytes32)\n    {\n        bytes32 paramsHash = getParametersHash(_voteParams, _intVote);\n        parameters[paramsHash].voteParams = _voteParams;\n        parameters[paramsHash].intVote = _intVote;\n        return paramsHash;\n    }\n\n    /**\n    * @dev Hash the parameters, and return the hash value\n    * @param _voteParams -  voting parameters\n    * @param _intVote  - voting machine contract.\n    * @return bytes32 -the parameters hash\n    */\n    function getParametersHash(\n        bytes32 _voteParams,\n        IntVoteInterface _intVote\n    ) public pure returns(bytes32)\n    {\n        return keccak256(abi.encodePacked(_voteParams, _intVote));\n    }\n\n    /**\n    * @dev propose to vote in other organization\n    *      The function trigger NewVoteProposal event\n    * @param _avatar avatar of the organization\n    * @param _originalIntVote the other organization voting machine\n    * @param _originalProposalId the other organization proposal id\n    * @param _vote - which value to vote in the destination organization\n    * @param _descriptionHash proposal description hash\n    * @return an id which represents the proposal\n    */\n    function proposeVote(\n    Avatar _avatar,\n    IntVoteInterface _originalIntVote,\n    bytes32 _originalProposalId,\n    uint256 _vote,\n    string memory _descriptionHash)\n    public\n    returns(bytes32)\n    {\n        Parameters memory params = parameters[getParametersFromController(_avatar)];\n        IntVoteInterface intVote = params.intVote;\n        (uint256 minVote, uint256 maxVote) = _originalIntVote.getAllowedRangeOfChoices();\n        require(_vote <= maxVote && _vote >= minVote, \"vote should be in the allowed range\");\n        require(_vote <= _originalIntVote.getNumberOfChoices(_originalProposalId),\n        \"vote should be <= original proposal number of choices\");\n\n        bytes32 proposalId = intVote.propose(2, params.voteParams, msg.sender, address(_avatar));\n\n        organizationsProposals[address(_avatar)][proposalId] = VoteProposal({\n            originalIntVote: _originalIntVote,\n            originalProposalId: _originalProposalId,\n            vote:_vote,\n            exist: true\n        });\n        emit NewVoteProposal(\n            address(_avatar),\n            proposalId,\n            address(params.intVote),\n            _originalIntVote,\n            _originalProposalId,\n            _vote,\n            _descriptionHash\n        );\n        proposalsInfo[address(intVote)][proposalId] = ProposalInfo({\n            blockNumber:block.number,\n            avatar:_avatar\n        });\n        return proposalId;\n    }\n}\n",
  "sourcePath": "/src/contracts/arc/universalSchemes/VoteInOrganizationScheme.sol",
  "compiler": {
    "name": "solc",
    "version": "0.5.6+commit.b259423e.Emscripten.clang"
  },
  "schemaVersion": "3.0.14",
  "updatedAt": "2019-10-26T14:19:12.904Z",
  "devdoc": {
    "details": "A scheme to allow an organization to vote in a proposal.",
    "methods": {
      "executeProposal(bytes32,int256)": {
        "details": "execution of proposals, can only be called by the voting machine in which the vote is held.",
        "params": {
          "_param": "a parameter of the voting result, 1 yes and 2 is no.",
          "_proposalId": "the ID of the voting in the voting machine"
        },
        "return": "bool which represents a successful of the function"
      },
      "getParametersHash(bytes32,address)": {
        "details": "Hash the parameters, and return the hash value",
        "params": {
          "_intVote": "- voting machine contract.",
          "_voteParams": "-  voting parameters"
        },
        "return": "bytes32 -the parameters hash"
      },
      "proposeVote(address,address,bytes32,uint256,string)": {
        "details": "propose to vote in other organization     The function trigger NewVoteProposal event",
        "params": {
          "_avatar": "avatar of the organization",
          "_descriptionHash": "proposal description hash",
          "_originalIntVote": "the other organization voting machine",
          "_originalProposalId": "the other organization proposal id",
          "_vote": "- which value to vote in the destination organization"
        },
        "return": "an id which represents the proposal"
      },
      "setParameters(bytes32,address)": {
        "details": "Hash the parameters, save them if necessary, and return the hash value",
        "params": {
          "_intVote": "- voting machine contract.",
          "_voteParams": "-  voting parameters"
        },
        "return": "bytes32 -the parameters hash"
      }
    },
    "title": "VoteInOrganizationScheme."
  },
  "userdoc": {
    "methods": {}
  }
}