{
  "contractName": "VotingMachineCallbacks",
  "abi": [
    {
      "constant": true,
      "inputs": [
        {
          "name": "",
          "type": "address"
        },
        {
          "name": "",
          "type": "bytes32"
        }
      ],
      "name": "proposalsInfo",
      "outputs": [
        {
          "name": "blockNumber",
          "type": "uint256"
        },
        {
          "name": "avatar",
          "type": "address"
        }
      ],
      "payable": false,
      "stateMutability": "view",
      "type": "function"
    },
    {
      "constant": false,
      "inputs": [
        {
          "name": "_amount",
          "type": "uint256"
        },
        {
          "name": "_beneficiary",
          "type": "address"
        },
        {
          "name": "_proposalId",
          "type": "bytes32"
        }
      ],
      "name": "mintReputation",
      "outputs": [
        {
          "name": "",
          "type": "bool"
        }
      ],
      "payable": false,
      "stateMutability": "nonpayable",
      "type": "function"
    },
    {
      "constant": false,
      "inputs": [
        {
          "name": "_amount",
          "type": "uint256"
        },
        {
          "name": "_beneficiary",
          "type": "address"
        },
        {
          "name": "_proposalId",
          "type": "bytes32"
        }
      ],
      "name": "burnReputation",
      "outputs": [
        {
          "name": "",
          "type": "bool"
        }
      ],
      "payable": false,
      "stateMutability": "nonpayable",
      "type": "function"
    },
    {
      "constant": false,
      "inputs": [
        {
          "name": "_stakingToken",
          "type": "address"
        },
        {
          "name": "_beneficiary",
          "type": "address"
        },
        {
          "name": "_amount",
          "type": "uint256"
        },
        {
          "name": "_proposalId",
          "type": "bytes32"
        }
      ],
      "name": "stakingTokenTransfer",
      "outputs": [
        {
          "name": "",
          "type": "bool"
        }
      ],
      "payable": false,
      "stateMutability": "nonpayable",
      "type": "function"
    },
    {
      "constant": true,
      "inputs": [
        {
          "name": "_stakingToken",
          "type": "address"
        },
        {
          "name": "_proposalId",
          "type": "bytes32"
        }
      ],
      "name": "balanceOfStakingToken",
      "outputs": [
        {
          "name": "",
          "type": "uint256"
        }
      ],
      "payable": false,
      "stateMutability": "view",
      "type": "function"
    },
    {
      "constant": true,
      "inputs": [
        {
          "name": "_proposalId",
          "type": "bytes32"
        }
      ],
      "name": "getTotalReputationSupply",
      "outputs": [
        {
          "name": "",
          "type": "uint256"
        }
      ],
      "payable": false,
      "stateMutability": "view",
      "type": "function"
    },
    {
      "constant": true,
      "inputs": [
        {
          "name": "_owner",
          "type": "address"
        },
        {
          "name": "_proposalId",
          "type": "bytes32"
        }
      ],
      "name": "reputationOf",
      "outputs": [
        {
          "name": "",
          "type": "uint256"
        }
      ],
      "payable": false,
      "stateMutability": "view",
      "type": "function"
    }
  ],
  "bytecode": "0x608060405234801561001057600080fd5b50610a3c806100206000396000f3fe608060405234801561001057600080fd5b506004361061007d5760003560e01c8063b551c3731161005b578063b551c37314610139578063bea75f2814610156578063d29b5d2f146101a6578063f81f8bf6146101d85761007d565b806360bdbb3f146100825780636b8eb403146100cf5780639588378e1461010d575b600080fd5b6100ae6004803603604081101561009857600080fd5b506001600160a01b03813516906020013561020a565b604080519283526001600160a01b0390911660208301528051918290030190f35b6100fb600480360360408110156100e557600080fd5b506001600160a01b038135169060200135610234565b60408051918252519081900360200190f35b6100fb6004803603604081101561012357600080fd5b506001600160a01b0381351690602001356102f4565b6100fb6004803603602081101561014f57600080fd5b5035610405565b6101926004803603608081101561016c57600080fd5b506001600160a01b03813581169160208101359091169060408101359060600135610542565b604080519115158252519081900360200190f35b610192600480360360608110156101bc57600080fd5b508035906001600160a01b0360208201351690604001356106ed565b610192600480360360608110156101ee57600080fd5b508035906001600160a01b03602082013516906040013561088f565b6000602081815292815260408082209093529081522080546001909101546001600160a01b031682565b336000908152602081815260408083208484529091528120600101546001600160a01b0316806102685760009150506102ee565b836001600160a01b03166370a08231826040518263ffffffff1660e01b815260040180826001600160a01b03166001600160a01b0316815260200191505060206040518083038186803b1580156102be57600080fd5b505afa1580156102d2573d6000803e3d6000fd5b505050506040513d60208110156102e857600080fd5b50519150505b92915050565b60006102fe6109f9565b5033600090815260208181526040808320858452825291829020825180840190935280548352600101546001600160a01b03169082018190526103455760009150506102ee565b80602001516001600160a01b03166389ae1c906040518163ffffffff1660e01b815260040160206040518083038186803b15801561038257600080fd5b505afa158015610396573d6000803e3d6000fd5b505050506040513d60208110156103ac57600080fd5b5051815160408051600160e11b63277166bf0281526001600160a01b038881166004830152602482019390935290519190921691634ee2cd7e916044808301926020929190829003018186803b1580156102be57600080fd5b600061040f6109f9565b5033600090815260208181526040808320858452825291829020825180840190935280548352600101546001600160a01b031690820181905261045657600091505061053d565b80602001516001600160a01b03166389ae1c906040518163ffffffff1660e01b815260040160206040518083038186803b15801561049357600080fd5b505afa1580156104a7573d6000803e3d6000fd5b505050506040513d60208110156104bd57600080fd5b5051815160408051600160e41b630981b24d0281526004810192909252516001600160a01b039092169163981b24d091602480820192602092909190829003018186803b15801561050d57600080fd5b505afa158015610521573d6000803e3d6000fd5b505050506040513d602081101561053757600080fd5b50519150505b919050565b3360009081526020818152604080832084845290915281206001015482906001600160a01b03166105b55760408051600160e51b62461bcd0281526020600482015260126024820152600160701b716f6e6c7920566f74696e674d616368696e6502604482015290519081900360640190fd5b336000908152602081815260408083208684529091529020600101546001600160a01b0316806105e95760009250506106e4565b806001600160a01b0316638da5cb5b6040518163ffffffff1660e01b815260040160206040518083038186803b15801561062257600080fd5b505afa158015610636573d6000803e3d6000fd5b505050506040513d602081101561064c57600080fd5b505160408051600160e01b63b9a04cdd0281526001600160a01b038a8116600483015289811660248301526044820189905284811660648301529151919092169163b9a04cdd9160848083019260209291908290030181600087803b1580156106b457600080fd5b505af11580156106c8573d6000803e3d6000fd5b505050506040513d60208110156106de57600080fd5b50519250505b50949350505050565b3360009081526020818152604080832084845290915281206001015482906001600160a01b03166107605760408051600160e51b62461bcd0281526020600482015260126024820152600160701b716f6e6c7920566f74696e674d616368696e6502604482015290519081900360640190fd5b336000908152602081815260408083208684529091529020600101546001600160a01b031680610794576000925050610887565b806001600160a01b0316638da5cb5b6040518163ffffffff1660e01b815260040160206040518083038186803b1580156107cd57600080fd5b505afa1580156107e1573d6000803e3d6000fd5b505050506040513d60208110156107f757600080fd5b505160408051600160e11b63757cca59028152600481018990526001600160a01b03888116602483015284811660448301529151919092169163eaf994b29160648083019260209291908290030181600087803b15801561085757600080fd5b505af115801561086b573d6000803e3d6000fd5b505050506040513d602081101561088157600080fd5b50519250505b509392505050565b3360009081526020818152604080832084845290915281206001015482906001600160a01b03166109025760408051600160e51b62461bcd0281526020600482015260126024820152600160701b716f6e6c7920566f74696e674d616368696e6502604482015290519081900360640190fd5b336000908152602081815260408083208684529091529020600101546001600160a01b031680610936576000925050610887565b806001600160a01b0316638da5cb5b6040518163ffffffff1660e01b815260040160206040518083038186803b15801561096f57600080fd5b505afa158015610983573d6000803e3d6000fd5b505050506040513d602081101561099957600080fd5b505160408051600160e31b630dd29a4f028152600481018990526001600160a01b038881166024830152848116604483015291519190921691636e94d2789160648083019260209291908290030181600087803b15801561085757600080fd5b60408051808201909152600080825260208201529056fea165627a7a72305820e8790eb553de92f79f3a19ef6ef3b9d4a22ce01fe4242250a6688534ffe4e6380029",
  "source": "pragma solidity ^0.5.4;\n\nimport \"../universalSchemes/UniversalScheme.sol\";\nimport \"@daostack/infra/contracts/votingMachines/GenesisProtocol.sol\";\n\n\ncontract VotingMachineCallbacks is VotingMachineCallbacksInterface {\n\n    struct ProposalInfo {\n        uint256 blockNumber; // the proposal's block number\n        Avatar avatar; // the proposal's avatar\n    }\n\n    modifier onlyVotingMachine(bytes32 _proposalId) {\n        require(proposalsInfo[msg.sender][_proposalId].avatar != Avatar(address(0)), \"only VotingMachine\");\n        _;\n    }\n\n    // VotingMaching  ->  proposalId  ->  ProposalInfo\n    mapping(address => mapping(bytes32 => ProposalInfo)) public proposalsInfo;\n\n    function mintReputation(uint256 _amount, address _beneficiary, bytes32 _proposalId)\n    external\n    onlyVotingMachine(_proposalId)\n    returns(bool)\n    {\n        Avatar avatar = proposalsInfo[msg.sender][_proposalId].avatar;\n        if (avatar == Avatar(0)) {\n            return false;\n        }\n        return ControllerInterface(avatar.owner()).mintReputation(_amount, _beneficiary, address(avatar));\n    }\n\n    function burnReputation(uint256 _amount, address _beneficiary, bytes32 _proposalId)\n    external\n    onlyVotingMachine(_proposalId)\n    returns(bool)\n    {\n        Avatar avatar = proposalsInfo[msg.sender][_proposalId].avatar;\n        if (avatar == Avatar(0)) {\n            return false;\n        }\n        return ControllerInterface(avatar.owner()).burnReputation(_amount, _beneficiary, address(avatar));\n    }\n\n    function stakingTokenTransfer(\n        IERC20 _stakingToken,\n        address _beneficiary,\n        uint256 _amount,\n        bytes32 _proposalId)\n    external\n    onlyVotingMachine(_proposalId)\n    returns(bool)\n    {\n        Avatar avatar = proposalsInfo[msg.sender][_proposalId].avatar;\n        if (avatar == Avatar(0)) {\n            return false;\n        }\n        return ControllerInterface(avatar.owner()).externalTokenTransfer(_stakingToken, _beneficiary, _amount, avatar);\n    }\n\n    function balanceOfStakingToken(IERC20 _stakingToken, bytes32 _proposalId) external view returns(uint256) {\n        Avatar avatar = proposalsInfo[msg.sender][_proposalId].avatar;\n        if (proposalsInfo[msg.sender][_proposalId].avatar == Avatar(0)) {\n            return 0;\n        }\n        return _stakingToken.balanceOf(address(avatar));\n    }\n\n    function getTotalReputationSupply(bytes32 _proposalId) external view returns(uint256) {\n        ProposalInfo memory proposal = proposalsInfo[msg.sender][_proposalId];\n        if (proposal.avatar == Avatar(0)) {\n            return 0;\n        }\n        return proposal.avatar.nativeReputation().totalSupplyAt(proposal.blockNumber);\n    }\n\n    function reputationOf(address _owner, bytes32 _proposalId) external view returns(uint256) {\n        ProposalInfo memory proposal = proposalsInfo[msg.sender][_proposalId];\n        if (proposal.avatar == Avatar(0)) {\n            return 0;\n        }\n        return proposal.avatar.nativeReputation().balanceOfAt(_owner, proposal.blockNumber);\n    }\n}\n",
  "sourcePath": "@daostack/arc/contracts/votingMachines/VotingMachineCallbacks.sol",
  "compiler": {
    "name": "solc",
    "version": "0.5.6+commit.b259423e.Emscripten.clang"
  },
  "schemaVersion": "3.0.14",
  "updatedAt": "2019-09-15T12:51:34.929Z",
  "devdoc": {
    "methods": {}
  },
  "userdoc": {
    "methods": {}
  }
}