{
  "contractName": "WizardWallet",
  "abi": [
    {
      "inputs": [
        {
          "name": "_wizardWalletFactory",
          "type": "address"
        },
        {
          "name": "_wizardId",
          "type": "uint256"
        }
      ],
      "payable": false,
      "stateMutability": "nonpayable",
      "type": "constructor"
    },
    {
      "payable": true,
      "stateMutability": "payable",
      "type": "fallback"
    },
    {
      "constant": true,
      "inputs": [
        {
          "name": "_vote",
          "type": "uint256"
        }
      ],
      "name": "voteProposal",
      "outputs": [
        {
          "name": "",
          "type": "uint256"
        }
      ],
      "payable": false,
      "stateMutability": "view",
      "type": "function"
    },
    {
      "constant": false,
      "inputs": [],
      "name": "withdrawEthFunds",
      "outputs": [],
      "payable": false,
      "stateMutability": "nonpayable",
      "type": "function"
    },
    {
      "constant": false,
      "inputs": [
        {
          "name": "_erc20Address",
          "type": "address"
        },
        {
          "name": "_recipient",
          "type": "address"
        },
        {
          "name": "_amount",
          "type": "uint256"
        }
      ],
      "name": "transferERC20",
      "outputs": [],
      "payable": false,
      "stateMutability": "nonpayable",
      "type": "function"
    },
    {
      "constant": false,
      "inputs": [
        {
          "name": "_erc20Address",
          "type": "address"
        },
        {
          "name": "_recipient",
          "type": "address"
        },
        {
          "name": "_amount",
          "type": "uint256"
        }
      ],
      "name": "transfer",
      "outputs": [],
      "payable": false,
      "stateMutability": "nonpayable",
      "type": "function"
    }
  ],
  "bytecode": "0x608060405234801561001057600080fd5b50604051604080610b868339810180604052604081101561003057600080fd5b508051602090910151600180546001600160a01b039093166001600160a01b031990931692909217909155600055610b198061006d6000396000f3fe60806040526004361061003f5760003560e01c806369fb0ede14610041578063807896d5146100565780639db5dbe414610092578063beabacc8146100d5575b005b34801561004d57600080fd5b5061003f610118565b34801561006257600080fd5b506100806004803603602081101561007957600080fd5b5035610304565b60408051918252519081900360200190f35b34801561009e57600080fd5b5061003f600480360360608110156100b557600080fd5b506001600160a01b038135811691602081013590911690604001356104cf565b3480156100e157600080fd5b5061003f600480360360608110156100f857600080fd5b506001600160a01b038135811691602081013590911690604001356106aa565b60015460408051600160e21b631071c3a902815290516000926001600160a01b0316916341c70ea4916004808301926020929190829003018186803b15801561016057600080fd5b505afa158015610174573d6000803e3d6000fd5b505050506040513d602081101561018a57600080fd5b505160408051600160e01b63f7cbe89b02815290516001600160a01b039092169163f7cbe89b91600480820192602092909190829003018186803b1580156101d157600080fd5b505afa1580156101e5573d6000803e3d6000fd5b505050506040513d60208110156101fb57600080fd5b505160005460408051600160e11b6331a9108f02815260048101929092525191925033916001600160a01b03841691636352211e916024808301926020929190829003018186803b15801561024f57600080fd5b505afa158015610263573d6000803e3d6000fd5b505050506040513d602081101561027957600080fd5b50516001600160a01b0316146102d35760408051600160e51b62461bcd0281526020600482015260146024820152600160611b7324b73b30b634b2103bb4bd30b9321037bbb732b902604482015290519081900360640190fd5b6040513390303180156108fc02916000818181858888f19350505050158015610300573d6000803e3d6000fd5b5050565b600080600160009054906101000a90046001600160a01b03166001600160a01b03166341c70ea46040518163ffffffff1660e01b815260040160206040518083038186803b15801561035557600080fd5b505afa158015610369573d6000803e3d6000fd5b505050506040513d602081101561037f57600080fd5b505160408051600160e01b63f7cbe89b02815290516001600160a01b039092169163f7cbe89b91600480820192602092909190829003018186803b1580156103c657600080fd5b505afa1580156103da573d6000803e3d6000fd5b505050506040513d60208110156103f057600080fd5b505160005460408051600160e11b6331a9108f02815260048101929092525191925033916001600160a01b03841691636352211e916024808301926020929190829003018186803b15801561044457600080fd5b505afa158015610458573d6000803e3d6000fd5b505050506040513d602081101561046e57600080fd5b50516001600160a01b0316146104c85760408051600160e51b62461bcd0281526020600482015260146024820152600160611b7324b73b30b634b2103bb4bd30b9321037bbb732b902604482015290519081900360640190fd5b5090919050565b60015460408051600160e21b631071c3a902815290516000926001600160a01b0316916341c70ea4916004808301926020929190829003018186803b15801561051757600080fd5b505afa15801561052b573d6000803e3d6000fd5b505050506040513d602081101561054157600080fd5b505160408051600160e01b63f7cbe89b02815290516001600160a01b039092169163f7cbe89b91600480820192602092909190829003018186803b15801561058857600080fd5b505afa15801561059c573d6000803e3d6000fd5b505050506040513d60208110156105b257600080fd5b505160005460408051600160e11b6331a9108f02815260048101929092525191925033916001600160a01b03841691636352211e916024808301926020929190829003018186803b15801561060657600080fd5b505afa15801561061a573d6000803e3d6000fd5b505050506040513d602081101561063057600080fd5b50516001600160a01b03161461068a5760408051600160e51b62461bcd0281526020600482015260146024820152600160611b7324b73b30b634b2103bb4bd30b9321037bbb732b902604482015290519081900360640190fd5b6106a46001600160a01b038516848463ffffffff6108a216565b50505050565b60015460408051600160e21b631071c3a902815290516000926001600160a01b0316916341c70ea4916004808301926020929190829003018186803b1580156106f257600080fd5b505afa158015610706573d6000803e3d6000fd5b505050506040513d602081101561071c57600080fd5b505160408051600160e01b63f7cbe89b02815290516001600160a01b039092169163f7cbe89b91600480820192602092909190829003018186803b15801561076357600080fd5b505afa158015610777573d6000803e3d6000fd5b505050506040513d602081101561078d57600080fd5b505160005460408051600160e11b6331a9108f02815260048101929092525191925033916001600160a01b03841691636352211e916024808301926020929190829003018186803b1580156107e157600080fd5b505afa1580156107f5573d6000803e3d6000fd5b505050506040513d602081101561080b57600080fd5b50516001600160a01b0316146108655760408051600160e51b62461bcd0281526020600482015260146024820152600160611b7324b73b30b634b2103bb4bd30b9321037bbb732b902604482015290519081900360640190fd5b6040516001600160a01b0384169083156108fc029084906000818181858888f1935050505015801561089b573d6000803e3d6000fd5b5050505050565b604080516001600160a01b038416602482015260448082018490528251808303909101815260649091019091526020810180516001600160e01b0316600160e01b63a9059cbb021790526108f79084906108fc565b505050565b61090e826001600160a01b0316610abd565b6109625760408051600160e51b62461bcd02815260206004820152601f60248201527f5361666545524332303a2063616c6c20746f206e6f6e2d636f6e747261637400604482015290519081900360640190fd5b60006060836001600160a01b0316836040518082805190602001908083835b602083106109a05780518252601f199092019160209182019101610981565b6001836020036101000a0380198251168184511680821785525050505050509050019150506000604051808303816000865af19150503d8060008114610a02576040519150601f19603f3d011682016040523d82523d6000602084013e610a07565b606091505b509150915081610a615760408051600160e51b62461bcd02815260206004820181905260248201527f5361666545524332303a206c6f772d6c6576656c2063616c6c206661696c6564604482015290519081900360640190fd5b8051156106a457808060200190516020811015610a7d57600080fd5b50516106a457604051600160e51b62461bcd02815260040180806020018281038252602a815260200180610ac4602a913960400191505060405180910390fd5b3b15159056fe5361666545524332303a204552433230206f7065726174696f6e20646964206e6f742073756363656564a165627a7a72305820e0a6d036ecc959ac7d275c357078d938e75607faea8cc60f40fb874bea79d7410029",
  "source": "pragma solidity ^0.5.4;\n\nimport \"openzeppelin-solidity/contracts/token/ERC20/SafeERC20.sol\";\nimport \"openzeppelin-solidity/contracts/token/ERC20/ERC20.sol\";\nimport \"./WizardWalletFactory.sol\";\nimport \"./IERC721.sol\";\n\ncontract WizardWallet {\n    using SafeERC20 for ERC20;\n\n    uint256 wizardId;\n\n    WizardWalletFactory wizardWalletFactory;\n\n    modifier onlyWizardOwner {\n        address _wizardsERC721Address = wizardWalletFactory.wizardsERC721AddressesProvider().wizardsERC721Address();\n        require(IERC721(_wizardsERC721Address).ownerOf(wizardId) == msg.sender, \"Invalid wizard owner\");\n        _;\n    }\n\n    constructor(WizardWalletFactory _wizardWalletFactory, uint256 _wizardId) public {\n        wizardWalletFactory = _wizardWalletFactory;\n        wizardId = _wizardId;\n    }\n\n    // TODO\n    function voteProposal(uint256 _vote) external view onlyWizardOwner returns (uint256) {\n        return _vote;\n    }\n\n    function() external payable {}\n\n    function withdrawEthFunds() external onlyWizardOwner {\n        msg.sender.transfer(address(this).balance);\n    }\n\n    function transferERC20(address _erc20Address, address payable _recipient, uint256 _amount) external onlyWizardOwner {\n        ERC20(_erc20Address).safeTransfer(_recipient, _amount);\n    }\n\n    function transfer(address _erc20Address, address payable _recipient, uint256 _amount) external onlyWizardOwner {\n        _recipient.transfer(_amount);\n    }\n\n    // TODO: add tranferFrom from owner\n    // TODO: add approve erc20\n}",
  "sourcePath": "/src/contracts/WizardWallet.sol",
  "compiler": {
    "name": "solc",
    "version": "0.5.6+commit.b259423e.Emscripten.clang"
  },
  "schemaVersion": "3.0.14",
  "updatedAt": "2019-09-14T15:39:59.356Z",
  "devdoc": {
    "methods": {}
  },
  "userdoc": {
    "methods": {}
  }
}