{
  "contractName": "WizardPresaleNFT",
  "abi": [
    {
      "constant": true,
      "inputs": [
        {
          "name": "interfaceId",
          "type": "bytes4"
        }
      ],
      "name": "supportsInterface",
      "outputs": [
        {
          "name": "",
          "type": "bool"
        }
      ],
      "payable": false,
      "stateMutability": "view",
      "type": "function"
    },
    {
      "constant": true,
      "inputs": [
        {
          "name": "",
          "type": "uint256"
        }
      ],
      "name": "_wizardsById",
      "outputs": [
        {
          "name": "affinity",
          "type": "uint8"
        },
        {
          "name": "power",
          "type": "uint88"
        },
        {
          "name": "owner",
          "type": "address"
        }
      ],
      "payable": false,
      "stateMutability": "view",
      "type": "function"
    },
    {
      "inputs": [],
      "payable": false,
      "stateMutability": "nonpayable",
      "type": "constructor"
    },
    {
      "anonymous": false,
      "inputs": [
        {
          "indexed": true,
          "name": "from",
          "type": "address"
        },
        {
          "indexed": true,
          "name": "to",
          "type": "address"
        },
        {
          "indexed": true,
          "name": "tokenId",
          "type": "uint256"
        }
      ],
      "name": "Transfer",
      "type": "event"
    },
    {
      "anonymous": false,
      "inputs": [
        {
          "indexed": true,
          "name": "owner",
          "type": "address"
        },
        {
          "indexed": true,
          "name": "approved",
          "type": "address"
        },
        {
          "indexed": true,
          "name": "tokenId",
          "type": "uint256"
        }
      ],
      "name": "Approval",
      "type": "event"
    },
    {
      "anonymous": false,
      "inputs": [
        {
          "indexed": true,
          "name": "owner",
          "type": "address"
        },
        {
          "indexed": true,
          "name": "operator",
          "type": "address"
        },
        {
          "indexed": false,
          "name": "approved",
          "type": "bool"
        }
      ],
      "name": "ApprovalForAll",
      "type": "event"
    },
    {
      "anonymous": false,
      "inputs": [
        {
          "indexed": true,
          "name": "tokenId",
          "type": "uint256"
        },
        {
          "indexed": false,
          "name": "element",
          "type": "uint8"
        },
        {
          "indexed": false,
          "name": "power",
          "type": "uint256"
        }
      ],
      "name": "WizardSummoned",
      "type": "event"
    },
    {
      "anonymous": false,
      "inputs": [
        {
          "indexed": true,
          "name": "tokenId",
          "type": "uint256"
        },
        {
          "indexed": false,
          "name": "element",
          "type": "uint8"
        }
      ],
      "name": "WizardAlignmentAssigned",
      "type": "event"
    },
    {
      "constant": true,
      "inputs": [
        {
          "name": "owner",
          "type": "address"
        }
      ],
      "name": "balanceOf",
      "outputs": [
        {
          "name": "",
          "type": "uint256"
        }
      ],
      "payable": false,
      "stateMutability": "view",
      "type": "function"
    },
    {
      "constant": true,
      "inputs": [
        {
          "name": "tokenId",
          "type": "uint256"
        }
      ],
      "name": "ownerOf",
      "outputs": [
        {
          "name": "",
          "type": "address"
        }
      ],
      "payable": false,
      "stateMutability": "view",
      "type": "function"
    },
    {
      "constant": false,
      "inputs": [
        {
          "name": "to",
          "type": "address"
        },
        {
          "name": "tokenId",
          "type": "uint256"
        }
      ],
      "name": "approve",
      "outputs": [],
      "payable": false,
      "stateMutability": "nonpayable",
      "type": "function"
    },
    {
      "constant": true,
      "inputs": [
        {
          "name": "tokenId",
          "type": "uint256"
        }
      ],
      "name": "getApproved",
      "outputs": [
        {
          "name": "",
          "type": "address"
        }
      ],
      "payable": false,
      "stateMutability": "view",
      "type": "function"
    },
    {
      "constant": false,
      "inputs": [
        {
          "name": "to",
          "type": "address"
        },
        {
          "name": "approved",
          "type": "bool"
        }
      ],
      "name": "setApprovalForAll",
      "outputs": [],
      "payable": false,
      "stateMutability": "nonpayable",
      "type": "function"
    },
    {
      "constant": true,
      "inputs": [
        {
          "name": "owner",
          "type": "address"
        },
        {
          "name": "operator",
          "type": "address"
        }
      ],
      "name": "isApprovedForAll",
      "outputs": [
        {
          "name": "",
          "type": "bool"
        }
      ],
      "payable": false,
      "stateMutability": "view",
      "type": "function"
    },
    {
      "constant": false,
      "inputs": [
        {
          "name": "from",
          "type": "address"
        },
        {
          "name": "to",
          "type": "address"
        },
        {
          "name": "tokenId",
          "type": "uint256"
        }
      ],
      "name": "transferFrom",
      "outputs": [],
      "payable": false,
      "stateMutability": "nonpayable",
      "type": "function"
    },
    {
      "constant": false,
      "inputs": [
        {
          "name": "from",
          "type": "address"
        },
        {
          "name": "to",
          "type": "address"
        },
        {
          "name": "tokenId",
          "type": "uint256"
        }
      ],
      "name": "safeTransferFrom",
      "outputs": [],
      "payable": false,
      "stateMutability": "nonpayable",
      "type": "function"
    },
    {
      "constant": false,
      "inputs": [
        {
          "name": "from",
          "type": "address"
        },
        {
          "name": "to",
          "type": "address"
        },
        {
          "name": "tokenId",
          "type": "uint256"
        },
        {
          "name": "_data",
          "type": "bytes"
        }
      ],
      "name": "safeTransferFrom",
      "outputs": [],
      "payable": false,
      "stateMutability": "nonpayable",
      "type": "function"
    }
  ],
  "bytecode": "0x608060405234801561001057600080fd5b506100276301ffc9a760e01b61004260201b60201c565b61003d6380ac58cd60e01b61004260201b60201c565b6100ae565b7fffffffff00000000000000000000000000000000000000000000000000000000808216141561007157600080fd5b7fffffffff00000000000000000000000000000000000000000000000000000000166000908152602081905260409020805460ff19166001179055565b610d43806100bd6000396000f3fe608060405234801561001057600080fd5b50600436106100a95760003560e01c80636352211e116100715780636352211e146101bc57806363f3ce31146101d957806370a082311461022d578063a22cb46514610265578063b88d4fde14610293578063e985e9c514610359576100a9565b806301ffc9a7146100ae578063081812fc146100e9578063095ea7b31461012257806323b872dd1461015057806342842e0e14610186575b600080fd5b6100d5600480360360208110156100c457600080fd5b50356001600160e01b031916610387565b604080519115158252519081900360200190f35b610106600480360360208110156100ff57600080fd5b50356103a6565b604080516001600160a01b039092168252519081900360200190f35b61014e6004803603604081101561013857600080fd5b506001600160a01b03813516906020013561040b565b005b61014e6004803603606081101561016657600080fd5b506001600160a01b03813581169160208101359091169060400135610522565b61014e6004803603606081101561019c57600080fd5b506001600160a01b0381358116916020810135909116906040013561057a565b610106600480360360208110156101d257600080fd5b5035610595565b6101f6600480360360208110156101ef57600080fd5b50356105f9565b6040805160ff90941684526affffffffffffffffffffff90921660208401526001600160a01b031682820152519081900360600190f35b6102536004803603602081101561024357600080fd5b50356001600160a01b0316610633565b60408051918252519081900360200190f35b61014e6004803603604081101561027b57600080fd5b506001600160a01b0381351690602001351515610699565b61014e600480360360808110156102a957600080fd5b6001600160a01b038235811692602081013590911691604082013591908101906080810160608201356401000000008111156102e457600080fd5b8201836020820111156102f657600080fd5b8035906020019184600183028401116401000000008311171561031857600080fd5b91908080601f016020809104026020016040519081016040528093929190818152602001838380828437600092019190915250929550610768945050505050565b6100d56004803603604081101561036f57600080fd5b506001600160a01b03813581169160200135166107c3565b6001600160e01b03191660009081526020819052604090205460ff1690565b60006103b1826107f1565b6103ef57604051600160e51b62461bcd02815260040180806020018281038252602c815260200180610c71602c913960400191505060405180910390fd5b506000908152600260205260409020546001600160a01b031690565b600061041682610595565b9050806001600160a01b0316836001600160a01b0316141561046c57604051600160e51b62461bcd028152600401808060200182810382526021815260200180610cc66021913960400191505060405180910390fd5b336001600160a01b0382161480610488575061048881336107c3565b6104c657604051600160e51b62461bcd028152600401808060200182810382526038815260200180610be66038913960400191505060405180910390fd5b60008281526002602052604080822080546001600160a01b0319166001600160a01b0387811691821790925591518593918516917f8c5be1e5ebec7d5bd14f71427d1e84f3dd0314c0f7b2291e5b200ac8c7c3b92591a4505050565b61052c3382610815565b61056a57604051600160e51b62461bcd028152600401808060200182810382526031815260200180610ce76031913960400191505060405180910390fd5b6105758383836108bc565b505050565b61057583838360405180602001604052806000815250610768565b600081815260016020526040812054600160601b90046001600160a01b0316806105f357604051600160e51b62461bcd028152600401808060200182810382526029815260200180610c486029913960400191505060405180910390fd5b92915050565b60016020526000908152604090205460ff81169061010081046affffffffffffffffffffff1690600160601b90046001600160a01b031683565b60006001600160a01b03821661067d57604051600160e51b62461bcd02815260040180806020018281038252602a815260200180610c1e602a913960400191505060405180910390fd5b506001600160a01b031660009081526003602052604090205490565b6001600160a01b0382163314156106fa5760408051600160e51b62461bcd02815260206004820152601960248201527f4552433732313a20617070726f766520746f2063616c6c657200000000000000604482015290519081900360640190fd5b3360008181526004602090815260408083206001600160a01b03871680855290835292819020805460ff1916861515908117909155815190815290519293927f17307eab39ab6107e8899845ad3d59bd9653f200f220920489ca2b5937696c31929181900390910190a35050565b610773848484610522565b61077f848484846109f0565b6107bd57604051600160e51b62461bcd028152600401808060200182810382526032815260200180610b646032913960400191505060405180910390fd5b50505050565b6001600160a01b03918216600090815260046020908152604080832093909416825291909152205460ff1690565b600090815260016020526040902054600160601b90046001600160a01b0316151590565b6000610820826107f1565b61085e57604051600160e51b62461bcd02815260040180806020018281038252602c815260200180610bba602c913960400191505060405180910390fd5b600061086983610595565b9050806001600160a01b0316846001600160a01b031614806108a45750836001600160a01b0316610899846103a6565b6001600160a01b0316145b806108b457506108b481856107c3565b949350505050565b826001600160a01b03166108cf82610595565b6001600160a01b03161461091757604051600160e51b62461bcd028152600401808060200182810382526029815260200180610c9d6029913960400191505060405180910390fd5b6001600160a01b03821661095f57604051600160e51b62461bcd028152600401808060200182810382526024815260200180610b966024913960400191505060405180910390fd5b61096881610b20565b6001600160a01b03838116600081815260036020908152604080832080546000190190559386168083528483208054600190810190915586845290915283822080546bffffffffffffffffffffffff16600160601b83021790559251849392917fddf252ad1be2c89b69c2b068fc378daa952ba7f163c4a11628f55a4df523b3ef91a4505050565b60006109fb84610b5d565b610a07575060016108b4565b604051600160e11b630a85bd0102815233600482018181526001600160a01b03888116602485015260448401879052608060648501908152865160848601528651600095928a169463150b7a029490938c938b938b939260a4019060208501908083838e5b83811015610a84578181015183820152602001610a6c565b50505050905090810190601f168015610ab15780820380516001836020036101000a031916815260200191505b5095505050505050602060405180830381600087803b158015610ad357600080fd5b505af1158015610ae7573d6000803e3d6000fd5b505050506040513d6020811015610afd57600080fd5b50516001600160e01b031916600160e11b630a85bd010214915050949350505050565b6000818152600260205260409020546001600160a01b031615610b5a57600081815260026020526040902080546001600160a01b03191690555b50565b3b15159056fe4552433732313a207472616e7366657220746f206e6f6e20455243373231526563656976657220696d706c656d656e7465724552433732313a207472616e7366657220746f20746865207a65726f20616464726573734552433732313a206f70657261746f7220717565727920666f72206e6f6e6578697374656e7420746f6b656e4552433732313a20617070726f76652063616c6c6572206973206e6f74206f776e6572206e6f7220617070726f76656420666f7220616c6c4552433732313a2062616c616e636520717565727920666f7220746865207a65726f20616464726573734552433732313a206f776e657220717565727920666f72206e6f6e6578697374656e7420746f6b656e4552433732313a20617070726f76656420717565727920666f72206e6f6e6578697374656e7420746f6b656e4552433732313a207472616e73666572206f6620746f6b656e2074686174206973206e6f74206f776e4552433732313a20617070726f76616c20746f2063757272656e74206f776e65724552433732313a207472616e736665722063616c6c6572206973206e6f74206f776e6572206e6f7220617070726f766564a165627a7a723058206b5754ee68b49967d2b4eae1078a04398ccd144b5f0c3cb9a4aaf9d5dde28f240029",
  "source": "pragma solidity ^0.5.2;\n\n/**\n * @title IERC165\n * @dev https://eips.ethereum.org/EIPS/eip-165\n */\ninterface IERC165 {\n    /**\n     * @notice Query if a contract implements an interface\n     * @param interfaceId The interface identifier, as specified in ERC-165\n     * @dev Interface identification is specified in ERC-165. This function\n     * uses less than 30,000 gas.\n     */\n    function supportsInterface(bytes4 interfaceId) external view returns (bool);\n}\n\n\n/// @title Shared constants used throughout the Cheeze Wizards contracts\ncontract WizardConstants {\n    // Wizards normally have their affinity set when they are first created,\n    // but for example Exclusive Wizards can be created with no set affinity.\n    // In this case the affinity can be set by the owner.\n    uint8 internal constant ELEMENT_NOTSET = 0; //000\n    // A neutral Wizard has no particular strength or weakness with specific\n    // elements.\n    uint8 internal constant ELEMENT_NEUTRAL = 1; //001\n    // The fire, water and wind elements are used both to reflect an affinity\n    // of Elemental Wizards for a specific element, and as the moves a\n    // Wizard can make during a duel.\n    // Note that if these values change then `moveMask` and `moveDelta` in\n    // ThreeAffinityDuelResolver would need to be updated accordingly.\n    uint8 internal constant ELEMENT_FIRE = 2; //010\n    uint8 internal constant ELEMENT_WATER = 3; //011\n    uint8 internal constant ELEMENT_WIND = 4; //100\n    uint8 internal constant MAX_ELEMENT = ELEMENT_WIND;\n}\n\n\n\n\n\n\n\n\n/**\n * @title ERC721 Non-Fungible Token Standard basic interface\n * @dev see https://eips.ethereum.org/EIPS/eip-721\n */\ncontract IERC721 is IERC165 {\n    event Transfer(address indexed from, address indexed to, uint256 indexed tokenId);\n    event Approval(address indexed owner, address indexed approved, uint256 indexed tokenId);\n    event ApprovalForAll(address indexed owner, address indexed operator, bool approved);\n\n    function balanceOf(address owner) public view returns (uint256 balance);\n    function ownerOf(uint256 tokenId) public view returns (address owner);\n\n    function approve(address to, uint256 tokenId) public;\n    function getApproved(uint256 tokenId) public view returns (address operator);\n\n    function setApprovalForAll(address operator, bool _approved) public;\n    function isApprovedForAll(address owner, address operator) public view returns (bool);\n\n    function transferFrom(address from, address to, uint256 tokenId) public;\n    function safeTransferFrom(address from, address to, uint256 tokenId) public;\n\n    function safeTransferFrom(address from, address to, uint256 tokenId, bytes memory data) public;\n}\n\n\n\n/**\n * @title ERC721 token receiver interface\n * @dev Interface for any contract that wants to support safeTransfers\n * from ERC721 asset contracts.\n */\ncontract IERC721Receiver {\n    /**\n     * @notice Handle the receipt of an NFT\n     * @dev The ERC721 smart contract calls this function on the recipient\n     * after a `safeTransfer`. This function MUST return the function selector,\n     * otherwise the caller will revert the transaction. The selector to be\n     * returned can be obtained as `this.onERC721Received.selector`. This\n     * function MAY throw to revert and reject the transfer.\n     * Note: the ERC721 contract address is always the message sender.\n     * @param operator The address which called `safeTransferFrom` function\n     * @param from The address which previously owned the token\n     * @param tokenId The NFT identifier which is being transferred\n     * @param data Additional data with no specified format\n     * @return bytes4 `bytes4(keccak256(\"onERC721Received(address,address,uint256,bytes)\"))`\n     */\n    function onERC721Received(address operator, address from, uint256 tokenId, bytes memory data)\n    public returns (bytes4);\n}\n\n\n\n\n\n/**\n * @title ERC165\n * @author Matt Condon (@shrugs)\n * @dev Implements ERC165 using a lookup table.\n */\ncontract ERC165 is IERC165 {\n    bytes4 private constant _INTERFACE_ID_ERC165 = 0x01ffc9a7;\n    /*\n     * 0x01ffc9a7 ===\n     *     bytes4(keccak256('supportsInterface(bytes4)'))\n     */\n\n    /**\n     * @dev a mapping of interface id to whether or not it's supported\n     */\n    mapping(bytes4 => bool) private _supportedInterfaces;\n\n    /**\n     * @dev A contract implementing SupportsInterfaceWithLookup\n     * implement ERC165 itself\n     */\n    constructor () internal {\n        _registerInterface(_INTERFACE_ID_ERC165);\n    }\n\n    /**\n     * @dev implement supportsInterface(bytes4) using a lookup table\n     */\n    function supportsInterface(bytes4 interfaceId) external view returns (bool) {\n        return _supportedInterfaces[interfaceId];\n    }\n\n    /**\n     * @dev internal method for registering an interface\n     */\n    function _registerInterface(bytes4 interfaceId) internal {\n        require(interfaceId != 0xffffffff);\n        _supportedInterfaces[interfaceId] = true;\n    }\n}\n\n\n\n/// Utility library of inline functions on address payables.\n/// Modified from original by OpenZeppelin.\ncontract Address {\n    /// @notice Returns whether the target address is a contract.\n    /// @dev This function will return false if invoked during the constructor of a contract,\n    /// as the code is not actually created until after the constructor finishes.\n    /// @param account address of the account to check\n    /// @return whether the target address is a contract\n    function isContract(address account) internal view returns (bool) {\n        uint256 size;\n        // XXX Currently there is no better way to check if there is a contract in an address\n        // than to check the size of the code at that address.\n        // See https://ethereum.stackexchange.com/a/14016/36603\n        // for more details about how this works.\n        // TODO Check this again before the Serenity release, because all addresses will be\n        // contracts then.\n        // solhint-disable-next-line no-inline-assembly\n        assembly { size := extcodesize(account) } // solium-disable-line security/no-inline-assembly\n        return size > 0;\n    }\n}\n\n\n\n/**\n * @title WizardPresaleNFT\n * @notice The basic ERC-721 functionality for storing the presale Wizard NFTs.\n *     Derived from: https://github.com/OpenZeppelin/openzeppelin-solidity/tree/v2.2.0\n */\ncontract WizardPresaleNFT is ERC165, IERC721, Address {\n\n    event Transfer(address indexed from, address indexed to, uint256 indexed tokenId);\n    event Approval(address indexed owner, address indexed approved, uint256 indexed tokenId);\n    event ApprovalForAll(address indexed owner, address indexed operator, bool approved);\n\n    /// @notice Emitted when a wizard token is created.\n    event WizardSummoned(uint256 indexed tokenId, uint8 element, uint256 power);\n\n    /// @notice Emitted when a wizard change element. Should only happen once and for wizards\n    ///         that previously had the element undefined.\n    event WizardAlignmentAssigned(uint256 indexed tokenId, uint8 element);\n\n    // Equals to `bytes4(keccak256(\"onERC721Received(address,address,uint256,bytes)\"))`\n    // which can be also obtained as `IERC721Receiver(0).onERC721Received.selector`\n    bytes4 internal constant _ERC721_RECEIVED = 0x150b7a02;\n\n    /// @dev The presale Wizard structure.\n    ///  Fits in one word\n    struct Wizard {\n        // NOTE: Changing the order or meaning of any of these fields requires an update\n        //   to the _createWizard() function which assumes a specific order for these fields.\n        uint8 affinity;\n        uint88 power;\n        address owner;\n    }\n\n    // Mapping from Wizard ID to Wizard struct\n    mapping (uint256 => Wizard) public _wizardsById;\n\n    // Mapping from token ID to approved address\n    mapping (uint256 => address) private _tokenApprovals;\n\n    // Mapping from owner to number of owned token\n    mapping (address => uint256) internal _ownedTokensCount;\n\n    // Mapping from owner to operator approvals\n    mapping (address => mapping (address => bool)) private _operatorApprovals;\n\n    bytes4 private constant _INTERFACE_ID_ERC721 = 0x80ac58cd;\n    /*\n     * 0x80ac58cd ===\n     *     bytes4(keccak256('balanceOf(address)')) ^\n     *     bytes4(keccak256('ownerOf(uint256)')) ^\n     *     bytes4(keccak256('approve(address,uint256)')) ^\n     *     bytes4(keccak256('getApproved(uint256)')) ^\n     *     bytes4(keccak256('setApprovalForAll(address,bool)')) ^\n     *     bytes4(keccak256('isApprovedForAll(address,address)')) ^\n     *     bytes4(keccak256('transferFrom(address,address,uint256)')) ^\n     *     bytes4(keccak256('safeTransferFrom(address,address,uint256)')) ^\n     *     bytes4(keccak256('safeTransferFrom(address,address,uint256,bytes)'))\n     */\n\n    constructor () public {\n        // register the supported interfaces to conform to ERC721 via ERC165\n        _registerInterface(_INTERFACE_ID_ERC721);\n    }\n\n    /**\n     * @dev Gets the balance of the specified address\n     * @param owner address to query the balance of\n     * @return uint256 representing the amount owned by the passed address\n     */\n    function balanceOf(address owner) public view returns (uint256) {\n        require(owner != address(0), \"ERC721: balance query for the zero address\");\n        return _ownedTokensCount[owner];\n    }\n\n    /**\n     * @dev Gets the owner of the specified token ID\n     * @param tokenId uint256 ID of the token to query the owner of\n     * @return address currently marked as the owner of the given token ID\n     */\n    function ownerOf(uint256 tokenId) public view returns (address) {\n        address owner = _wizardsById[tokenId].owner;\n        require(owner != address(0), \"ERC721: owner query for nonexistent token\");\n        return owner;\n    }\n\n    /**\n     * @dev Approves another address to transfer the given token ID\n     * The zero address indicates there is no approved address.\n     * There can only be one approved address per token at a given time.\n     * Can only be called by the token owner or an approved operator.\n     * @param to address to be approved for the given token ID\n     * @param tokenId uint256 ID of the token to be approved\n     */\n    function approve(address to, uint256 tokenId) public {\n        address owner = ownerOf(tokenId);\n        require(to != owner, \"ERC721: approval to current owner\");\n        require(\n            msg.sender == owner || isApprovedForAll(owner, msg.sender),\n            \"ERC721: approve caller is not owner nor approved for all\"\n        );\n\n        _tokenApprovals[tokenId] = to;\n        emit Approval(owner, to, tokenId);\n    }\n\n    /**\n     * @dev Gets the approved address for a token ID, or zero if no address set\n     * Reverts if the token ID does not exist.\n     * @param tokenId uint256 ID of the token to query the approval of\n     * @return address currently approved for the given token ID\n     */\n    function getApproved(uint256 tokenId) public view returns (address) {\n        require(_exists(tokenId), \"ERC721: approved query for nonexistent token\");\n        return _tokenApprovals[tokenId];\n    }\n\n    /**\n     * @dev Sets or unsets the approval of a given operator\n     * An operator is allowed to transfer all tokens of the sender on their behalf\n     * @param to operator address to set the approval\n     * @param approved representing the status of the approval to be set\n     */\n    function setApprovalForAll(address to, bool approved) public {\n        require(to != msg.sender, \"ERC721: approve to caller\");\n        _operatorApprovals[msg.sender][to] = approved;\n        emit ApprovalForAll(msg.sender, to, approved);\n    }\n\n    /**\n     * @dev Tells whether an operator is approved by a given owner\n     * @param owner owner address which you want to query the approval of\n     * @param operator operator address which you want to query the approval of\n     * @return bool whether the given operator is approved by the given owner\n     */\n    function isApprovedForAll(address owner, address operator) public view returns (bool) {\n        return _operatorApprovals[owner][operator];\n    }\n\n    /**\n     * @dev Transfers the ownership of a given token ID to another address\n     * Usage of this method is discouraged, use `safeTransferFrom` whenever possible\n     * Requires the msg.sender to be the owner, approved, or operator\n     * @param from current owner of the token\n     * @param to address to receive the ownership of the given token ID\n     * @param tokenId uint256 ID of the token to be transferred\n     */\n    function transferFrom(address from, address to, uint256 tokenId) public {\n        require(_isApprovedOrOwner(msg.sender, tokenId), \"ERC721: transfer caller is not owner nor approved\");\n\n        _transferFrom(from, to, tokenId);\n    }\n\n    /**\n     * @dev Safely transfers the ownership of a given token ID to another address\n     * If the target address is a contract, it must implement `onERC721Received`,\n     * which is called upon a safe transfer, and return the magic value\n     * `bytes4(keccak256(\"onERC721Received(address,address,uint256,bytes)\"))`; otherwise,\n     * the transfer is reverted.\n     * Requires the msg.sender to be the owner, approved, or operator\n     * @param from current owner of the token\n     * @param to address to receive the ownership of the given token ID\n     * @param tokenId uint256 ID of the token to be transferred\n     */\n    function safeTransferFrom(address from, address to, uint256 tokenId) public {\n        safeTransferFrom(from, to, tokenId, \"\");\n    }\n\n    /**\n     * @dev Safely transfers the ownership of a given token ID to another address\n     * If the target address is a contract, it must implement `onERC721Received`,\n     * which is called upon a safe transfer, and return the magic value\n     * `bytes4(keccak256(\"onERC721Received(address,address,uint256,bytes)\"))`; otherwise,\n     * the transfer is reverted.\n     * Requires the msg.sender to be the owner, approved, or operator\n     * @param from current owner of the token\n     * @param to address to receive the ownership of the given token ID\n     * @param tokenId uint256 ID of the token to be transferred\n     * @param _data bytes data to send along with a safe transfer check\n     */\n    function safeTransferFrom(address from, address to, uint256 tokenId, bytes memory _data) public {\n        transferFrom(from, to, tokenId);\n        require(_checkOnERC721Received(from, to, tokenId, _data), \"ERC721: transfer to non ERC721Receiver implementer\");\n    }\n\n    /**\n     * @dev Returns whether the specified token exists\n     * @param tokenId uint256 ID of the token to query the existence of\n     * @return bool whether the token exists\n     */\n    function _exists(uint256 tokenId) internal view returns (bool) {\n        address owner = _wizardsById[tokenId].owner;\n        return owner != address(0);\n    }\n\n    /**\n     * @dev Returns whether the given spender can transfer a given token ID\n     * @param spender address of the spender to query\n     * @param tokenId uint256 ID of the token to be transferred\n     * @return bool whether the msg.sender is approved for the given token ID,\n     * is an operator of the owner, or is the owner of the token\n     */\n    function _isApprovedOrOwner(address spender, uint256 tokenId) internal view returns (bool) {\n        require(_exists(tokenId), \"ERC721: operator query for nonexistent token\");\n        address owner = ownerOf(tokenId);\n        return (spender == owner || getApproved(tokenId) == spender || isApprovedForAll(owner, spender));\n    }\n\n    /**\n     * @dev Internal function to burn a specific token\n     * Reverts if the token does not exist\n     * Deprecated, use _burn(uint256) instead.\n     * @param owner owner of the token to burn\n     * @param tokenId uint256 ID of the token being burned\n     */\n    function _burn(address owner, uint256 tokenId) internal {\n        require(ownerOf(tokenId) == owner, \"ERC721: burn of token that is not own\");\n\n        _clearApproval(tokenId);\n\n        _ownedTokensCount[owner]--;\n        // delete the entire object to recover the most gas\n        delete _wizardsById[tokenId];\n\n        // required for ERC721 compatibility\n        emit Transfer(owner, address(0), tokenId);\n    }\n\n    /**\n     * @dev Internal function to burn a specific token\n     * Reverts if the token does not exist\n     * @param tokenId uint256 ID of the token being burned\n     */\n    function _burn(uint256 tokenId) internal {\n        _burn(ownerOf(tokenId), tokenId);\n    }\n\n    /**\n     * @dev Internal function to transfer ownership of a given token ID to another address.\n     * As opposed to transferFrom, this imposes no restrictions on msg.sender.\n     * @param from current owner of the token\n     * @param to address to receive the ownership of the given token ID\n     * @param tokenId uint256 ID of the token to be transferred\n     */\n    function _transferFrom(address from, address to, uint256 tokenId) internal {\n        require(ownerOf(tokenId) == from, \"ERC721: transfer of token that is not own\");\n        require(to != address(0), \"ERC721: transfer to the zero address\");\n\n        _clearApproval(tokenId);\n\n        _ownedTokensCount[from]--;\n        _ownedTokensCount[to]++;\n\n        _wizardsById[tokenId].owner = to;\n\n        emit Transfer(from, to, tokenId);\n    }\n\n    /**\n     * @dev Internal function to invoke `onERC721Received` on a target address\n     * The call is not executed if the target address is not a contract\n     * @param from address representing the previous owner of the given token ID\n     * @param to target address that will receive the tokens\n     * @param tokenId uint256 ID of the token to be transferred\n     * @param _data bytes optional data to send along with the call\n     * @return bool whether the call correctly returned the expected magic value\n     */\n    function _checkOnERC721Received(address from, address to, uint256 tokenId, bytes memory _data)\n        internal returns (bool)\n    {\n        if (!isContract(to)) {\n            return true;\n        }\n\n        bytes4 retval = IERC721Receiver(to).onERC721Received(msg.sender, from, tokenId, _data);\n        return (retval == _ERC721_RECEIVED);\n    }\n\n    /**\n     * @dev Private function to clear current approval of a given token ID\n     * @param tokenId uint256 ID of the token to be transferred\n     */\n    function _clearApproval(uint256 tokenId) private {\n        if (_tokenApprovals[tokenId] != address(0)) {\n            _tokenApprovals[tokenId] = address(0);\n        }\n    }\n}\n\n\n\n\n/// @title WizardPresaleInterface\n/// @notice This interface represents the single method that the final tournament and master Wizard contracts\n///         will use to import the presale wizards when those contracts have been finalized a released on\n///         mainnet. Once all presale Wizards have been absorbed, this temporary pre-sale contract can be\n///         destroyed.\ncontract WizardPresaleInterface {\n\n    // See https://github.com/ethereum/EIPs/blob/master/EIPS/eip-165.md on how\n    // to calculate this\n    bytes4 public constant _INTERFACE_ID_WIZARDPRESALE = 0x4df71efb;\n\n    /// @notice This function is used to bring a presale Wizard into the final contracts. It can\n    ///         ONLY be called by the official gatekeeper contract (as set by the Owner of the presale\n    ///         contract). It does a number of things:\n    ///            1. Check that the presale Wizard exists, and has not already been absorbed\n    ///            2. Transfer the Eth used to create the presale Wizard to the caller\n    ///            3. Mark the Wizard as having been absorbed, reclaiming the storage used by the presale info\n    ///            4. Return the Wizard information (its owner, minting price, and elemental alignment)\n    /// @param id the id of the presale Wizard to be absorbed\n    function absorbWizard(uint256 id) external returns (address owner, uint256 power, uint8 affinity);\n\n    /// @notice A convenience function that allows multiple Wizards to be moved to the final contracts\n    ///         simultaneously, works the same as the previous function, but in a batch.\n    /// @param ids An array of ids indicating which presale Wizards are to be absorbed\n    function absorbWizardMulti(uint256[] calldata ids) external\n        returns (address[] memory owners, uint256[] memory powers, uint8[] memory affinities);\n\n    function powerToCost(uint256 power) public pure returns (uint256 cost);\n    function costToPower(uint256 cost) public pure returns (uint256 power);\n}\n\n\n\n/// @title WizardPresale - Making Cheeze Wizards available for sale!\n/// @notice Allows for the creation and sale of Cheeze Wizards before the final tournament\n///         contract has been reviewed and released on mainnet. There are three main types\n///         of Wizards that are managed by this contract:\n///          - Neutral Wizards: Available in unlimited quantities and all have the same\n///             innate power. Don't have a natural affinity for any particular elemental\n///             spell... or the corresponding weakness!\n///          - Elemental Wizards: Available in unlimited quantities, but with a steadily increasing\n///             power; the power of an Elemental Wizard is always _slightly_ higher than the power\n///             of the previously created Elemental Wizard. Each Elemental Wizard has an Elemental\n///             Affinity that gives it a power multiplier when using the associated spell, but also\n///             gives it a weakness for the opposing element.\n///          - Exclusive Wizards: Only available in VERY limited quantities, with a hard cap set at\n///             contract creation time. Exclusive Wizards can ONLY be created by the Guild Master\n///             address (the address that created this contract), and are assigned the first N\n///             Wizard IDs, starting with 1 (where N is the hard cap on Exclusive Wizards). The first\n///             non-exclusive Wizard is assigned the ID N+1. Exclusive Wizards have no starting\n///             affinity, and their owners much choose an affinity before they can be entered into a\n///             Battle. The affinity CAN NOT CHANGE once it has been selected. The power of Exclusive\n///             Wizards is not set by the Guild Master and is not required to follow any pattern (although\n///             it can't be lower than the power of Neutral Wizards).\ncontract WizardPresale is WizardPresaleNFT, WizardPresaleInterface, WizardConstants {\n\n    /// @dev The ratio between the cost of a Wizard (in wei) and the power of the wizard.\n    ///      power = cost / POWER_SCALE\n    ///      cost = power * POWER_SCALE\n    uint256 private constant POWER_SCALE = 1000;\n\n    /// @dev The unit conversion for tenths of basis points\n    uint256 private constant TENTH_BASIS_POINTS = 100000;\n\n    /// @dev The address used to create this smart contract, has permission to conjure Exclusive Wizards,\n    ///      set the gatekeeper address, and destroy this contract once the sale is finished and all Presale\n    ///      Wizards have been absorbed into the main contracts.\n    address payable public guildmaster;\n\n    /// @dev The start block and duration (in blocks) of the sale.\n    ///      ACT NOW! For a limited time only!\n    uint256 public saleStartBlock;\n    uint256 public saleDuration;\n\n    /// @dev The cost of Neutral Wizards (in wei).\n    uint256 public neutralWizardCost;\n\n    /// @dev The cost of the _next_ Elemental Wizard (in wei); increases with each Elemental Wizard sold\n    uint256 public elementalWizardCost;\n\n    /// @dev The increment ratio in price between sequential Elemental Wizards, multiplied by 100k for\n    ///      greater granularity (0 == 0% increase, 100000 == 100% increase, 100 = 0.1% increase, etc.)\n    ///      NOTE: This is NOT percentage points, or basis points. It's tenths of a basis point.\n    uint256 public elementalWizardIncrement;\n\n    /// @dev The hard cap on how many Exclusive Wizards can be created\n    uint256 public maxExclusives;\n\n    /// @dev The ID number of the next Wizard to be created (Neutral or Elemental)\n    uint256 public nextWizardId;\n\n    /// @dev The address of the Gatekeeper for the tournament, initially set to address(0).\n    ///      To be set by the Guild Master when the final Tournament Contract is deployed on mainnet\n    address payable public gatekeeper;\n\n    /// @notice Emitted whenever the start of the sale changes.\n    event StartBlockChanged(uint256 oldStartBlock, uint256 newStartBlock);\n\n    /// @param startingCost The minimum cost of a Wizard, used as the price for all Neutral Wizards, and the\n    ///        cost of the first Elemental Wizard. Also used as a minimum value for Exclusive Wizards.\n    /// @param costIncremement The rate (in tenths of a basis point) at which the price of Elemental Wizards increases\n    /// @param exclusiveCount The hard cap on Exclusive Wizards, also dictates the ID of the first non-Exclusive\n    /// @param startBlock The starting block of the presale.\n    /// @param duration The duration of the presale.  Not changeable!\n    constructor(uint128 startingCost,\n            uint16 costIncremement,\n            uint256 exclusiveCount,\n            uint128 startBlock,\n            uint128 duration) public\n    {\n        require(startBlock > block.number, \"Start must be greater than current block\");\n\n        guildmaster = msg.sender;\n        saleStartBlock = startBlock;\n        saleDuration = duration;\n        neutralWizardCost = startingCost;\n        elementalWizardCost = startingCost;\n        elementalWizardIncrement = costIncremement;\n        maxExclusives = exclusiveCount;\n        nextWizardId = exclusiveCount + 1;\n\n        _registerInterface(_INTERFACE_ID_WIZARDPRESALE);\n    }\n\n    /// @dev Throws if called by any account other than the gatekeeper.\n    modifier onlyGatekeeper() {\n        require(msg.sender == gatekeeper, \"Must be gatekeeper\");\n        _;\n    }\n\n    /// @dev Throws if called by any account other than the guildmaster.\n    modifier onlyGuildmaster() {\n        require(msg.sender == guildmaster, \"Must be guildmaster\");\n        _;\n    }\n\n    /// @dev Checks to see that the current block number is within the range\n    ///      [saleStartBlock, saleStartBlock + saleDuraction) indicating that the sale\n    ///      is currently active\n    modifier onlyDuringSale() {\n        // The addtion of start and duration can't overflow since they can only be set from\n        // 128-bit arguments.\n        require(block.number >= saleStartBlock, \"Sale not open yet\");\n        require(block.number < saleStartBlock + saleDuration, \"Sale closed\");\n        _;\n    }\n\n    /// @dev Sets the address of the Gatekeeper contract once the final Tournament contract is live.\n    ///      Can only be set once.\n    /// @param gc The gatekeeper address to set\n    function setGatekeeper(address payable gc) external onlyGuildmaster {\n        require(gatekeeper == address(0) && gc != address(0), \"Can only set once and must not be 0\");\n        gatekeeper = gc;\n    }\n\n    /// @dev Updates the start block of the sale. The sale can only be postponed; it can't be made earlier.\n    /// @param newStart the new start block.\n    function postponeSale(uint128 newStart) external onlyGuildmaster {\n        require(block.number < saleStartBlock, \"Sale start time only adjustable before previous start time\");\n        require(newStart > saleStartBlock, \"New start time must be later than previous start time\");\n\n        emit StartBlockChanged(saleStartBlock, newStart);\n\n        saleStartBlock = newStart;\n    }\n\n    /// @dev Returns true iff the sale is currently active\n    function isDuringSale() external view returns (bool) {\n        return (block.number >= saleStartBlock && block.number < saleStartBlock + saleDuration);\n    }\n\n    /// @dev Convenience method for getting a presale wizard's data\n    /// @param id The wizard id\n    function getWizard(uint256 id) public view returns (address owner, uint88 power, uint8 affinity) {\n        Wizard memory wizard = _wizardsById[id];\n        (owner, power, affinity) = (wizard.owner, wizard.power, wizard.affinity);\n        require(wizard.owner != address(0), \"Wizard does not exist\");\n    }\n\n    /// @param cost The price of the wizard in wei\n    /// @return The power of the wizard (left as uint256)\n    function costToPower(uint256 cost) public pure returns (uint256 power) {\n        return cost / POWER_SCALE;\n    }\n\n    /// @param power The power of the wizard\n    /// @return The cost of the wizard in wei\n    function powerToCost(uint256 power) public pure returns (uint256 cost) {\n        return power * POWER_SCALE;\n    }\n\n    /// @notice This function is used to bring a presale Wizard into the final contracts. It can\n    ///         ONLY be called by the official gatekeeper contract (as set by the Owner of the presale\n    ///         contract). It does a number of things:\n    ///            1. Check that the presale Wizard exists, and has not already been absorbed\n    ///            2. Transfer the Eth used to create the presale Wizard to the caller\n    ///            3. Mark the Wizard as having been absorbed, reclaiming the storage used by the presale info\n    ///            4. Return the Wizard information (its owner, minting price, and elemental alignment)\n    /// @param id the id of the presale Wizard to be absorbed\n    function absorbWizard(uint256 id) external onlyGatekeeper returns (address owner, uint256 power, uint8 affinity) {\n        (owner, power, affinity) = getWizard(id);\n\n        // Free up the storage used by this wizard\n        _burn(owner, id);\n\n        // send the price paid to the gatekeeper to be used in the tournament prize pool\n        msg.sender.transfer(powerToCost(power));\n    }\n\n    /// @notice A convenience function that allows multiple Wizards to be moved to the final contracts\n    ///         simultaneously, works the same as the previous function, but in a batch.\n    /// @param ids An array of ids indicating which presale Wizards are to be absorbed\n    function absorbWizardMulti(uint256[] calldata ids) external onlyGatekeeper\n            returns (address[] memory owners, uint256[] memory powers, uint8[] memory affinities)\n    {\n        // allocate arrays\n        owners = new address[](ids.length);\n        powers = new uint256[](ids.length);\n        affinities = new uint8[](ids.length);\n\n        // The total eth to send (sent in a batch to save gas)\n        uint256 totalTransfer;\n\n        // Put the data for each Wizard into the returned arrays\n        for (uint256 i = 0; i < ids.length; i++) {\n            (owners[i], powers[i], affinities[i]) = getWizard(ids[i]);\n\n            // Free up the storage used by this wizard\n            _burn(owners[i], ids[i]);\n\n            // add the amount to transfer\n            totalTransfer += powerToCost(powers[i]);\n        }\n\n        // Send all the eth together\n        msg.sender.transfer(totalTransfer);\n    }\n\n    /// @dev Internal function to create a new Wizard; reverts if the Wizard ID is taken.\n    ///      NOTE: This function heavily depends on the internal format of the Wizard struct\n    ///      and should always be reassessed if anything about that structure changes.\n    /// @param tokenId ID of the new Wizard\n    /// @param owner The address that will own the newly conjured Wizard\n    /// @param power The power level associated with the new Wizard\n    /// @param affinity The elemental affinity of the new Wizard\n    function _createWizard(uint256 tokenId, address owner, uint256 power, uint8 affinity) internal {\n        require(!_exists(tokenId), \"Can't reuse Wizard ID\");\n        require(owner != address(0), \"Owner address must exist\");\n        require(power > 0, \"Wizard power must be non-0\");\n        require(power < (1<<88), \"Wizard power must fit in 88 bits of storage\");\n        require(affinity <= MAX_ELEMENT, \"Invalid elemental affinity\");\n\n        // Create the Wizard!\n        _wizardsById[tokenId] = Wizard(affinity, uint88(power), owner);\n        _ownedTokensCount[owner]++;\n\n        // Tell the world!\n        emit Transfer(address(0), owner, tokenId);\n        emit WizardSummoned(tokenId, affinity, power);\n    }\n\n    /// @dev A private utility function that refunds any overpayment to the sender; smart\n    ///      enough to only send the excess if the amount we are returning is more than the\n    ///      cost of sending it!\n    /// @dev Warning! This does not check for underflows (msg.value < actualPrice) - so\n    ///      be sure to call this with correct values!\n    /// @param actualPrice the actual price owed\n    function _transferRefund(uint256 actualPrice) private {\n        uint256 refund = msg.value - actualPrice;\n\n        // Make sure the amount we're trying to refund is less than the actual cost of sending it!\n        // See https://github.com/ethereum/wiki/wiki/Subtleties for magic values costs.  We can\n        // safely ignore the 25000 additional gas cost for new accounts, as msg.sender is\n        // guaranteed to exist at this point!\n        if (refund > (tx.gasprice * (9000+700))) {\n            msg.sender.transfer(refund);\n        }\n    }\n\n    /// @notice Conjures an Exclusive Wizard with a specific element and ID. This can only be done by\n    ///         the Guildmaster, who still has to pay for the power imbued in that Wizard! The power level\n    ///         is inferred by the amount of Eth sent. MUST ONLY BE USED FOR EXTERNAL OWNER ADDRESSES.\n    /// @param id The ID of the new Wizard; must be in the Exclusive range, and can't already be allocated\n    /// @param owner The address which will own the new Wizard\n    /// @param affinity The elemental affinity of the new Wizard, can be ELEMENT_NOTSET for Exclusives!\n    function conjureExclusiveWizard(uint256 id, address owner, uint8 affinity) public payable onlyGuildmaster {\n        require(id > 0 && id <= maxExclusives, \"Invalid exclusive ID\");\n        _createWizard(id, owner, costToPower(msg.value), affinity);\n    }\n\n    /// @notice Same as conjureExclusiveWizard(), but reverts if the owner address is a smart\n    ///         contract that is not ERC-721 aware.\n    /// @param id The ID of the new Wizard; must be in the Exclusive range, and can't already be allocated\n    /// @param owner The address which will own the new Wizard\n    /// @param affinity The elemental affinity of the new Wizard, can be ELEMENT_NOTSET for Exclusives!\n    function safeConjureExclusiveWizard(uint256 id, address owner, uint8 affinity) external payable onlyGuildmaster {\n        conjureExclusiveWizard(id, owner, affinity);\n        require(_checkOnERC721Received(address(0), owner, id, \"\"), \"Must support erc721\");\n    }\n\n    /// @notice Allows for the batch creation of Exclusive Wizards. Same rules apply as above, but the\n    ///         powers are specified instead of being inferred. The message still needs to have enough\n    ///         value to pay for all the newly conjured Wizards!  MUST ONLY BE USED FOR EXTERNAL OWNER ADDRESSES.\n    /// @param ids An array of IDs of the new Wizards\n    /// @param owners An array of owners\n    /// @param powers An array of power levels\n    /// @param affinities An array of elemental affinities\n    function conjureExclusiveWizardMulti(\n        uint256[] calldata ids,\n        address[] calldata owners,\n        uint256[] calldata powers,\n        uint8[] calldata affinities) external payable onlyGuildmaster\n    {\n        // Ensure the arrays are all of the same length\n        require(\n            ids.length == owners.length &&\n            owners.length == powers.length &&\n            owners.length == affinities.length,\n            \"Must have equal array lengths\"\n        );\n\n        uint256 totalPower = 0;\n\n        for (uint256 i = 0; i < ids.length; i++) {\n            require(ids[i] > 0 && ids[i] <= maxExclusives, \"Invalid exclusive ID\");\n            require(affinities[i] <= MAX_ELEMENT, \"Must choose a valid elemental affinity\");\n\n            _createWizard(ids[i], owners[i], powers[i], affinities[i]);\n\n            totalPower += powers[i];\n        }\n\n        // Ensure that the message includes enough eth to cover the total power of all Wizards\n        // If this check fails, all the Wizards that we just created will be deleted, and we'll just\n        // have wasted a bunch of gas. Don't be dumb, Guildmaster!\n        // If the guildMaster has managed to overflow totalPower, well done!\n        require(powerToCost(totalPower) <= msg.value, \"Must pay for power in all Wizards\");\n\n        // We don't return \"change\" if the caller overpays, because the caller is the Guildmaster and\n        // shouldn't be dumb like that. How many times do I have to say it? Don't be dumb, Guildmaster!\n    }\n\n    /// @notice Sets the affinity for a Wizard that doesn't already have its elemental affinity chosen.\n    ///         Only usable for Exclusive Wizards (all non-Exclusives must have their affinity chosen when\n    ///         conjured.) Even Exclusives can't change their affinity once it's been chosen.\n    /// @param wizardId The id of the wizard\n    /// @param newAffinity The new affinity of the wizard\n    function setAffinity(uint256 wizardId, uint8 newAffinity) external {\n        require(newAffinity > ELEMENT_NOTSET && newAffinity <= MAX_ELEMENT, \"Must choose a valid affinity\");\n        (address owner, , uint8 affinity) = getWizard(wizardId);\n        require(msg.sender == owner, \"Affinity can only be set by owner\");\n        require(affinity == ELEMENT_NOTSET, \"Affinity can only be chosen once\");\n\n        _wizardsById[wizardId].affinity = newAffinity;\n\n        // Tell the world this wizards now has an affinity!\n        emit WizardAlignmentAssigned(wizardId, newAffinity);\n    }\n\n    /// @dev An internal convenience function used by conjureWizard and conjureWizardMulti that takes care\n    ///      of the work that is shared between them.\n    ///      The use of tempElementalWizardCost and updatedElementalWizardCost deserves some explanation here.\n    ///      Using elementalWizardCost directly would be very expensive in the case where this function is\n    ///      called repeatedly by conjureWizardMulti. Buying an elemental wizard would update the elementalWizardCost\n    ///      each time through this function _which would cost 5000 gas each time_. Of course, we don't actually\n    ///      need to store the new value each time, only once at the very end. So we go through this very annoying\n    ///      process of passing the elementalWizardCost in as an argument (tempElementalWizardCost) and returning\n    ///      the updated value as a return value (updatedElementalWizardCost). It's enough to make one want\n    ///      tear one's hair out. But! What's done is done, and hopefully SOMEONE will realize how much trouble\n    ///      we went to to save them _just that little bit_ of gas cost when they decided to buy a schwack of\n    ///      Wizards.\n    function _conjureWizard(\n        uint256 wizardId,\n        address owner,\n        uint8 affinity,\n        uint256 tempElementalWizardCost) private\n        returns (uint256 wizardCost, uint256 updatedElementalWizardCost)\n    {\n        // Check for a valid elemental affinity\n        require(affinity > ELEMENT_NOTSET && affinity <= MAX_ELEMENT, \"Non-exclusive Wizards need a real affinity\");\n\n        updatedElementalWizardCost = tempElementalWizardCost;\n\n        // Determine the price\n        if (affinity == ELEMENT_NEUTRAL) {\n            wizardCost = neutralWizardCost;\n        } else {\n            wizardCost = updatedElementalWizardCost;\n\n            // Update the elemental Wizard cost\n            // NOTE: This math can't overflow because the total Ether supply in wei is well less than\n            //       2^128. Multiplying a price in wei by some number <100k can't possibly overflow 256 bits.\n            updatedElementalWizardCost += (updatedElementalWizardCost * elementalWizardIncrement) / TENTH_BASIS_POINTS;\n        }\n\n        // Bring the new Wizard into existence!\n        _createWizard(wizardId, owner, costToPower(wizardCost), affinity);\n    }\n\n    /// @notice This is it folks, the main event! The way for the world to get new Wizards! Does\n    ///         pretty much what it says on the box: Let's you conjure a new Wizard with a specified\n    ///         elemental affinity. The call must include enough eth to cover the cost of the new\n    ///         Wizard, and any excess is refunded. The power of the Wizard is derived from\n    ///         the sale price. YOU CAN NOT PAY EXTRA TO GET MORE POWER. (But you always have the option\n    ///         to conjure some more Wizards!) Returns the ID of the newly conjured Wizard.\n    /// @param affinity The elemental affinity you want for your wizard.\n    function conjureWizard(uint8 affinity) external payable onlyDuringSale returns (uint256 wizardId) {\n\n        wizardId = nextWizardId;\n        nextWizardId++;\n\n        uint256 wizardCost;\n\n        (wizardCost, elementalWizardCost) = _conjureWizard(wizardId, msg.sender, affinity, elementalWizardCost);\n\n        require(msg.value >= wizardCost, \"Not enough eth to pay\");\n\n         // Refund any overpayment\n        _transferRefund(wizardCost);\n\n        // Ensure the Wizard is being assigned to an ERC-721 aware address (either an external address,\n        // or a smart contract that implements onERC721Reived())\n        require(_checkOnERC721Received(address(0), msg.sender, wizardId, \"\"), \"Must support erc721\");\n    }\n\n    /// @notice A convenience function that allows you to get a whole bunch of Wizards at once! You know how\n    ///         there's \"a pride of lions\", \"a murder of crows\", and \"a parliament of owls\"? Well, with this\n    ///         here function you can conjure yourself \"a stench of Cheeze Wizards\"!\n    /// @dev This function is careful to bundle all of the external calls (the refund and onERC721Received)\n    ///         at the end of the function to limit the risk of reentrancy attacks.\n    /// @param affinities the elements of the wizards\n    function conjureWizardMulti(uint8[] calldata affinities) external payable onlyDuringSale\n            returns (uint256[] memory wizardIds)\n    {\n        // allocate result array\n        wizardIds = new uint256[](affinities.length);\n\n        uint256 totalCost = 0;\n\n        // We take these two storage variables, and turn them into local variables for the course\n        // of this loop to save about 10k gas per wizard. It's kind of ugly, but that's a lot of\n        // gas! Won't somebody please think of the children!!\n        uint256 tempWizardId = nextWizardId;\n        uint256 tempElementalWizardCost = elementalWizardCost;\n\n        for (uint256 i = 0; i < affinities.length; i++) {\n            wizardIds[i] = tempWizardId;\n            tempWizardId++;\n\n            uint256 wizardCost;\n\n            (wizardCost, tempElementalWizardCost) = _conjureWizard(\n                wizardIds[i],\n                msg.sender,\n                affinities[i],\n                tempElementalWizardCost);\n\n            totalCost += wizardCost;\n        }\n\n        elementalWizardCost = tempElementalWizardCost;\n        nextWizardId = tempWizardId;\n\n        // check to see if there's enough eth\n        require(msg.value >= totalCost, \"Not enough eth to pay\");\n\n        // Ensure the Wizard is being assigned to an ERC-721 aware address (either an external address,\n        // or a smart contract that implements onERC721Received()). We unwind the logic of _checkOnERC721Received\n        // because called address.isContract() every time through this loop can get reasonably expensive. We do\n        // need to call this function for each token created, however, because it's allowed for an ERC-721 receiving\n        // contract to reject the transfer based on the properties of the token.\n        if (isContract(msg.sender)) {\n            for (uint256 i = 0; i < wizardIds.length; i++) {\n                bytes4 retval = IERC721Receiver(msg.sender).onERC721Received(msg.sender, address(0), wizardIds[i], \"\");\n                require(retval == _ERC721_RECEIVED, \"Contract owner didn't accept ERC721 transfer\");\n            }\n        }\n\n        // Refund any excess funds\n        _transferRefund(totalCost);\n    }\n\n    /// @dev Transfers the current balance to the owner and terminates the contract.\n    function destroy() external onlyGuildmaster {\n        selfdestruct(guildmaster);\n    }\n}\n",
  "sourcePath": "/src/contracts/WizardPresale.sol",
  "compiler": {
    "name": "solc",
    "version": "0.5.6+commit.b259423e.Emscripten.clang"
  },
  "schemaVersion": "3.0.14",
  "updatedAt": "2019-09-14T15:39:59.343Z",
  "devdoc": {
    "methods": {
      "approve(address,uint256)": {
        "details": "Approves another address to transfer the given token ID The zero address indicates there is no approved address. There can only be one approved address per token at a given time. Can only be called by the token owner or an approved operator.",
        "params": {
          "to": "address to be approved for the given token ID",
          "tokenId": "uint256 ID of the token to be approved"
        }
      },
      "balanceOf(address)": {
        "details": "Gets the balance of the specified address",
        "params": {
          "owner": "address to query the balance of"
        },
        "return": "uint256 representing the amount owned by the passed address"
      },
      "getApproved(uint256)": {
        "details": "Gets the approved address for a token ID, or zero if no address set Reverts if the token ID does not exist.",
        "params": {
          "tokenId": "uint256 ID of the token to query the approval of"
        },
        "return": "address currently approved for the given token ID"
      },
      "isApprovedForAll(address,address)": {
        "details": "Tells whether an operator is approved by a given owner",
        "params": {
          "operator": "operator address which you want to query the approval of",
          "owner": "owner address which you want to query the approval of"
        },
        "return": "bool whether the given operator is approved by the given owner"
      },
      "ownerOf(uint256)": {
        "details": "Gets the owner of the specified token ID",
        "params": {
          "tokenId": "uint256 ID of the token to query the owner of"
        },
        "return": "address currently marked as the owner of the given token ID"
      },
      "safeTransferFrom(address,address,uint256)": {
        "details": "Safely transfers the ownership of a given token ID to another address If the target address is a contract, it must implement `onERC721Received`, which is called upon a safe transfer, and return the magic value `bytes4(keccak256(\"onERC721Received(address,address,uint256,bytes)\"))`; otherwise, the transfer is reverted. Requires the msg.sender to be the owner, approved, or operator",
        "params": {
          "from": "current owner of the token",
          "to": "address to receive the ownership of the given token ID",
          "tokenId": "uint256 ID of the token to be transferred"
        }
      },
      "safeTransferFrom(address,address,uint256,bytes)": {
        "details": "Safely transfers the ownership of a given token ID to another address If the target address is a contract, it must implement `onERC721Received`, which is called upon a safe transfer, and return the magic value `bytes4(keccak256(\"onERC721Received(address,address,uint256,bytes)\"))`; otherwise, the transfer is reverted. Requires the msg.sender to be the owner, approved, or operator",
        "params": {
          "_data": "bytes data to send along with a safe transfer check",
          "from": "current owner of the token",
          "to": "address to receive the ownership of the given token ID",
          "tokenId": "uint256 ID of the token to be transferred"
        }
      },
      "setApprovalForAll(address,bool)": {
        "details": "Sets or unsets the approval of a given operator An operator is allowed to transfer all tokens of the sender on their behalf",
        "params": {
          "approved": "representing the status of the approval to be set",
          "to": "operator address to set the approval"
        }
      },
      "supportsInterface(bytes4)": {
        "details": "implement supportsInterface(bytes4) using a lookup table"
      },
      "transferFrom(address,address,uint256)": {
        "details": "Transfers the ownership of a given token ID to another address Usage of this method is discouraged, use `safeTransferFrom` whenever possible Requires the msg.sender to be the owner, approved, or operator",
        "params": {
          "from": "current owner of the token",
          "to": "address to receive the ownership of the given token ID",
          "tokenId": "uint256 ID of the token to be transferred"
        }
      }
    },
    "title": "WizardPresaleNFT"
  },
  "userdoc": {
    "methods": {},
    "notice": "The basic ERC-721 functionality for storing the presale Wizard NFTs.    Derived from: https://github.com/OpenZeppelin/openzeppelin-solidity/tree/v2.2.0"
  }
}