{
  "contractName": "WizardNFT",
  "abi": [
    {
      "constant": true,
      "inputs": [
        {
          "name": "",
          "type": "uint256"
        }
      ],
      "name": "wizardsById",
      "outputs": [
        {
          "name": "affinity",
          "type": "uint8"
        },
        {
          "name": "innatePower",
          "type": "uint88"
        },
        {
          "name": "owner",
          "type": "address"
        },
        {
          "name": "metadata",
          "type": "bytes32"
        }
      ],
      "payable": false,
      "stateMutability": "view",
      "type": "function"
    },
    {
      "anonymous": false,
      "inputs": [
        {
          "indexed": false,
          "name": "from",
          "type": "address"
        },
        {
          "indexed": false,
          "name": "to",
          "type": "address"
        },
        {
          "indexed": false,
          "name": "wizardId",
          "type": "uint256"
        }
      ],
      "name": "Transfer",
      "type": "event"
    },
    {
      "anonymous": false,
      "inputs": [
        {
          "indexed": false,
          "name": "owner",
          "type": "address"
        },
        {
          "indexed": false,
          "name": "approved",
          "type": "address"
        },
        {
          "indexed": false,
          "name": "wizardId",
          "type": "uint256"
        }
      ],
      "name": "Approval",
      "type": "event"
    },
    {
      "anonymous": false,
      "inputs": [
        {
          "indexed": false,
          "name": "owner",
          "type": "address"
        },
        {
          "indexed": false,
          "name": "operator",
          "type": "address"
        },
        {
          "indexed": false,
          "name": "approved",
          "type": "bool"
        }
      ],
      "name": "ApprovalForAll",
      "type": "event"
    },
    {
      "anonymous": false,
      "inputs": [
        {
          "indexed": false,
          "name": "wizardId",
          "type": "uint256"
        },
        {
          "indexed": false,
          "name": "affinity",
          "type": "uint8"
        },
        {
          "indexed": false,
          "name": "innatePower",
          "type": "uint256"
        }
      ],
      "name": "WizardConjured",
      "type": "event"
    },
    {
      "anonymous": false,
      "inputs": [
        {
          "indexed": false,
          "name": "wizardId",
          "type": "uint256"
        },
        {
          "indexed": false,
          "name": "affinity",
          "type": "uint8"
        }
      ],
      "name": "WizardAffinityAssigned",
      "type": "event"
    },
    {
      "constant": true,
      "inputs": [
        {
          "name": "interfaceId",
          "type": "bytes4"
        }
      ],
      "name": "supportsInterface",
      "outputs": [
        {
          "name": "",
          "type": "bool"
        }
      ],
      "payable": false,
      "stateMutability": "view",
      "type": "function"
    },
    {
      "constant": true,
      "inputs": [
        {
          "name": "owner",
          "type": "address"
        }
      ],
      "name": "balanceOf",
      "outputs": [
        {
          "name": "",
          "type": "uint256"
        }
      ],
      "payable": false,
      "stateMutability": "view",
      "type": "function"
    },
    {
      "constant": true,
      "inputs": [
        {
          "name": "wizardId",
          "type": "uint256"
        }
      ],
      "name": "ownerOf",
      "outputs": [
        {
          "name": "",
          "type": "address"
        }
      ],
      "payable": false,
      "stateMutability": "view",
      "type": "function"
    },
    {
      "constant": false,
      "inputs": [
        {
          "name": "to",
          "type": "address"
        },
        {
          "name": "wizardId",
          "type": "uint256"
        }
      ],
      "name": "approve",
      "outputs": [],
      "payable": false,
      "stateMutability": "nonpayable",
      "type": "function"
    },
    {
      "constant": true,
      "inputs": [
        {
          "name": "wizardId",
          "type": "uint256"
        }
      ],
      "name": "getApproved",
      "outputs": [
        {
          "name": "",
          "type": "address"
        }
      ],
      "payable": false,
      "stateMutability": "view",
      "type": "function"
    },
    {
      "constant": false,
      "inputs": [
        {
          "name": "to",
          "type": "address"
        },
        {
          "name": "approved",
          "type": "bool"
        }
      ],
      "name": "setApprovalForAll",
      "outputs": [],
      "payable": false,
      "stateMutability": "nonpayable",
      "type": "function"
    },
    {
      "constant": true,
      "inputs": [
        {
          "name": "owner",
          "type": "address"
        },
        {
          "name": "operator",
          "type": "address"
        }
      ],
      "name": "isApprovedForAll",
      "outputs": [
        {
          "name": "",
          "type": "bool"
        }
      ],
      "payable": false,
      "stateMutability": "view",
      "type": "function"
    },
    {
      "constant": false,
      "inputs": [
        {
          "name": "from",
          "type": "address"
        },
        {
          "name": "to",
          "type": "address"
        },
        {
          "name": "wizardId",
          "type": "uint256"
        }
      ],
      "name": "transferFrom",
      "outputs": [],
      "payable": false,
      "stateMutability": "nonpayable",
      "type": "function"
    },
    {
      "constant": false,
      "inputs": [
        {
          "name": "from",
          "type": "address"
        },
        {
          "name": "to",
          "type": "address"
        },
        {
          "name": "wizardId",
          "type": "uint256"
        }
      ],
      "name": "safeTransferFrom",
      "outputs": [],
      "payable": false,
      "stateMutability": "nonpayable",
      "type": "function"
    },
    {
      "constant": false,
      "inputs": [
        {
          "name": "from",
          "type": "address"
        },
        {
          "name": "to",
          "type": "address"
        },
        {
          "name": "wizardId",
          "type": "uint256"
        },
        {
          "name": "_data",
          "type": "bytes"
        }
      ],
      "name": "safeTransferFrom",
      "outputs": [],
      "payable": false,
      "stateMutability": "nonpayable",
      "type": "function"
    }
  ],
  "bytecode": "0x608060405234801561001057600080fd5b50610d9b806100206000396000f3fe608060405234801561001057600080fd5b50600436106100a95760003560e01c80635938d97a116100715780635938d97a146101bc5780636352211e1461021757806370a0823114610234578063a22cb4651461026c578063b88d4fde1461029a578063e985e9c514610360576100a9565b806301ffc9a7146100ae578063081812fc146100e9578063095ea7b31461012257806323b872dd1461015057806342842e0e14610186575b600080fd5b6100d5600480360360208110156100c457600080fd5b50356001600160e01b03191661038e565b604080519115158252519081900360200190f35b610106600480360360208110156100ff57600080fd5b50356103cb565b604080516001600160a01b039092168252519081900360200190f35b61014e6004803603604081101561013857600080fd5b506001600160a01b038135169060200135610430565b005b61014e6004803603606081101561016657600080fd5b506001600160a01b03813581169160208101359091169060400135610560565b61014e6004803603606081101561019c57600080fd5b506001600160a01b038135811691602081013590911690604001356105b8565b6101d9600480360360208110156101d257600080fd5b50356105d3565b6040805160ff90951685526affffffffffffffffffffff90931660208501526001600160a01b03909116838301526060830152519081900360800190f35b6101066004803603602081101561022d57600080fd5b5035610616565b61025a6004803603602081101561024a57600080fd5b50356001600160a01b0316610674565b60408051918252519081900360200190f35b61014e6004803603604081101561028257600080fd5b506001600160a01b03813516906020013515156106da565b61014e600480360360808110156102b057600080fd5b6001600160a01b038235811692602081013590911691604082013591908101906080810160608201356401000000008111156102eb57600080fd5b8201836020820111156102fd57600080fd5b8035906020019184600183028401116401000000008311171561031f57600080fd5b91908080601f0160208091040260200160405190810160405280939291908181526020018383808284376000920191909152509295506107b0945050505050565b6100d56004803603604081101561037657600080fd5b506001600160a01b038135811691602001351661080b565b60006001600160e01b03198216600160e01b6301ffc9a70214806103c557506001600160e01b03198216600160e01b6380ac58cd02145b92915050565b60006103d682610839565b61041457604051600160e51b62461bcd02815260040180806020018281038252602c815260200180610cc9602c913960400191505060405180910390fd5b506000908152600160205260409020546001600160a01b031690565b600061043b82610616565b9050806001600160a01b0316836001600160a01b0316141561049157604051600160e51b62461bcd028152600401808060200182810382526021815260200180610d1e6021913960400191505060405180910390fd5b336001600160a01b03821614806104ad57506104ad813361080b565b6104eb57604051600160e51b62461bcd028152600401808060200182810382526038815260200180610c3e6038913960400191505060405180910390fd5b60008281526001602090815260409182902080546001600160a01b038088166001600160a01b03199092168217909255835191851682529181019190915280820184905290517f8c5be1e5ebec7d5bd14f71427d1e84f3dd0314c0f7b2291e5b200ac8c7c3b9259181900360600190a1505050565b61056a338261085d565b6105a857604051600160e51b62461bcd028152600401808060200182810382526031815260200180610d3f6031913960400191505060405180910390fd5b6105b3838383610904565b505050565b6105b3838383604051806020016040528060008152506107b0565b6000602081905290815260409020805460019091015460ff82169161010081046affffffffffffffffffffff1691600160601b9091046001600160a01b03169084565b600081815260208190526040812054600160601b90046001600160a01b0316806103c557604051600160e51b62461bcd028152600401808060200182810382526029815260200180610ca06029913960400191505060405180910390fd5b60006001600160a01b0382166106be57604051600160e51b62461bcd02815260040180806020018281038252602a815260200180610c76602a913960400191505060405180910390fd5b506001600160a01b031660009081526002602052604090205490565b6001600160a01b03821633141561073b5760408051600160e51b62461bcd02815260206004820152601960248201527f4552433732313a20617070726f766520746f2063616c6c657200000000000000604482015290519081900360640190fd5b3360008181526003602090815260408083206001600160a01b03871680855290835292819020805486151560ff19909116811790915581519485529184019290925282820152517f17307eab39ab6107e8899845ad3d59bd9653f200f220920489ca2b5937696c319181900360600190a15050565b6107bb848484610560565b6107c784848484610a48565b61080557604051600160e51b62461bcd028152600401808060200182810382526032815260200180610bbc6032913960400191505060405180910390fd5b50505050565b6001600160a01b03918216600090815260036020908152604080832093909416825291909152205460ff1690565b600090815260208190526040902054600160601b90046001600160a01b0316151590565b600061086882610839565b6108a657604051600160e51b62461bcd02815260040180806020018281038252602c815260200180610c12602c913960400191505060405180910390fd5b60006108b183610616565b9050806001600160a01b0316846001600160a01b031614806108ec5750836001600160a01b03166108e1846103cb565b6001600160a01b0316145b806108fc57506108fc818561080b565b949350505050565b826001600160a01b031661091782610616565b6001600160a01b03161461095f57604051600160e51b62461bcd028152600401808060200182810382526029815260200180610cf56029913960400191505060405180910390fd5b6001600160a01b0382166109a757604051600160e51b62461bcd028152600401808060200182810382526024815260200180610bee6024913960400191505060405180910390fd5b6109b081610b78565b6001600160a01b0383811660008181526002602090815260408083208054600019019055938616808352848320805460010190558583528282529184902080546bffffffffffffffffffffffff16600160601b8402179055835192835282015280820183905290517fddf252ad1be2c89b69c2b068fc378daa952ba7f163c4a11628f55a4df523b3ef916060908290030190a1505050565b6000610a5384610bb5565b610a5f575060016108fc565b604051600160e11b630a85bd0102815233600482018181526001600160a01b03888116602485015260448401879052608060648501908152865160848601528651600095928a169463150b7a029490938c938b938b939260a4019060208501908083838e5b83811015610adc578181015183820152602001610ac4565b50505050905090810190601f168015610b095780820380516001836020036101000a031916815260200191505b5095505050505050602060405180830381600087803b158015610b2b57600080fd5b505af1158015610b3f573d6000803e3d6000fd5b505050506040513d6020811015610b5557600080fd5b50516001600160e01b031916600160e11b630a85bd010214915050949350505050565b6000818152600160205260409020546001600160a01b031615610bb257600081815260016020526040902080546001600160a01b03191690555b50565b3b15159056fe4552433732313a207472616e7366657220746f206e6f6e20455243373231526563656976657220696d706c656d656e7465724552433732313a207472616e7366657220746f20746865207a65726f20616464726573734552433732313a206f70657261746f7220717565727920666f72206e6f6e6578697374656e7420746f6b656e4552433732313a20617070726f76652063616c6c6572206973206e6f74206f776e6572206e6f7220617070726f76656420666f7220616c6c4552433732313a2062616c616e636520717565727920666f7220746865207a65726f20616464726573734552433732313a206f776e657220717565727920666f72206e6f6e6578697374656e7420746f6b656e4552433732313a20617070726f76656420717565727920666f72206e6f6e6578697374656e7420746f6b656e4552433732313a207472616e73666572206f6620746f6b656e2074686174206973206e6f74206f776e4552433732313a20617070726f76616c20746f2063757272656e74206f776e65724552433732313a207472616e736665722063616c6c6572206973206e6f74206f776e6572206e6f7220617070726f766564a165627a7a7230582089e3fff6e6a64ccd8c71553c4d82f73adeb7dba29910bffbddff4dfcc9818b240029",
  "source": "pragma solidity >=0.5.6 <0.6.0;\n\n/// @title Shared constants used throughout the Cheeze Wizards contracts\ncontract WizardConstants {\n    // Wizards normally have their affinity set when they are first created,\n    // but for example Exclusive Wizards can be created with no set affinity.\n    // In this case the affinity can be set by the owner.\n    uint8 internal constant ELEMENT_NOTSET = 0; //000\n    // A neutral Wizard has no particular strength or weakness with specific\n    // elements.\n    uint8 internal constant ELEMENT_NEUTRAL = 1; //001\n    // The fire, water and wind elements are used both to reflect an affinity\n    // of Elemental Wizards for a specific element, and as the moves a\n    // Wizard can make during a duel.\n    // Note that if these values change then `moveMask` and `moveDelta` in\n    // ThreeAffinityDuelResolver would need to be updated accordingly.\n    uint8 internal constant ELEMENT_FIRE = 2; //010\n    uint8 internal constant ELEMENT_WATER = 3; //011\n    uint8 internal constant ELEMENT_WIND = 4; //100\n    uint8 internal constant MAX_ELEMENT = ELEMENT_WIND;\n}\n\n\n\n/// @title ERC165Query example\n/// @notice see https://github.com/ethereum/EIPs/blob/master/EIPS/eip-165.md\ncontract ERC165Query {\n    bytes4 constant _INTERFACE_ID_INVALID = 0xffffffff;\n    bytes4 constant _INTERFACE_ID_ERC165 = 0x01ffc9a7;\n\n    function doesContractImplementInterface(\n        address _contract,\n        bytes4 _interfaceId\n    )\n        internal\n        view\n        returns (bool)\n    {\n        uint256 success;\n        uint256 result;\n\n        (success, result) = noThrowCall(_contract, _INTERFACE_ID_ERC165);\n        if ((success == 0) || (result == 0)) {\n            return false;\n        }\n\n        (success, result) = noThrowCall(_contract, _INTERFACE_ID_INVALID);\n        if ((success == 0) || (result != 0)) {\n            return false;\n        }\n\n        (success, result) = noThrowCall(_contract, _interfaceId);\n        if ((success == 1) && (result == 1)) {\n            return true;\n        }\n        return false;\n    }\n\n    function noThrowCall(\n        address _contract,\n        bytes4 _interfaceId\n    )\n        internal\n        view\n        returns (\n            uint256 success,\n            uint256 result\n        )\n    {\n        bytes memory encodedParams = abi.encodeWithSelector(_INTERFACE_ID_ERC165, _interfaceId);\n\n        // solhint-disable-next-line no-inline-assembly\n        assembly { // solium-disable-line security/no-inline-assembly\n            let encodedParams_data := add(0x20, encodedParams)\n            let encodedParams_size := mload(encodedParams)\n\n            let output := mload(0x40)    // Find empty storage location using \"free memory pointer\"\n            mstore(output, 0x0)\n\n            success := staticcall(\n                30000,                   // 30k gas\n                _contract,               // To addr\n                encodedParams_data,\n                encodedParams_size,\n                output,\n                0x20                     // Outputs are 32 bytes long\n            )\n\n            result := mload(output)      // Load the result\n        }\n    }\n}\n\n\n\n\n\n\n\n\n/**\n * @title IERC165\n * @dev https://eips.ethereum.org/EIPS/eip-165\n */\ninterface IERC165 {\n    /**\n     * @notice Query if a contract implements an interface\n     * @param interfaceId The interface identifier, as specified in ERC-165\n     * @dev Interface identification is specified in ERC-165. This function\n     * uses less than 30,000 gas.\n     */\n    function supportsInterface(bytes4 interfaceId) external view returns (bool);\n}\n\n\n/**\n * @title ERC721 Non-Fungible Token Standard basic interface\n * @dev see https://eips.ethereum.org/EIPS/eip-721\n */\ncontract IERC721 is IERC165 {\n    event Transfer(address indexed from, address indexed to, uint256 indexed tokenId);\n    event Approval(address indexed owner, address indexed approved, uint256 indexed tokenId);\n    event ApprovalForAll(address indexed owner, address indexed operator, bool approved);\n\n    function balanceOf(address owner) public view returns (uint256 balance);\n    function ownerOf(uint256 tokenId) public view returns (address owner);\n\n    function approve(address to, uint256 tokenId) public;\n    function getApproved(uint256 tokenId) public view returns (address operator);\n\n    function setApprovalForAll(address operator, bool _approved) public;\n    function isApprovedForAll(address owner, address operator) public view returns (bool);\n\n    function transferFrom(address from, address to, uint256 tokenId) public;\n    function safeTransferFrom(address from, address to, uint256 tokenId) public;\n\n    function safeTransferFrom(address from, address to, uint256 tokenId, bytes memory data) public;\n}\n\n\n\n/**\n * @title ERC721 token receiver interface\n * @dev Interface for any contract that wants to support safeTransfers\n * from ERC721 asset contracts.\n */\ncontract IERC721Receiver {\n    /**\n     * @notice Handle the receipt of an NFT\n     * @dev The ERC721 smart contract calls this function on the recipient\n     * after a `safeTransfer`. This function MUST return the function selector,\n     * otherwise the caller will revert the transaction. The selector to be\n     * returned can be obtained as `this.onERC721Received.selector`. This\n     * function MAY throw to revert and reject the transfer.\n     * Note: the ERC721 contract address is always the message sender.\n     * @param operator The address which called `safeTransferFrom` function\n     * @param from The address which previously owned the token\n     * @param tokenId The NFT identifier which is being transferred\n     * @param data Additional data with no specified format\n     * @return bytes4 `bytes4(keccak256(\"onERC721Received(address,address,uint256,bytes)\"))`\n     */\n    function onERC721Received(address operator, address from, uint256 tokenId, bytes memory data)\n    public returns (bytes4);\n}\n\n\n\n\n/// @title ERC165Interface\n/// @dev https://eips.ethereum.org/EIPS/eip-165\ninterface ERC165Interface {\n    /// @notice Query if a contract implements an interface\n    /// @param interfaceId The interface identifier, as specified in ERC-165\n    /// @dev Interface identification is specified in ERC-165. This function\n    ///      uses less than 30,000 gas.\n    function supportsInterface(bytes4 interfaceId) external view returns (bool);\n}\n\n\n\n/// Utility library of inline functions on address payables.\n/// Modified from original by OpenZeppelin.\ncontract Address {\n    /// @notice Returns whether the target address is a contract.\n    /// @dev This function will return false if invoked during the constructor of a contract,\n    /// as the code is not actually created until after the constructor finishes.\n    /// @param account address of the account to check\n    /// @return whether the target address is a contract\n    function isContract(address account) internal view returns (bool) {\n        uint256 size;\n        // XXX Currently there is no better way to check if there is a contract in an address\n        // than to check the size of the code at that address.\n        // See https://ethereum.stackexchange.com/a/14016/36603\n        // for more details about how this works.\n        // TODO Check this again before the Serenity release, because all addresses will be\n        // contracts then.\n        // solhint-disable-next-line no-inline-assembly\n        assembly { size := extcodesize(account) } // solium-disable-line security/no-inline-assembly\n        return size > 0;\n    }\n}\n\n\n\n\n/// @title Wizard Non-Fungible Token\n/// @notice The basic ERC-721 functionality for storing Cheeze Wizard NFTs.\n///     Derived from: https://github.com/OpenZeppelin/openzeppelin-solidity/tree/v2.2.0\ncontract WizardNFT is ERC165Interface, IERC721, WizardConstants, Address {\n\n    /// @notice Transfer of a Wizard between different owners.\n    event Transfer(address from, address to, uint256 wizardId);\n    /// @notice Approval for another address to transfer a Wizard.\n    event Approval(address owner, address approved, uint256 wizardId);\n    /// @notice Approval for another address to transfer all Wizards owned by a single address.\n    event ApprovalForAll(address owner, address operator, bool approved);\n\n    /// @notice Emitted when a wizard token is created.\n    event WizardConjured(uint256 wizardId, uint8 affinity, uint256 innatePower);\n\n    /// @notice Emitted when a Wizard's affinity is set. This only applies for\n    ///         Exclusive Wizards who can have the ELEMENT_NOT_SET affinity,\n    ///         and should only happen once for each Wizard.\n    event WizardAffinityAssigned(uint256 wizardId, uint8 affinity);\n\n    // Equals to `bytes4(keccak256(\"onERC721Received(address,address,uint256,bytes)\"))`\n    // which can be also obtained as `IERC721Receiver(0).onERC721Received.selector`\n    bytes4 internal constant _ERC721_RECEIVED = 0x150b7a02;\n\n    /// @dev The base Wizard structure.\n    /// Designed to fit in two words.\n    struct Wizard {\n        // NOTE: Changing the order or meaning of any of these fields requires an update\n        //   to the _createWizard() function which assumes a specific order for these fields.\n        uint8 affinity;\n        uint88 innatePower;\n        address owner;\n        bytes32 metadata;\n    }\n\n    // Mapping from Wizard ID to Wizard struct\n    mapping (uint256 => Wizard) public wizardsById;\n\n    // Mapping from Wizard ID to address approved to control them\n    mapping (uint256 => address) private wizardApprovals;\n\n    // Mapping from owner address to number of owned Wizards\n    mapping (address => uint256) internal ownedWizardsCount;\n\n    // Mapping from owner to Wizard controllers\n    mapping (address => mapping (address => bool)) private _operatorApprovals;\n\n    /// @dev 0x80ac58cd ===\n    ///    bytes4(keccak256('balanceOf(address)')) ^\n    ///    bytes4(keccak256('ownerOf(uint256)')) ^\n    ///    bytes4(keccak256('approve(address,uint256)')) ^\n    ///    bytes4(keccak256('getApproved(uint256)')) ^\n    ///    bytes4(keccak256('setApprovalForAll(address,bool)')) ^\n    ///    bytes4(keccak256('isApprovedForAll(address,address)')) ^\n    ///    bytes4(keccak256('transferFrom(address,address,uint256)')) ^\n    ///    bytes4(keccak256('safeTransferFrom(address,address,uint256)')) ^\n    ///    bytes4(keccak256('safeTransferFrom(address,address,uint256,bytes)'))\n    bytes4 private constant _INTERFACE_ID_ERC721 = 0x80ac58cd;\n\n    /// @notice Query if a contract implements an interface\n    /// @param interfaceId The interface identifier, as specified in ERC-165\n    /// @dev Interface identification is specified in ERC-165. This function\n    ///      uses less than 30,000 gas.\n    function supportsInterface(bytes4 interfaceId) public view returns (bool) {\n        return\n            interfaceId == this.supportsInterface.selector || // ERC165\n            interfaceId == _INTERFACE_ID_ERC721; // ERC721\n    }\n\n    /// @notice Gets the number of Wizards owned by the specified address.\n    /// @param owner Address to query the balance of.\n    /// @return uint256 representing the amount of Wizards owned by the address.\n    function balanceOf(address owner) public view returns (uint256) {\n        require(owner != address(0), \"ERC721: balance query for the zero address\");\n        return ownedWizardsCount[owner];\n    }\n\n    /// @notice Gets the owner of the specified Wizard\n    /// @param wizardId ID of the Wizard to query the owner of\n    /// @return address currently marked as the owner of the given Wizard\n    function ownerOf(uint256 wizardId) public view returns (address) {\n        address owner = wizardsById[wizardId].owner;\n        require(owner != address(0), \"ERC721: owner query for nonexistent token\");\n        return owner;\n    }\n\n    /// @notice Approves another address to transfer the given Wizard\n    /// The zero address indicates there is no approved address.\n    /// There can only be one approved address per Wizard at a given time.\n    /// Can only be called by the Wizard owner or an approved operator.\n    /// @param to address to be approved for the given Wizard\n    /// @param wizardId ID of the Wizard to be approved\n    function approve(address to, uint256 wizardId) public {\n        address owner = ownerOf(wizardId);\n        require(to != owner, \"ERC721: approval to current owner\");\n        require(\n            msg.sender == owner || isApprovedForAll(owner, msg.sender),\n            \"ERC721: approve caller is not owner nor approved for all\"\n        );\n\n        wizardApprovals[wizardId] = to;\n        emit Approval(owner, to, wizardId);\n    }\n\n    /// @notice Gets the approved address for a Wizard, or zero if no address set\n    /// Reverts if the Wizard does not exist.\n    /// @param wizardId ID of the Wizard to query the approval of\n    /// @return address currently approved for the given Wizard\n    function getApproved(uint256 wizardId) public view returns (address) {\n        require(_exists(wizardId), \"ERC721: approved query for nonexistent token\");\n        return wizardApprovals[wizardId];\n    }\n\n    /// @notice Sets or unsets the approval of a given operator.\n    /// An operator is allowed to transfer all Wizards of the sender on their behalf.\n    /// @param to operator address to set the approval\n    /// @param approved representing the status of the approval to be set\n    function setApprovalForAll(address to, bool approved) public {\n        require(to != msg.sender, \"ERC721: approve to caller\");\n        _operatorApprovals[msg.sender][to] = approved;\n        emit ApprovalForAll(msg.sender, to, approved);\n    }\n\n    /// @notice Tells whether an operator is approved by a given owner.\n    /// @param owner owner address which you want to query the approval of\n    /// @param operator operator address which you want to query the approval of\n    /// @return bool whether the given operator is approved by the given owner\n    function isApprovedForAll(address owner, address operator) public view returns (bool) {\n        return _operatorApprovals[owner][operator];\n    }\n\n    /// @notice Transfers the ownership of a given Wizard to another address.\n    /// Usage of this method is discouraged, use `safeTransferFrom` whenever possible.\n    /// Requires the msg.sender to be the owner, approved, or operator.\n    /// @param from current owner of the Wizard.\n    /// @param to address to receive the ownership of the given Wizard.\n    /// @param wizardId ID of the Wizard to be transferred.\n    function transferFrom(address from, address to, uint256 wizardId) public {\n        require(_isApprovedOrOwner(msg.sender, wizardId), \"ERC721: transfer caller is not owner nor approved\");\n\n        _transferFrom(from, to, wizardId);\n    }\n\n    /// @notice Safely transfers the ownership of a given Wizard to another address\n    /// If the target address is a contract, it must implement `onERC721Received`,\n    /// which is called upon a safe transfer, and return the magic value\n    /// `bytes4(keccak256(\"onERC721Received(address,address,uint256,bytes)\"))`; otherwise,\n    /// the transfer is reverted.\n    /// Requires the msg.sender to be the owner, approved, or operator.\n    /// @param from current owner of the Wizard.\n    /// @param to address to receive the ownership of the given Wizard.\n    /// @param wizardId ID of the Wizard to be transferred.\n    function safeTransferFrom(address from, address to, uint256 wizardId) public {\n        safeTransferFrom(from, to, wizardId, \"\");\n    }\n\n    /// @notice Safely transfers the ownership of a given Wizard to another address\n    /// If the target address is a contract, it must implement `onERC721Received`,\n    /// which is called upon a safe transfer, and return the magic value\n    /// `bytes4(keccak256(\"onERC721Received(address,address,uint256,bytes)\"))`; otherwise,\n    /// the transfer is reverted.\n    /// Requires the msg.sender to be the owner, approved, or operator\n    /// @param from current owner of the Wizard.\n    /// @param to address to receive the ownership of the given Wizard.\n    /// @param wizardId ID of the Wizard to be transferred.\n    /// @param _data bytes data to send along with a safe transfer check\n    function safeTransferFrom(address from, address to, uint256 wizardId, bytes memory _data) public {\n        transferFrom(from, to, wizardId);\n        require(_checkOnERC721Received(from, to, wizardId, _data), \"ERC721: transfer to non ERC721Receiver implementer\");\n    }\n\n    /// @notice Returns whether the specified Wizard exists.\n    /// @param wizardId ID of the Wizard to query the existence of..\n    /// @return bool whether the Wizard exists.\n    function _exists(uint256 wizardId) internal view returns (bool) {\n        address owner = wizardsById[wizardId].owner;\n        return owner != address(0);\n    }\n\n    /// @notice Returns whether the given spender can transfer a given Wizard.\n    /// @param spender address of the spender to query\n    /// @param wizardId ID of the Wizard to be transferred\n    /// @return bool whether the msg.sender is approved for the given Wizard,\n    /// is an operator of the owner, or is the owner of the Wizard.\n    function _isApprovedOrOwner(address spender, uint256 wizardId) internal view returns (bool) {\n        require(_exists(wizardId), \"ERC721: operator query for nonexistent token\");\n        address owner = ownerOf(wizardId);\n        return (spender == owner || getApproved(wizardId) == spender || isApprovedForAll(owner, spender));\n    }\n\n    /** @dev Internal function to create a new Wizard; reverts if the Wizard ID is taken.\n     *       NOTE: This function heavily depends on the internal format of the Wizard struct\n     *       and should always be reassessed if anything about that structure changes.\n     *  @param wizardId ID of the new Wizard.\n     *  @param owner The address that will own the newly conjured Wizard.\n     *  @param innatePower The power level associated with the new Wizard.\n     *  @param affinity The elemental affinity of the new Wizard.\n     */\n    function _createWizard(uint256 wizardId, address owner, uint88 innatePower, uint8 affinity) internal {\n        require(owner != address(0), \"ERC721: mint to the zero address\");\n        require(!_exists(wizardId), \"ERC721: token already minted\");\n        require(wizardId > 0, \"No 0 token allowed\");\n        require(innatePower > 0, \"Wizard power must be non-zero\");\n\n        // Create the Wizard!\n        wizardsById[wizardId] = Wizard({\n            affinity: affinity,\n            innatePower: innatePower,\n            owner: owner,\n            metadata: 0\n        });\n\n        ownedWizardsCount[owner]++;\n\n        // Tell the world!\n        emit Transfer(address(0), owner, wizardId);\n        emit WizardConjured(wizardId, affinity, innatePower);\n    }\n\n    /// @notice Internal function to burn a specific Wizard.\n    /// Reverts if the Wizard does not exist.\n    /// Deprecated, use _burn(uint256) instead.\n    /// @param owner owner of the Wizard to burn.\n    /// @param wizardId ID of the Wizard being burned\n    function _burn(address owner, uint256 wizardId) internal {\n        require(ownerOf(wizardId) == owner, \"ERC721: burn of token that is not own\");\n\n        _clearApproval(wizardId);\n\n        ownedWizardsCount[owner]--;\n        // delete the entire object to recover the most gas\n        delete wizardsById[wizardId];\n\n        // required for ERC721 compatibility\n        emit Transfer(owner, address(0), wizardId);\n    }\n\n    /// @notice Internal function to burn a specific Wizard.\n    /// Reverts if the Wizard does not exist.\n    /// @param wizardId ID of the Wizard being burned\n    function _burn(uint256 wizardId) internal {\n        _burn(ownerOf(wizardId), wizardId);\n    }\n\n    /// @notice Internal function to transfer ownership of a given Wizard to another address.\n    /// As opposed to transferFrom, this imposes no restrictions on msg.sender.\n    /// @param from current owner of the Wizard.\n    /// @param to address to receive the ownership of the given Wizard\n    /// @param wizardId ID of the Wizard to be transferred\n    function _transferFrom(address from, address to, uint256 wizardId) internal {\n        require(ownerOf(wizardId) == from, \"ERC721: transfer of token that is not own\");\n        require(to != address(0), \"ERC721: transfer to the zero address\");\n\n        _clearApproval(wizardId);\n\n        ownedWizardsCount[from]--;\n        ownedWizardsCount[to]++;\n\n        wizardsById[wizardId].owner = to;\n\n        emit Transfer(from, to, wizardId);\n    }\n\n    /// @notice Internal function to invoke `onERC721Received` on a target address.\n    /// The call is not executed if the target address is not a contract\n    /// @param from address representing the previous owner of the given Wizard\n    /// @param to target address that will receive the Wizards.\n    /// @param wizardId ID of the Wizard to be transferred\n    /// @param _data bytes optional data to send along with the call\n    /// @return bool whether the call correctly returned the expected magic value\n    function _checkOnERC721Received(address from, address to, uint256 wizardId, bytes memory _data)\n        internal returns (bool)\n    {\n        if (!isContract(to)) {\n            return true;\n        }\n\n        bytes4 retval = IERC721Receiver(to).onERC721Received(msg.sender, from, wizardId, _data);\n        return (retval == _ERC721_RECEIVED);\n    }\n\n    /// @notice Private function to clear current approval of a given Wizard.\n    /// @param wizardId ID of the Wizard to be transferred\n    function _clearApproval(uint256 wizardId) private {\n        if (wizardApprovals[wizardId] != address(0)) {\n            wizardApprovals[wizardId] = address(0);\n        }\n    }\n}\n\n\n\n\n\ncontract WizardGuildInterfaceId {\n    bytes4 internal constant _INTERFACE_ID_WIZARDGUILD = 0x41d4d437;\n}\n\n/// @title The public interface of the Wizard Guild\n/// @notice The methods listed in this interface (including the inherited ERC-721 interface),\n///         make up the public interface of the Wizard Guild contract. Any contracts that wish\n///         to make use of Cheeze Wizard NFTs (such as Cheeze Wizards Tournaments!) should use\n///         these methods to ensure they are working correctly with the base NFTs.\ncontract WizardGuildInterface is IERC721, WizardGuildInterfaceId {\n\n    /// @notice Returns the information associated with the given Wizard\n    ///         owner - The address that owns this Wizard\n    ///         innatePower - The innate power level of this Wizard, set when minted and entirely\n    ///               immutable\n    ///         affinity - The Elemental Affinity of this Wizard. For most Wizards, this is set\n    ///               when they are minted, but some exclusive Wizards are minted with an affinity\n    ///               of 0 (ELEMENT_NOTSET). A Wizard with an NOTSET affinity should NOT be able\n    ///               to participate in Tournaments. Once the affinity of a Wizard is set to a non-zero\n    ///               value, it can never be changed again.\n    ///         metadata - A 256-bit hash of the Wizard's metadata, which is stored off chain. This\n    ///               contract doesn't specify format of this hash, nor the off-chain storage mechanism\n    ///               but, let's be honest, it's probably an IPFS SHA-256 hash.\n    ///\n    ///         NOTE: Series zero Wizards have one of four Affinities:  Neutral (1), Fire (2), Water (3)\n    ///               or Air (4, sometimes called \"Wind\" in the code). Future Wizard Series may have\n    ///               additional Affinities, and clients of this API should be prepared for that\n    ///               eventuality.\n    function getWizard(uint256 id) external view returns (address owner, uint88 innatePower, uint8 affinity, bytes32 metadata);\n\n    /// @notice Sets the affinity for a Wizard that doesn't already have its elemental affinity chosen.\n    ///         Only usable for Exclusive Wizards (all non-Exclusives must have their affinity chosen when\n    ///         conjured.) Even Exclusives can't change their affinity once it's been chosen.\n    ///\n    ///         NOTE: This function can only be called by the series minter, and (therefore) only while the\n    ///         series is open. A Wizard that has no affinity when a series is closed will NEVER have an Affinity.\n    ///         BTW- This implies that a minter is responsible for either never minting ELEMENT_NOTSET\n    ///         Wizards, or having some public mechanism for a Wizard owner to set the Affinity after minting.\n    /// @param wizardId The id of the wizard\n    /// @param newAffinity The new affinity of the wizard\n    function setAffinity(uint256 wizardId, uint8 newAffinity) external;\n\n    /// @notice A function to be called that conjures a whole bunch of Wizards at once! You know how\n    ///         there's \"a pride of lions\", \"a murder of crows\", and \"a parliament of owls\"? Well, with this\n    ///         here function you can conjure yourself \"a stench of Cheeze Wizards\"!\n    ///\n    ///         Unsurprisingly, this method can only be called by the registered minter for a Series.\n    /// @param powers the power level of each wizard\n    /// @param affinities the Elements of the wizards to create\n    /// @param owner the address that will own the newly created Wizards\n    function mintWizards(\n        uint88[] calldata powers,\n        uint8[] calldata affinities,\n        address owner\n        ) external returns (uint256[] memory wizardIds);\n\n    /// @notice A function to be called that conjures a series of Wizards in the reserved ID range.\n    /// @param wizardIds the ID values to use for each Wizard, must be in the reserved range of the current Series\n    /// @param affinities the Elements of the wizards to create\n    /// @param powers the power level of each wizard\n    /// @param owner the address that will own the newly created Wizards\n    function mintReservedWizards(\n        uint256[] calldata wizardIds,\n        uint88[] calldata powers,\n        uint8[] calldata affinities,\n        address owner\n        ) external;\n\n    /// @notice Sets the metadata values for a list of Wizards. The metadata for a Wizard can only be set once,\n    ///         can only be set by the COO or Minter, and can only be set while the Series is still open. Once\n    ///         a Series is closed, the metadata is locked forever!\n    /// @param wizardIds the ID values of the Wizards to apply metadata changes to.\n    /// @param metadata the raw metadata values for each Wizard. This contract does not define how metadata\n    ///         should be interpreted, but it is likely to be a 256-bit hash of a complete metadata package\n    ///         accessible via IPFS or similar.\n    function setMetadata(uint256[] calldata wizardIds, bytes32[] calldata metadata) external;\n\n    /// @notice Returns true if the given \"spender\" address is allowed to manipulate the given token\n    ///         (either because it is the owner of that token, has been given approval to manage that token)\n    function isApprovedOrOwner(address spender, uint256 tokenId) external view returns (bool);\n\n    /// @notice Verifies that a given signature represents authority to control the given Wizard ID,\n    ///         reverting otherwise. It handles three cases:\n    ///             - The simplest case: The signature was signed with the private key associated with\n    ///               an external address that is the owner of this Wizard.\n    ///             - The signature was generated with the private key associated with an external address\n    ///               that is \"approved\" for working with this Wizard ID. (See the Wizard Guild and/or\n    ///               the ERC-721 spec for more information on \"approval\".)\n    ///             - The owner or approval address (as in cases one or two) is a smart contract\n    ///               that conforms to ERC-1654, and accepts the given signature as being valid\n    ///               using its own internal logic.\n    ///\n    ///        NOTE: This function DOES NOT accept a signature created by an address that was given \"operator\n    ///               status\" (as granted by ERC-721's setApprovalForAll() functionality). Doing so is\n    ///               considered an extreme edge case that can be worked around where necessary.\n    /// @param wizardId The Wizard ID whose control is in question\n    /// @param hash The message hash we are authenticating against\n    /// @param sig the signature data; can be longer than 65 bytes for ERC-1654\n    function verifySignature(uint256 wizardId, bytes32 hash, bytes calldata sig) external view;\n\n    /// @notice Convenience function that verifies signatures for two wizards using equivalent logic to\n    ///         verifySignature(). Included to save on cross-contract calls in the common case where we\n    ///         are verifying the signatures of two Wizards who wish to enter into a Duel.\n    /// @param wizardId1 The first Wizard ID whose control is in question\n    /// @param wizardId2 The second Wizard ID whose control is in question\n    /// @param hash1 The message hash we are authenticating against for the first Wizard\n    /// @param hash2 The message hash we are authenticating against for the first Wizard\n    /// @param sig1 the signature data corresponding to the first Wizard; can be longer than 65 bytes for ERC-1654\n    /// @param sig2 the signature data corresponding to the second Wizard; can be longer than 65 bytes for ERC-1654\n    function verifySignatures(\n        uint256 wizardId1,\n        uint256 wizardId2,\n        bytes32 hash1,\n        bytes32 hash2,\n        bytes calldata sig1,\n        bytes calldata sig2) external view;\n}\n\n\n\n/// @title Contract that manages addresses and access modifiers for certain operations.\n/// @author Dapper Labs Inc. (https://www.dapperlabs.com)\ncontract AccessControl {\n\n    /// @dev The address of the master administrator account that has the power to\n    ///      update itself and all of the other administrator addresses.\n    ///      The CEO account is not expected to be used regularly, and is intended to\n    ///      be stored offline (i.e. a hardware device kept in a safe).\n    address public ceoAddress;\n\n    /// @dev The address of the \"day-to-day\" operator of various privileged\n    ///      functions inside the smart contract. Although the CEO has the power\n    ///      to replace the COO, the CEO address doesn't actually have the power\n    ///      to do \"COO-only\" operations. This is to discourage the regular use\n    ///      of the CEO account.\n    address public cooAddress;\n\n    /// @dev The address that is allowed to move money around. Kept separate from\n    ///      the COO because the COO address typically lives on an internet-connected\n    ///      computer.\n    address payable public cfoAddress;\n\n    // Events to indicate when access control role addresses are updated.\n    event CEOTransferred(address previousCeo, address newCeo);\n    event COOTransferred(address previousCoo, address newCoo);\n    event CFOTransferred(address previousCfo, address newCfo);\n\n    /// @dev The AccessControl constructor sets the `ceoAddress` to the sender account. Also\n    ///      initializes the COO and CFO to the passed values (CFO is optional and can be address(0)).\n    /// @param newCooAddress The initial COO address to set\n    /// @param newCfoAddress The initial CFO to set (optional)\n    constructor(address newCooAddress, address payable newCfoAddress) public {\n        _setCeo(msg.sender);\n        setCoo(newCooAddress);\n\n        if (newCfoAddress != address(0)) {\n            setCfo(newCfoAddress);\n        }\n    }\n\n    /// @notice Access modifier for CEO-only functionality\n    modifier onlyCEO() {\n        require(msg.sender == ceoAddress, \"Only CEO\");\n        _;\n    }\n\n    /// @notice Access modifier for COO-only functionality\n    modifier onlyCOO() {\n        require(msg.sender == cooAddress, \"Only COO\");\n        _;\n    }\n\n    /// @notice Access modifier for CFO-only functionality\n    modifier onlyCFO() {\n        require(msg.sender == cfoAddress, \"Only CFO\");\n        _;\n    }\n\n    function checkControlAddress(address newController) internal view {\n        require(newController != address(0) && newController != ceoAddress, \"Invalid CEO address\");\n    }\n\n    /// @notice Assigns a new address to act as the CEO. Only available to the current CEO.\n    /// @param newCeo The address of the new CEO\n    function setCeo(address newCeo) external onlyCEO {\n        checkControlAddress(newCeo);\n        _setCeo(newCeo);\n    }\n\n    /// @dev An internal utility function that updates the CEO variable and emits the\n    ///      transfer event. Used from both the public setCeo function and the constructor.\n    function _setCeo(address newCeo) private {\n        emit CEOTransferred(ceoAddress, newCeo);\n        ceoAddress = newCeo;\n    }\n\n    /// @notice Assigns a new address to act as the COO. Only available to the current CEO.\n    /// @param newCoo The address of the new COO\n    function setCoo(address newCoo) public onlyCEO {\n        checkControlAddress(newCoo);\n        emit COOTransferred(cooAddress, newCoo);\n        cooAddress = newCoo;\n    }\n\n    /// @notice Assigns a new address to act as the CFO. Only available to the current CEO.\n    /// @param newCfo The address of the new CFO\n    function setCfo(address payable newCfo) public onlyCEO {\n        checkControlAddress(newCfo);\n        emit CFOTransferred(cfoAddress, newCfo);\n        cfoAddress = newCfo;\n    }\n}\n\n\n\n\n/// @title Signature utility library\nlibrary SigTools {\n\n    /// @notice Splits a signature into r & s values, and v (the verification value).\n    /// @dev Note: This does not verify the version, but does require signature length = 65\n    /// @param signature the packed signature to be split\n    function _splitSignature(bytes memory signature) internal pure returns (bytes32 r, bytes32 s, uint8 v) {\n        // Check signature length\n        require(signature.length == 65, \"Invalid signature length\");\n\n        // We need to unpack the signature, which is given as an array of 65 bytes (like eth.sign)\n        // solium-disable-next-line security/no-inline-assembly\n        assembly {\n            r := mload(add(signature, 32))\n            s := mload(add(signature, 64))\n            v := and(mload(add(signature, 65)), 255)\n        }\n\n        if (v < 27) {\n            v += 27; // Ethereum versions are 27 or 28 as opposed to 0 or 1 which is submitted by some signing libs\n        }\n\n        // check for valid version\n        // removed for now, done in another function\n        //require((v == 27 || v == 28), \"Invalid signature version\");\n\n        return (r, s, v);\n    }\n}\n\n\n\ncontract ERC1654 {\n\n    /// @dev bytes4(keccak256(\"isValidSignature(bytes32,bytes)\")\n    bytes4 public constant ERC1654_VALIDSIGNATURE = 0x1626ba7e;\n\n    /// @dev Should return whether the signature provided is valid for the provided data\n    /// @param hash 32-byte hash of the data that is signed\n    /// @param _signature Signature byte array associated with _data\n    ///  MUST return the bytes4 magic value 0x1626ba7e when function passes.\n    ///  MUST NOT modify state (using STATICCALL for solc < 0.5, view modifier for solc > 0.5)\n    ///  MUST allow external calls\n    function isValidSignature(\n        bytes32 hash,\n        bytes calldata _signature)\n        external\n        view\n        returns (bytes4);\n}\n\n\n/// @title The master organization behind all Cheeze Wizardry. The source of all them Wiz.\ncontract WizardGuild is AccessControl, WizardNFT, WizardGuildInterface, ERC165Query {\n\n    /// @notice Emitted when a new Series is opened or closed.\n    event SeriesOpen(uint64 seriesIndex, uint256 reservedIds);\n    event SeriesClose(uint64 seriesIndex);\n\n    /// @notice Emitted when metadata is associated with a Wizard\n    event MetadataSet(uint256 indexed wizardId, bytes32 metadata);\n\n    /// @notice The index of the current Series (zero-based). When no Series is open, this value\n    ///         indicates the index of the _upcoming_ Series. (i.e. it is incremented when the\n    ///         Series is closed. This makes it easier to bootstrap the first Series.)\n    uint64 internal seriesIndex;\n\n    /// @notice The address which is allowed to mint new Wizards in the current Series. When this\n    ///         is set to address(0), there is no open Series.\n    address internal seriesMinter;\n\n    /// @notice The index number of the next Wizard to be created (Neutral or Elemental).\n    ///         NOTE: There is a subtle distinction between a Wizard \"ID\" and a Wizard \"index\".\n    ///               We use the term \"ID\" to refer to a value that includes the Series number in the\n    ///               top 64 bits, while the term \"index\" refers to the Wizard number _within_ its\n    ///               Series. This is especially confusing when talking about Wizards in the first\n    ///               Series (Series 0), because the two values are identical in that case!\n    ///\n    ///               |---------------|--------------------------|\n    ///               |           Wizard ID (256 bits)           |\n    ///               |---------------|--------------------------|\n    ///               |  Series Index |      Wizard Index        |\n    ///               |   (64 bits)   |       (192 bits)         |\n    ///               |---------------|--------------------------|\n    uint256 internal nextWizardIndex;\n\n    function getNextWizardIndex() external view returns (uint256) {\n        return nextWizardIndex;\n    }\n\n    // NOTE: uint256(-1) maps to a value with all bits set, both the << and >> operators will fill\n    // in with zeros when acting on an unsigned value. So, \"uint256(-1) << 192\" resolves to \"a bunch\n    /// of ones, followed by 192 zeros\"\n    uint256 internal constant SERIES_OFFSET = 192;\n    uint256 internal constant SERIES_MASK = uint256(-1) << SERIES_OFFSET;\n    uint256 internal constant INDEX_MASK = uint256(-1) >> 64;\n\n    // The ERC1654 function selector value\n    bytes4 internal constant ERC1654_VALIDSIGNATURE = 0x1626ba7e;\n\n    \n     constructor() public AccessControl(address(this), address(0)) {\n    }\n\n    /// @notice Require that a Tournament Series is currently open. For example closing\n    ///         a Series does not make sense if none is open.\n    /// @dev While in other contracts we use separate checking functions to avoid having the same\n    ///      string inlined in multiple places, given this modifier is scarcely used it doesn't seem\n    ///      worth the per-call gas cost here.\n    modifier duringSeries() {\n        require(seriesMinter != address(0), \"No series is currently open\");\n        _;\n    }\n\n    /// @notice Require that the caller is the minter of the current series. This implicitely\n    ///         requires that a Series is open, or the minter address would be invalid (can never\n    ///         be matched).\n    /// @dev While in other contracts we use separate checking functions to avoid having the same\n    ///      string inlined in multiple places, given this modifier is scarcely used it doesn't seem\n    ///      worth the per-call gas cost here.\n    modifier onlyMinter() {\n        require(msg.sender == seriesMinter, \"Only callable by minter\");\n        _;\n    }\n\n    /// @notice Open a new Series of Cheeze Wizards! Can only be called by the COO when no Series is open.\n    /// @param minter The address which is allowed to mint Wizards in this series. This contract does not\n    ///         assume that the minter is a smart contract, but it will presumably be in the vast majority\n    ///         of the cases. A minter has absolute control over the creation of new Wizards in an open\n    ///         Series, but CAN NOT manipulate a Series after it has been closed, and CAN NOT manipulate\n    ///         any Wizards that don't belong to its own Series. (Even if the same minting address is used\n    ///         for multiple Series, the Minter only has power over the currently open Series.)\n    /// @param reservedIds The number of IDs (from 1 to reservedIds, inclusive) that are reserved for minting\n    ///         reserved Wizards. (We use the term \"reserved\" here, instead of Exclusive, because there\n    ///         are times -- such as during the importation of the Presale -- when we need to reserve a\n    ///         block of IDs for Wizards that aren't what a user would think of as \"exclusive\". In Series\n    ///         0, the reserved IDs will include all Exclusive Wizards and Presale Wizards. In other Series\n    ///         it might also be the case that the set of \"reserved IDs\" doesn't exactly match the set of\n    ///         \"exclusive\" IDs.)\n    function openSeries(address minter, uint256 reservedIds) external returns (uint64 seriesId) {\n        require(seriesMinter == address(0), \"A series is already open\");\n        require(minter != address(0), \"Minter address cannot be 0\");\n\n        if (seriesIndex == 0) {\n            // The Presale contract has stopped sales.\n            // The ID of the last wizard sold in the Presale contract is 5974.\n            // So the reservedIds for the first series is hardcoded with that ID in order to ensure:\n            // 1) The next Wizard minted will have its ID continued from the last Presale Wizard.\n            // 2) All the Presale wizards can be minted in this contract with their IDs reserved.\n            require(reservedIds == 5974, \"Invalid reservedIds for 1st series\");\n        } else {\n            require(reservedIds < 1 << 192, \"Invalid reservedIds\");\n        }\n\n        // NOTE: The seriesIndex is updated when the Series is _closed_, not when it's opened.\n        //  (The first Series is Series #0.) So in this function, we just leave the seriesIndex alone.\n\n        seriesMinter = minter;\n        nextWizardIndex = reservedIds + 1;\n\n        emit SeriesOpen(seriesIndex, reservedIds);\n\n        return seriesIndex;\n    }\n\n    /// @notice Closes the current Wizard Series. Once a Series has been closed, it is forever sealed and\n    ///         no more Wizards in that Series can ever be minted! Can only be called by the COO when a Series\n    ///         is open.\n    ///\n    ///    NOTE: A series can be closed by the COO or the Minter. (It's assumed that some minters will\n    ///          know when they are done, and others will need to be shut off manually by the COO.)\n    function closeSeries() external duringSeries {\n        require(\n            msg.sender == seriesMinter || msg.sender == cooAddress,\n            \"Only Minter or COO can close a Series\");\n\n        seriesMinter = address(0);\n        emit SeriesClose(seriesIndex);\n\n        // Set up the next series.\n        seriesIndex += 1;\n        nextWizardIndex = 0;\n    }\n\n    /// @notice ERC-165 Query Function.\n    function supportsInterface(bytes4 interfaceId) public view returns (bool) {\n        return interfaceId == _INTERFACE_ID_WIZARDGUILD || super.supportsInterface(interfaceId);\n    }\n\n    /// @notice Returns the information associated with the given Wizard\n    ///         owner - The address that owns this Wizard\n    ///         innatePower - The innate power level of this Wizard, set when minted and entirely\n    ///               immutable\n    ///         affinity - The Elemental Affinity of this Wizard. For most Wizards, this is set\n    ///               when they are minted, but some exclusive Wizards are minted with an affinity\n    ///               of 0 (ELEMENT_NOTSET). A Wizard with an NOTSET affinity should NOT be able\n    ///               to participate in Tournaments. Once the affinity of a Wizard is set to a non-zero\n    ///               value, it can never be changed again.\n    ///         metadata - A 256-bit hash of the Wizard's metadata, which is stored off chain. This\n    ///               contract doesn't specify format of this hash, nor the off-chain storage mechanism\n    ///               but, let's be honest, it's probably an IPFS SHA-256 hash.\n    ///\n    ///         NOTE: Series zero Wizards have one of four Affinities:  Neutral (1), Fire (2), Water (3)\n    ///               or Air (4, sometimes called \"Wind\" in the code). Future Wizard Series may have\n    ///               additional Affinities, and clients of this API should be prepared for that\n    ///               eventuality.\n    function getWizard(uint256 id) public view returns (address owner, uint88 innatePower, uint8 affinity, bytes32 metadata) {\n        Wizard memory wizard = wizardsById[id];\n        require(wizard.owner != address(0), \"Wizard does not exist\");\n        (owner, innatePower, affinity, metadata) = (wizard.owner, wizard.innatePower, wizard.affinity, wizard.metadata);\n    }\n\n    /// @notice A function to be called that conjures a whole bunch of Wizards at once! You know how\n    ///         there's \"a pride of lions\", \"a murder of crows\", and \"a parliament of owls\"? Well, with this\n    ///         here function you can conjure yourself \"a stench of Cheeze Wizards\"!\n    ///\n    ///         Unsurprisingly, this method can only be called by the registered minter for a Series.\n    /// @dev This function DOES NOT CALL onERC721Received() as required by the ERC-721 standard. It is\n    ///         REQUIRED that the Minter calls onERC721Received() after calling this function. The following\n    ///         code snippet should suffice:\n    ///                 // Ensure the Wizard is being assigned to an ERC-721 aware address (either an external address,\n    ///                 // or a smart contract that implements onERC721Received()). We must call onERC721Received for\n    ///                 // each token created because it's allowed for an ERC-721 receiving contract to reject the\n    ///                 // transfer based on the properties of the token.\n    ///                 if (isContract(owner)) {\n    ///                     for (uint256 i = 0; i < wizardIds.length; i++) {\n    ///                         bytes4 retval = IERC721Receiver(owner).onERC721Received(owner, address(0), wizardIds[i], \"\");\n    ///                         require(retval == _ERC721_RECEIVED, \"Contract owner didn't accept ERC721 transfer\");\n    ///                     }\n    ///                 }\n    ///        Although it would be convenient for mintWizards to call onERC721Received, it opens us up to potential\n    ///        reentrancy attacks if the Minter needs to do more state updates after mintWizards() returns.\n    /// @param powers the power level of each wizard\n    /// @param affinities the Elements of the wizards to create\n    /// @param owner the address that will own the newly created Wizards\n    function mintWizards(\n        uint88[] calldata powers,\n        uint8[] calldata affinities,\n        address owner\n    ) external returns (uint256[] memory wizardIds)\n    {\n        require(affinities.length == powers.length, \"Inconsistent parameter lengths\");\n\n        // allocate result array\n        wizardIds = new uint256[](affinities.length);\n\n        // We take this storage variables, and turn it into a local variable for the course\n        // of this loop to save about 5k gas per wizard.\n        uint256 tempWizardId = (uint256(seriesIndex) << SERIES_OFFSET) + nextWizardIndex;\n\n        for (uint256 i = 0; i < affinities.length; i++) {\n            wizardIds[i] = tempWizardId;\n            tempWizardId++;\n\n            _createWizard(wizardIds[i], owner, powers[i], affinities[i]);\n        }\n\n        nextWizardIndex = tempWizardId & INDEX_MASK;\n    }\n\n    /// @notice A function to be called that mints a Series of Wizards in the reserved ID range, can only\n    ///         be called by the Minter for this Series.\n    /// @dev This function DOES NOT CALL onERC721Received() as required by the ERC-721 standard. It is\n    ///         REQUIRED that the Minter calls onERC721Received() after calling this function. See the note\n    ///         above on mintWizards() for more info.\n    /// @param wizardIds the ID values to use for each Wizard, must be in the reserved range of the current Series.\n    /// @param powers the power level of each Wizard.\n    /// @param affinities the Elements of the Wizards to create.\n    /// @param owner the address that will own the newly created Wizards.\n    function mintReservedWizards(\n        uint256[] calldata wizardIds,\n        uint88[] calldata powers,\n        uint8[] calldata affinities,\n        address owner\n    )\n    external onlyMinter\n    {\n        require(\n            wizardIds.length == affinities.length &&\n            wizardIds.length == powers.length, \"Inconsistent parameter lengths\");\n\n        for (uint256 i = 0; i < wizardIds.length; i++) {\n            uint256 currentId = wizardIds[i];\n\n            require((currentId & SERIES_MASK) == (uint256(seriesIndex) << SERIES_OFFSET), \"Wizards not in current series\");\n            require((currentId & INDEX_MASK) > 0, \"Wizards id cannot be zero\");\n\n            // Ideally, we would compare the requested Wizard index against the reserved range directly. However,\n            // it's a bit wasteful to spend storage on a reserved range variable when we can combine some known\n            // true facts instead:\n            //         - nextWizardIndex is initialized to reservedRange + 1 when the Series was opened\n            //         - nextWizardIndex is only incremented when a new Wizard is created\n            //         - therefore, the only empty Wizard IDs less than nextWizardIndex are in the reserved range.\n            //         - _conjureWizard() will abort if we try to reuse an ID.\n            // Combining all of the above, we know that, if the requested index is less than the next index, it\n            // either points to a reserved slot or an occupied slot. Trying to reuse an occupied slot will fail,\n            // so just checking against nextWizardIndex is sufficient to ensure we're pointing at a reserved slot.\n            require((currentId & INDEX_MASK) < nextWizardIndex, \"Wizards not in reserved range\");\n\n            _createWizard(currentId, owner, powers[i], affinities[i]);\n        }\n    }\n\n    /// @notice Sets the metadata values for a list of Wizards. The metadata for a Wizard can only be set once,\n    ///         can only be set by the COO or Minter, and can only be set while the Series is still open. Once\n    ///         a Series is closed, the metadata is locked forever!\n    /// @param wizardIds the ID values of the Wizards to apply metadata changes to.\n    /// @param metadata the raw metadata values for each Wizard. This contract does not define how metadata\n    ///         should be interpreted, but it is likely to be a 256-bit hash of a complete metadata package\n    ///         accessible via IPFS or similar.\n    function setMetadata(uint256[] calldata wizardIds, bytes32[] calldata metadata) external duringSeries {\n        require(msg.sender == seriesMinter || msg.sender == cooAddress, \"Only Minter or COO can set metadata\");\n        require(wizardIds.length == metadata.length, \"Inconsistent parameter lengths\");\n\n        for (uint256 i = 0; i < wizardIds.length; i++) {\n            uint256 currentId = wizardIds[i];\n            bytes32 currentMetadata = metadata[i];\n\n            require((currentId & SERIES_MASK) == (uint256(seriesIndex) << SERIES_OFFSET), \"Wizards not in current series\");\n\n            require(wizardsById[currentId].metadata == bytes32(0), \"Metadata already set\");\n\n            require(currentMetadata != bytes32(0), \"Invalid metadata\");\n\n            wizardsById[currentId].metadata = currentMetadata;\n\n            emit MetadataSet(currentId, currentMetadata);\n        }\n    }\n\n    /// @notice Sets the affinity for a Wizard that doesn't already have its elemental affinity chosen.\n    ///         Only usable for Exclusive Wizards (all non-Exclusives must have their affinity chosen when\n    ///         conjured.) Even Exclusives can't change their affinity once it's been chosen.\n    ///\n    ///         NOTE: This function can only be called by the Series minter, and (therefore) only while the\n    ///         Series is open. A Wizard that has no affinity when a Series is closed will NEVER have an Affinity.\n    /// @param wizardId The ID of the Wizard to update affinity of.\n    /// @param newAffinity The new affinity of the Wizard.\n    function setAffinity(uint256 wizardId, uint8 newAffinity) external onlyMinter {\n        require((wizardId & SERIES_MASK) == (uint256(seriesIndex) << SERIES_OFFSET), \"Wizard not in current series\");\n\n        Wizard storage wizard = wizardsById[wizardId];\n\n        require(wizard.affinity == ELEMENT_NOTSET, \"Affinity can only be chosen once\");\n\n        // set the affinity\n        wizard.affinity = newAffinity;\n\n        // Tell the world this wizards now has an affinity!\n        emit WizardAffinityAssigned(wizardId, newAffinity);\n    }\n\n    /// @notice Returns true if the given \"spender\" address is allowed to manipulate the given token\n    ///         (either because it is the owner of that token, has been given approval to manage that token)\n    function isApprovedOrOwner(address spender, uint256 tokenId) external view returns (bool) {\n        return _isApprovedOrOwner(spender, tokenId);\n    }\n\n    /// @notice Verifies that a given signature represents authority to control the given Wizard ID,\n    ///         reverting otherwise. It handles three cases:\n    ///             - The simplest case: The signature was signed with the private key associated with\n    ///               an external address that is the owner of this Wizard.\n    ///             - The signature was generated with the private key associated with an external address\n    ///               that is \"approved\" for working with this Wizard ID. (See the Wizard Guild and/or\n    ///               the ERC-721 spec for more information on \"approval\".)\n    ///             - The owner or approval address (as in cases one or two) is a smart contract\n    ///               that conforms to ERC-1654, and accepts the given signature as being valid\n    ///               using its own internal logic.\n    ///\n    ///        NOTE: This function DOES NOT accept a signature created by an address that was given \"operator\n    ///               status\" (as granted by ERC-721's setApprovalForAll() functionality). Doing so is\n    ///               considered an extreme edge case that can be worked around where necessary.\n    /// @param wizardId The Wizard ID whose control is in question\n    /// @param hash The message hash we are authenticating against\n    /// @param sig the signature data; can be longer than 65 bytes for ERC-1654\n    function verifySignature(uint256 wizardId, bytes32 hash, bytes memory sig) public view {\n        // First see if the signature belongs to the owner (the most common case)\n        address owner = ownerOf(wizardId);\n\n        if (_validSignatureForAddress(owner, hash, sig)) {\n            return;\n        }\n\n        // Next check if the signature belongs to the approved address\n        address approved = getApproved(wizardId);\n\n        if (_validSignatureForAddress(approved, hash, sig)) {\n            return;\n        }\n\n        revert(\"Invalid signature\");\n    }\n\n    /// @notice Convenience function that verifies signatures for two wizards using equivalent logic to\n    ///         verifySignature(). Included to save on cross-contract calls in the common case where we\n    ///         are verifying the signatures of two Wizards who wish to enter into a Duel.\n    /// @param wizardId1 The first Wizard ID whose control is in question\n    /// @param wizardId2 The second Wizard ID whose control is in question\n    /// @param hash1 The message hash we are authenticating against for the first Wizard\n    /// @param hash2 The message hash we are authenticating against for the first Wizard\n    /// @param sig1 the signature data corresponding to the first Wizard; can be longer than 65 bytes for ERC-1654\n    /// @param sig2 the signature data corresponding to the second Wizard; can be longer than 65 bytes for ERC-1654\n    function verifySignatures(\n        uint256 wizardId1,\n        uint256 wizardId2,\n        bytes32 hash1,\n        bytes32 hash2,\n        bytes calldata sig1,\n        bytes calldata sig2) external view\n    {\n        verifySignature(wizardId1, hash1, sig1);\n        verifySignature(wizardId2, hash2, sig2);\n    }\n\n    /// @notice An internal function that checks if a given signature is a valid signature for a\n    ///         specific address on a particular hash value. Checks for ERC-1654 compatibility\n    ///         first (where the possibleSigner is a smart contract that implements its own\n    ///         signature validation), and falls back to ecrecover() otherwise.\n    function _validSignatureForAddress(address possibleSigner, bytes32 hash, bytes memory signature)\n        internal view returns(bool)\n    {\n        if (possibleSigner == address(0)) {\n            // The most basic Bozo check: The zero address can never be a valid signer!\n            return false;\n        } else if (Address.isContract(possibleSigner)) {\n            // If the address is a contract, it either implements ERC-1654 (and will validate the signature\n            // itself), or we have no way of confirming that this signature matches this address. In other words,\n            // if this address is a contract, there's no point in \"falling back\" to ecrecover().\n            if (doesContractImplementInterface(possibleSigner, ERC1654_VALIDSIGNATURE)) {\n                // cast to ERC1654\n                ERC1654 tso = ERC1654(possibleSigner);\n                bytes4 result = tso.isValidSignature(hash, signature);\n                if (result == ERC1654_VALIDSIGNATURE) {\n                    return true;\n                }\n            }\n\n            return false;\n        } else {\n            // Not a contract, check for a match against an external address\n            // assume EIP 191 signature here\n            (bytes32 r, bytes32 s, uint8 v) = SigTools._splitSignature(signature);\n            address signer = ecrecover(keccak256(abi.encodePacked(\"\\x19Ethereum Signed Message:\\n32\", hash)), v, r, s);\n\n            // Note: Signer could be address(0) here, but we already checked that possibleSigner isn't zero\n            return (signer == possibleSigner);\n        }\n    }\n\n}\n",
  "sourcePath": "/src/contracts/WizardGuild.sol",
  "compiler": {
    "name": "solc",
    "version": "0.5.6+commit.b259423e.Emscripten.clang"
  },
  "schemaVersion": "3.0.14",
  "updatedAt": "2019-11-10T03:28:43.124Z",
  "devdoc": {
    "methods": {
      "approve(address,uint256)": {
        "params": {
          "to": "address to be approved for the given Wizard",
          "wizardId": "ID of the Wizard to be approved"
        }
      },
      "balanceOf(address)": {
        "params": {
          "owner": "Address to query the balance of."
        },
        "return": "uint256 representing the amount of Wizards owned by the address."
      },
      "getApproved(uint256)": {
        "params": {
          "wizardId": "ID of the Wizard to query the approval of"
        },
        "return": "address currently approved for the given Wizard"
      },
      "isApprovedForAll(address,address)": {
        "params": {
          "operator": "operator address which you want to query the approval of",
          "owner": "owner address which you want to query the approval of"
        },
        "return": "bool whether the given operator is approved by the given owner"
      },
      "ownerOf(uint256)": {
        "params": {
          "wizardId": "ID of the Wizard to query the owner of"
        },
        "return": "address currently marked as the owner of the given Wizard"
      },
      "safeTransferFrom(address,address,uint256)": {
        "params": {
          "from": "current owner of the Wizard.",
          "to": "address to receive the ownership of the given Wizard.",
          "wizardId": "ID of the Wizard to be transferred."
        }
      },
      "safeTransferFrom(address,address,uint256,bytes)": {
        "params": {
          "_data": "bytes data to send along with a safe transfer check",
          "from": "current owner of the Wizard.",
          "to": "address to receive the ownership of the given Wizard.",
          "wizardId": "ID of the Wizard to be transferred."
        }
      },
      "setApprovalForAll(address,bool)": {
        "params": {
          "approved": "representing the status of the approval to be set",
          "to": "operator address to set the approval"
        }
      },
      "supportsInterface(bytes4)": {
        "details": "Interface identification is specified in ERC-165. This function      uses less than 30,000 gas.",
        "params": {
          "interfaceId": "The interface identifier, as specified in ERC-165"
        }
      },
      "transferFrom(address,address,uint256)": {
        "params": {
          "from": "current owner of the Wizard.",
          "to": "address to receive the ownership of the given Wizard.",
          "wizardId": "ID of the Wizard to be transferred."
        }
      }
    },
    "title": "Wizard Non-Fungible Token"
  },
  "userdoc": {
    "methods": {
      "approve(address,uint256)": {
        "notice": "Approves another address to transfer the given Wizard The zero address indicates there is no approved address. There can only be one approved address per Wizard at a given time. Can only be called by the Wizard owner or an approved operator."
      },
      "balanceOf(address)": {
        "notice": "Gets the number of Wizards owned by the specified address."
      },
      "getApproved(uint256)": {
        "notice": "Gets the approved address for a Wizard, or zero if no address set Reverts if the Wizard does not exist."
      },
      "isApprovedForAll(address,address)": {
        "notice": "Tells whether an operator is approved by a given owner."
      },
      "ownerOf(uint256)": {
        "notice": "Gets the owner of the specified Wizard"
      },
      "safeTransferFrom(address,address,uint256)": {
        "notice": "Safely transfers the ownership of a given Wizard to another address If the target address is a contract, it must implement `onERC721Received`, which is called upon a safe transfer, and return the magic value `bytes4(keccak256(\"onERC721Received(address,address,uint256,bytes)\"))`; otherwise, the transfer is reverted. Requires the msg.sender to be the owner, approved, or operator."
      },
      "safeTransferFrom(address,address,uint256,bytes)": {
        "notice": "Safely transfers the ownership of a given Wizard to another address If the target address is a contract, it must implement `onERC721Received`, which is called upon a safe transfer, and return the magic value `bytes4(keccak256(\"onERC721Received(address,address,uint256,bytes)\"))`; otherwise, the transfer is reverted. Requires the msg.sender to be the owner, approved, or operator"
      },
      "setApprovalForAll(address,bool)": {
        "notice": "Sets or unsets the approval of a given operator. An operator is allowed to transfer all Wizards of the sender on their behalf."
      },
      "supportsInterface(bytes4)": {
        "notice": "Query if a contract implements an interface"
      },
      "transferFrom(address,address,uint256)": {
        "notice": "Transfers the ownership of a given Wizard to another address. Usage of this method is discouraged, use `safeTransferFrom` whenever possible. Requires the msg.sender to be the owner, approved, or operator."
      }
    },
    "notice": "The basic ERC-721 functionality for storing Cheeze Wizard NFTs.     Derived from: https://github.com/OpenZeppelin/openzeppelin-solidity/tree/v2.2.0"
  }
}