{
  "contractName": "WizardsERC721AddressesProvider",
  "abi": [
    {
      "constant": true,
      "inputs": [],
      "name": "wizardsERC721Address",
      "outputs": [
        {
          "name": "",
          "type": "address"
        }
      ],
      "payable": false,
      "stateMutability": "view",
      "type": "function"
    },
    {
      "inputs": [
        {
          "name": "_wizardsERC721ContractAddress",
          "type": "address"
        }
      ],
      "payable": false,
      "stateMutability": "nonpayable",
      "type": "constructor"
    },
    {
      "constant": false,
      "inputs": [
        {
          "name": "_wizardsERC721ContractAddress",
          "type": "address"
        }
      ],
      "name": "setWizardsERC721Address",
      "outputs": [],
      "payable": false,
      "stateMutability": "nonpayable",
      "type": "function"
    }
  ],
  "bytecode": "0x608060405234801561001057600080fd5b5060405160208061013c8339810180604052602081101561003057600080fd5b5051600080546001600160a01b039092166001600160a01b031990921691909117905560db806100616000396000f3fe6080604052348015600f57600080fd5b506004361060325760003560e01c8063c9f5764b146037578063f7cbe89b14605c575b600080fd5b605a60048036036020811015604b57600080fd5b50356001600160a01b0316607e565b005b606260a0565b604080516001600160a01b039092168252519081900360200190f35b600080546001600160a01b0319166001600160a01b0392909216919091179055565b6000546001600160a01b03168156fea165627a7a72305820d75da8a30fc3208c84aecd021d3ddc651a594cd8deaaa30f40b8cc7abef337300029",
  "source": "pragma solidity ^0.5.4;\n\ncontract WizardsERC721AddressesProvider {\n    address public wizardsERC721Address;\n\n    constructor(address _wizardsERC721ContractAddress) public {\n        wizardsERC721Address = _wizardsERC721ContractAddress;\n    }\n\n    function setWizardsERC721Address(address _wizardsERC721ContractAddress) external  {\n        wizardsERC721Address = _wizardsERC721ContractAddress;\n    }\n}",
  "sourcePath": "/src/contracts/WizardsERC721AddressesProvider.sol",
  "compiler": {
    "name": "solc",
    "version": "0.5.6+commit.b259423e.Emscripten.clang"
  },
  "schemaVersion": "3.0.14",
  "updatedAt": "2019-09-27T19:19:52.420Z",
  "devdoc": {
    "methods": {}
  },
  "userdoc": {
    "methods": {}
  }
}